{
  "contractName": "CompensationChamber",
  "abi": [
    {
      "inputs": [
        {
          "name": "timestampUntilNextVMrevision",
          "type": "uint256"
        }
      ],
      "payable": true,
      "stateMutability": "payable",
      "type": "constructor"
    },
    {
      "constant": false,
      "inputs": [
        {
          "name": "_name",
          "type": "string"
        },
        {
          "name": "_email",
          "type": "string"
        },
        {
          "name": "_clearingMemberAddress",
          "type": "address"
        },
        {
          "name": "_password",
          "type": "string"
        }
      ],
      "name": "addClearingMember",
      "outputs": [
        {
          "name": "",
          "type": "int256"
        }
      ],
      "payable": false,
      "stateMutability": "nonpayable",
      "type": "function"
    },
    {
      "constant": false,
      "inputs": [
        {
          "name": "_clearingMemberAddress",
          "type": "address"
        },
        {
          "name": "_email",
          "type": "string"
        }
      ],
      "name": "confirmClearingMember",
      "outputs": [],
      "payable": false,
      "stateMutability": "nonpayable",
      "type": "function"
    },
    {
      "constant": false,
      "inputs": [
        {
          "name": "_email",
          "type": "string"
        },
        {
          "name": "_password",
          "type": "string"
        }
      ],
      "name": "checkSignInEmailAndPassword",
      "outputs": [
        {
          "name": "addressID",
          "type": "int256"
        },
        {
          "name": "name",
          "type": "string"
        },
        {
          "name": "clearingMemberAddress",
          "type": "address"
        }
      ],
      "payable": false,
      "stateMutability": "nonpayable",
      "type": "function"
    },
    {
      "constant": false,
      "inputs": [
        {
          "name": "_longClearingMemberAddress",
          "type": "address"
        },
        {
          "name": "_shortClearingMemberAddress",
          "type": "address"
        },
        {
          "name": "_instrumentID",
          "type": "string"
        },
        {
          "name": "_amount",
          "type": "string"
        },
        {
          "name": "_price",
          "type": "string"
        },
        {
          "name": "_settlementTimestamp",
          "type": "uint256"
        },
        {
          "name": "_market",
          "type": "string"
        }
      ],
      "name": "futureNovation",
      "outputs": [],
      "payable": true,
      "stateMutability": "payable",
      "type": "function"
    },
    {
      "constant": true,
      "inputs": [],
      "name": "getMarketAddress",
      "outputs": [
        {
          "name": "",
          "type": "address"
        }
      ],
      "payable": false,
      "stateMutability": "view",
      "type": "function"
    },
    {
      "constant": false,
      "inputs": [
        {
          "name": "_value",
          "type": "uint256"
        },
        {
          "name": "_clearingMemberAddress",
          "type": "address"
        }
      ],
      "name": "paymentRequest",
      "outputs": [],
      "payable": false,
      "stateMutability": "nonpayable",
      "type": "function"
    },
    {
      "constant": false,
      "inputs": [],
      "name": "computeVariationMargin",
      "outputs": [],
      "payable": false,
      "stateMutability": "nonpayable",
      "type": "function"
    }
  ],
  "bytecode": "0x60806040526040516020806200797483398101806040526200002591908101906200010d565b336000806101000a81548173ffffffffffffffffffffffffffffffffffffffff021916908373ffffffffffffffffffffffffffffffffffffffff1602179055506729a2241af62c000062000078620000e6565b6040518091039082f08015801562000094573d6000803e3d6000fd5b509050600160006101000a81548173ffffffffffffffffffffffffffffffffffffffff021916908373ffffffffffffffffffffffffffffffffffffffff1602179055506000600a819055505062000143565b604051613e428062003b3283390190565b600062000105825162000139565b905092915050565b6000602082840312156200012057600080fd5b60006200013084828501620000f7565b91505092915050565b6000819050919050565b6139df80620001536000396000f3006080604052600436106200008b576000357c0100000000000000000000000000000000000000000000000000000000900463ffffffff16806352f82efd14620000905780636012102314620000b057806381af7ec614620000f65780638229be0914620001245780639cef7a5b146200013e578063d8f36758146200016c578063e7334fe514620001b0575b600080fd5b620000ae6004803603620000a8919081019062001823565b620001e0565b005b348015620000bd57600080fd5b50620000dc6004803603620000d69190810190620019ba565b620003ee565b604051620000ed9392919062001cd7565b60405180910390f35b3480156200010357600080fd5b506200012260048036036200011c919081019062001934565b62000895565b005b3480156200013157600080fd5b506200013c620009fc565b005b3480156200014b57600080fd5b506200016a600480360362000164919081019062001ae4565b62000b5b565b005b3480156200017957600080fd5b5062000198600480360362000192919081019062001a2d565b62000c7b565b604051620001a7919062001cba565b60405180910390f35b348015620001bd57600080fd5b50620001c86200113d565b604051620001d7919062001bb6565b60405180910390f35b6000806000809054906101000a900473ffffffffffffffffffffffffffffffffffffffff1673ffffffffffffffffffffffffffffffffffffffff163373ffffffffffffffffffffffffffffffffffffffff161415156200023f57600080fd5b600360008a73ffffffffffffffffffffffffffffffffffffffff1673ffffffffffffffffffffffffffffffffffffffff16815260200190815260200160002060009054906101000a900460ff169150600360008973ffffffffffffffffffffffffffffffffffffffff1673ffffffffffffffffffffffffffffffffffffffff16815260200190815260200160002060009054906101000a900460ff16905060011515821515148015620002f6575060011515811515145b80156200030b5750670de0b6b3a76400003410155b15156200031757600080fd5b6009348a8a8a8a8a8a600160009054906101000a900473ffffffffffffffffffffffffffffffffffffffff168b6200034e62001522565b6200036198979695949392919062001bd3565b6040518091039082f0801580156200037d573d6000803e3d6000fd5b50905090806001815401808255809150509060018203906000526020600020016000909192909190916101000a81548173ffffffffffffffffffffffffffffffffffffffff021916908373ffffffffffffffffffffffffffffffffffffffff16021790555050505050505050505050565b6000606060008060009054906101000a900473ffffffffffffffffffffffffffffffffffffffff1673ffffffffffffffffffffffffffffffffffffffff163373ffffffffffffffffffffffffffffffffffffffff161415156200045057600080fd5b600115156004866040518082805190602001908083835b6020831015156200048e578051825260208201915060208101905060208303925062000467565b6001836020036101000a038019825116818451168082178552505050505050905001915050908152602001604051809103902060009054906101000a900460ff16151514151562000519577fffffffffffffffffffffffffffffffffffffffffffffffffffffffffffffffff925060206040519081016040528060008152509150600090506200088e565b620006316005866040518082805190602001908083835b60208310151562000557578051825260208201915060208101905060208303925062000530565b6001836020036101000a03801982511681845116808217855250505050505090500191505090815260200160405180910390206003018054600181600116156101000203166002900480601f016020809104026020016040519081016040528092919081815260200182805460018160011615610100020316600290048015620006255780601f10620005f95761010080835404028352916020019162000625565b820191906000526020600020905b8154815290600101906020018083116200060757829003601f168201915b50505050508562001166565b1562000852576005856040518082805190602001908083835b6020831015156200067157805182526020820191506020810190506020830392506200064a565b6001836020036101000a03801982511681845116808217855250505050505090500191505090815260200160405180910390206004015492506005856040518082805190602001908083835b602083101515620006e45780518252602082019150602081019050602083039250620006bd565b6001836020036101000a03801982511681845116808217855250505050505090500191505090815260200160405180910390206000018054600181600116156101000203166002900480601f016020809104026020016040519081016040528092919081815260200182805460018160011615610100020316600290048015620007b25780601f106200078657610100808354040283529160200191620007b2565b820191906000526020600020905b8154815290600101906020018083116200079457829003601f168201915b505050505091506005856040518082805190602001908083835b602083101515620007f35780518252602082019150602081019050602083039250620007cc565b6001836020036101000a038019825116818451168082178552505050505050905001915050908152602001604051809103902060020160009054906101000a900473ffffffffffffffffffffffffffffffffffffffff1690506200088d565b7ffffffffffffffffffffffffffffffffffffffffffffffffffffffffffffffffe925060206040519081016040528060008152509150600090505b5b9250925092565b60011515600360008473ffffffffffffffffffffffffffffffffffffffff1673ffffffffffffffffffffffffffffffffffffffff16815260200190815260200160002060009054906101000a900460ff161515141515620009f8576001600360008473ffffffffffffffffffffffffffffffffffffffff1673ffffffffffffffffffffffffffffffffffffffff16815260200190815260200160002060006101000a81548160ff021916908315150217905550816005826040518082805190602001908083835b6020831015156200098357805182526020820191506020810190506020830392506200095c565b6001836020036101000a038019825116818451168082178552505050505050905001915050908152602001604051809103902060020160006101000a81548173ffffffffffffffffffffffffffffffffffffffff021916908373ffffffffffffffffffffffffffffffffffffffff1602179055505b5050565b62000a0662001533565b600080600260098054905002600b81905550600091505b60098054905082101562000b565760098281548110151562000a3b57fe5b9060005260206000200160009054906101000a900473ffffffffffffffffffffffffffffffffffffffff1690508073ffffffffffffffffffffffffffffffffffffffff1663543703596040518163ffffffff167c0100000000000000000000000000000000000000000000000000000000028152600401608060405180830381600087803b15801562000acd57600080fd5b505af115801562000ae2573d6000803e3d6000fd5b505050506040513d601f19601f8201168201806040525062000b0891908101906200198e565b925062000b2983600060028110151562000b1e57fe5b602002015162001243565b62000b4883600160028110151562000b3d57fe5b602002015162001243565b818060010192505062000a1d565b505050565b600060083390806001815401808255809150509060018203906000526020600020016000909192909190916101000a81548173ffffffffffffffffffffffffffffffffffffffff021916908373ffffffffffffffffffffffffffffffffffffffff160217905550506000809054906101000a900473ffffffffffffffffffffffffffffffffffffffff1690508073ffffffffffffffffffffffffffffffffffffffff166381d3afac3385856040518463ffffffff167c010000000000000000000000000000000000000000000000000000000002815260040162000c429392919062001c7d565b600060405180830381600087803b15801562000c5d57600080fd5b505af115801562000c72573d6000803e3d6000fd5b50505050505050565b60008062000c8862001564565b6000809054906101000a900473ffffffffffffffffffffffffffffffffffffffff1673ffffffffffffffffffffffffffffffffffffffff163373ffffffffffffffffffffffffffffffffffffffff1614151562000ce457600080fd5b600115156004876040518082805190602001908083835b60208310151562000d22578051825260208201915060208101905060208303925062000cfb565b6001836020036101000a038019825116818451168082178552505050505050905001915050908152602001604051809103902060009054906101000a900460ff161515141562000d95577fffffffffffffffffffffffffffffffffffffffffffffffffffffffffffffffff925062001133565b600a60008154809291906001019190505550600a5491506001600360008773ffffffffffffffffffffffffffffffffffffffff1673ffffffffffffffffffffffffffffffffffffffff16815260200190815260200160002060006101000a81548160ff02191690831515021790555060016004876040518082805190602001908083835b60208310151562000e40578051825260208201915060208101905060208303925062000e19565b6001836020036101000a038019825116818451168082178552505050505050905001915050908152602001604051809103902060006101000a81548160ff02191690831515021790555060a060405190810160405280888152602001878152602001600073ffffffffffffffffffffffffffffffffffffffff168152602001858152602001838152509050806005876040518082805190602001908083835b60208310151562000f06578051825260208201915060208101905060208303925062000edf565b6001836020036101000a0380198251168184511680821785525050505050509050019150509081526020016040518091039020600082015181600001908051906020019062000f57929190620015aa565b50602082015181600101908051906020019062000f76929190620015aa565b5060408201518160020160006101000a81548173ffffffffffffffffffffffffffffffffffffffff021916908373ffffffffffffffffffffffffffffffffffffffff160217905550606082015181600301908051906020019062000fdc929190620015aa565b506080820151816004015590505060078190806001815401808255809150509060018203906000526020600020906005020160009091929091909150600082015181600001908051906020019062001036929190620015aa565b50602082015181600101908051906020019062001055929190620015aa565b5060408201518160020160006101000a81548173ffffffffffffffffffffffffffffffffffffffff021916908373ffffffffffffffffffffffffffffffffffffffff1602179055506060820151816003019080519060200190620010bb929190620015aa565b506080820151816004015550505060068590806001815401808255809150509060018203906000526020600020016000909192909190916101000a81548173ffffffffffffffffffffffffffffffffffffffff021916908373ffffffffffffffffffffffffffffffffffffffff160217905550508192505b5050949350505050565b60008060009054906101000a900473ffffffffffffffffffffffffffffffffffffffff16905090565b6000816040518082805190602001908083835b602083101515620011a0578051825260208201915060208101905060208303925062001179565b6001836020036101000a038019825116818451168082178552505050505050905001915050604051809103902060001916836040518082805190602001908083835b602083101515620012095780518252602082019150602081019050602083039250620011e2565b6001836020036101000a03801982511681845116808217855250505050505090500191505060405180910390206000191614905092915050565b6001600b5403600b819055508060200151600d6000836000015173ffffffffffffffffffffffffffffffffffffffff1673ffffffffffffffffffffffffffffffffffffffff1681526020019081526020016000205401600d6000836000015173ffffffffffffffffffffffffffffffffffffffff1673ffffffffffffffffffffffffffffffffffffffff168152602001908152602001600020819055506000600b5414156200130157620012f662001304565b620013006200147e565b5b50565b600080600080600090505b60068054905081101562001478576006818154811015156200132d57fe5b9060005260206000200160009054906101000a900473ffffffffffffffffffffffffffffffffffffffff169250600d60008473ffffffffffffffffffffffffffffffffffffffff1673ffffffffffffffffffffffffffffffffffffffff1681526020019081526020016000205493506000841315620013ea578383306001620013b562001631565b620013c4949392919062001d1b565b604051809103906000f080158015620013e1573d6000803e3d6000fd5b5091506200146a565b600084121562001469578273ffffffffffffffffffffffffffffffffffffffff166108fc7fffffffffffffffffffffffffffffffffffffffffffffffffffffffffffffffff868115156200143a57fe5b059081150290604051600060405180830381858888f1935050505015801562001467573d6000803e3d6000fd5b505b5b80806001019150506200130f565b50505050565b60008090505b6006805490508110156200151f576000600d6000600684815481101515620014a857fe5b9060005260206000200160009054906101000a900473ffffffffffffffffffffffffffffffffffffffff1673ffffffffffffffffffffffffffffffffffffffff1673ffffffffffffffffffffffffffffffffffffffff16815260200190815260200160002081905550808060010191505062001484565b50565b6040516115fa8062001ed883390190565b6080604051908101604052806002905b6200154d62001642565b815260200190600190039081620015435790505090565b60a0604051908101604052806060815260200160608152602001600073ffffffffffffffffffffffffffffffffffffffff16815260200160608152602001600081525090565b828054600181600116156101000203166002900490600052602060002090601f016020900481019282601f10620015ed57805160ff19168380011785556200161e565b828001600101855582156200161e579182015b828111156200161d57825182559160200191906001019062001600565b5b5090506200162d919062001672565b5090565b6040516104d480620034d283390190565b6040805190810160405280600073ffffffffffffffffffffffffffffffffffffffff168152602001600081525090565b6200169791905b808211156200169357600081600090555060010162001679565b5090565b90565b6000620016a8823562001e25565b905092915050565b6000620016be825162001e25565b905092915050565b600082601f8301121515620016da57600080fd5b6002620016f1620016eb8262001d96565b62001d68565b915081838560408402820111156200170857600080fd5b60005b838110156200173c5781620017218882620017ba565b8452602084019350604083019250506001810190506200170b565b5050505092915050565b600062001754825162001e45565b905092915050565b600082601f83011215156200177057600080fd5b813562001787620017818262001db9565b62001d68565b91508082526020830160208301858383011115620017a457600080fd5b620017b183828462001e81565b50505092915050565b600060408284031215620017cd57600080fd5b620017d9604062001d68565b90506000620017eb84828501620016b0565b6000830152506020620018018482850162001746565b60208301525092915050565b60006200181b823562001e4f565b905092915050565b600080600080600080600060e0888a0312156200183f57600080fd5b60006200184f8a828b016200169a565b9750506020620018628a828b016200169a565b965050604088013567ffffffffffffffff8111156200188057600080fd5b6200188e8a828b016200175c565b955050606088013567ffffffffffffffff811115620018ac57600080fd5b620018ba8a828b016200175c565b945050608088013567ffffffffffffffff811115620018d857600080fd5b620018e68a828b016200175c565b93505060a0620018f98a828b016200180d565b92505060c088013567ffffffffffffffff8111156200191757600080fd5b620019258a828b016200175c565b91505092959891949750929550565b600080604083850312156200194857600080fd5b600062001958858286016200169a565b925050602083013567ffffffffffffffff8111156200197657600080fd5b62001984858286016200175c565b9150509250929050565b600060808284031215620019a157600080fd5b6000620019b184828501620016c6565b91505092915050565b60008060408385031215620019ce57600080fd5b600083013567ffffffffffffffff811115620019e957600080fd5b620019f7858286016200175c565b925050602083013567ffffffffffffffff81111562001a1557600080fd5b62001a23858286016200175c565b9150509250929050565b6000806000806080858703121562001a4457600080fd5b600085013567ffffffffffffffff81111562001a5f57600080fd5b62001a6d878288016200175c565b945050602085013567ffffffffffffffff81111562001a8b57600080fd5b62001a99878288016200175c565b935050604062001aac878288016200169a565b925050606085013567ffffffffffffffff81111562001aca57600080fd5b62001ad8878288016200175c565b91505092959194509250565b6000806040838503121562001af857600080fd5b600062001b08858286016200180d565b925050602062001b1b858286016200169a565b9150509250929050565b62001b308162001df1565b82525050565b62001b418162001e59565b82525050565b62001b528162001e11565b82525050565b62001b638162001e6d565b82525050565b600062001b768262001de6565b80845262001b8c81602086016020860162001e90565b62001b978162001ec6565b602085010191505092915050565b62001bb08162001e1b565b82525050565b600060208201905062001bcd600083018462001b25565b92915050565b60006101008201905062001beb600083018b62001b25565b62001bfa602083018a62001b25565b818103604083015262001c0e818962001b69565b9050818103606083015262001c24818862001b69565b9050818103608083015262001c3a818762001b69565b905062001c4b60a083018662001ba5565b62001c5a60c083018562001b25565b81810360e083015262001c6e818462001b69565b90509998505050505050505050565b600060608201905062001c94600083018662001b25565b62001ca3602083018562001ba5565b62001cb2604083018462001b25565b949350505050565b600060208201905062001cd1600083018462001b47565b92915050565b600060608201905062001cee600083018662001b47565b818103602083015262001d02818562001b69565b905062001d13604083018462001b25565b949350505050565b600060808201905062001d32600083018762001ba5565b62001d41602083018662001b25565b62001d50604083018562001b36565b62001d5f606083018462001b58565b95945050505050565b6000604051905081810181811067ffffffffffffffff8211171562001d8c57600080fd5b8060405250919050565b600067ffffffffffffffff82111562001dae57600080fd5b602082029050919050565b600067ffffffffffffffff82111562001dd157600080fd5b601f19601f8301169050602081019050919050565b600081519050919050565b600073ffffffffffffffffffffffffffffffffffffffff82169050919050565b6000819050919050565b6000819050919050565b600073ffffffffffffffffffffffffffffffffffffffff82169050919050565b6000819050919050565b6000819050919050565b600062001e668262001df1565b9050919050565b600062001e7a8262001e1b565b9050919050565b82818337600083830152505050565b60005b8381101562001eb057808201518184015260208101905062001e93565b8381111562001ec0576000848401525b50505050565b6000601f19601f830116905091905056006080604052604051620015fa380380620015fa8339810180604052620000299190810190620008ea565b8583838387846000908051906020019062000046929190620007b1565b5081600190805190602001906200005f929190620007b1565b5082600260006101000a81548173ffffffffffffffffffffffffffffffffffffffff021916908373ffffffffffffffffffffffffffffffffffffffff16021790555033600360006101000a81548173ffffffffffffffffffffffffffffffffffffffff021916908373ffffffffffffffffffffffffffffffffffffffff1602179055508060069080519060200190620000fa929190620007b1565b5083600581905550426004819055505050505050670de0b6b3a764000034101515156200012657600080fd5b87600a60006101000a81548173ffffffffffffffffffffffffffffffffffffffff021916908373ffffffffffffffffffffffffffffffffffffffff16021790555086600b60006101000a81548173ffffffffffffffffffffffffffffffffffffffff021916908373ffffffffffffffffffffffffffffffffffffffff16021790555084600c9080519060200190620001c0929190620007b1565b50620001da620001e8640100000000026401000000009004565b505050505050505062000ba7565b6000600260009054906101000a900473ffffffffffffffffffffffffffffffffffffffff1690506200030260018054600181600116156101000203166002900480601f016020809104026020016040519081016040528092919081815260200182805460018160011615610100020316600290048015620002ad5780601f106200028157610100808354040283529160200191620002ad565b820191906000526020600020905b8154815290600101906020018083116200028f57829003601f168201915b50505050506040805190810160405280600381526020017f424f450000000000000000000000000000000000000000000000000000000000815250620006d46401000000000262000930176401000000009004565b15620003a6578073ffffffffffffffffffffffffffffffffffffffff1663cc9df742670de0b6b3a7640000600c60006040518463ffffffff167c01000000000000000000000000000000000000000000000000000000000281526004016200036c92919062000a9f565b6000604051808303818588803b1580156200038657600080fd5b505af11580156200039b573d6000803e3d6000fd5b5050505050620006d1565b6200049960018054600181600116156101000203166002900480601f016020809104026020016040519081016040528092919081815260200182805460018160011615610100020316600290048015620004445780601f10620004185761010080835404028352916020019162000444565b820191906000526020600020905b8154815290600101906020018083116200042657829003601f168201915b50505050506040805190810160405280600581526020017f4555524558000000000000000000000000000000000000000000000000000000815250620006d46401000000000262000930176401000000009004565b156200053d578073ffffffffffffffffffffffffffffffffffffffff1663c4899919670de0b6b3a7640000600c60006040518463ffffffff167c01000000000000000000000000000000000000000000000000000000000281526004016200050392919062000a9f565b6000604051808303818588803b1580156200051d57600080fd5b505af115801562000532573d6000803e3d6000fd5b5050505050620006d0565b6200063060018054600181600116156101000203166002900480601f016020809104026020016040519081016040528092919081815260200182805460018160011615610100020316600290048015620005db5780601f10620005af57610100808354040283529160200191620005db565b820191906000526020600020905b815481529060010190602001808311620005bd57829003601f168201915b50505050506040805190810160405280600381526020017f434d450000000000000000000000000000000000000000000000000000000000815250620006d46401000000000262000930176401000000009004565b15620006cf578073ffffffffffffffffffffffffffffffffffffffff166382636bd8670de0b6b3a7640000600c60006040518463ffffffff167c01000000000000000000000000000000000000000000000000000000000281526004016200069a92919062000a9f565b6000604051808303818588803b158015620006b457600080fd5b505af1158015620006c9573d6000803e3d6000fd5b50505050505b5b5b50565b6000816040518082805190602001908083835b6020831015156200070e5780518252602082019150602081019050602083039250620006e7565b6001836020036101000a038019825116818451168082178552505050505050905001915050604051809103902060001916836040518082805190602001908083835b60208310151562000777578051825260208201915060208101905060208303925062000750565b6001836020036101000a03801982511681845116808217855250505050505090500191505060405180910390206000191614905092915050565b828054600181600116156101000203166002900490600052602060002090601f016020900481019282601f10620007f457805160ff191683800117855562000825565b8280016001018555821562000825579182015b828111156200082457825182559160200191906001019062000807565b5b50905062000834919062000838565b5090565b6200085d91905b80821115620008595760008160009055506001016200083f565b5090565b90565b60006200086e825162000b47565b905092915050565b600082601f83011215156200088a57600080fd5b8151620008a16200089b8262000b08565b62000ada565b91508082526020830160208301858383011115620008be57600080fd5b620008cb83828462000b71565b50505092915050565b6000620008e2825162000b67565b905092915050565b600080600080600080600080610100898b0312156200090857600080fd5b6000620009188b828c0162000860565b98505060206200092b8b828c0162000860565b975050604089015167ffffffffffffffff8111156200094957600080fd5b620009578b828c0162000876565b965050606089015167ffffffffffffffff8111156200097557600080fd5b620009838b828c0162000876565b955050608089015167ffffffffffffffff811115620009a157600080fd5b620009af8b828c0162000876565b94505060a0620009c28b828c01620008d4565b93505060c0620009d58b828c0162000860565b92505060e089015167ffffffffffffffff811115620009f357600080fd5b62000a018b828c0162000876565b9150509295985092959890939650565b60008154600181166000811462000a31576001811462000a525762000a97565b607f600283041680865260ff19831660208701526040860193505062000a97565b6002820480865260208601955062000a6a8562000b35565b60005b8281101562000a8e5781548189015260018201915060208101905062000a6d565b80880195505050505b505092915050565b6000604082019050818103600083015262000abb818562000a11565b9050818103602083015262000ad1818462000a11565b90509392505050565b6000604051905081810181811067ffffffffffffffff8211171562000afe57600080fd5b8060405250919050565b600067ffffffffffffffff82111562000b2057600080fd5b601f19601f8301169050602081019050919050565b60008160005260206000209050919050565b600073ffffffffffffffffffffffffffffffffffffffff82169050919050565b6000819050919050565b60005b8381101562000b9157808201518184015260208101905062000b74565b8381111562000ba1576000848401525b50505050565b610a438062000bb76000396000f30060806040526004361061006d576000357c0100000000000000000000000000000000000000000000000000000000900463ffffffff16806344cc75c31461007257806354370359146100af578063afabb0cc146100da578063b769fe9e14610105578063e38ecb2914610142575b600080fd5b34801561007e57600080fd5b506100996004803603610094919081019061069c565b61016b565b6040516100a691906107e9565b60405180910390f35b3480156100bb57600080fd5b506100c46101ff565b6040516100d1919061081f565b60405180910390f35b3480156100e657600080fd5b506100ef610401565b6040516100fc9190610804565b60405180910390f35b34801561011157600080fd5b5061012c6004803603610127919081019061069c565b6104bf565b60405161013991906107e9565b60405180910390f35b34801561014e57600080fd5b50610169600480360361016491908101906106c5565b610553565b005b600080600760008473ffffffffffffffffffffffffffffffffffffffff1673ffffffffffffffffffffffffffffffffffffffff16815260200190815260200160002060009054906101000a900473ffffffffffffffffffffffffffffffffffffffff16905060008173ffffffffffffffffffffffffffffffffffffffff161415156101f8578091506101f9565b5b50919050565b6102076105b2565b6000604080519081016040528073ca35b7d915458ef540ade6068dfe2f44e8fa733c73ffffffffffffffffffffffffffffffffffffffff168152602001600a81525081600060028110151561025857fe5b6002020160008201518160000160006101000a81548173ffffffffffffffffffffffffffffffffffffffff021916908373ffffffffffffffffffffffffffffffffffffffff16021790555060208201518160010155905050604080519081016040528073ca35b7d915458ef540ade6068dfe2f44e8fa733c73ffffffffffffffffffffffffffffffffffffffff168152602001600a8152508160016002811015156102ff57fe5b6002020160008201518160000160006101000a81548173ffffffffffffffffffffffffffffffffffffffff021916908373ffffffffffffffffffffffffffffffffffffffff1602179055506020820151816001015590505080600280602002604051908101604052809291906000905b828210156103f7578382600202016040805190810160405290816000820160009054906101000a900473ffffffffffffffffffffffffffffffffffffffff1673ffffffffffffffffffffffffffffffffffffffff1673ffffffffffffffffffffffffffffffffffffffff1681526020016001820154815250508152602001906001019061036f565b5050505091505090565b6104096105e0565b6040805190810160405280600a60009054906101000a900473ffffffffffffffffffffffffffffffffffffffff1673ffffffffffffffffffffffffffffffffffffffff1673ffffffffffffffffffffffffffffffffffffffff168152602001600b60009054906101000a900473ffffffffffffffffffffffffffffffffffffffff1673ffffffffffffffffffffffffffffffffffffffff1673ffffffffffffffffffffffffffffffffffffffff16815250905090565b600080600760008473ffffffffffffffffffffffffffffffffffffffff1673ffffffffffffffffffffffffffffffffffffffff16815260200190815260200160002060009054906101000a900473ffffffffffffffffffffffffffffffffffffffff16905060008173ffffffffffffffffffffffffffffffffffffffff1614151561054c5780915061054d565b5b50919050565b600260009054906101000a900473ffffffffffffffffffffffffffffffffffffffff1673ffffffffffffffffffffffffffffffffffffffff163373ffffffffffffffffffffffffffffffffffffffff161415156105af57600080fd5b50565b6080604051908101604052806002905b6105ca610602565b8152602001906001900390816105c25790505090565b6040805190810160405280600290602082028038833980820191505090505090565b6040805190810160405280600073ffffffffffffffffffffffffffffffffffffffff168152602001600081525090565b600061063e8235610901565b905092915050565b600082601f830112151561065957600080fd5b813561066c61066782610867565b61083a565b9150808252602083016020830185838301111561068857600080fd5b610693838284610921565b50505092915050565b6000602082840312156106ae57600080fd5b60006106bc84828501610632565b91505092915050565b6000602082840312156106d757600080fd5b600082013567ffffffffffffffff8111156106f157600080fd5b6106fd84828501610646565b91505092915050565b61070f816108d7565b82525050565b61071e816108a7565b61072782610893565b60005b828110156107595761073d858351610706565b610746826108bd565b915060208501945060018101905061072a565b5050505050565b610769816108b2565b6107728261089d565b60005b828110156107a4576107888583516107ba565b610791826108ca565b9150604085019450600181019050610775565b5050505050565b6107b4816108f7565b82525050565b6040820160008201516107d06000850182610706565b5060208201516107e360208501826107ab565b50505050565b60006020820190506107fe6000830184610706565b92915050565b60006040820190506108196000830184610715565b92915050565b60006080820190506108346000830184610760565b92915050565b6000604051905081810181811067ffffffffffffffff8211171561085d57600080fd5b8060405250919050565b600067ffffffffffffffff82111561087e57600080fd5b601f19601f8301169050602081019050919050565b6000819050919050565b6000819050919050565b600060029050919050565b600060029050919050565b6000602082019050919050565b6000602082019050919050565b600073ffffffffffffffffffffffffffffffffffffffff82169050919050565b6000819050919050565b600073ffffffffffffffffffffffffffffffffffffffff82169050919050565b82818337600083830152505050565b6000816040518082805190602001908083835b6020831015156109685780518252602082019150602081019050602083039250610943565b6001836020036101000a038019825116818451168082178552505050505050905001915050604051809103902060001916836040518082805190602001908083835b6020831015156109cf57805182526020820191506020810190506020830392506109aa565b6001836020036101000a038019825116818451168082178552505050505050905001915050604051809103902060001916149050929150505600a265627a7a72305820015a1067a1c4dd91e267f4cc7979ecf6135aa5ba86035e5209ade5a3a22ce9656c6578706572696d656e74616cf50037608060405234801561001057600080fd5b506040516080806104d483398101806040528101908080519060200190929190805190602001909291908051906020019092919080519060200190929190505050600033600260016101000a81548173ffffffffffffffffffffffffffffffffffffffff021916908373ffffffffffffffffffffffffffffffffffffffff16021790555082600460006101000a81548173ffffffffffffffffffffffffffffffffffffffff021916908373ffffffffffffffffffffffffffffffffffffffff16021790555083600360006101000a81548173ffffffffffffffffffffffffffffffffffffffff021916908373ffffffffffffffffffffffffffffffffffffffff16021790555084600081905550816001819055506000600260006101000a81548160ff021916908315150217905550600460009054906101000a900473ffffffffffffffffffffffffffffffffffffffff1690508073ffffffffffffffffffffffffffffffffffffffff16639cef7a5b600054600360009054906101000a900473ffffffffffffffffffffffffffffffffffffffff166040518363ffffffff167c0100000000000000000000000000000000000000000000000000000000028152600401808381526020018273ffffffffffffffffffffffffffffffffffffffff1673ffffffffffffffffffffffffffffffffffffffff16815260200192505050600060405180830381600087803b15801561022b57600080fd5b505af115801561023f573d6000803e3d6000fd5b50505050505050505061027d806102576000396000f30060806040526004361061006d576000357c0100000000000000000000000000000000000000000000000000000000900463ffffffff1680631b9265b814610072578063209652551461009457806331b2ffaf146100bf5780634212ed2614610116578063893d20e814610145575b600080fd5b61007a61019c565b604051808215151515815260200191505060405180910390f35b3480156100a057600080fd5b506100a96101dd565b6040518082815260200191505060405180910390f35b3480156100cb57600080fd5b506100d46101e6565b604051808273ffffffffffffffffffffffffffffffffffffffff1673ffffffffffffffffffffffffffffffffffffffff16815260200191505060405180910390f35b34801561012257600080fd5b5061012b610210565b604051808215151515815260200191505060405180910390f35b34801561015157600080fd5b5061015a610227565b604051808273ffffffffffffffffffffffffffffffffffffffff1673ffffffffffffffffffffffffffffffffffffffff16815260200191505060405180910390f35b60008054341415156101ad57600080fd5b6001600260006101000a81548160ff021916908315150217905550600260009054906101000a900460ff16905090565b60008054905090565b6000600360009054906101000a900473ffffffffffffffffffffffffffffffffffffffff16905090565b6000600260009054906101000a900460ff16905090565b6000600260019054906101000a900473ffffffffffffffffffffffffffffffffffffffff169050905600a165627a7a7230582027c7e7d9e06039e72137817b7a4807167322307f3a968fb5ce1bb9d5f09999370029a265627a7a72305820e66c890d7b0de641ecaebddf1e5ede92b8e2e6d33d51fe87f47d076f2158cf926c6578706572696d656e74616cf500376080604052623d0900600855736f485c8bf6fc43ea212e93bbf8ce046c7f1cb4756000806101000a81548173ffffffffffffffffffffffffffffffffffffffff021916908373ffffffffffffffffffffffffffffffffffffffff160217905550620000c160017f01000000000000000000000000000000000000000000000000000000000000000260107f0100000000000000000000000000000000000000000000000000000000000000021762000108640100000000026401000000009004565b33600760006101000a81548173ffffffffffffffffffffffffffffffffffffffff021916908373ffffffffffffffffffffffffffffffffffffffff16021790555062000b82565b60008060009054906101000a900473ffffffffffffffffffffffffffffffffffffffff1673ffffffffffffffffffffffffffffffffffffffff1614806200018957506000620001876000809054906101000a900473ffffffffffffffffffffffffffffffffffffffff1662000476640100000000026401000000009004565b145b15620001ac57620001aa600062000481640100000000026401000000009004565b505b6000809054906101000a900473ffffffffffffffffffffffffffffffffffffffff1673ffffffffffffffffffffffffffffffffffffffff166338cc48316040518163ffffffff167c0100000000000000000000000000000000000000000000000000000000028152600401602060405180830381600087803b1580156200023257600080fd5b505af115801562000247573d6000803e3d6000fd5b505050506040513d601f19601f820116820180604052506200026d919081019062000adc565b73ffffffffffffffffffffffffffffffffffffffff16600160009054906101000a900473ffffffffffffffffffffffffffffffffffffffff1673ffffffffffffffffffffffffffffffffffffffff16141515620003c6576000809054906101000a900473ffffffffffffffffffffffffffffffffffffffff1673ffffffffffffffffffffffffffffffffffffffff166338cc48316040518163ffffffff167c0100000000000000000000000000000000000000000000000000000000028152600401602060405180830381600087803b1580156200034a57600080fd5b505af11580156200035f573d6000803e3d6000fd5b505050506040513d601f19601f8201168201806040525062000385919081019062000adc565b600160006101000a81548173ffffffffffffffffffffffffffffffffffffffff021916908373ffffffffffffffffffffffffffffffffffffffff1602179055505b600160009054906101000a900473ffffffffffffffffffffffffffffffffffffffff1673ffffffffffffffffffffffffffffffffffffffff1663688dcfd7826040518263ffffffff167c01000000000000000000000000000000000000000000000000000000000281526004016200043f919062000b19565b600060405180830381600087803b1580156200045a57600080fd5b505af11580156200046f573d6000803e3d6000fd5b5050505050565b6000813b9050919050565b60006200049c620004a3640100000000026401000000009004565b9050919050565b600080620004d4731d3b2638a7cc9f2cb3d298a3da7a90b67e5506ed62000476640100000000026401000000009004565b11156200058857731d3b2638a7cc9f2cb3d298a3da7a90b67e5506ed6000806101000a81548173ffffffffffffffffffffffffffffffffffffffff021916908373ffffffffffffffffffffffffffffffffffffffff1602179055506200057e6040805190810160405280600b81526020017f6574685f6d61696e6e6574000000000000000000000000000000000000000000815250620009fb640100000000026401000000009004565b60019050620009f8565b6000620005b873c03a2615d5efaf5f49f60b7bb6583eaec212fdf162000476640100000000026401000000009004565b11156200066c5773c03a2615d5efaf5f49f60b7bb6583eaec212fdf16000806101000a81548173ffffffffffffffffffffffffffffffffffffffff021916908373ffffffffffffffffffffffffffffffffffffffff160217905550620006626040805190810160405280600c81526020017f6574685f726f707374656e330000000000000000000000000000000000000000815250620009fb640100000000026401000000009004565b60019050620009f8565b60006200069c73b7a07bcf2ba2f2703b24c0691b5278999c59ac7e62000476640100000000026401000000009004565b1115620007505773b7a07bcf2ba2f2703b24c0691b5278999c59ac7e6000806101000a81548173ffffffffffffffffffffffffffffffffffffffff021916908373ffffffffffffffffffffffffffffffffffffffff160217905550620007466040805190810160405280600981526020017f6574685f6b6f76616e0000000000000000000000000000000000000000000000815250620009fb640100000000026401000000009004565b60019050620009f8565b60006200078073146500cfd35b22e4a392fe0adc06de1a1368ed4862000476640100000000026401000000009004565b1115620008345773146500cfd35b22e4a392fe0adc06de1a1368ed486000806101000a81548173ffffffffffffffffffffffffffffffffffffffff021916908373ffffffffffffffffffffffffffffffffffffffff1602179055506200082a6040805190810160405280600b81526020017f6574685f72696e6b656279000000000000000000000000000000000000000000815250620009fb640100000000026401000000009004565b60019050620009f8565b600062000864736f485c8bf6fc43ea212e93bbf8ce046c7f1cb47562000476640100000000026401000000009004565b1115620008c957736f485c8bf6fc43ea212e93bbf8ce046c7f1cb4756000806101000a81548173ffffffffffffffffffffffffffffffffffffffff021916908373ffffffffffffffffffffffffffffffffffffffff16021790555060019050620009f8565b6000620008f97320e12a1f859b3feae5fb2a0a32c18f5a65555bbf62000476640100000000026401000000009004565b11156200095e577320e12a1f859b3feae5fb2a0a32c18f5a65555bbf6000806101000a81548173ffffffffffffffffffffffffffffffffffffffff021916908373ffffffffffffffffffffffffffffffffffffffff16021790555060019050620009f8565b60006200098e7351efaf4c8b3c9afbd5ab9f4bbc82784ab6ef8faa62000476640100000000026401000000009004565b1115620009f3577351efaf4c8b3c9afbd5ab9f4bbc82784ab6ef8faa6000806101000a81548173ffffffffffffffffffffffffffffffffffffffff021916908373ffffffffffffffffffffffffffffffffffffffff16021790555060019050620009f8565b600090505b90565b806002908051906020019062000a1392919062000a17565b5050565b828054600181600116156101000203166002900490600052602060002090601f016020900481019282601f1062000a5a57805160ff191683800117855562000a8b565b8280016001018555821562000a8b579182015b8281111562000a8a57825182559160200191906001019062000a6d565b5b50905062000a9a919062000a9e565b5090565b62000ac391905b8082111562000abf57600081600090555060010162000aa5565b5090565b90565b600062000ad4825162000b62565b905092915050565b60006020828403121562000aef57600080fd5b600062000aff8482850162000ac6565b91505092915050565b62000b138162000b36565b82525050565b600060208201905062000b30600083018462000b08565b92915050565b60007fff0000000000000000000000000000000000000000000000000000000000000082169050919050565b600073ffffffffffffffffffffffffffffffffffffffff82169050919050565b6132b08062000b926000396000f30060806040526004361062000097576000357c0100000000000000000000000000000000000000000000000000000000900463ffffffff16806327dc297e146200009c57806338bbfa5014620000ca57806382636bd814620000f85780639c38dc921462000118578063c1b1d06c1462000138578063c48999191462000158578063cc9df7421462000178578063da1cc1161462000198575b600080fd5b348015620000a957600080fd5b50620000c86004803603620000c2919081019062002824565b620001b8565b005b348015620000d757600080fd5b50620000f66004803603620000f091908101906200287e565b62000381565b005b6200011660048036036200011091908101906200294b565b62000386565b005b6200013660048036036200013091908101906200294b565b620005e4565b005b6200015660048036036200015091908101906200294b565b62000842565b005b6200017660048036036200017091908101906200294b565b62000a73565b005b6200019660048036036200019091908101906200294b565b62000cd1565b005b620001b66004803603620001b0919081019062002906565b62000f2f565b005b600080620001c562001123565b73ffffffffffffffffffffffffffffffffffffffff163373ffffffffffffffffffffffffffffffffffffffff16141515620001ff57600080fd5b600560008560001916600019168152602001908152602001600020549150600182141562000266577f8655c5cfb1c5a83d9d6bc1412ec42f2ef81e85b5714e2627b4078576fba07a9f8360405162000258919062002b91565b60405180910390a16200037b565b6002821415620002af577f8655c5cfb1c5a83d9d6bc1412ec42f2ef81e85b5714e2627b4078576fba07a9f83604051620002a1919062002b91565b60405180910390a16200037a565b6003821415620002f8577f5b81f211753ecf8f010d9a311a6ec4a2f060d40ffe7bb868905b4f3eece480cb83604051620002ea919062002b91565b60405180910390a162000379565b600482141562000378576064734b0897b0513fdc7c541b6d9d7e929c4e5364d2db600760009054906101000a900473ffffffffffffffffffffffffffffffffffffffff16600162000348620025f8565b62000357949392919062002b44565b604051809103906000f08015801562000374573d6000803e3d6000fd5b5090505b5b5b5b50505050565b505050565b60608060608060608060003073ffffffffffffffffffffffffffffffffffffffff1631620003e96040805190810160405280600381526020017f55524c00000000000000000000000000000000000000000000000000000000008152506200148b565b1015620005d957606060405190810160405280602e81526020017f6a736f6e2868747470733a2f2f38332e3233312e31342e31373a333030322f4381526020017f4d452f636f6d707574655661522f00000000000000000000000000000000000081525096506040805190810160405280600481526020017f302e39350000000000000000000000000000000000000000000000000000000081525095506040805190810160405280600181526020017f2f0000000000000000000000000000000000000000000000000000000000000081525094506040805190810160405280600481526020017f2f292e2a000000000000000000000000000000000000000000000000000000008152509350620005068787878c8962001802565b92506200051583898662001c2c565b91506200055b6040805190810160405280600381526020017f55524c00000000000000000000000000000000000000000000000000000000008152508360085462001c66565b90503360066000836000191660001916815260200190815260200160002060006101000a81548173ffffffffffffffffffffffffffffffffffffffff021916908373ffffffffffffffffffffffffffffffffffffffff1602179055506004600560008360001916600019168152602001908152602001600020819055505b505050505050505050565b60608060608060608060003073ffffffffffffffffffffffffffffffffffffffff1631620006476040805190810160405280600381526020017f55524c00000000000000000000000000000000000000000000000000000000008152506200148b565b10156200083757606060405190810160405280602e81526020017f6a736f6e2868747470733a2f2f38332e3233312e31342e31373a333030322f4281526020017f4f452f636f6d707574655661522f00000000000000000000000000000000000081525096506040805190810160405280600481526020017f302e39350000000000000000000000000000000000000000000000000000000081525095506040805190810160405280600181526020017f2f0000000000000000000000000000000000000000000000000000000000000081525094506040805190810160405280600481526020017f2f292e2a000000000000000000000000000000000000000000000000000000008152509350620007648787878c8962001802565b92506200077383898662001c2c565b9150620007b96040805190810160405280600381526020017f55524c00000000000000000000000000000000000000000000000000000000008152508360085462001c66565b90503360066000836000191660001916815260200190815260200160002060006101000a81548173ffffffffffffffffffffffffffffffffffffffff021916908373ffffffffffffffffffffffffffffffffffffffff1602179055506004600560008360001916600019168152602001908152602001600020819055505b505050505050505050565b606080606080606080606060003073ffffffffffffffffffffffffffffffffffffffff1631620008a76040805190810160405280600381526020017f55524c00000000000000000000000000000000000000000000000000000000008152506200148b565b101562000a6757608060405190810160405280605681526020017f6a736f6e28687474703a2f2f646174612e66697865722e696f2f6170692f6c6181526020017f746573743f6163636573735f6b65793d6330366333626466356561356536356381526020017f3264666235373466373434373235633426626173653d0000000000000000000081525097508996506040805190810160405280600981526020017f2673796d626f6c733d000000000000000000000000000000000000000000000081525095508894506040805190810160405280600881526020017f292e72617465732e0000000000000000000000000000000000000000000000008152509350620009b788888888620020e0565b9250620009c683858762001c2c565b91507f621c2856e3b87f81235f8ac8a22bbb40a0142961960710d00b2b6c380902b57e604051620009f79062002be9565b60405180910390a162000a436040805190810160405280600381526020017f55524c00000000000000000000000000000000000000000000000000000000008152508360085462001c66565b90506001600560008360001916600019168152602001908152602001600020819055505b50505050505050505050565b60608060608060608060003073ffffffffffffffffffffffffffffffffffffffff163162000ad66040805190810160405280600381526020017f55524c00000000000000000000000000000000000000000000000000000000008152506200148b565b101562000cc657606060405190810160405280603081526020017f6a736f6e2868747470733a2f2f38332e3233312e31342e31373a333030322f4581526020017f555245582f636f6d707574655661522f0000000000000000000000000000000081525096506040805190810160405280600481526020017f302e39350000000000000000000000000000000000000000000000000000000081525095506040805190810160405280600181526020017f2f0000000000000000000000000000000000000000000000000000000000000081525094506040805190810160405280600481526020017f2f292e2a00000000000000000000000000000000000000000000000000000000815250935062000bf38787878c8962001802565b925062000c0283898662001c2c565b915062000c486040805190810160405280600381526020017f55524c00000000000000000000000000000000000000000000000000000000008152508360085462001c66565b90503360066000836000191660001916815260200190815260200160002060006101000a81548173ffffffffffffffffffffffffffffffffffffffff021916908373ffffffffffffffffffffffffffffffffffffffff1602179055506004600560008360001916600019168152602001908152602001600020819055505b505050505050505050565b60608060608060608060003073ffffffffffffffffffffffffffffffffffffffff163162000d346040805190810160405280600381526020017f55524c00000000000000000000000000000000000000000000000000000000008152506200148b565b101562000f2457606060405190810160405280602e81526020017f6a736f6e2868747470733a2f2f38332e3233312e31342e31373a333030322f4281526020017f4f452f636f6d707574655661522f00000000000000000000000000000000000081525096506040805190810160405280600481526020017f302e39350000000000000000000000000000000000000000000000000000000081525095506040805190810160405280600181526020017f2f0000000000000000000000000000000000000000000000000000000000000081525094506040805190810160405280600481526020017f2f292e2a00000000000000000000000000000000000000000000000000000000815250935062000e518787878c8962001802565b925062000e6083898662001c2c565b915062000ea66040805190810160405280600381526020017f55524c00000000000000000000000000000000000000000000000000000000008152508360085462001c66565b90503360066000836000191660001916815260200190815260200160002060006101000a81548173ffffffffffffffffffffffffffffffffffffffff021916908373ffffffffffffffffffffffffffffffffffffffff1602179055506004600560008360001916600019168152602001908152602001600020819055505b505050505050505050565b606080606080606060003073ffffffffffffffffffffffffffffffffffffffff163162000f916040805190810160405280600381526020017f55524c00000000000000000000000000000000000000000000000000000000008152506200148b565b10156200111a57606060405190810160405280603481526020017f6a736f6e2868747470733a2f2f6170692e6b72616b656e2e636f6d2f302f707581526020017f626c69632f5469636b65723f706169723d45544800000000000000000000000081525095508694506040805190810160405280600e81526020017f292e726573756c742e584554485a00000000000000000000000000000000000081525093506040805190810160405280600481526020017f2e632e3000000000000000000000000000000000000000000000000000000000815250925062001079868686888762001802565b91507f621c2856e3b87f81235f8ac8a22bbb40a0142961960710d00b2b6c380902b57e604051620010aa9062002be9565b60405180910390a1620010f66040805190810160405280600381526020017f55524c00000000000000000000000000000000000000000000000000000000008152508360085462001c66565b90506003600560008360001916600019168152602001908152602001600020819055505b50505050505050565b6000806000809054906101000a900473ffffffffffffffffffffffffffffffffffffffff1673ffffffffffffffffffffffffffffffffffffffff1614806200119657506000620011946000809054906101000a900473ffffffffffffffffffffffffffffffffffffffff166200210b565b145b15620011aa57620011a8600062002116565b505b6000809054906101000a900473ffffffffffffffffffffffffffffffffffffffff1673ffffffffffffffffffffffffffffffffffffffff166338cc48316040518163ffffffff167c0100000000000000000000000000000000000000000000000000000000028152600401602060405180830381600087803b1580156200123057600080fd5b505af115801562001245573d6000803e3d6000fd5b505050506040513d601f19601f820116820180604052506200126b9190810190620027cc565b73ffffffffffffffffffffffffffffffffffffffff16600160009054906101000a900473ffffffffffffffffffffffffffffffffffffffff1673ffffffffffffffffffffffffffffffffffffffff16141515620013c4576000809054906101000a900473ffffffffffffffffffffffffffffffffffffffff1673ffffffffffffffffffffffffffffffffffffffff166338cc48316040518163ffffffff167c0100000000000000000000000000000000000000000000000000000000028152600401602060405180830381600087803b1580156200134857600080fd5b505af11580156200135d573d6000803e3d6000fd5b505050506040513d601f19601f82011682018060405250620013839190810190620027cc565b600160006101000a81548173ffffffffffffffffffffffffffffffffffffffff021916908373ffffffffffffffffffffffffffffffffffffffff1602179055505b600160009054906101000a900473ffffffffffffffffffffffffffffffffffffffff1673ffffffffffffffffffffffffffffffffffffffff1663c281d19e6040518163ffffffff167c0100000000000000000000000000000000000000000000000000000000028152600401602060405180830381600087803b1580156200144b57600080fd5b505af115801562001460573d6000803e3d6000fd5b505050506040513d601f19601f82011682018060405250620014869190810190620027cc565b905090565b6000806000809054906101000a900473ffffffffffffffffffffffffffffffffffffffff1673ffffffffffffffffffffffffffffffffffffffff161480620014fe57506000620014fc6000809054906101000a900473ffffffffffffffffffffffffffffffffffffffff166200210b565b145b15620015125762001510600062002116565b505b6000809054906101000a900473ffffffffffffffffffffffffffffffffffffffff1673ffffffffffffffffffffffffffffffffffffffff166338cc48316040518163ffffffff167c0100000000000000000000000000000000000000000000000000000000028152600401602060405180830381600087803b1580156200159857600080fd5b505af1158015620015ad573d6000803e3d6000fd5b505050506040513d601f19601f82011682018060405250620015d39190810190620027cc565b73ffffffffffffffffffffffffffffffffffffffff16600160009054906101000a900473ffffffffffffffffffffffffffffffffffffffff1673ffffffffffffffffffffffffffffffffffffffff161415156200172c576000809054906101000a900473ffffffffffffffffffffffffffffffffffffffff1673ffffffffffffffffffffffffffffffffffffffff166338cc48316040518163ffffffff167c0100000000000000000000000000000000000000000000000000000000028152600401602060405180830381600087803b158015620016b057600080fd5b505af1158015620016c5573d6000803e3d6000fd5b505050506040513d601f19601f82011682018060405250620016eb9190810190620027cc565b600160006101000a81548173ffffffffffffffffffffffffffffffffffffffff021916908373ffffffffffffffffffffffffffffffffffffffff1602179055505b600160009054906101000a900473ffffffffffffffffffffffffffffffffffffffff1673ffffffffffffffffffffffffffffffffffffffff1663524f3889836040518263ffffffff167c0100000000000000000000000000000000000000000000000000000000028152600401620017a5919062002b91565b602060405180830381600087803b158015620017c057600080fd5b505af1158015620017d5573d6000803e3d6000fd5b505050506040513d601f19601f82011682018060405250620017fb9190810190620029be565b9050919050565b6060806060806060806060806000808e98508d97508c96508b95508a94508451865188518a518c51010101016040519080825280601f01601f191660200182016040528015620018615781602001602082028038833980820191505090505b50935083925060009150600090505b8851811015620019275788818151811015156200188957fe5b9060200101517f010000000000000000000000000000000000000000000000000000000000000090047f0100000000000000000000000000000000000000000000000000000000000000028383806001019450815181101515620018e957fe5b9060200101907effffffffffffffffffffffffffffffffffffffffffffffffffffffffffffff1916908160001a905350808060010191505062001870565b600090505b8751811015620019e35787818151811015156200194557fe5b9060200101517f010000000000000000000000000000000000000000000000000000000000000090047f0100000000000000000000000000000000000000000000000000000000000000028383806001019450815181101515620019a557fe5b9060200101907effffffffffffffffffffffffffffffffffffffffffffffffffffffffffffff1916908160001a90535080806001019150506200192c565b600090505b865181101562001a9f57868181518110151562001a0157fe5b9060200101517f010000000000000000000000000000000000000000000000000000000000000090047f010000000000000000000000000000000000000000000000000000000000000002838380600101945081518110151562001a6157fe5b9060200101907effffffffffffffffffffffffffffffffffffffffffffffffffffffffffffff1916908160001a9053508080600101915050620019e8565b600090505b855181101562001b5b57858181518110151562001abd57fe5b9060200101517f010000000000000000000000000000000000000000000000000000000000000090047f010000000000000000000000000000000000000000000000000000000000000002838380600101945081518110151562001b1d57fe5b9060200101907effffffffffffffffffffffffffffffffffffffffffffffffffffffffffffff1916908160001a905350808060010191505062001aa4565b600090505b845181101562001c1757848181518110151562001b7957fe5b9060200101517f010000000000000000000000000000000000000000000000000000000000000090047f010000000000000000000000000000000000000000000000000000000000000002838380600101945081518110151562001bd957fe5b9060200101907effffffffffffffffffffffffffffffffffffffffffffffffffffffffffffff1916908160001a905350808060010191505062001b60565b82995050505050505050505095945050505050565b606062001c5d8484846020604051908101604052806000815250602060405190810160405280600081525062001802565b90509392505050565b60008060008060009054906101000a900473ffffffffffffffffffffffffffffffffffffffff1673ffffffffffffffffffffffffffffffffffffffff16148062001cdb5750600062001cd96000809054906101000a900473ffffffffffffffffffffffffffffffffffffffff166200210b565b145b1562001cef5762001ced600062002116565b505b6000809054906101000a900473ffffffffffffffffffffffffffffffffffffffff1673ffffffffffffffffffffffffffffffffffffffff166338cc48316040518163ffffffff167c0100000000000000000000000000000000000000000000000000000000028152600401602060405180830381600087803b15801562001d7557600080fd5b505af115801562001d8a573d6000803e3d6000fd5b505050506040513d601f19601f8201168201806040525062001db09190810190620027cc565b73ffffffffffffffffffffffffffffffffffffffff16600160009054906101000a900473ffffffffffffffffffffffffffffffffffffffff1673ffffffffffffffffffffffffffffffffffffffff1614151562001f09576000809054906101000a900473ffffffffffffffffffffffffffffffffffffffff1673ffffffffffffffffffffffffffffffffffffffff166338cc48316040518163ffffffff167c0100000000000000000000000000000000000000000000000000000000028152600401602060405180830381600087803b15801562001e8d57600080fd5b505af115801562001ea2573d6000803e3d6000fd5b505050506040513d601f19601f8201168201806040525062001ec89190810190620027cc565b600160006101000a81548173ffffffffffffffffffffffffffffffffffffffff021916908373ffffffffffffffffffffffffffffffffffffffff1602179055505b600160009054906101000a900473ffffffffffffffffffffffffffffffffffffffff1673ffffffffffffffffffffffffffffffffffffffff16632ef3accc86856040518363ffffffff167c010000000000000000000000000000000000000000000000000000000002815260040162001f8492919062002bb5565b602060405180830381600087803b15801562001f9f57600080fd5b505af115801562001fb4573d6000803e3d6000fd5b505050506040513d601f19601f8201168201806040525062001fda9190810190620029be565b9050823a02670de0b6b3a76400000181111562001ffe5760006001029150620020d8565b600160009054906101000a900473ffffffffffffffffffffffffffffffffffffffff1673ffffffffffffffffffffffffffffffffffffffff1663c51be90f8260008888886040518663ffffffff167c01000000000000000000000000000000000000000000000000000000000281526004016200207f949392919062002ae9565b6020604051808303818588803b1580156200209957600080fd5b505af1158015620020ae573d6000803e3d6000fd5b50505050506040513d601f19601f82011682018060405250620020d59190810190620027f8565b91505b509392505050565b60606200210185858585602060405190810160405280600081525062001802565b9050949350505050565b6000813b9050919050565b60006200212262002129565b9050919050565b6000806200214b731d3b2638a7cc9f2cb3d298a3da7a90b67e5506ed6200210b565b1115620021f057731d3b2638a7cc9f2cb3d298a3da7a90b67e5506ed6000806101000a81548173ffffffffffffffffffffffffffffffffffffffff021916908373ffffffffffffffffffffffffffffffffffffffff160217905550620021e66040805190810160405280600b81526020017f6574685f6d61696e6e6574000000000000000000000000000000000000000000815250620025dc565b60019050620025d9565b60006200221173c03a2615d5efaf5f49f60b7bb6583eaec212fdf16200210b565b1115620022b65773c03a2615d5efaf5f49f60b7bb6583eaec212fdf16000806101000a81548173ffffffffffffffffffffffffffffffffffffffff021916908373ffffffffffffffffffffffffffffffffffffffff160217905550620022ac6040805190810160405280600c81526020017f6574685f726f707374656e330000000000000000000000000000000000000000815250620025dc565b60019050620025d9565b6000620022d773b7a07bcf2ba2f2703b24c0691b5278999c59ac7e6200210b565b11156200237c5773b7a07bcf2ba2f2703b24c0691b5278999c59ac7e6000806101000a81548173ffffffffffffffffffffffffffffffffffffffff021916908373ffffffffffffffffffffffffffffffffffffffff160217905550620023726040805190810160405280600981526020017f6574685f6b6f76616e0000000000000000000000000000000000000000000000815250620025dc565b60019050620025d9565b60006200239d73146500cfd35b22e4a392fe0adc06de1a1368ed486200210b565b1115620024425773146500cfd35b22e4a392fe0adc06de1a1368ed486000806101000a81548173ffffffffffffffffffffffffffffffffffffffff021916908373ffffffffffffffffffffffffffffffffffffffff160217905550620024386040805190810160405280600b81526020017f6574685f72696e6b656279000000000000000000000000000000000000000000815250620025dc565b60019050620025d9565b600062002463736f485c8bf6fc43ea212e93bbf8ce046c7f1cb4756200210b565b1115620024c857736f485c8bf6fc43ea212e93bbf8ce046c7f1cb4756000806101000a81548173ffffffffffffffffffffffffffffffffffffffff021916908373ffffffffffffffffffffffffffffffffffffffff16021790555060019050620025d9565b6000620024e97320e12a1f859b3feae5fb2a0a32c18f5a65555bbf6200210b565b11156200254e577320e12a1f859b3feae5fb2a0a32c18f5a65555bbf6000806101000a81548173ffffffffffffffffffffffffffffffffffffffff021916908373ffffffffffffffffffffffffffffffffffffffff16021790555060019050620025d9565b60006200256f7351efaf4c8b3c9afbd5ab9f4bbc82784ab6ef8faa6200210b565b1115620025d4577351efaf4c8b3c9afbd5ab9f4bbc82784ab6ef8faa6000806101000a81548173ffffffffffffffffffffffffffffffffffffffff021916908373ffffffffffffffffffffffffffffffffffffffff16021790555060019050620025d9565b600090505b90565b8060029080519060200190620025f492919062002609565b5050565b6040516104d48062002da383390190565b828054600181600116156101000203166002900490600052602060002090601f016020900481019282601f106200264c57805160ff19168380011785556200267d565b828001600101855582156200267d579182015b828111156200267c5782518255916020019190600101906200265f565b5b5090506200268c919062002690565b5090565b620026b591905b80821115620026b157600081600090555060010162002697565b5090565b90565b6000620026c6825162002cc8565b905092915050565b6000620026dc823562002ce8565b905092915050565b6000620026f2825162002ce8565b905092915050565b600082601f83011215156200270e57600080fd5b8135620027256200271f8262002c39565b62002c0b565b915080825260208301602083018583830111156200274257600080fd5b6200274f83828462002d4c565b50505092915050565b600082601f83011215156200276c57600080fd5b8135620027836200277d8262002c66565b62002c0b565b91508082526020830160208301858383011115620027a057600080fd5b620027ad83828462002d4c565b50505092915050565b6000620027c4825162002cf2565b905092915050565b600060208284031215620027df57600080fd5b6000620027ef84828501620026b8565b91505092915050565b6000602082840312156200280b57600080fd5b60006200281b84828501620026e4565b91505092915050565b600080604083850312156200283857600080fd5b60006200284885828601620026ce565b925050602083013567ffffffffffffffff8111156200286657600080fd5b620028748582860162002758565b9150509250929050565b6000806000606084860312156200289457600080fd5b6000620028a486828701620026ce565b935050602084013567ffffffffffffffff811115620028c257600080fd5b620028d08682870162002758565b925050604084013567ffffffffffffffff811115620028ee57600080fd5b620028fc86828701620026fa565b9150509250925092565b6000602082840312156200291957600080fd5b600082013567ffffffffffffffff8111156200293457600080fd5b620029428482850162002758565b91505092915050565b600080604083850312156200295f57600080fd5b600083013567ffffffffffffffff8111156200297a57600080fd5b620029888582860162002758565b925050602083013567ffffffffffffffff811115620029a657600080fd5b620029b48582860162002758565b9150509250929050565b600060208284031215620029d157600080fd5b6000620029e184828501620027b6565b91505092915050565b620029f58162002c9e565b82525050565b62002a068162002cfc565b82525050565b62002a178162002d10565b82525050565b62002a288162002d24565b82525050565b62002a398162002d38565b82525050565b600062002a4c8262002c93565b80845262002a6281602086016020860162002d5b565b62002a6d8162002d91565b602085010191505092915050565b6000603582527f4f7261636c697a65207175657279207761732073656e742c207374616e64696e60208301527f6720627920666f722074686520616e737765722e2e00000000000000000000006040830152606082019050919050565b62002ae38162002cbe565b82525050565b600060808201905062002b006000830187620029fb565b818103602083015262002b14818662002a3f565b9050818103604083015262002b2a818562002a3f565b905062002b3b606083018462002ad8565b95945050505050565b600060808201905062002b5b600083018762002a0c565b62002b6a602083018662002a2e565b62002b796040830185620029ea565b62002b88606083018462002a1d565b95945050505050565b6000602082019050818103600083015262002bad818462002a3f565b905092915050565b6000604082019050818103600083015262002bd1818562002a3f565b905062002be2602083018462002ad8565b9392505050565b6000602082019050818103600083015262002c048162002a7b565b9050919050565b6000604051905081810181811067ffffffffffffffff8211171562002c2f57600080fd5b8060405250919050565b600067ffffffffffffffff82111562002c5157600080fd5b601f19601f8301169050602081019050919050565b600067ffffffffffffffff82111562002c7e57600080fd5b601f19601f8301169050602081019050919050565b600081519050919050565b600073ffffffffffffffffffffffffffffffffffffffff82169050919050565b6000819050919050565b600073ffffffffffffffffffffffffffffffffffffffff82169050919050565b6000819050919050565b6000819050919050565b600062002d098262002cbe565b9050919050565b600062002d1d8262002cbe565b9050919050565b600062002d318262002cbe565b9050919050565b600062002d458262002c9e565b9050919050565b82818337600083830152505050565b60005b8381101562002d7b57808201518184015260208101905062002d5e565b8381111562002d8b576000848401525b50505050565b6000601f19601f83011690509190505600608060405234801561001057600080fd5b506040516080806104d483398101806040528101908080519060200190929190805190602001909291908051906020019092919080519060200190929190505050600033600260016101000a81548173ffffffffffffffffffffffffffffffffffffffff021916908373ffffffffffffffffffffffffffffffffffffffff16021790555082600460006101000a81548173ffffffffffffffffffffffffffffffffffffffff021916908373ffffffffffffffffffffffffffffffffffffffff16021790555083600360006101000a81548173ffffffffffffffffffffffffffffffffffffffff021916908373ffffffffffffffffffffffffffffffffffffffff16021790555084600081905550816001819055506000600260006101000a81548160ff021916908315150217905550600460009054906101000a900473ffffffffffffffffffffffffffffffffffffffff1690508073ffffffffffffffffffffffffffffffffffffffff16639cef7a5b600054600360009054906101000a900473ffffffffffffffffffffffffffffffffffffffff166040518363ffffffff167c0100000000000000000000000000000000000000000000000000000000028152600401808381526020018273ffffffffffffffffffffffffffffffffffffffff1673ffffffffffffffffffffffffffffffffffffffff16815260200192505050600060405180830381600087803b15801561022b57600080fd5b505af115801561023f573d6000803e3d6000fd5b50505050505050505061027d806102576000396000f30060806040526004361061006d576000357c0100000000000000000000000000000000000000000000000000000000900463ffffffff1680631b9265b814610072578063209652551461009457806331b2ffaf146100bf5780634212ed2614610116578063893d20e814610145575b600080fd5b61007a61019c565b604051808215151515815260200191505060405180910390f35b3480156100a057600080fd5b506100a96101dd565b6040518082815260200191505060405180910390f35b3480156100cb57600080fd5b506100d46101e6565b604051808273ffffffffffffffffffffffffffffffffffffffff1673ffffffffffffffffffffffffffffffffffffffff16815260200191505060405180910390f35b34801561012257600080fd5b5061012b610210565b604051808215151515815260200191505060405180910390f35b34801561015157600080fd5b5061015a610227565b604051808273ffffffffffffffffffffffffffffffffffffffff1673ffffffffffffffffffffffffffffffffffffffff16815260200191505060405180910390f35b60008054341415156101ad57600080fd5b6001600260006101000a81548160ff021916908315150217905550600260009054906101000a900460ff16905090565b60008054905090565b6000600360009054906101000a900473ffffffffffffffffffffffffffffffffffffffff16905090565b6000600260009054906101000a900460ff16905090565b6000600260019054906101000a900473ffffffffffffffffffffffffffffffffffffffff169050905600a165627a7a7230582027c7e7d9e06039e72137817b7a4807167322307f3a968fb5ce1bb9d5f09999370029a265627a7a72305820377002d0b78a5eb42e11ce8b79a3e72269e423f17c183f2748805511a6a6ac5d6c6578706572696d656e74616cf50037",
  "source": "pragma experimental ABIEncoderV2;\n\nimport \"./Market.sol\";\nimport \"./Utils.sol\";\nimport \"./Future.sol\";\nimport \"./VariationMarginAutoExecution.sol\";\n\ncontract CompensationChamber\n{\n    address private marketAddress;\n    address private marketDataAddress;\n    address private settlementAddress;\n\n    mapping (address => bool) isAClearingMember;\n    mapping (string => bool) emailIsRegistred;\n    mapping (string => Utils.clearingMember) mapEmailToClearingMemberStruct;\n    address[] clearingMembersAddresses;\n    Utils.clearingMember[] clearingMembers;\n\n    address[] payments;\n    address[] derivatives;\n\n    int numberOfClearingMembers;\n\n    /**\n     * Modifiers\n     */\n\n    modifier onlyMarket\n    {\n        require (msg.sender == marketAddress);\n        _;\n    }\n\n    modifier onlySettlement\n    {\n        require (msg.sender == settlementAddress);\n        _;\n    }\n\n    modifier onlyMarketData\n    {\n        require (msg.sender == marketDataAddress);\n        _;\n    }\n\n    modifier onlyVMOrMarket\n    {\n        require (msg.sender == marketAddress/* || msg.sender == */);\n        _;\n    }\n\n    function CompensationChamber(uint timestampUntilNextVMrevision) public payable\n    {\n        marketAddress = msg.sender;\n        marketDataAddress = (new MarketData).value(3 ether)();\n        numberOfClearingMembers = 0;\n        //uint timeUntilFirstVMRevisionInSeconds = timestampUntilNextVMrevision - block.timestamp;\n    }\n\n    function addClearingMember(string _name, string _email, address _clearingMemberAddress, string _password) onlyMarket public returns(int)\n    {\n\n        if (emailIsRegistred[_email] == true)\n        {\n          return -1;\n        }\n        else\n        {\n          numberOfClearingMembers++;\n          int addressID = numberOfClearingMembers;\n\n          isAClearingMember[_clearingMemberAddress] = true;\n          emailIsRegistred[_email] = true;\n          Utils.clearingMember memory _clearingMemberStruct = Utils.clearingMember(_name, _email, 0x0, _password, addressID);\n          mapEmailToClearingMemberStruct[_email] = _clearingMemberStruct;\n          clearingMembers.push(_clearingMemberStruct);\n          clearingMembersAddresses.push(_clearingMemberAddress);\n\n          return addressID;\n        }\n    }\n\n    function confirmClearingMember(address _clearingMemberAddress, string _email)\n    {\n      if (isAClearingMember[_clearingMemberAddress] != true)\n      {\n        isAClearingMember[_clearingMemberAddress] = true;\n        mapEmailToClearingMemberStruct[_email].clearingMemberAddress = _clearingMemberAddress;\n      }\n    }\n\n    function checkSignInEmailAndPassword(string _email, string _password) onlyMarket public returns(int addressID, string name, address clearingMemberAddress)\n    {\n      if (emailIsRegistred[_email] != true)\n      {\n        addressID = -1;\n        name = \"\";\n        clearingMemberAddress = 0x0;\n      }\n      else if (Utils.compareStrings(mapEmailToClearingMemberStruct[_email].password, _password))\n      {\n        addressID = mapEmailToClearingMemberStruct[_email].addressID;\n        name = mapEmailToClearingMemberStruct[_email].name;\n        clearingMemberAddress = mapEmailToClearingMemberStruct[_email].clearingMemberAddress;\n      }\n      else\n      {\n        addressID = -2;\n        name = \"\";\n        clearingMemberAddress = 0x0;\n      }\n    }\n\n    function futureNovation(address _longClearingMemberAddress, address _shortClearingMemberAddress, string _instrumentID, string _amount, string _price, uint _settlementTimestamp, string _market) public onlyMarket payable\n    {\n        bool _longClearingMemberAddressExist = isAClearingMember[_longClearingMemberAddress];\n        bool _shortClearingMemberAddressExist = isAClearingMember[_shortClearingMemberAddress];\n\n        require(_longClearingMemberAddressExist == true && _shortClearingMemberAddressExist == true && msg.value >= 1 ether);\n\n        derivatives.push((new Future).value(msg.value)(_longClearingMemberAddress, _shortClearingMemberAddress, _instrumentID, _amount, _price, _settlementTimestamp, marketDataAddress, _market));\n    }\n\n    //function swapNovation(address _fixedLegClearingMemberAddress, address _floatingLegClearingMemberAddress, string _instrumentID, string _nominal, uint _settlementTimestamp, string _market) public payable\n\n    function getMarketAddress() public view returns(address)\n    {\n        return marketAddress;\n    }\n\n    function paymentRequest(uint _value, address _clearingMemberAddress) public\n    {\n        payments.push(msg.sender);\n        Market _marketContract = Market(marketAddress);\n        _marketContract.paymentRequest(msg.sender, _value, _clearingMemberAddress);\n    }\n\n\n    // Compute\n    uint counter;\n    mapping (address => uint) mapAddressToTotalVM;\n\n    function computeVariationMargin() /*onlyVMOrMarket*/ public\n    {\n        counter = derivatives.length * 2;\n        Utils.variationMarginChange[2] memory varMarginChangeArray;\n\n        for (uint i = 0; i < derivatives.length; i++)\n        {\n            Derivative _derivative = Derivative(derivatives[i]);\n            varMarginChangeArray = _derivative.computeVM();\n\n            variationMargin(varMarginChangeArray[0]);\n            variationMargin(varMarginChangeArray[1]);\n        }\n    }\n\n    mapping (address => int) mapAddressToVMValue;\n\n    function variationMargin(Utils.variationMarginChange _VMStruct) private\n    {\n        counter = counter - 1;\n\n        mapAddressToVMValue[_VMStruct.clearingMemberAddress] = mapAddressToVMValue[_VMStruct.clearingMemberAddress] + _VMStruct.value;\n\n        if (counter == 0)\n        {\n            sendPaymentRequestOrSendPayment();\n            removeMapAddressToVMValue();\n        }\n    }\n\n    function sendPaymentRequestOrSendPayment() private\n    {\n        int value;\n        address clearingMemberAddress;\n\n        address paymentRequestAddress;\n\n        for (uint i = 0; i < clearingMembersAddresses.length; i++)\n        {\n            clearingMemberAddress = clearingMembersAddresses[i];\n            value = mapAddressToVMValue[clearingMemberAddress];\n\n            if (value > 0)\n            {\n                paymentRequestAddress = new PaymentRequest( uint(value), clearingMemberAddress, this, 1);\n            }\n            else if (value < 0)\n            {\n                clearingMemberAddress.transfer( uint(value/-1));\n            }\n        }\n    }\n\n    function removeMapAddressToVMValue() private\n    {\n        for (uint i = 0; i < clearingMembersAddresses.length; i++)\n        {\n            mapAddressToVMValue[clearingMembersAddresses[i]] = 0;\n        }\n    }\n}\n",
  "sourcePath": "/home/dtm/Desktop/TFM/DAPPS/CompensationChamber/contracts/CompensationChamber.sol",
  "compiler": {
    "name": "solc",
    "version": "0.4.24+commit.e67f0147.Emscripten.clang"
  },
  "schemaVersion": "2.0.1",
  "updatedAt": "2018-07-20T07:38:40.620Z"
}