{
  "contractName": "CompensationChamber",
  "abi": [
    {
      "inputs": [
        {
          "name": "timestampUntilNextVMrevision",
          "type": "uint256"
        }
      ],
      "payable": true,
      "stateMutability": "payable",
      "type": "constructor"
    },
    {
      "constant": false,
      "inputs": [
        {
          "name": "_clearingMemberAddress",
          "type": "address"
        }
      ],
      "name": "addClearingMember",
      "outputs": [],
      "payable": false,
      "stateMutability": "nonpayable",
      "type": "function"
    },
    {
      "constant": false,
      "inputs": [
        {
          "name": "_longClearingMemberAddress",
          "type": "address"
        },
        {
          "name": "_shortClearingMemberAddress",
          "type": "address"
        },
        {
          "name": "_instrumentID",
          "type": "string"
        },
        {
          "name": "_amount",
          "type": "string"
        },
        {
          "name": "_price",
          "type": "string"
        },
        {
          "name": "_settlementTimestamp",
          "type": "uint256"
        },
        {
          "name": "_market",
          "type": "string"
        }
      ],
      "name": "futureNovation",
      "outputs": [],
      "payable": true,
      "stateMutability": "payable",
      "type": "function"
    },
    {
      "constant": true,
      "inputs": [],
      "name": "getMarketAddress",
      "outputs": [
        {
          "name": "",
          "type": "address"
        }
      ],
      "payable": false,
      "stateMutability": "view",
      "type": "function"
    },
    {
      "constant": false,
      "inputs": [
        {
          "name": "_value",
          "type": "uint256"
        },
        {
          "name": "_clearingMemberAddress",
          "type": "address"
        }
      ],
      "name": "paymentRequest",
      "outputs": [],
      "payable": false,
      "stateMutability": "nonpayable",
      "type": "function"
    },
    {
      "constant": false,
      "inputs": [],
      "name": "computeVariationMargin",
      "outputs": [],
      "payable": false,
      "stateMutability": "nonpayable",
      "type": "function"
    }
  ],
  "bytecode": "0x608060405260405160208062006ba0833981018060405261002391908101906100fd565b336000806101000a81548173ffffffffffffffffffffffffffffffffffffffff021916908373ffffffffffffffffffffffffffffffffffffffff1602179055506729a2241af62c00006100746100d8565b6040518091039082f08015801561008f573d6000803e3d6000fd5b509050600160006101000a81548173ffffffffffffffffffffffffffffffffffffffff021916908373ffffffffffffffffffffffffffffffffffffffff16021790555050610130565b604051613e7c8062002d2483390190565b60006100f58251610126565b905092915050565b60006020828403121561010f57600080fd5b600061011d848285016100e9565b91505092915050565b6000819050919050565b612be480620001406000396000f30060806040526004361062000073576000357c0100000000000000000000000000000000000000000000000000000000900463ffffffff1680630ff49ddd146200007857806352f82efd14620000a65780638229be0914620000c65780639cef7a5b14620000e0578063e7334fe5146200010e575b600080fd5b3480156200008557600080fd5b50620000a460048036036200009e919081019062000bfc565b6200013e565b005b620000c46004803603620000be919081019062000c28565b6200025b565b005b348015620000d357600080fd5b50620000de62000469565b005b348015620000ed57600080fd5b506200010c600480360362000106919081019062000d65565b620005c8565b005b3480156200011b57600080fd5b5062000126620006e8565b60405162000135919062000e26565b60405180910390f35b6000809054906101000a900473ffffffffffffffffffffffffffffffffffffffff1673ffffffffffffffffffffffffffffffffffffffff163373ffffffffffffffffffffffffffffffffffffffff161415156200019a57600080fd5b60048190806001815401808255809150509060018203906000526020600020016000909192909190916101000a81548173ffffffffffffffffffffffffffffffffffffffff021916908373ffffffffffffffffffffffffffffffffffffffff160217905550506001600360008373ffffffffffffffffffffffffffffffffffffffff1673ffffffffffffffffffffffffffffffffffffffff16815260200190815260200160002060006101000a81548160ff02191690831515021790555050565b6000806000809054906101000a900473ffffffffffffffffffffffffffffffffffffffff1673ffffffffffffffffffffffffffffffffffffffff163373ffffffffffffffffffffffffffffffffffffffff16141515620002ba57600080fd5b600360008a73ffffffffffffffffffffffffffffffffffffffff1673ffffffffffffffffffffffffffffffffffffffff16815260200190815260200160002060009054906101000a900460ff169150600360008973ffffffffffffffffffffffffffffffffffffffff1673ffffffffffffffffffffffffffffffffffffffff16815260200190815260200160002060009054906101000a900460ff1690506001151582151514801562000371575060011515811515145b8015620003865750670de0b6b3a76400003410155b15156200039257600080fd5b6006348a8a8a8a8a8a600160009054906101000a900473ffffffffffffffffffffffffffffffffffffffff168b620003c9620009f0565b620003dc98979695949392919062000e43565b6040518091039082f080158015620003f8573d6000803e3d6000fd5b50905090806001815401808255809150509060018203906000526020600020016000909192909190916101000a81548173ffffffffffffffffffffffffffffffffffffffff021916908373ffffffffffffffffffffffffffffffffffffffff16021790555050505050505050505050565b6200047362000a01565b600080600260068054905002600781905550600091505b600680549050821015620005c357600682815481101515620004a857fe5b9060005260206000200160009054906101000a900473ffffffffffffffffffffffffffffffffffffffff1690508073ffffffffffffffffffffffffffffffffffffffff1663543703596040518163ffffffff167c0100000000000000000000000000000000000000000000000000000000028152600401608060405180830381600087803b1580156200053a57600080fd5b505af11580156200054f573d6000803e3d6000fd5b505050506040513d601f19601f8201168201806040525062000575919081019062000d39565b9250620005968360006002811015156200058b57fe5b602002015162000711565b620005b5836001600281101515620005aa57fe5b602002015162000711565b81806001019250506200048a565b505050565b600060053390806001815401808255809150509060018203906000526020600020016000909192909190916101000a81548173ffffffffffffffffffffffffffffffffffffffff021916908373ffffffffffffffffffffffffffffffffffffffff160217905550506000809054906101000a900473ffffffffffffffffffffffffffffffffffffffff1690508073ffffffffffffffffffffffffffffffffffffffff166381d3afac3385856040518463ffffffff167c0100000000000000000000000000000000000000000000000000000000028152600401620006af9392919062000eed565b600060405180830381600087803b158015620006ca57600080fd5b505af1158015620006df573d6000803e3d6000fd5b50505050505050565b60008060009054906101000a900473ffffffffffffffffffffffffffffffffffffffff16905090565b600160075403600781905550806020015160096000836000015173ffffffffffffffffffffffffffffffffffffffff1673ffffffffffffffffffffffffffffffffffffffff168152602001908152602001600020540160096000836000015173ffffffffffffffffffffffffffffffffffffffff1673ffffffffffffffffffffffffffffffffffffffff1681526020019081526020016000208190555060006007541415620007cf57620007c4620007d2565b620007ce6200094c565b5b50565b600080600080600090505b6004805490508110156200094657600481815481101515620007fb57fe5b9060005260206000200160009054906101000a900473ffffffffffffffffffffffffffffffffffffffff169250600960008473ffffffffffffffffffffffffffffffffffffffff1673ffffffffffffffffffffffffffffffffffffffff1681526020019081526020016000205493506000841315620008b85783833060016200088362000a32565b62000892949392919062000f2a565b604051809103906000f080158015620008af573d6000803e3d6000fd5b50915062000938565b600084121562000937578273ffffffffffffffffffffffffffffffffffffffff166108fc7fffffffffffffffffffffffffffffffffffffffffffffffffffffffffffffffff868115156200090857fe5b059081150290604051600060405180830381858888f1935050505015801562000935573d6000803e3d6000fd5b505b5b8080600101915050620007dd565b50505050565b60008090505b600480549050811015620009ed576000600960006004848154811015156200097657fe5b9060005260206000200160009054906101000a900473ffffffffffffffffffffffffffffffffffffffff1673ffffffffffffffffffffffffffffffffffffffff1673ffffffffffffffffffffffffffffffffffffffff16815260200190815260200160002081905550808060010191505062000952565b50565b6040516115fa80620010dd83390190565b6080604051908101604052806002905b62000a1b62000a43565b81526020019060019003908162000a115790505090565b6040516104d480620026d783390190565b6040805190810160405280600073ffffffffffffffffffffffffffffffffffffffff168152602001600081525090565b600062000a8182356200102a565b905092915050565b600062000a9782516200102a565b905092915050565b600082601f830112151562000ab357600080fd5b600262000aca62000ac48262000fa5565b62000f77565b9150818385604084028201111562000ae157600080fd5b60005b8381101562000b15578162000afa888262000b93565b84526020840193506040830192505060018101905062000ae4565b5050505092915050565b600062000b2d82516200104a565b905092915050565b600082601f830112151562000b4957600080fd5b813562000b6062000b5a8262000fc8565b62000f77565b9150808252602083016020830185838301111562000b7d57600080fd5b62000b8a83828462001086565b50505092915050565b60006040828403121562000ba657600080fd5b62000bb2604062000f77565b9050600062000bc48482850162000a89565b600083015250602062000bda8482850162000b1f565b60208301525092915050565b600062000bf4823562001054565b905092915050565b60006020828403121562000c0f57600080fd5b600062000c1f8482850162000a73565b91505092915050565b600080600080600080600060e0888a03121562000c4457600080fd5b600062000c548a828b0162000a73565b975050602062000c678a828b0162000a73565b965050604088013567ffffffffffffffff81111562000c8557600080fd5b62000c938a828b0162000b35565b955050606088013567ffffffffffffffff81111562000cb157600080fd5b62000cbf8a828b0162000b35565b945050608088013567ffffffffffffffff81111562000cdd57600080fd5b62000ceb8a828b0162000b35565b93505060a062000cfe8a828b0162000be6565b92505060c088013567ffffffffffffffff81111562000d1c57600080fd5b62000d2a8a828b0162000b35565b91505092959891949750929550565b60006080828403121562000d4c57600080fd5b600062000d5c8482850162000a9f565b91505092915050565b6000806040838503121562000d7957600080fd5b600062000d898582860162000be6565b925050602062000d9c8582860162000a73565b9150509250929050565b62000db18162001000565b82525050565b62000dc2816200105e565b82525050565b62000dd38162001072565b82525050565b600062000de68262000ff5565b80845262000dfc81602086016020860162001095565b62000e0781620010cb565b602085010191505092915050565b62000e208162001020565b82525050565b600060208201905062000e3d600083018462000da6565b92915050565b60006101008201905062000e5b600083018b62000da6565b62000e6a602083018a62000da6565b818103604083015262000e7e818962000dd9565b9050818103606083015262000e94818862000dd9565b9050818103608083015262000eaa818762000dd9565b905062000ebb60a083018662000e15565b62000eca60c083018562000da6565b81810360e083015262000ede818462000dd9565b90509998505050505050505050565b600060608201905062000f04600083018662000da6565b62000f13602083018562000e15565b62000f22604083018462000da6565b949350505050565b600060808201905062000f41600083018762000e15565b62000f50602083018662000da6565b62000f5f604083018562000db7565b62000f6e606083018462000dc8565b95945050505050565b6000604051905081810181811067ffffffffffffffff8211171562000f9b57600080fd5b8060405250919050565b600067ffffffffffffffff82111562000fbd57600080fd5b602082029050919050565b600067ffffffffffffffff82111562000fe057600080fd5b601f19601f8301169050602081019050919050565b600081519050919050565b600073ffffffffffffffffffffffffffffffffffffffff82169050919050565b6000819050919050565b600073ffffffffffffffffffffffffffffffffffffffff82169050919050565b6000819050919050565b6000819050919050565b60006200106b8262001000565b9050919050565b60006200107f8262001020565b9050919050565b82818337600083830152505050565b60005b83811015620010b557808201518184015260208101905062001098565b83811115620010c5576000848401525b50505050565b6000601f19601f830116905091905056006080604052604051620015fa380380620015fa8339810180604052620000299190810190620008ea565b8583838387846000908051906020019062000046929190620007b1565b5081600190805190602001906200005f929190620007b1565b5082600260006101000a81548173ffffffffffffffffffffffffffffffffffffffff021916908373ffffffffffffffffffffffffffffffffffffffff16021790555033600360006101000a81548173ffffffffffffffffffffffffffffffffffffffff021916908373ffffffffffffffffffffffffffffffffffffffff1602179055508060069080519060200190620000fa929190620007b1565b5083600581905550426004819055505050505050670de0b6b3a764000034101515156200012657600080fd5b87600a60006101000a81548173ffffffffffffffffffffffffffffffffffffffff021916908373ffffffffffffffffffffffffffffffffffffffff16021790555086600b60006101000a81548173ffffffffffffffffffffffffffffffffffffffff021916908373ffffffffffffffffffffffffffffffffffffffff16021790555084600c9080519060200190620001c0929190620007b1565b50620001da620001e8640100000000026401000000009004565b505050505050505062000ba7565b6000600260009054906101000a900473ffffffffffffffffffffffffffffffffffffffff1690506200030260018054600181600116156101000203166002900480601f016020809104026020016040519081016040528092919081815260200182805460018160011615610100020316600290048015620002ad5780601f106200028157610100808354040283529160200191620002ad565b820191906000526020600020905b8154815290600101906020018083116200028f57829003601f168201915b50505050506040805190810160405280600381526020017f424f450000000000000000000000000000000000000000000000000000000000815250620006d46401000000000262000930176401000000009004565b15620003a6578073ffffffffffffffffffffffffffffffffffffffff1663cc9df742670de0b6b3a7640000600c60006040518463ffffffff167c01000000000000000000000000000000000000000000000000000000000281526004016200036c92919062000a9f565b6000604051808303818588803b1580156200038657600080fd5b505af11580156200039b573d6000803e3d6000fd5b5050505050620006d1565b6200049960018054600181600116156101000203166002900480601f016020809104026020016040519081016040528092919081815260200182805460018160011615610100020316600290048015620004445780601f10620004185761010080835404028352916020019162000444565b820191906000526020600020905b8154815290600101906020018083116200042657829003601f168201915b50505050506040805190810160405280600581526020017f4555524558000000000000000000000000000000000000000000000000000000815250620006d46401000000000262000930176401000000009004565b156200053d578073ffffffffffffffffffffffffffffffffffffffff1663c4899919670de0b6b3a7640000600c60006040518463ffffffff167c01000000000000000000000000000000000000000000000000000000000281526004016200050392919062000a9f565b6000604051808303818588803b1580156200051d57600080fd5b505af115801562000532573d6000803e3d6000fd5b5050505050620006d0565b6200063060018054600181600116156101000203166002900480601f016020809104026020016040519081016040528092919081815260200182805460018160011615610100020316600290048015620005db5780601f10620005af57610100808354040283529160200191620005db565b820191906000526020600020905b815481529060010190602001808311620005bd57829003601f168201915b50505050506040805190810160405280600381526020017f434d450000000000000000000000000000000000000000000000000000000000815250620006d46401000000000262000930176401000000009004565b15620006cf578073ffffffffffffffffffffffffffffffffffffffff166382636bd8670de0b6b3a7640000600c60006040518463ffffffff167c01000000000000000000000000000000000000000000000000000000000281526004016200069a92919062000a9f565b6000604051808303818588803b158015620006b457600080fd5b505af1158015620006c9573d6000803e3d6000fd5b50505050505b5b5b50565b6000816040518082805190602001908083835b6020831015156200070e5780518252602082019150602081019050602083039250620006e7565b6001836020036101000a038019825116818451168082178552505050505050905001915050604051809103902060001916836040518082805190602001908083835b60208310151562000777578051825260208201915060208101905060208303925062000750565b6001836020036101000a03801982511681845116808217855250505050505090500191505060405180910390206000191614905092915050565b828054600181600116156101000203166002900490600052602060002090601f016020900481019282601f10620007f457805160ff191683800117855562000825565b8280016001018555821562000825579182015b828111156200082457825182559160200191906001019062000807565b5b50905062000834919062000838565b5090565b6200085d91905b80821115620008595760008160009055506001016200083f565b5090565b90565b60006200086e825162000b47565b905092915050565b600082601f83011215156200088a57600080fd5b8151620008a16200089b8262000b08565b62000ada565b91508082526020830160208301858383011115620008be57600080fd5b620008cb83828462000b71565b50505092915050565b6000620008e2825162000b67565b905092915050565b600080600080600080600080610100898b0312156200090857600080fd5b6000620009188b828c0162000860565b98505060206200092b8b828c0162000860565b975050604089015167ffffffffffffffff8111156200094957600080fd5b620009578b828c0162000876565b965050606089015167ffffffffffffffff8111156200097557600080fd5b620009838b828c0162000876565b955050608089015167ffffffffffffffff811115620009a157600080fd5b620009af8b828c0162000876565b94505060a0620009c28b828c01620008d4565b93505060c0620009d58b828c0162000860565b92505060e089015167ffffffffffffffff811115620009f357600080fd5b62000a018b828c0162000876565b9150509295985092959890939650565b60008154600181166000811462000a31576001811462000a525762000a97565b607f600283041680865260ff19831660208701526040860193505062000a97565b6002820480865260208601955062000a6a8562000b35565b60005b8281101562000a8e5781548189015260018201915060208101905062000a6d565b80880195505050505b505092915050565b6000604082019050818103600083015262000abb818562000a11565b9050818103602083015262000ad1818462000a11565b90509392505050565b6000604051905081810181811067ffffffffffffffff8211171562000afe57600080fd5b8060405250919050565b600067ffffffffffffffff82111562000b2057600080fd5b601f19601f8301169050602081019050919050565b60008160005260206000209050919050565b600073ffffffffffffffffffffffffffffffffffffffff82169050919050565b6000819050919050565b60005b8381101562000b9157808201518184015260208101905062000b74565b8381111562000ba1576000848401525b50505050565b610a438062000bb76000396000f30060806040526004361061006d576000357c0100000000000000000000000000000000000000000000000000000000900463ffffffff16806344cc75c31461007257806354370359146100af578063afabb0cc146100da578063b769fe9e14610105578063e38ecb2914610142575b600080fd5b34801561007e57600080fd5b506100996004803603610094919081019061069c565b61016b565b6040516100a691906107e9565b60405180910390f35b3480156100bb57600080fd5b506100c46101ff565b6040516100d1919061081f565b60405180910390f35b3480156100e657600080fd5b506100ef610401565b6040516100fc9190610804565b60405180910390f35b34801561011157600080fd5b5061012c6004803603610127919081019061069c565b6104bf565b60405161013991906107e9565b60405180910390f35b34801561014e57600080fd5b50610169600480360361016491908101906106c5565b610553565b005b600080600760008473ffffffffffffffffffffffffffffffffffffffff1673ffffffffffffffffffffffffffffffffffffffff16815260200190815260200160002060009054906101000a900473ffffffffffffffffffffffffffffffffffffffff16905060008173ffffffffffffffffffffffffffffffffffffffff161415156101f8578091506101f9565b5b50919050565b6102076105b2565b6000604080519081016040528073ca35b7d915458ef540ade6068dfe2f44e8fa733c73ffffffffffffffffffffffffffffffffffffffff168152602001600a81525081600060028110151561025857fe5b6002020160008201518160000160006101000a81548173ffffffffffffffffffffffffffffffffffffffff021916908373ffffffffffffffffffffffffffffffffffffffff16021790555060208201518160010155905050604080519081016040528073ca35b7d915458ef540ade6068dfe2f44e8fa733c73ffffffffffffffffffffffffffffffffffffffff168152602001600a8152508160016002811015156102ff57fe5b6002020160008201518160000160006101000a81548173ffffffffffffffffffffffffffffffffffffffff021916908373ffffffffffffffffffffffffffffffffffffffff1602179055506020820151816001015590505080600280602002604051908101604052809291906000905b828210156103f7578382600202016040805190810160405290816000820160009054906101000a900473ffffffffffffffffffffffffffffffffffffffff1673ffffffffffffffffffffffffffffffffffffffff1673ffffffffffffffffffffffffffffffffffffffff1681526020016001820154815250508152602001906001019061036f565b5050505091505090565b6104096105e0565b6040805190810160405280600a60009054906101000a900473ffffffffffffffffffffffffffffffffffffffff1673ffffffffffffffffffffffffffffffffffffffff1673ffffffffffffffffffffffffffffffffffffffff168152602001600b60009054906101000a900473ffffffffffffffffffffffffffffffffffffffff1673ffffffffffffffffffffffffffffffffffffffff1673ffffffffffffffffffffffffffffffffffffffff16815250905090565b600080600760008473ffffffffffffffffffffffffffffffffffffffff1673ffffffffffffffffffffffffffffffffffffffff16815260200190815260200160002060009054906101000a900473ffffffffffffffffffffffffffffffffffffffff16905060008173ffffffffffffffffffffffffffffffffffffffff1614151561054c5780915061054d565b5b50919050565b600260009054906101000a900473ffffffffffffffffffffffffffffffffffffffff1673ffffffffffffffffffffffffffffffffffffffff163373ffffffffffffffffffffffffffffffffffffffff161415156105af57600080fd5b50565b6080604051908101604052806002905b6105ca610602565b8152602001906001900390816105c25790505090565b6040805190810160405280600290602082028038833980820191505090505090565b6040805190810160405280600073ffffffffffffffffffffffffffffffffffffffff168152602001600081525090565b600061063e8235610901565b905092915050565b600082601f830112151561065957600080fd5b813561066c61066782610867565b61083a565b9150808252602083016020830185838301111561068857600080fd5b610693838284610921565b50505092915050565b6000602082840312156106ae57600080fd5b60006106bc84828501610632565b91505092915050565b6000602082840312156106d757600080fd5b600082013567ffffffffffffffff8111156106f157600080fd5b6106fd84828501610646565b91505092915050565b61070f816108d7565b82525050565b61071e816108a7565b61072782610893565b60005b828110156107595761073d858351610706565b610746826108bd565b915060208501945060018101905061072a565b5050505050565b610769816108b2565b6107728261089d565b60005b828110156107a4576107888583516107ba565b610791826108ca565b9150604085019450600181019050610775565b5050505050565b6107b4816108f7565b82525050565b6040820160008201516107d06000850182610706565b5060208201516107e360208501826107ab565b50505050565b60006020820190506107fe6000830184610706565b92915050565b60006040820190506108196000830184610715565b92915050565b60006080820190506108346000830184610760565b92915050565b6000604051905081810181811067ffffffffffffffff8211171561085d57600080fd5b8060405250919050565b600067ffffffffffffffff82111561087e57600080fd5b601f19601f8301169050602081019050919050565b6000819050919050565b6000819050919050565b600060029050919050565b600060029050919050565b6000602082019050919050565b6000602082019050919050565b600073ffffffffffffffffffffffffffffffffffffffff82169050919050565b6000819050919050565b600073ffffffffffffffffffffffffffffffffffffffff82169050919050565b82818337600083830152505050565b6000816040518082805190602001908083835b6020831015156109685780518252602082019150602081019050602083039250610943565b6001836020036101000a038019825116818451168082178552505050505050905001915050604051809103902060001916836040518082805190602001908083835b6020831015156109cf57805182526020820191506020810190506020830392506109aa565b6001836020036101000a038019825116818451168082178552505050505050905001915050604051809103902060001916149050929150505600a265627a7a723058201cc63796cb8d3f2fb3c9a7f83f092622258a3e136c12eee8ed45fdac3d5b88926c6578706572696d656e74616cf50037608060405234801561001057600080fd5b506040516080806104d483398101806040528101908080519060200190929190805190602001909291908051906020019092919080519060200190929190505050600033600260016101000a81548173ffffffffffffffffffffffffffffffffffffffff021916908373ffffffffffffffffffffffffffffffffffffffff16021790555082600460006101000a81548173ffffffffffffffffffffffffffffffffffffffff021916908373ffffffffffffffffffffffffffffffffffffffff16021790555083600360006101000a81548173ffffffffffffffffffffffffffffffffffffffff021916908373ffffffffffffffffffffffffffffffffffffffff16021790555084600081905550816001819055506000600260006101000a81548160ff021916908315150217905550600460009054906101000a900473ffffffffffffffffffffffffffffffffffffffff1690508073ffffffffffffffffffffffffffffffffffffffff16639cef7a5b600054600360009054906101000a900473ffffffffffffffffffffffffffffffffffffffff166040518363ffffffff167c0100000000000000000000000000000000000000000000000000000000028152600401808381526020018273ffffffffffffffffffffffffffffffffffffffff1673ffffffffffffffffffffffffffffffffffffffff16815260200192505050600060405180830381600087803b15801561022b57600080fd5b505af115801561023f573d6000803e3d6000fd5b50505050505050505061027d806102576000396000f30060806040526004361061006d576000357c0100000000000000000000000000000000000000000000000000000000900463ffffffff1680631b9265b814610072578063209652551461009457806331b2ffaf146100bf5780634212ed2614610116578063893d20e814610145575b600080fd5b61007a61019c565b604051808215151515815260200191505060405180910390f35b3480156100a057600080fd5b506100a96101dd565b6040518082815260200191505060405180910390f35b3480156100cb57600080fd5b506100d46101e6565b604051808273ffffffffffffffffffffffffffffffffffffffff1673ffffffffffffffffffffffffffffffffffffffff16815260200191505060405180910390f35b34801561012257600080fd5b5061012b610210565b604051808215151515815260200191505060405180910390f35b34801561015157600080fd5b5061015a610227565b604051808273ffffffffffffffffffffffffffffffffffffffff1673ffffffffffffffffffffffffffffffffffffffff16815260200191505060405180910390f35b60008054341415156101ad57600080fd5b6001600260006101000a81548160ff021916908315150217905550600260009054906101000a900460ff16905090565b60008054905090565b6000600360009054906101000a900473ffffffffffffffffffffffffffffffffffffffff16905090565b6000600260009054906101000a900460ff16905090565b6000600260019054906101000a900473ffffffffffffffffffffffffffffffffffffffff169050905600a165627a7a72305820c7d27150336c0ad56f090ff17cf45c944c78ebc72f51a5d3462f978af486235e0029a265627a7a72305820f2a2eceaad6e1dd9205fdb0daadb1e5498e8d54db407b26aee2f2a07e590c05d6c6578706572696d656e74616cf500376080604052623d0900600855736f485c8bf6fc43ea212e93bbf8ce046c7f1cb4756000806101000a81548173ffffffffffffffffffffffffffffffffffffffff021916908373ffffffffffffffffffffffffffffffffffffffff160217905550620000c160017f01000000000000000000000000000000000000000000000000000000000000000260107f0100000000000000000000000000000000000000000000000000000000000000021762000108640100000000026401000000009004565b33600760006101000a81548173ffffffffffffffffffffffffffffffffffffffff021916908373ffffffffffffffffffffffffffffffffffffffff16021790555062000b0c565b60008060009054906101000a900473ffffffffffffffffffffffffffffffffffffffff1673ffffffffffffffffffffffffffffffffffffffff1614806200018957506000620001876000809054906101000a900473ffffffffffffffffffffffffffffffffffffffff16620004bc640100000000026401000000009004565b145b15620001ac57620001aa6000620004c7640100000000026401000000009004565b505b6000809054906101000a900473ffffffffffffffffffffffffffffffffffffffff1673ffffffffffffffffffffffffffffffffffffffff166338cc48316040518163ffffffff167c0100000000000000000000000000000000000000000000000000000000028152600401602060405180830381600087803b1580156200023257600080fd5b505af115801562000247573d6000803e3d6000fd5b505050506040513d60208110156200025e57600080fd5b810190808051906020019092919050505073ffffffffffffffffffffffffffffffffffffffff16600160009054906101000a900473ffffffffffffffffffffffffffffffffffffffff1673ffffffffffffffffffffffffffffffffffffffff16141515620003ca576000809054906101000a900473ffffffffffffffffffffffffffffffffffffffff1673ffffffffffffffffffffffffffffffffffffffff166338cc48316040518163ffffffff167c0100000000000000000000000000000000000000000000000000000000028152600401602060405180830381600087803b1580156200034c57600080fd5b505af115801562000361573d6000803e3d6000fd5b505050506040513d60208110156200037857600080fd5b8101908080519060200190929190505050600160006101000a81548173ffffffffffffffffffffffffffffffffffffffff021916908373ffffffffffffffffffffffffffffffffffffffff1602179055505b600160009054906101000a900473ffffffffffffffffffffffffffffffffffffffff1673ffffffffffffffffffffffffffffffffffffffff1663688dcfd7826040518263ffffffff167c010000000000000000000000000000000000000000000000000000000002815260040180827effffffffffffffffffffffffffffffffffffffffffffffffffffffffffffff19167effffffffffffffffffffffffffffffffffffffffffffffffffffffffffffff19168152602001915050600060405180830381600087803b158015620004a057600080fd5b505af1158015620004b5573d6000803e3d6000fd5b5050505050565b6000813b9050919050565b6000620004e2620004e9640100000000026401000000009004565b9050919050565b6000806200051a731d3b2638a7cc9f2cb3d298a3da7a90b67e5506ed620004bc640100000000026401000000009004565b1115620005ce57731d3b2638a7cc9f2cb3d298a3da7a90b67e5506ed6000806101000a81548173ffffffffffffffffffffffffffffffffffffffff021916908373ffffffffffffffffffffffffffffffffffffffff160217905550620005c46040805190810160405280600b81526020017f6574685f6d61696e6e657400000000000000000000000000000000000000000081525062000a41640100000000026401000000009004565b6001905062000a3e565b6000620005fe73c03a2615d5efaf5f49f60b7bb6583eaec212fdf1620004bc640100000000026401000000009004565b1115620006b25773c03a2615d5efaf5f49f60b7bb6583eaec212fdf16000806101000a81548173ffffffffffffffffffffffffffffffffffffffff021916908373ffffffffffffffffffffffffffffffffffffffff160217905550620006a86040805190810160405280600c81526020017f6574685f726f707374656e33000000000000000000000000000000000000000081525062000a41640100000000026401000000009004565b6001905062000a3e565b6000620006e273b7a07bcf2ba2f2703b24c0691b5278999c59ac7e620004bc640100000000026401000000009004565b1115620007965773b7a07bcf2ba2f2703b24c0691b5278999c59ac7e6000806101000a81548173ffffffffffffffffffffffffffffffffffffffff021916908373ffffffffffffffffffffffffffffffffffffffff1602179055506200078c6040805190810160405280600981526020017f6574685f6b6f76616e000000000000000000000000000000000000000000000081525062000a41640100000000026401000000009004565b6001905062000a3e565b6000620007c673146500cfd35b22e4a392fe0adc06de1a1368ed48620004bc640100000000026401000000009004565b11156200087a5773146500cfd35b22e4a392fe0adc06de1a1368ed486000806101000a81548173ffffffffffffffffffffffffffffffffffffffff021916908373ffffffffffffffffffffffffffffffffffffffff160217905550620008706040805190810160405280600b81526020017f6574685f72696e6b65627900000000000000000000000000000000000000000081525062000a41640100000000026401000000009004565b6001905062000a3e565b6000620008aa736f485c8bf6fc43ea212e93bbf8ce046c7f1cb475620004bc640100000000026401000000009004565b11156200090f57736f485c8bf6fc43ea212e93bbf8ce046c7f1cb4756000806101000a81548173ffffffffffffffffffffffffffffffffffffffff021916908373ffffffffffffffffffffffffffffffffffffffff1602179055506001905062000a3e565b60006200093f7320e12a1f859b3feae5fb2a0a32c18f5a65555bbf620004bc640100000000026401000000009004565b1115620009a4577320e12a1f859b3feae5fb2a0a32c18f5a65555bbf6000806101000a81548173ffffffffffffffffffffffffffffffffffffffff021916908373ffffffffffffffffffffffffffffffffffffffff1602179055506001905062000a3e565b6000620009d47351efaf4c8b3c9afbd5ab9f4bbc82784ab6ef8faa620004bc640100000000026401000000009004565b111562000a39577351efaf4c8b3c9afbd5ab9f4bbc82784ab6ef8faa6000806101000a81548173ffffffffffffffffffffffffffffffffffffffff021916908373ffffffffffffffffffffffffffffffffffffffff1602179055506001905062000a3e565b600090505b90565b806002908051906020019062000a5992919062000a5d565b5050565b828054600181600116156101000203166002900490600052602060002090601f016020900481019282601f1062000aa057805160ff191683800117855562000ad1565b8280016001018555821562000ad1579182015b8281111562000ad057825182559160200191906001019062000ab3565b5b50905062000ae0919062000ae4565b5090565b62000b0991905b8082111562000b0557600081600090555060010162000aeb565b5090565b90565b6133608062000b1c6000396000f30060806040526004361062000097576000357c0100000000000000000000000000000000000000000000000000000000900463ffffffff16806327dc297e146200009c57806338bbfa50146200011657806382636bd814620001d65780639c38dc92146200027a578063c1b1d06c146200031e578063c489991914620003c2578063cc9df7421462000466578063da1cc116146200050a575b600080fd5b348015620000a957600080fd5b50620001146004803603810190808035600019169060200190929190803590602001908201803590602001908080601f016020809104026020016040519081016040528093929190818152602001838380828437820191505050505050919291929050505062000568565b005b3480156200012357600080fd5b50620001d46004803603810190808035600019169060200190929190803590602001908201803590602001908080601f0160208091040260200160405190810160405280939291908181526020018383808284378201915050505050509192919290803590602001908201803590602001908080601f0160208091040260200160405190810160405280939291908181526020018383808284378201915050505050509192919290505050620008b5565b005b62000278600480360381019080803590602001908201803590602001908080601f0160208091040260200160405190810160405280939291908181526020018383808284378201915050505050509192919290803590602001908201803590602001908080601f0160208091040260200160405190810160405280939291908181526020018383808284378201915050505050509192919290505050620008ba565b005b6200031c600480360381019080803590602001908201803590602001908080601f0160208091040260200160405190810160405280939291908181526020018383808284378201915050505050509192919290803590602001908201803590602001908080601f016020809104026020016040519081016040528093929190818152602001838380828437820191505050505050919291929050505062000b18565b005b620003c0600480360381019080803590602001908201803590602001908080601f0160208091040260200160405190810160405280939291908181526020018383808284378201915050505050509192919290803590602001908201803590602001908080601f016020809104026020016040519081016040528093929190818152602001838380828437820191505050505050919291929050505062000d76565b005b62000464600480360381019080803590602001908201803590602001908080601f0160208091040260200160405190810160405280939291908181526020018383808284378201915050505050509192919290803590602001908201803590602001908080601f016020809104026020016040519081016040528093929190818152602001838380828437820191505050505050919291929050505062000ffe565b005b62000508600480360381019080803590602001908201803590602001908080601f0160208091040260200160405190810160405280939291908181526020018383808284378201915050505050509192919290803590602001908201803590602001908080601f01602080910402602001604051908101604052809392919081815260200183838082843782019150505050505091929192905050506200125c565b005b62000566600480360381019080803590602001908201803590602001908080601f0160208091040260200160405190810160405280939291908181526020018383808284378201915050505050509192919290505050620014ba565b005b6000806200057562001705565b73ffffffffffffffffffffffffffffffffffffffff163373ffffffffffffffffffffffffffffffffffffffff16141515620005af57600080fd5b60056000856000191660001916815260200190815260200160002054915060018214156200067c577f8655c5cfb1c5a83d9d6bc1412ec42f2ef81e85b5714e2627b4078576fba07a9f836040518080602001828103825283818151815260200191508051906020019080838360005b838110156200063b5780820151818401526020810190506200061e565b50505050905090810190601f168015620006695780820380516001836020036101000a031916815260200191505b509250505060405180910390a1620008af565b60028214156200072b577f8655c5cfb1c5a83d9d6bc1412ec42f2ef81e85b5714e2627b4078576fba07a9f836040518080602001828103825283818151815260200191508051906020019080838360005b83811015620006ea578082015181840152602081019050620006cd565b50505050905090810190601f168015620007185780820380516001836020036101000a031916815260200191505b509250505060405180910390a1620008ae565b6003821415620007da577f5b81f211753ecf8f010d9a311a6ec4a2f060d40ffe7bb868905b4f3eece480cb836040518080602001828103825283818151815260200191508051906020019080838360005b83811015620007995780820151818401526020810190506200077c565b50505050905090810190601f168015620007c75780820380516001836020036101000a031916815260200191505b509250505060405180910390a1620008ad565b6004821415620008ac576064734b0897b0513fdc7c541b6d9d7e929c4e5364d2db600760009054906101000a900473ffffffffffffffffffffffffffffffffffffffff1660016200082a62002da0565b808581526020018473ffffffffffffffffffffffffffffffffffffffff1681526020018373ffffffffffffffffffffffffffffffffffffffff1673ffffffffffffffffffffffffffffffffffffffff168152602001828152602001945050505050604051809103906000f080158015620008a8573d6000803e3d6000fd5b5090505b5b5b5b50505050565b505050565b60608060608060608060003073ffffffffffffffffffffffffffffffffffffffff16316200091d6040805190810160405280600381526020017f55524c000000000000000000000000000000000000000000000000000000000081525062001a73565b101562000b0d57606060405190810160405280602e81526020017f6a736f6e2868747470733a2f2f38332e3233312e31342e31373a333030322f4381526020017f4d452f636f6d707574655661522f00000000000000000000000000000000000081525096506040805190810160405280600481526020017f302e39350000000000000000000000000000000000000000000000000000000081525095506040805190810160405280600181526020017f2f0000000000000000000000000000000000000000000000000000000000000081525094506040805190810160405280600481526020017f2f292e2a00000000000000000000000000000000000000000000000000000000815250935062000a3a8787878c8962001e56565b925062000a4983898662002280565b915062000a8f6040805190810160405280600381526020017f55524c000000000000000000000000000000000000000000000000000000000081525083600854620022ba565b90503360066000836000191660001916815260200190815260200160002060006101000a81548173ffffffffffffffffffffffffffffffffffffffff021916908373ffffffffffffffffffffffffffffffffffffffff1602179055506004600560008360001916600019168152602001908152602001600020819055505b505050505050505050565b60608060608060608060003073ffffffffffffffffffffffffffffffffffffffff163162000b7b6040805190810160405280600381526020017f55524c000000000000000000000000000000000000000000000000000000000081525062001a73565b101562000d6b57606060405190810160405280602e81526020017f6a736f6e2868747470733a2f2f38332e3233312e31342e31373a333030322f4281526020017f4f452f636f6d707574655661522f00000000000000000000000000000000000081525096506040805190810160405280600481526020017f302e39350000000000000000000000000000000000000000000000000000000081525095506040805190810160405280600181526020017f2f0000000000000000000000000000000000000000000000000000000000000081525094506040805190810160405280600481526020017f2f292e2a00000000000000000000000000000000000000000000000000000000815250935062000c988787878c8962001e56565b925062000ca783898662002280565b915062000ced6040805190810160405280600381526020017f55524c000000000000000000000000000000000000000000000000000000000081525083600854620022ba565b90503360066000836000191660001916815260200190815260200160002060006101000a81548173ffffffffffffffffffffffffffffffffffffffff021916908373ffffffffffffffffffffffffffffffffffffffff1602179055506004600560008360001916600019168152602001908152602001600020819055505b505050505050505050565b606080606080606080606060003073ffffffffffffffffffffffffffffffffffffffff163162000ddb6040805190810160405280600381526020017f55524c000000000000000000000000000000000000000000000000000000000081525062001a73565b101562000ff257608060405190810160405280605681526020017f6a736f6e28687474703a2f2f646174612e66697865722e696f2f6170692f6c6181526020017f746573743f6163636573735f6b65793d6330366333626466356561356536356381526020017f3264666235373466373434373235633426626173653d0000000000000000000081525097508996506040805190810160405280600981526020017f2673796d626f6c733d000000000000000000000000000000000000000000000081525095508894506040805190810160405280600881526020017f292e72617465732e000000000000000000000000000000000000000000000000815250935062000eeb8888888862002888565b925062000efa83858762002280565b91507f621c2856e3b87f81235f8ac8a22bbb40a0142961960710d00b2b6c380902b57e6040518080602001828103825260358152602001807f4f7261636c697a65207175657279207761732073656e742c207374616e64696e81526020017f6720627920666f722074686520616e737765722e2e000000000000000000000081525060400191505060405180910390a162000fce6040805190810160405280600381526020017f55524c000000000000000000000000000000000000000000000000000000000081525083600854620022ba565b90506001600560008360001916600019168152602001908152602001600020819055505b50505050505050505050565b60608060608060608060003073ffffffffffffffffffffffffffffffffffffffff1631620010616040805190810160405280600381526020017f55524c000000000000000000000000000000000000000000000000000000000081525062001a73565b10156200125157606060405190810160405280603081526020017f6a736f6e2868747470733a2f2f38332e3233312e31342e31373a333030322f4581526020017f555245582f636f6d707574655661522f0000000000000000000000000000000081525096506040805190810160405280600481526020017f302e39350000000000000000000000000000000000000000000000000000000081525095506040805190810160405280600181526020017f2f0000000000000000000000000000000000000000000000000000000000000081525094506040805190810160405280600481526020017f2f292e2a0000000000000000000000000000000000000000000000000000000081525093506200117e8787878c8962001e56565b92506200118d83898662002280565b9150620011d36040805190810160405280600381526020017f55524c000000000000000000000000000000000000000000000000000000000081525083600854620022ba565b90503360066000836000191660001916815260200190815260200160002060006101000a81548173ffffffffffffffffffffffffffffffffffffffff021916908373ffffffffffffffffffffffffffffffffffffffff1602179055506004600560008360001916600019168152602001908152602001600020819055505b505050505050505050565b60608060608060608060003073ffffffffffffffffffffffffffffffffffffffff1631620012bf6040805190810160405280600381526020017f55524c000000000000000000000000000000000000000000000000000000000081525062001a73565b1015620014af57606060405190810160405280602e81526020017f6a736f6e2868747470733a2f2f38332e3233312e31342e31373a333030322f4281526020017f4f452f636f6d707574655661522f00000000000000000000000000000000000081525096506040805190810160405280600481526020017f302e39350000000000000000000000000000000000000000000000000000000081525095506040805190810160405280600181526020017f2f0000000000000000000000000000000000000000000000000000000000000081525094506040805190810160405280600481526020017f2f292e2a000000000000000000000000000000000000000000000000000000008152509350620013dc8787878c8962001e56565b9250620013eb83898662002280565b9150620014316040805190810160405280600381526020017f55524c000000000000000000000000000000000000000000000000000000000081525083600854620022ba565b90503360066000836000191660001916815260200190815260200160002060006101000a81548173ffffffffffffffffffffffffffffffffffffffff021916908373ffffffffffffffffffffffffffffffffffffffff1602179055506004600560008360001916600019168152602001908152602001600020819055505b505050505050505050565b606080606080606060003073ffffffffffffffffffffffffffffffffffffffff16316200151c6040805190810160405280600381526020017f55524c000000000000000000000000000000000000000000000000000000000081525062001a73565b1015620016fc57606060405190810160405280603481526020017f6a736f6e2868747470733a2f2f6170692e6b72616b656e2e636f6d2f302f707581526020017f626c69632f5469636b65723f706169723d45544800000000000000000000000081525095508694506040805190810160405280600e81526020017f292e726573756c742e584554485a00000000000000000000000000000000000081525093506040805190810160405280600481526020017f2e632e3000000000000000000000000000000000000000000000000000000000815250925062001604868686888762001e56565b91507f621c2856e3b87f81235f8ac8a22bbb40a0142961960710d00b2b6c380902b57e6040518080602001828103825260358152602001807f4f7261636c697a65207175657279207761732073656e742c207374616e64696e81526020017f6720627920666f722074686520616e737765722e2e000000000000000000000081525060400191505060405180910390a1620016d86040805190810160405280600381526020017f55524c000000000000000000000000000000000000000000000000000000000081525083600854620022ba565b90506003600560008360001916600019168152602001908152602001600020819055505b50505050505050565b6000806000809054906101000a900473ffffffffffffffffffffffffffffffffffffffff1673ffffffffffffffffffffffffffffffffffffffff1614806200177857506000620017766000809054906101000a900473ffffffffffffffffffffffffffffffffffffffff16620028b3565b145b156200178c576200178a6000620028be565b505b6000809054906101000a900473ffffffffffffffffffffffffffffffffffffffff1673ffffffffffffffffffffffffffffffffffffffff166338cc48316040518163ffffffff167c0100000000000000000000000000000000000000000000000000000000028152600401602060405180830381600087803b1580156200181257600080fd5b505af115801562001827573d6000803e3d6000fd5b505050506040513d60208110156200183e57600080fd5b810190808051906020019092919050505073ffffffffffffffffffffffffffffffffffffffff16600160009054906101000a900473ffffffffffffffffffffffffffffffffffffffff1673ffffffffffffffffffffffffffffffffffffffff16141515620019aa576000809054906101000a900473ffffffffffffffffffffffffffffffffffffffff1673ffffffffffffffffffffffffffffffffffffffff166338cc48316040518163ffffffff167c0100000000000000000000000000000000000000000000000000000000028152600401602060405180830381600087803b1580156200192c57600080fd5b505af115801562001941573d6000803e3d6000fd5b505050506040513d60208110156200195857600080fd5b8101908080519060200190929190505050600160006101000a81548173ffffffffffffffffffffffffffffffffffffffff021916908373ffffffffffffffffffffffffffffffffffffffff1602179055505b600160009054906101000a900473ffffffffffffffffffffffffffffffffffffffff1673ffffffffffffffffffffffffffffffffffffffff1663c281d19e6040518163ffffffff167c0100000000000000000000000000000000000000000000000000000000028152600401602060405180830381600087803b15801562001a3157600080fd5b505af115801562001a46573d6000803e3d6000fd5b505050506040513d602081101562001a5d57600080fd5b8101908080519060200190929190505050905090565b6000806000809054906101000a900473ffffffffffffffffffffffffffffffffffffffff1673ffffffffffffffffffffffffffffffffffffffff16148062001ae65750600062001ae46000809054906101000a900473ffffffffffffffffffffffffffffffffffffffff16620028b3565b145b1562001afa5762001af86000620028be565b505b6000809054906101000a900473ffffffffffffffffffffffffffffffffffffffff1673ffffffffffffffffffffffffffffffffffffffff166338cc48316040518163ffffffff167c0100000000000000000000000000000000000000000000000000000000028152600401602060405180830381600087803b15801562001b8057600080fd5b505af115801562001b95573d6000803e3d6000fd5b505050506040513d602081101562001bac57600080fd5b810190808051906020019092919050505073ffffffffffffffffffffffffffffffffffffffff16600160009054906101000a900473ffffffffffffffffffffffffffffffffffffffff1673ffffffffffffffffffffffffffffffffffffffff1614151562001d18576000809054906101000a900473ffffffffffffffffffffffffffffffffffffffff1673ffffffffffffffffffffffffffffffffffffffff166338cc48316040518163ffffffff167c0100000000000000000000000000000000000000000000000000000000028152600401602060405180830381600087803b15801562001c9a57600080fd5b505af115801562001caf573d6000803e3d6000fd5b505050506040513d602081101562001cc657600080fd5b8101908080519060200190929190505050600160006101000a81548173ffffffffffffffffffffffffffffffffffffffff021916908373ffffffffffffffffffffffffffffffffffffffff1602179055505b600160009054906101000a900473ffffffffffffffffffffffffffffffffffffffff1673ffffffffffffffffffffffffffffffffffffffff1663524f3889836040518263ffffffff167c01000000000000000000000000000000000000000000000000000000000281526004018080602001828103825283818151815260200191508051906020019080838360005b8381101562001dc457808201518184015260208101905062001da7565b50505050905090810190601f16801562001df25780820380516001836020036101000a031916815260200191505b5092505050602060405180830381600087803b15801562001e1257600080fd5b505af115801562001e27573d6000803e3d6000fd5b505050506040513d602081101562001e3e57600080fd5b81019080805190602001909291905050509050919050565b6060806060806060806060806000808e98508d97508c96508b95508a94508451865188518a518c51010101016040519080825280601f01601f19166020018201604052801562001eb55781602001602082028038833980820191505090505b50935083925060009150600090505b885181101562001f7b57888181518110151562001edd57fe5b9060200101517f010000000000000000000000000000000000000000000000000000000000000090047f010000000000000000000000000000000000000000000000000000000000000002838380600101945081518110151562001f3d57fe5b9060200101907effffffffffffffffffffffffffffffffffffffffffffffffffffffffffffff1916908160001a905350808060010191505062001ec4565b600090505b87518110156200203757878181518110151562001f9957fe5b9060200101517f010000000000000000000000000000000000000000000000000000000000000090047f010000000000000000000000000000000000000000000000000000000000000002838380600101945081518110151562001ff957fe5b9060200101907effffffffffffffffffffffffffffffffffffffffffffffffffffffffffffff1916908160001a905350808060010191505062001f80565b600090505b8651811015620020f35786818151811015156200205557fe5b9060200101517f010000000000000000000000000000000000000000000000000000000000000090047f0100000000000000000000000000000000000000000000000000000000000000028383806001019450815181101515620020b557fe5b9060200101907effffffffffffffffffffffffffffffffffffffffffffffffffffffffffffff1916908160001a90535080806001019150506200203c565b600090505b8551811015620021af5785818151811015156200211157fe5b9060200101517f010000000000000000000000000000000000000000000000000000000000000090047f01000000000000000000000000000000000000000000000000000000000000000283838060010194508151811015156200217157fe5b9060200101907effffffffffffffffffffffffffffffffffffffffffffffffffffffffffffff1916908160001a9053508080600101915050620020f8565b600090505b84518110156200226b578481815181101515620021cd57fe5b9060200101517f010000000000000000000000000000000000000000000000000000000000000090047f01000000000000000000000000000000000000000000000000000000000000000283838060010194508151811015156200222d57fe5b9060200101907effffffffffffffffffffffffffffffffffffffffffffffffffffffffffffff1916908160001a9053508080600101915050620021b4565b82995050505050505050505095945050505050565b6060620022b18484846020604051908101604052806000815250602060405190810160405280600081525062001e56565b90509392505050565b60008060008060009054906101000a900473ffffffffffffffffffffffffffffffffffffffff1673ffffffffffffffffffffffffffffffffffffffff1614806200232f575060006200232d6000809054906101000a900473ffffffffffffffffffffffffffffffffffffffff16620028b3565b145b156200234357620023416000620028be565b505b6000809054906101000a900473ffffffffffffffffffffffffffffffffffffffff1673ffffffffffffffffffffffffffffffffffffffff166338cc48316040518163ffffffff167c0100000000000000000000000000000000000000000000000000000000028152600401602060405180830381600087803b158015620023c957600080fd5b505af1158015620023de573d6000803e3d6000fd5b505050506040513d6020811015620023f557600080fd5b810190808051906020019092919050505073ffffffffffffffffffffffffffffffffffffffff16600160009054906101000a900473ffffffffffffffffffffffffffffffffffffffff1673ffffffffffffffffffffffffffffffffffffffff1614151562002561576000809054906101000a900473ffffffffffffffffffffffffffffffffffffffff1673ffffffffffffffffffffffffffffffffffffffff166338cc48316040518163ffffffff167c0100000000000000000000000000000000000000000000000000000000028152600401602060405180830381600087803b158015620024e357600080fd5b505af1158015620024f8573d6000803e3d6000fd5b505050506040513d60208110156200250f57600080fd5b8101908080519060200190929190505050600160006101000a81548173ffffffffffffffffffffffffffffffffffffffff021916908373ffffffffffffffffffffffffffffffffffffffff1602179055505b600160009054906101000a900473ffffffffffffffffffffffffffffffffffffffff1673ffffffffffffffffffffffffffffffffffffffff16632ef3accc86856040518363ffffffff167c01000000000000000000000000000000000000000000000000000000000281526004018080602001838152602001828103825284818151815260200191508051906020019080838360005b8381101562002614578082015181840152602081019050620025f7565b50505050905090810190601f168015620026425780820380516001836020036101000a031916815260200191505b509350505050602060405180830381600087803b1580156200266357600080fd5b505af115801562002678573d6000803e3d6000fd5b505050506040513d60208110156200268f57600080fd5b81019080805190602001909291905050509050823a02670de0b6b3a764000001811115620026c4576000600102915062002880565b600160009054906101000a900473ffffffffffffffffffffffffffffffffffffffff1673ffffffffffffffffffffffffffffffffffffffff1663c51be90f8260008888886040518663ffffffff167c0100000000000000000000000000000000000000000000000000000000028152600401808581526020018060200180602001848152602001838103835286818151815260200191508051906020019080838360005b838110156200278557808201518184015260208101905062002768565b50505050905090810190601f168015620027b35780820380516001836020036101000a031916815260200191505b50838103825285818151815260200191508051906020019080838360005b83811015620027ee578082015181840152602081019050620027d1565b50505050905090810190601f1680156200281c5780820380516001836020036101000a031916815260200191505b5096505050505050506020604051808303818588803b1580156200283f57600080fd5b505af115801562002854573d6000803e3d6000fd5b50505050506040513d60208110156200286c57600080fd5b810190808051906020019092919050505091505b509392505050565b6060620028a985858585602060405190810160405280600081525062001e56565b9050949350505050565b6000813b9050919050565b6000620028ca620028d1565b9050919050565b600080620028f3731d3b2638a7cc9f2cb3d298a3da7a90b67e5506ed620028b3565b11156200299857731d3b2638a7cc9f2cb3d298a3da7a90b67e5506ed6000806101000a81548173ffffffffffffffffffffffffffffffffffffffff021916908373ffffffffffffffffffffffffffffffffffffffff1602179055506200298e6040805190810160405280600b81526020017f6574685f6d61696e6e657400000000000000000000000000000000000000000081525062002d84565b6001905062002d81565b6000620029b973c03a2615d5efaf5f49f60b7bb6583eaec212fdf1620028b3565b111562002a5e5773c03a2615d5efaf5f49f60b7bb6583eaec212fdf16000806101000a81548173ffffffffffffffffffffffffffffffffffffffff021916908373ffffffffffffffffffffffffffffffffffffffff16021790555062002a546040805190810160405280600c81526020017f6574685f726f707374656e33000000000000000000000000000000000000000081525062002d84565b6001905062002d81565b600062002a7f73b7a07bcf2ba2f2703b24c0691b5278999c59ac7e620028b3565b111562002b245773b7a07bcf2ba2f2703b24c0691b5278999c59ac7e6000806101000a81548173ffffffffffffffffffffffffffffffffffffffff021916908373ffffffffffffffffffffffffffffffffffffffff16021790555062002b1a6040805190810160405280600981526020017f6574685f6b6f76616e000000000000000000000000000000000000000000000081525062002d84565b6001905062002d81565b600062002b4573146500cfd35b22e4a392fe0adc06de1a1368ed48620028b3565b111562002bea5773146500cfd35b22e4a392fe0adc06de1a1368ed486000806101000a81548173ffffffffffffffffffffffffffffffffffffffff021916908373ffffffffffffffffffffffffffffffffffffffff16021790555062002be06040805190810160405280600b81526020017f6574685f72696e6b65627900000000000000000000000000000000000000000081525062002d84565b6001905062002d81565b600062002c0b736f485c8bf6fc43ea212e93bbf8ce046c7f1cb475620028b3565b111562002c7057736f485c8bf6fc43ea212e93bbf8ce046c7f1cb4756000806101000a81548173ffffffffffffffffffffffffffffffffffffffff021916908373ffffffffffffffffffffffffffffffffffffffff1602179055506001905062002d81565b600062002c917320e12a1f859b3feae5fb2a0a32c18f5a65555bbf620028b3565b111562002cf6577320e12a1f859b3feae5fb2a0a32c18f5a65555bbf6000806101000a81548173ffffffffffffffffffffffffffffffffffffffff021916908373ffffffffffffffffffffffffffffffffffffffff1602179055506001905062002d81565b600062002d177351efaf4c8b3c9afbd5ab9f4bbc82784ab6ef8faa620028b3565b111562002d7c577351efaf4c8b3c9afbd5ab9f4bbc82784ab6ef8faa6000806101000a81548173ffffffffffffffffffffffffffffffffffffffff021916908373ffffffffffffffffffffffffffffffffffffffff1602179055506001905062002d81565b600090505b90565b806002908051906020019062002d9c92919062002db1565b5050565b6040516104d48062002e6183390190565b828054600181600116156101000203166002900490600052602060002090601f016020900481019282601f1062002df457805160ff191683800117855562002e25565b8280016001018555821562002e25579182015b8281111562002e2457825182559160200191906001019062002e07565b5b50905062002e34919062002e38565b5090565b62002e5d91905b8082111562002e5957600081600090555060010162002e3f565b5090565b905600608060405234801561001057600080fd5b506040516080806104d483398101806040528101908080519060200190929190805190602001909291908051906020019092919080519060200190929190505050600033600260016101000a81548173ffffffffffffffffffffffffffffffffffffffff021916908373ffffffffffffffffffffffffffffffffffffffff16021790555082600460006101000a81548173ffffffffffffffffffffffffffffffffffffffff021916908373ffffffffffffffffffffffffffffffffffffffff16021790555083600360006101000a81548173ffffffffffffffffffffffffffffffffffffffff021916908373ffffffffffffffffffffffffffffffffffffffff16021790555084600081905550816001819055506000600260006101000a81548160ff021916908315150217905550600460009054906101000a900473ffffffffffffffffffffffffffffffffffffffff1690508073ffffffffffffffffffffffffffffffffffffffff16639cef7a5b600054600360009054906101000a900473ffffffffffffffffffffffffffffffffffffffff166040518363ffffffff167c0100000000000000000000000000000000000000000000000000000000028152600401808381526020018273ffffffffffffffffffffffffffffffffffffffff1673ffffffffffffffffffffffffffffffffffffffff16815260200192505050600060405180830381600087803b15801561022b57600080fd5b505af115801561023f573d6000803e3d6000fd5b50505050505050505061027d806102576000396000f30060806040526004361061006d576000357c0100000000000000000000000000000000000000000000000000000000900463ffffffff1680631b9265b814610072578063209652551461009457806331b2ffaf146100bf5780634212ed2614610116578063893d20e814610145575b600080fd5b61007a61019c565b604051808215151515815260200191505060405180910390f35b3480156100a057600080fd5b506100a96101dd565b6040518082815260200191505060405180910390f35b3480156100cb57600080fd5b506100d46101e6565b604051808273ffffffffffffffffffffffffffffffffffffffff1673ffffffffffffffffffffffffffffffffffffffff16815260200191505060405180910390f35b34801561012257600080fd5b5061012b610210565b604051808215151515815260200191505060405180910390f35b34801561015157600080fd5b5061015a610227565b604051808273ffffffffffffffffffffffffffffffffffffffff1673ffffffffffffffffffffffffffffffffffffffff16815260200191505060405180910390f35b60008054341415156101ad57600080fd5b6001600260006101000a81548160ff021916908315150217905550600260009054906101000a900460ff16905090565b60008054905090565b6000600360009054906101000a900473ffffffffffffffffffffffffffffffffffffffff16905090565b6000600260009054906101000a900460ff16905090565b6000600260019054906101000a900473ffffffffffffffffffffffffffffffffffffffff169050905600a165627a7a72305820c7d27150336c0ad56f090ff17cf45c944c78ebc72f51a5d3462f978af486235e0029a165627a7a723058203c01765f7288f05b25c06803d93bbd911b98646a32cd285b37f9fb853d3bbe3a0029",
  "source": "pragma experimental ABIEncoderV2;\n\nimport \"./Market.sol\";\nimport \"./Utils.sol\";\nimport \"./Future.sol\";\nimport \"./VariationMarginAutoExecution.sol\";\n\ncontract CompensationChamber\n{\n    address private marketAddress;\n    address private marketDataAddress;\n    address private settlementAddress;\n\n    mapping (address => bool) isAClearingMember;\n    address[] clearingMembersAddresses;\n\n    address[] payments;\n    address[] derivatives;\n\n    /**\n     * Modifiers\n     */\n\n    modifier onlyMarket\n    {\n        require (msg.sender == marketAddress);\n        _;\n    }\n\n    modifier onlySettlement\n    {\n        require (msg.sender == settlementAddress);\n        _;\n    }\n\n    modifier onlyMarketData\n    {\n        require (msg.sender == marketDataAddress);\n        _;\n    }\n\n    modifier onlyVMOrMarket\n    {\n        require (msg.sender == marketAddress/* || msg.sender == */);\n        _;\n    }\n\n    function CompensationChamber(uint timestampUntilNextVMrevision) public payable\n    {\n        marketAddress = msg.sender;\n        marketDataAddress = (new MarketData).value(3 ether)();\n        //uint timeUntilFirstVMRevisionInSeconds = timestampUntilNextVMrevision - block.timestamp;\n    }\n\n    function addClearingMember(address _clearingMemberAddress) onlyMarket public\n    {\n        clearingMembersAddresses.push(_clearingMemberAddress);\n        isAClearingMember[_clearingMemberAddress] = true;\n    }\n\n    function futureNovation(address _longClearingMemberAddress, address _shortClearingMemberAddress, string _instrumentID, string _amount, string _price, uint _settlementTimestamp, string _market) public onlyMarket payable\n    {\n        bool _longClearingMemberAddressExist = isAClearingMember[_longClearingMemberAddress];\n        bool _shortClearingMemberAddressExist = isAClearingMember[_shortClearingMemberAddress];\n\n        require(_longClearingMemberAddressExist == true && _shortClearingMemberAddressExist == true && msg.value >= 1 ether);\n\n        derivatives.push((new Future).value(msg.value)(_longClearingMemberAddress, _shortClearingMemberAddress, _instrumentID, _amount, _price, _settlementTimestamp, marketDataAddress, _market));\n    }\n\n    //function swapNovation(address _fixedLegClearingMemberAddress, address _floatingLegClearingMemberAddress, string _instrumentID, string _nominal, uint _settlementTimestamp, string _market) public payable\n\n    function getMarketAddress() public view returns(address)\n    {\n        return marketAddress;\n    }\n\n    function paymentRequest(uint _value, address _clearingMemberAddress) public\n    {\n        payments.push(msg.sender);\n        Market _marketContract = Market(marketAddress);\n        _marketContract.paymentRequest(msg.sender, _value, _clearingMemberAddress);\n    }\n\n\n    // Compute\n    uint counter;\n    mapping (address => uint) mapAddressToTotalVM;\n\n    function computeVariationMargin() /*onlyVMOrMarket*/ public\n    {\n        counter = derivatives.length * 2;\n        Utils.variationMarginChange[2] memory varMarginChangeArray;\n\n        for (uint i = 0; i < derivatives.length; i++)\n        {\n            Derivative _derivative = Derivative(derivatives[i]);\n            varMarginChangeArray = _derivative.computeVM();\n\n            variationMargin(varMarginChangeArray[0]);\n            variationMargin(varMarginChangeArray[1]);\n        }\n    }\n\n    mapping (address => int) mapAddressToVMValue;\n\n    function variationMargin(Utils.variationMarginChange _VMStruct) private\n    {\n        counter = counter - 1;\n\n        mapAddressToVMValue[_VMStruct.clearingMemberAddress] = mapAddressToVMValue[_VMStruct.clearingMemberAddress] + _VMStruct.value;\n\n        if (counter == 0)\n        {\n            sendPaymentRequestOrSendPayment();\n            removeMapAddressToVMValue();\n        }\n    }\n\n    function sendPaymentRequestOrSendPayment() private\n    {\n        int value;\n        address clearingMemberAddress;\n\n        address paymentRequestAddress;\n\n        for (uint i = 0; i < clearingMembersAddresses.length; i++)\n        {\n            clearingMemberAddress = clearingMembersAddresses[i];\n            value = mapAddressToVMValue[clearingMemberAddress];\n\n            if (value > 0)\n            {\n                paymentRequestAddress = new PaymentRequest( uint(value), clearingMemberAddress, this, 1);\n            }\n            else if (value < 0)\n            {\n                clearingMemberAddress.transfer( uint(value/-1));\n            }\n        }\n    }\n\n    function removeMapAddressToVMValue() private\n    {\n        for (uint i = 0; i < clearingMembersAddresses.length; i++)\n        {\n            mapAddressToVMValue[clearingMembersAddresses[i]] = 0;\n        }\n    }\n}\n",
  "sourcePath": "/home/david/Desktop/CompensationChamber/contracts/CompensationChamber.sol",
  "compiler": {
    "name": "solc",
    "version": "0.4.24+commit.e67f0147.Emscripten.clang"
  },
  "schemaVersion": "2.0.1",
  "updatedAt": "2018-07-14T20:03:40.769Z"
}