{
  "contractName": "Future",
  "abi": [
    {
      "constant": true,
      "inputs": [
        {
          "name": "_clearingMemberAddress",
          "type": "address"
        }
      ],
      "name": "getVariationMarginPaymentRequestAddress",
      "outputs": [
        {
          "name": "",
          "type": "address"
        }
      ],
      "payable": false,
      "stateMutability": "view",
      "type": "function"
    },
    {
      "constant": true,
      "inputs": [
        {
          "name": "_clearingMemberAddress",
          "type": "address"
        }
      ],
      "name": "getInitialMarginPaymentRequestAddress",
      "outputs": [
        {
          "name": "",
          "type": "address"
        }
      ],
      "payable": false,
      "stateMutability": "view",
      "type": "function"
    },
    {
      "inputs": [
        {
          "name": "_longMemberAddress",
          "type": "address"
        },
        {
          "name": "_shortMemberAddress",
          "type": "address"
        },
        {
          "name": "_instrumentID",
          "type": "string"
        },
        {
          "name": "_amount",
          "type": "string"
        },
        {
          "name": "_price",
          "type": "string"
        },
        {
          "name": "_settlementTimestamp",
          "type": "uint256"
        },
        {
          "name": "_marketDataAddress",
          "type": "address"
        },
        {
          "name": "_market",
          "type": "string"
        }
      ],
      "payable": true,
      "stateMutability": "payable",
      "type": "constructor"
    },
    {
      "constant": false,
      "inputs": [
        {
          "name": "result",
          "type": "string"
        }
      ],
      "name": "setIM",
      "outputs": [],
      "payable": false,
      "stateMutability": "nonpayable",
      "type": "function"
    },
    {
      "constant": false,
      "inputs": [],
      "name": "computeVM",
      "outputs": [
        {
          "components": [
            {
              "name": "clearingMemberAddress",
              "type": "address"
            },
            {
              "name": "value",
              "type": "int256"
            }
          ],
          "name": "",
          "type": "tuple[2]"
        }
      ],
      "payable": false,
      "stateMutability": "nonpayable",
      "type": "function"
    },
    {
      "constant": false,
      "inputs": [],
      "name": "getTheContractCounterparts",
      "outputs": [
        {
          "name": "",
          "type": "address[2]"
        }
      ],
      "payable": false,
      "stateMutability": "nonpayable",
      "type": "function"
    }
  ],
  "bytecode": "0x6080604052604051620015fa380380620015fa8339810180604052620000299190810190620008ea565b8583838387846000908051906020019062000046929190620007b1565b5081600190805190602001906200005f929190620007b1565b5082600260006101000a81548173ffffffffffffffffffffffffffffffffffffffff021916908373ffffffffffffffffffffffffffffffffffffffff16021790555033600360006101000a81548173ffffffffffffffffffffffffffffffffffffffff021916908373ffffffffffffffffffffffffffffffffffffffff1602179055508060069080519060200190620000fa929190620007b1565b5083600581905550426004819055505050505050670de0b6b3a764000034101515156200012657600080fd5b87600a60006101000a81548173ffffffffffffffffffffffffffffffffffffffff021916908373ffffffffffffffffffffffffffffffffffffffff16021790555086600b60006101000a81548173ffffffffffffffffffffffffffffffffffffffff021916908373ffffffffffffffffffffffffffffffffffffffff16021790555084600c9080519060200190620001c0929190620007b1565b50620001da620001e8640100000000026401000000009004565b505050505050505062000ba7565b6000600260009054906101000a900473ffffffffffffffffffffffffffffffffffffffff1690506200030260018054600181600116156101000203166002900480601f016020809104026020016040519081016040528092919081815260200182805460018160011615610100020316600290048015620002ad5780601f106200028157610100808354040283529160200191620002ad565b820191906000526020600020905b8154815290600101906020018083116200028f57829003601f168201915b50505050506040805190810160405280600381526020017f424f450000000000000000000000000000000000000000000000000000000000815250620006d46401000000000262000930176401000000009004565b15620003a6578073ffffffffffffffffffffffffffffffffffffffff1663cc9df742670de0b6b3a7640000600c60006040518463ffffffff167c01000000000000000000000000000000000000000000000000000000000281526004016200036c92919062000a9f565b6000604051808303818588803b1580156200038657600080fd5b505af11580156200039b573d6000803e3d6000fd5b5050505050620006d1565b6200049960018054600181600116156101000203166002900480601f016020809104026020016040519081016040528092919081815260200182805460018160011615610100020316600290048015620004445780601f10620004185761010080835404028352916020019162000444565b820191906000526020600020905b8154815290600101906020018083116200042657829003601f168201915b50505050506040805190810160405280600581526020017f4555524558000000000000000000000000000000000000000000000000000000815250620006d46401000000000262000930176401000000009004565b156200053d578073ffffffffffffffffffffffffffffffffffffffff1663c4899919670de0b6b3a7640000600c60006040518463ffffffff167c01000000000000000000000000000000000000000000000000000000000281526004016200050392919062000a9f565b6000604051808303818588803b1580156200051d57600080fd5b505af115801562000532573d6000803e3d6000fd5b5050505050620006d0565b6200063060018054600181600116156101000203166002900480601f016020809104026020016040519081016040528092919081815260200182805460018160011615610100020316600290048015620005db5780601f10620005af57610100808354040283529160200191620005db565b820191906000526020600020905b815481529060010190602001808311620005bd57829003601f168201915b50505050506040805190810160405280600381526020017f434d450000000000000000000000000000000000000000000000000000000000815250620006d46401000000000262000930176401000000009004565b15620006cf578073ffffffffffffffffffffffffffffffffffffffff166382636bd8670de0b6b3a7640000600c60006040518463ffffffff167c01000000000000000000000000000000000000000000000000000000000281526004016200069a92919062000a9f565b6000604051808303818588803b158015620006b457600080fd5b505af1158015620006c9573d6000803e3d6000fd5b50505050505b5b5b50565b6000816040518082805190602001908083835b6020831015156200070e5780518252602082019150602081019050602083039250620006e7565b6001836020036101000a038019825116818451168082178552505050505050905001915050604051809103902060001916836040518082805190602001908083835b60208310151562000777578051825260208201915060208101905060208303925062000750565b6001836020036101000a03801982511681845116808217855250505050505090500191505060405180910390206000191614905092915050565b828054600181600116156101000203166002900490600052602060002090601f016020900481019282601f10620007f457805160ff191683800117855562000825565b8280016001018555821562000825579182015b828111156200082457825182559160200191906001019062000807565b5b50905062000834919062000838565b5090565b6200085d91905b80821115620008595760008160009055506001016200083f565b5090565b90565b60006200086e825162000b47565b905092915050565b600082601f83011215156200088a57600080fd5b8151620008a16200089b8262000b08565b62000ada565b91508082526020830160208301858383011115620008be57600080fd5b620008cb83828462000b71565b50505092915050565b6000620008e2825162000b67565b905092915050565b600080600080600080600080610100898b0312156200090857600080fd5b6000620009188b828c0162000860565b98505060206200092b8b828c0162000860565b975050604089015167ffffffffffffffff8111156200094957600080fd5b620009578b828c0162000876565b965050606089015167ffffffffffffffff8111156200097557600080fd5b620009838b828c0162000876565b955050608089015167ffffffffffffffff811115620009a157600080fd5b620009af8b828c0162000876565b94505060a0620009c28b828c01620008d4565b93505060c0620009d58b828c0162000860565b92505060e089015167ffffffffffffffff811115620009f357600080fd5b62000a018b828c0162000876565b9150509295985092959890939650565b60008154600181166000811462000a31576001811462000a525762000a97565b607f600283041680865260ff19831660208701526040860193505062000a97565b6002820480865260208601955062000a6a8562000b35565b60005b8281101562000a8e5781548189015260018201915060208101905062000a6d565b80880195505050505b505092915050565b6000604082019050818103600083015262000abb818562000a11565b9050818103602083015262000ad1818462000a11565b90509392505050565b6000604051905081810181811067ffffffffffffffff8211171562000afe57600080fd5b8060405250919050565b600067ffffffffffffffff82111562000b2057600080fd5b601f19601f8301169050602081019050919050565b60008160005260206000209050919050565b600073ffffffffffffffffffffffffffffffffffffffff82169050919050565b6000819050919050565b60005b8381101562000b9157808201518184015260208101905062000b74565b8381111562000ba1576000848401525b50505050565b610a438062000bb76000396000f30060806040526004361061006d576000357c0100000000000000000000000000000000000000000000000000000000900463ffffffff16806344cc75c31461007257806354370359146100af578063afabb0cc146100da578063b769fe9e14610105578063e38ecb2914610142575b600080fd5b34801561007e57600080fd5b506100996004803603610094919081019061069c565b61016b565b6040516100a691906107e9565b60405180910390f35b3480156100bb57600080fd5b506100c46101ff565b6040516100d1919061081f565b60405180910390f35b3480156100e657600080fd5b506100ef610401565b6040516100fc9190610804565b60405180910390f35b34801561011157600080fd5b5061012c6004803603610127919081019061069c565b6104bf565b60405161013991906107e9565b60405180910390f35b34801561014e57600080fd5b50610169600480360361016491908101906106c5565b610553565b005b600080600760008473ffffffffffffffffffffffffffffffffffffffff1673ffffffffffffffffffffffffffffffffffffffff16815260200190815260200160002060009054906101000a900473ffffffffffffffffffffffffffffffffffffffff16905060008173ffffffffffffffffffffffffffffffffffffffff161415156101f8578091506101f9565b5b50919050565b6102076105b2565b6000604080519081016040528073ca35b7d915458ef540ade6068dfe2f44e8fa733c73ffffffffffffffffffffffffffffffffffffffff168152602001600a81525081600060028110151561025857fe5b6002020160008201518160000160006101000a81548173ffffffffffffffffffffffffffffffffffffffff021916908373ffffffffffffffffffffffffffffffffffffffff16021790555060208201518160010155905050604080519081016040528073ca35b7d915458ef540ade6068dfe2f44e8fa733c73ffffffffffffffffffffffffffffffffffffffff168152602001600a8152508160016002811015156102ff57fe5b6002020160008201518160000160006101000a81548173ffffffffffffffffffffffffffffffffffffffff021916908373ffffffffffffffffffffffffffffffffffffffff1602179055506020820151816001015590505080600280602002604051908101604052809291906000905b828210156103f7578382600202016040805190810160405290816000820160009054906101000a900473ffffffffffffffffffffffffffffffffffffffff1673ffffffffffffffffffffffffffffffffffffffff1673ffffffffffffffffffffffffffffffffffffffff1681526020016001820154815250508152602001906001019061036f565b5050505091505090565b6104096105e0565b6040805190810160405280600a60009054906101000a900473ffffffffffffffffffffffffffffffffffffffff1673ffffffffffffffffffffffffffffffffffffffff1673ffffffffffffffffffffffffffffffffffffffff168152602001600b60009054906101000a900473ffffffffffffffffffffffffffffffffffffffff1673ffffffffffffffffffffffffffffffffffffffff1673ffffffffffffffffffffffffffffffffffffffff16815250905090565b600080600760008473ffffffffffffffffffffffffffffffffffffffff1673ffffffffffffffffffffffffffffffffffffffff16815260200190815260200160002060009054906101000a900473ffffffffffffffffffffffffffffffffffffffff16905060008173ffffffffffffffffffffffffffffffffffffffff1614151561054c5780915061054d565b5b50919050565b600260009054906101000a900473ffffffffffffffffffffffffffffffffffffffff1673ffffffffffffffffffffffffffffffffffffffff163373ffffffffffffffffffffffffffffffffffffffff161415156105af57600080fd5b50565b6080604051908101604052806002905b6105ca610602565b8152602001906001900390816105c25790505090565b6040805190810160405280600290602082028038833980820191505090505090565b6040805190810160405280600073ffffffffffffffffffffffffffffffffffffffff168152602001600081525090565b600061063e8235610901565b905092915050565b600082601f830112151561065957600080fd5b813561066c61066782610867565b61083a565b9150808252602083016020830185838301111561068857600080fd5b610693838284610921565b50505092915050565b6000602082840312156106ae57600080fd5b60006106bc84828501610632565b91505092915050565b6000602082840312156106d757600080fd5b600082013567ffffffffffffffff8111156106f157600080fd5b6106fd84828501610646565b91505092915050565b61070f816108d7565b82525050565b61071e816108a7565b61072782610893565b60005b828110156107595761073d858351610706565b610746826108bd565b915060208501945060018101905061072a565b5050505050565b610769816108b2565b6107728261089d565b60005b828110156107a4576107888583516107ba565b610791826108ca565b9150604085019450600181019050610775565b5050505050565b6107b4816108f7565b82525050565b6040820160008201516107d06000850182610706565b5060208201516107e360208501826107ab565b50505050565b60006020820190506107fe6000830184610706565b92915050565b60006040820190506108196000830184610715565b92915050565b60006080820190506108346000830184610760565b92915050565b6000604051905081810181811067ffffffffffffffff8211171561085d57600080fd5b8060405250919050565b600067ffffffffffffffff82111561087e57600080fd5b601f19601f8301169050602081019050919050565b6000819050919050565b6000819050919050565b600060029050919050565b600060029050919050565b6000602082019050919050565b6000602082019050919050565b600073ffffffffffffffffffffffffffffffffffffffff82169050919050565b6000819050919050565b600073ffffffffffffffffffffffffffffffffffffffff82169050919050565b82818337600083830152505050565b6000816040518082805190602001908083835b6020831015156109685780518252602082019150602081019050602083039250610943565b6001836020036101000a038019825116818451168082178552505050505050905001915050604051809103902060001916836040518082805190602001908083835b6020831015156109cf57805182526020820191506020810190506020830392506109aa565b6001836020036101000a038019825116818451168082178552505050505050905001915050604051809103902060001916149050929150505600a265627a7a72305820c92a62eaf485d5501ce3622075cb0f5b163027e90e3dbb74924f5ef0e05e8cfa6c6578706572696d656e74616cf50037",
  "source": "pragma experimental ABIEncoderV2;\nimport \"./Derivative.sol\";\nimport \"./MarketData.sol\";\nimport \"./Utils.sol\";\nimport \"./PaymentRequest.sol\";\n\ncontract Future is Derivative\n{\n    address longMemberAddress; // The one who will have to buy the asset (subyacente) in the settlementTimestamp\n    address shortMemberAddress; // The one who will have to sell the asset (subyacente) in the settlementTimestamp\n    string amount; // Amount of the subyacent asset that they have to trade at settlementTimestamp\n\n    function Future(address _longMemberAddress, address _shortMemberAddress, string _instrumentID, string _amount, string _price, uint _settlementTimestamp, address _marketDataAddress, string _market) Derivative(_instrumentID, _settlementTimestamp, _marketDataAddress, _market, _price) public payable\n    {\n        require (msg.value >= 1 ether);\n\n        longMemberAddress = _longMemberAddress;\n        shortMemberAddress = _shortMemberAddress;\n        amount = _amount;\n        computeIM();\n    }\n\n    function computeIM() private\n    {\n        MarketData marketDataContract = MarketData(marketDataAddress);\n\n        if (Utils.compareStrings( market, \"BOE\")) // Bank of england\n        {\n          marketDataContract.getIMFutureBOE.value(1 ether)(amount, instrumentID);\n        }\n        else if (Utils.compareStrings(market, \"EUREX\")) // https://www.quandl.com/data/EUREX-EUREX-Futures-Data\n        {\n          marketDataContract.getIMFutureEUREX.value(1 ether)(amount, instrumentID);\n        }\n        else if (Utils.compareStrings(market, \"CME\"))// Chicago Mercantile Exchanges // https://www.quandl.com/data/CME-Chicago-Mercantile-Exchange-Futures-Data\n        {\n          marketDataContract.getIMFutureCME.value(1 ether)(amount, instrumentID);\n        }\n    }\n\n    function setIM(string result) onlyMarketData public\n    {\n        //initialMargin[longMemberAddress] = new PaymentRequest();\n       // initialMargin[shortMemberAddress] = new PaymentRequest(100, shortMemberAddress, compensationChamberAddress, Utils.paymentType.initialMargin);\n    }\n\n    function computeVM() public /*onlyChamber*/ returns (Utils.variationMarginChange[2])\n    {\n        Utils.variationMarginChange[2] ret;\n        ret[0] = Utils.variationMarginChange(0xca35b7d915458ef540ade6068dfe2f44e8fa733c, 10);\n        ret[1] = Utils.variationMarginChange(0xca35b7d915458ef540ade6068dfe2f44e8fa733c, 10);\n        return ret;\n    }\n\n    function getTheContractCounterparts() public returns(address[2])\n    {\n        return [longMemberAddress, shortMemberAddress];\n    }\n}\n",
  "sourcePath": "/home/dtm/Desktop/TFM/DAPPS/CompensationChamber/contracts/Future.sol",
  "compiler": {
    "name": "solc",
    "version": "0.4.24+commit.e67f0147.Emscripten.clang"
  },
  "schemaVersion": "2.0.1",
  "updatedAt": "2018-07-16T14:31:40.920Z"
}