{
  "contractName": "Market",
  "abi": [
    {
      "inputs": [
        {
          "name": "timestampUntilNextVMRevision",
          "type": "uint256"
        }
      ],
      "payable": true,
      "stateMutability": "payable",
      "type": "constructor"
    },
    {
      "anonymous": false,
      "inputs": [
        {
          "indexed": false,
          "name": "getString",
          "type": "string"
        }
      ],
      "name": "logRegInfo",
      "type": "event"
    },
    {
      "anonymous": false,
      "inputs": [
        {
          "indexed": false,
          "name": "getString",
          "type": "string"
        }
      ],
      "name": "logString",
      "type": "event"
    },
    {
      "anonymous": false,
      "inputs": [
        {
          "indexed": false,
          "name": "addressID",
          "type": "int256"
        }
      ],
      "name": "logAddressID",
      "type": "event"
    },
    {
      "anonymous": false,
      "inputs": [
        {
          "indexed": false,
          "name": "getBytes32",
          "type": "bytes32"
        }
      ],
      "name": "logBytes32",
      "type": "event"
    },
    {
      "anonymous": false,
      "inputs": [
        {
          "indexed": false,
          "name": "instrumentID",
          "type": "string"
        },
        {
          "indexed": false,
          "name": "quantity",
          "type": "uint256"
        },
        {
          "indexed": false,
          "name": "price",
          "type": "uint256"
        },
        {
          "indexed": false,
          "name": "side",
          "type": "uint256"
        },
        {
          "indexed": false,
          "name": "orderType",
          "type": "uint256"
        }
      ],
      "name": "logMarketOrder",
      "type": "event"
    },
    {
      "anonymous": false,
      "inputs": [
        {
          "indexed": false,
          "name": "instrumentID",
          "type": "string"
        }
      ],
      "name": "logInstruments",
      "type": "event"
    },
    {
      "anonymous": false,
      "inputs": [
        {
          "indexed": false,
          "name": "paymentRequestAddress",
          "type": "address"
        },
        {
          "indexed": false,
          "name": "value",
          "type": "uint256"
        },
        {
          "indexed": false,
          "name": "clearingMemberAddress",
          "type": "address"
        }
      ],
      "name": "logPaymentRequestAddress",
      "type": "event"
    },
    {
      "constant": false,
      "inputs": [
        {
          "name": "_name",
          "type": "string"
        },
        {
          "name": "_email",
          "type": "string"
        },
        {
          "name": "_password",
          "type": "string"
        }
      ],
      "name": "addClearingMember",
      "outputs": [],
      "payable": false,
      "stateMutability": "nonpayable",
      "type": "function"
    },
    {
      "constant": false,
      "inputs": [
        {
          "name": "email",
          "type": "string"
        }
      ],
      "name": "confirmClearingMemberAddress",
      "outputs": [],
      "payable": false,
      "stateMutability": "nonpayable",
      "type": "function"
    },
    {
      "constant": false,
      "inputs": [
        {
          "name": "_paymentRequestAddress",
          "type": "address"
        },
        {
          "name": "_value",
          "type": "uint256"
        },
        {
          "name": "_clearingMemberAddress",
          "type": "address"
        }
      ],
      "name": "paymentRequest",
      "outputs": [],
      "payable": false,
      "stateMutability": "nonpayable",
      "type": "function"
    },
    {
      "constant": false,
      "inputs": [
        {
          "name": "_paymentRequestAddress",
          "type": "address"
        }
      ],
      "name": "payPaymentRequest",
      "outputs": [],
      "payable": true,
      "stateMutability": "payable",
      "type": "function"
    },
    {
      "constant": false,
      "inputs": [
        {
          "name": "_instrumentID",
          "type": "string"
        },
        {
          "name": "_market",
          "type": "string"
        },
        {
          "name": "_instrumentType",
          "type": "uint8"
        },
        {
          "name": "_settlementTimestamp",
          "type": "uint256"
        }
      ],
      "name": "addNewDerivative",
      "outputs": [],
      "payable": true,
      "stateMutability": "payable",
      "type": "function"
    },
    {
      "constant": false,
      "inputs": [
        {
          "name": "_longClearingMemberAddress",
          "type": "address"
        },
        {
          "name": "_shortClearingMemberAddress",
          "type": "address"
        },
        {
          "name": "_instrumentID",
          "type": "string"
        },
        {
          "name": "_amount",
          "type": "string"
        },
        {
          "name": "_price",
          "type": "string"
        },
        {
          "name": "_settlementTimestamp",
          "type": "uint256"
        },
        {
          "name": "_market",
          "type": "string"
        }
      ],
      "name": "addFutureToCCP",
      "outputs": [],
      "payable": false,
      "stateMutability": "nonpayable",
      "type": "function"
    },
    {
      "constant": false,
      "inputs": [
        {
          "name": "_instrumentID",
          "type": "string"
        },
        {
          "name": "_quantity",
          "type": "uint256"
        },
        {
          "name": "_price",
          "type": "uint256"
        },
        {
          "name": "_type",
          "type": "string"
        }
      ],
      "name": "addOrder",
      "outputs": [],
      "payable": true,
      "stateMutability": "payable",
      "type": "function"
    },
    {
      "constant": false,
      "inputs": [
        {
          "name": "_email",
          "type": "string"
        },
        {
          "name": "_password",
          "type": "string"
        }
      ],
      "name": "signIn",
      "outputs": [
        {
          "name": "addressID",
          "type": "int256"
        },
        {
          "name": "name",
          "type": "string"
        },
        {
          "name": "compensationMemberAddress",
          "type": "address"
        }
      ],
      "payable": false,
      "stateMutability": "nonpayable",
      "type": "function"
    },
    {
      "constant": false,
      "inputs": [],
      "name": "getInstruments",
      "outputs": [],
      "payable": false,
      "stateMutability": "nonpayable",
      "type": "function"
    },
    {
      "constant": false,
      "inputs": [
        {
          "name": "_instrumentID",
          "type": "string"
        },
        {
          "name": "_quantity",
          "type": "uint256"
        },
        {
          "name": "_price",
          "type": "uint256"
        },
        {
          "name": "_side",
          "type": "uint256"
        }
      ],
      "name": "addOrderEvent",
      "outputs": [],
      "payable": false,
      "stateMutability": "nonpayable",
      "type": "function"
    },
    {
      "constant": false,
      "inputs": [
        {
          "name": "_instrumentID",
          "type": "string"
        },
        {
          "name": "_quantity",
          "type": "uint256"
        },
        {
          "name": "_price",
          "type": "uint256"
        },
        {
          "name": "_side",
          "type": "uint256"
        }
      ],
      "name": "removeOrderEvent",
      "outputs": [],
      "payable": false,
      "stateMutability": "nonpayable",
      "type": "function"
    },
    {
      "constant": false,
      "inputs": [],
      "name": "getMarket",
      "outputs": [],
      "payable": false,
      "stateMutability": "nonpayable",
      "type": "function"
    }
  ],
  "bytecode": "0x60806040526040516020806200ddd183398101806040526200002591908101906200012a565b67d02ab486cedc000034101515156200003d57600080fd5b33600160006101000a81548173ffffffffffffffffffffffffffffffffffffffff021916908373ffffffffffffffffffffffffffffffffffffffff16021790555067a688906bd8b00000816200009262000103565b6200009e919062000167565b6040518091039082f080158015620000ba573d6000803e3d6000fd5b5090506000806101000a81548173ffffffffffffffffffffffffffffffffffffffff021916908373ffffffffffffffffffffffffffffffffffffffff1602179055505062000198565b604051617974806200645d83390190565b60006200012282516200018e565b905092915050565b6000602082840312156200013d57600080fd5b60006200014d8482850162000114565b91505092915050565b620001618162000184565b82525050565b60006020820190506200017e600083018462000156565b92915050565b6000819050919050565b6000819050919050565b6162b580620001a86000396000f300608060405260043610620000c7576000357c0100000000000000000000000000000000000000000000000000000000900463ffffffff16806306fd653614620000cc5780631635717c14620000ec5780632c162dbc14620001065780636324276c146200014c57806380e55d62146200017a57806381d3afac14620001a85780638299ba7414620001d65780639b0feabc1462000204578063bd447a471462000224578063dc1884031462000244578063f1be16791462000272578063f73d8841146200028c575b600080fd5b620000ea6004803603620000e49190810190620020d9565b620002ba565b005b348015620000f957600080fd5b506200010462000495565b005b3480156200011357600080fd5b506200013260048036036200012c919081019062002066565b6200050c565b6040516200014393929190620026ee565b60405180910390f35b3480156200015957600080fd5b5062000178600480360362000172919081019062001fdc565b6200060b565b005b3480156200018757600080fd5b50620001a66004803603620001a09190810190620022b6565b620006c2565b005b348015620001b557600080fd5b50620001d46004803603620001ce919081019062001ebf565b6200070a565b005b348015620001e357600080fd5b50620002026004803603620001fc919081019062001dae565b620007a8565b005b6200022260048036036200021c919081019062002218565b620008ef565b005b6200024260048036036200023c919081019062001d82565b62000b97565b005b3480156200025157600080fd5b506200027060048036036200026a919081019062002177565b62000dc2565b005b3480156200027f57600080fd5b506200028a62000f7c565b005b3480156200029957600080fd5b50620002b86004803603620002b29190810190620022b6565b62001485565b005b60006002856040518082805190602001908083835b602083101515620002f65780518252602082019150602081019050602083039250620002cf565b6001836020036101000a038019825116818451168082178552505050505050905001915050908152602001604051809103902060009054906101000a900473ffffffffffffffffffffffffffffffffffffffff1673ffffffffffffffffffffffffffffffffffffffff1614156200048f57838383836200037562001aff565b62000384949392919062002830565b604051809103906000f080158015620003a1573d6000803e3d6000fd5b506002856040518082805190602001908083835b602083101515620003dc5780518252602082019150602081019050602083039250620003b5565b6001836020036101000a038019825116818451168082178552505050505050905001915050908152602001604051809103902060006101000a81548173ffffffffffffffffffffffffffffffffffffffff021916908373ffffffffffffffffffffffffffffffffffffffff16021790555060038490806001815401808255809150509060018203906000526020600020016000909192909190915090805190602001906200048c92919062001b10565b50505b50505050565b60008090505b60038054905081101562000509577fd351753e101d3021febe7ad4ea49dcece71027f1fcb9b5f3eda0caa8b4f0c428600382815481101515620004da57fe5b90600052602060002001604051620004f3919062002a1b565b60405180910390a180806001019150506200049b565b50565b600060606000806000606060008060009054906101000a900473ffffffffffffffffffffffffffffffffffffffff1693508373ffffffffffffffffffffffffffffffffffffffff1663601210238a8a6040518363ffffffff167c01000000000000000000000000000000000000000000000000000000000281526004016200059692919062002793565b600060405180830381600087803b158015620005b157600080fd5b505af1158015620005c6573d6000803e3d6000fd5b505050506040513d6000823e3d601f19601f82011682018060405250620005f1919081019062001f6d565b925092509250829650819550809450505050509250925092565b60008060009054906101000a900473ffffffffffffffffffffffffffffffffffffffff1690508073ffffffffffffffffffffffffffffffffffffffff166381af7ec633846040518363ffffffff167c01000000000000000000000000000000000000000000000000000000000281526004016200068a92919062002623565b600060405180830381600087803b158015620006a557600080fd5b505af1158015620006ba573d6000803e3d6000fd5b505050505050565b7fb480ca2d2638814835af873dec41cc3799a60c4eb23874497e5583f06373570b848484846001604051620006fc959493929190620029b7565b60405180910390a150505050565b6000809054906101000a900473ffffffffffffffffffffffffffffffffffffffff1673ffffffffffffffffffffffffffffffffffffffff163373ffffffffffffffffffffffffffffffffffffffff161415156200076657600080fd5b7f8103e7f922f5dfa0279dda3f2772a8568bc52e54e93ae50ac613938e846a392f8383836040516200079b9392919062002657565b60405180910390a1505050565b60007f0bb563d6789cea5d754d1b7f85bfebdfe7a1a86e2e0ffccfb8a6bbdb07826ae2604051620007d99062002a61565b60405180910390a17f8103e7f922f5dfa0279dda3f2772a8568bc52e54e93ae50ac613938e846a392f600060146000604051620008199392919062002732565b60405180910390a16000809054906101000a900473ffffffffffffffffffffffffffffffffffffffff1690508073ffffffffffffffffffffffffffffffffffffffff166352f82efd670de0b6b3a76400008a8a8a8a8a8a8a6040518963ffffffff167c0100000000000000000000000000000000000000000000000000000000028152600401620008b197969594939291906200258a565b6000604051808303818588803b158015620008cb57600080fd5b505af1158015620008e0573d6000803e3d6000fd5b50505050505050505050505050565b600080600080670de0b6b3a76400003073ffffffffffffffffffffffffffffffffffffffff1631101515156200092457600080fd5b6002886040518082805190602001908083835b6020831015156200095e578051825260208201915060208101905060208303925062000937565b6001836020036101000a038019825116818451168082178552505050505050905001915050908152602001604051809103902060009054906101000a900473ffffffffffffffffffffffffffffffffffffffff16935060008473ffffffffffffffffffffffffffffffffffffffff1614151562000b8d5783925062000a19856040805190810160405280600381526020017f4255590000000000000000000000000000000000000000000000000000000000815250620014cd565b1562000ab4578273ffffffffffffffffffffffffffffffffffffffff16639f2ad8af3389896040518463ffffffff167c010000000000000000000000000000000000000000000000000000000002815260040162000a7a9392919062002694565b600060405180830381600087803b15801562000a9557600080fd5b505af115801562000aaa573d6000803e3d6000fd5b5050505062000b8c565b62000af5856040805190810160405280600481526020017f53454c4c00000000000000000000000000000000000000000000000000000000815250620014cd565b1562000b8b578273ffffffffffffffffffffffffffffffffffffffff1663fbe0f8303389896040518463ffffffff167c010000000000000000000000000000000000000000000000000000000002815260040162000b569392919062002694565b600060405180830381600087803b15801562000b7157600080fd5b505af115801562000b86573d6000803e3d6000fd5b505050505b5b5b5050505050505050565b6000806060839250348373ffffffffffffffffffffffffffffffffffffffff1663209652556040518163ffffffff167c0100000000000000000000000000000000000000000000000000000000028152600401602060405180830381600087803b15801562000c0557600080fd5b505af115801562000c1a573d6000803e3d6000fd5b505050506040513d601f19601f8201168201806040525062000c40919081019062002367565b1115151562000c4e57600080fd5b8273ffffffffffffffffffffffffffffffffffffffff16631b9265b8346040518263ffffffff167c01000000000000000000000000000000000000000000000000000000000281526004016020604051808303818588803b15801562000cb357600080fd5b505af115801562000cc8573d6000803e3d6000fd5b50505050506040513d601f19601f8201168201806040525062000cef919081019062001f15565b915060011515821515141562000dbc5762000d806040805190810160405280601081526020017f5061796d656e742072657175657374200000000000000000000000000000000081525062000d4486620015aa565b6040805190810160405280601281526020017f5061796564207375636365737366756c6c7900000000000000000000000000008152506200169b565b90507f0bb563d6789cea5d754d1b7f85bfebdfe7a1a86e2e0ffccfb8a6bbdb07826ae28160405162000db391906200276f565b60405180910390a15b50505050565b6000806000809054906101000a900473ffffffffffffffffffffffffffffffffffffffff1691508173ffffffffffffffffffffffffffffffffffffffff1663d8f36758868633876040518563ffffffff167c010000000000000000000000000000000000000000000000000000000002815260040162000e469493929190620027ce565b602060405180830381600087803b15801562000e6157600080fd5b505af115801562000e76573d6000803e3d6000fd5b505050506040513d601f19601f8201168201806040525062000e9c919081019062001f41565b90507fffffffffffffffffffffffffffffffffffffffffffffffffffffffffffffffff81141562000f04577fad679787e86cc1ad43d48f68523bf13fe426f8a127fc1a95937edd6dab4e82f960405162000ef69062002a3f565b60405180910390a162000f3c565b7fad679787e86cc1ad43d48f68523bf13fe426f8a127fc1a95937edd6dab4e82f960405162000f339062002a83565b60405180910390a15b7fc9aeace1d957b601e4dbe681bf58719078b0279a5e31256d634894d1cc7fe5f88160405162000f6d9190620026d1565b60405180910390a15050505050565b60008060006060600062000f8f62001b97565b600080600097505b6003805490508810156200147b57600260038981548110151562000fb757fe5b906000526020600020016040518082805460018160011615610100020316600290048015620010205780601f1062000ffd57610100808354040283529182019162001020565b820191906000526020600020905b8154815290600101906020018083116200100b575b5050915050908152602001604051809103902060009054906101000a900473ffffffffffffffffffffffffffffffffffffffff1696508695508573ffffffffffffffffffffffffffffffffffffffff1663488926326040518163ffffffff167c0100000000000000000000000000000000000000000000000000000000028152600401600060405180830381600087803b158015620010be57600080fd5b505af1158015620010d3573d6000803e3d6000fd5b505050506040513d6000823e3d601f19601f82011682018060405250620010fe919081019062002021565b94508573ffffffffffffffffffffffffffffffffffffffff1663c525ff5b6040518163ffffffff167c0100000000000000000000000000000000000000000000000000000000028152600401602060405180830381600087803b1580156200116557600080fd5b505af11580156200117a573d6000803e3d6000fd5b505050506040513d601f19601f82011682018060405250620011a0919081019062002367565b9350600091505b83821015620012b7578573ffffffffffffffffffffffffffffffffffffffff1663478f79f8836040518263ffffffff167c010000000000000000000000000000000000000000000000000000000002815260040162001207919062002aa5565b6040805180830381600087803b1580156200122157600080fd5b505af115801562001236573d6000803e3d6000fd5b505050506040513d601f19601f820116820180604052506200125c91908101906200233b565b92507fb480ca2d2638814835af873dec41cc3799a60c4eb23874497e5583f06373570b858460000151856020015160006001604051620012a19594939291906200288b565b60405180910390a18180600101925050620011a7565b8573ffffffffffffffffffffffffffffffffffffffff166335aedaee6040518163ffffffff167c0100000000000000000000000000000000000000000000000000000000028152600401602060405180830381600087803b1580156200131c57600080fd5b505af115801562001331573d6000803e3d6000fd5b505050506040513d601f19601f8201168201806040525062001357919081019062002367565b9050600091505b808210156200146d578573ffffffffffffffffffffffffffffffffffffffff1663f8df3979836040518263ffffffff167c0100000000000000000000000000000000000000000000000000000000028152600401620013be919062002aa5565b6040805180830381600087803b158015620013d857600080fd5b505af1158015620013ed573d6000803e3d6000fd5b505050506040513d601f19601f820116820180604052506200141391908101906200233b565b92507fb480ca2d2638814835af873dec41cc3799a60c4eb23874497e5583f06373570b858460000151856020015160018060405162001457959493929190620028ef565b60405180910390a181806001019250506200135e565b878060010198505062000f97565b5050505050505050565b7fb480ca2d2638814835af873dec41cc3799a60c4eb23874497e5583f06373570b848484846000604051620014bf95949392919062002953565b60405180910390a150505050565b6000816040518082805190602001908083835b602083101515620015075780518252602082019150602081019050602083039250620014e0565b6001836020036101000a038019825116818451168082178552505050505050905001915050604051809103902060001916836040518082805190602001908083835b60208310151562001570578051825260208201915060208101905060208303925062001549565b6001836020036101000a03801982511681845116808217855250505050505090500191505060405180910390206000191614905092915050565b606080600060146040519080825280601f01601f191660200182016040528015620015e45781602001602082028038833980820191505090505b509150600090505b601481101562001691578060130360080260020a8473ffffffffffffffffffffffffffffffffffffffff168115156200162157fe5b047f01000000000000000000000000000000000000000000000000000000000000000282828151811015156200165357fe5b9060200101907effffffffffffffffffffffffffffffffffffffffffffffffffffffffffffff1916908160001a9053508080600101915050620015ec565b8192505050919050565b6060620016cc84848460206040519081016040528060008152506020604051908101604052806000815250620016d5565b90509392505050565b6060806060806060806060806000808e98508d97508c96508b95508a94508451865188518a518c51010101016040519080825280601f01601f191660200182016040528015620017345781602001602082028038833980820191505090505b50935083925060009150600090505b8851811015620017fa5788818151811015156200175c57fe5b9060200101517f010000000000000000000000000000000000000000000000000000000000000090047f0100000000000000000000000000000000000000000000000000000000000000028383806001019450815181101515620017bc57fe5b9060200101907effffffffffffffffffffffffffffffffffffffffffffffffffffffffffffff1916908160001a905350808060010191505062001743565b600090505b8751811015620018b65787818151811015156200181857fe5b9060200101517f010000000000000000000000000000000000000000000000000000000000000090047f01000000000000000000000000000000000000000000000000000000000000000283838060010194508151811015156200187857fe5b9060200101907effffffffffffffffffffffffffffffffffffffffffffffffffffffffffffff1916908160001a9053508080600101915050620017ff565b600090505b865181101562001972578681815181101515620018d457fe5b9060200101517f010000000000000000000000000000000000000000000000000000000000000090047f01000000000000000000000000000000000000000000000000000000000000000283838060010194508151811015156200193457fe5b9060200101907effffffffffffffffffffffffffffffffffffffffffffffffffffffffffffff1916908160001a9053508080600101915050620018bb565b600090505b855181101562001a2e5785818151811015156200199057fe5b9060200101517f010000000000000000000000000000000000000000000000000000000000000090047f0100000000000000000000000000000000000000000000000000000000000000028383806001019450815181101515620019f057fe5b9060200101907effffffffffffffffffffffffffffffffffffffffffffffffffffffffffffff1916908160001a905350808060010191505062001977565b600090505b845181101562001aea57848181518110151562001a4c57fe5b9060200101517f010000000000000000000000000000000000000000000000000000000000000090047f010000000000000000000000000000000000000000000000000000000000000002838380600101945081518110151562001aac57fe5b9060200101907effffffffffffffffffffffffffffffffffffffffffffffffffffffffffffff1916908160001a905350808060010191505062001a33565b82995050505050505050505095945050505050565b6040516135e28062002c9a83390190565b828054600181600116156101000203166002900490600052602060002090601f016020900481019282601f1062001b5357805160ff191683800117855562001b84565b8280016001018555821562001b84579182015b8281111562001b8357825182559160200191906001019062001b66565b5b50905062001b93919062001bb1565b5090565b604080519081016040528060008152602001600081525090565b62001bd691905b8082111562001bd257600081600090555060010162001bb8565b5090565b90565b600062001be7823562002b85565b905092915050565b600062001bfd825162002b85565b905092915050565b600062001c13825162002ba5565b905092915050565b600062001c29823562002bb1565b905092915050565b600062001c3f825162002bcb565b905092915050565b600082601f830112151562001c5b57600080fd5b813562001c7262001c6c8262002af0565b62002ac2565b9150808252602083016020830185838301111562001c8f57600080fd5b62001c9c83828462002c43565b50505092915050565b600082601f830112151562001cb957600080fd5b815162001cd062001cca8262002af0565b62002ac2565b9150808252602083016020830185838301111562001ced57600080fd5b62001cfa83828462002c52565b50505092915050565b60006040828403121562001d1657600080fd5b62001d22604062002ac2565b9050600062001d348482850162001d6c565b600083015250602062001d4a8482850162001d6c565b60208301525092915050565b600062001d64823562002bd5565b905092915050565b600062001d7a825162002bd5565b905092915050565b60006020828403121562001d9557600080fd5b600062001da58482850162001bd9565b91505092915050565b600080600080600080600060e0888a03121562001dca57600080fd5b600062001dda8a828b0162001bd9565b975050602062001ded8a828b0162001bd9565b965050604088013567ffffffffffffffff81111562001e0b57600080fd5b62001e198a828b0162001c47565b955050606088013567ffffffffffffffff81111562001e3757600080fd5b62001e458a828b0162001c47565b945050608088013567ffffffffffffffff81111562001e6357600080fd5b62001e718a828b0162001c47565b93505060a062001e848a828b0162001d56565b92505060c088013567ffffffffffffffff81111562001ea257600080fd5b62001eb08a828b0162001c47565b91505092959891949750929550565b60008060006060848603121562001ed557600080fd5b600062001ee58682870162001bd9565b935050602062001ef88682870162001d56565b925050604062001f0b8682870162001bd9565b9150509250925092565b60006020828403121562001f2857600080fd5b600062001f388482850162001c05565b91505092915050565b60006020828403121562001f5457600080fd5b600062001f648482850162001c31565b91505092915050565b60008060006060848603121562001f8357600080fd5b600062001f938682870162001c31565b935050602084015167ffffffffffffffff81111562001fb157600080fd5b62001fbf8682870162001ca5565b925050604062001fd28682870162001bef565b9150509250925092565b60006020828403121562001fef57600080fd5b600082013567ffffffffffffffff8111156200200a57600080fd5b620020188482850162001c47565b91505092915050565b6000602082840312156200203457600080fd5b600082015167ffffffffffffffff8111156200204f57600080fd5b6200205d8482850162001ca5565b91505092915050565b600080604083850312156200207a57600080fd5b600083013567ffffffffffffffff8111156200209557600080fd5b620020a38582860162001c47565b925050602083013567ffffffffffffffff811115620020c157600080fd5b620020cf8582860162001c47565b9150509250929050565b60008060008060808587031215620020f057600080fd5b600085013567ffffffffffffffff8111156200210b57600080fd5b620021198782880162001c47565b945050602085013567ffffffffffffffff8111156200213757600080fd5b620021458782880162001c47565b9350506040620021588782880162001c1b565b92505060606200216b8782880162001d56565b91505092959194509250565b6000806000606084860312156200218d57600080fd5b600084013567ffffffffffffffff811115620021a857600080fd5b620021b68682870162001c47565b935050602084013567ffffffffffffffff811115620021d457600080fd5b620021e28682870162001c47565b925050604084013567ffffffffffffffff8111156200220057600080fd5b6200220e8682870162001c47565b9150509250925092565b600080600080608085870312156200222f57600080fd5b600085013567ffffffffffffffff8111156200224a57600080fd5b620022588782880162001c47565b94505060206200226b8782880162001d56565b93505060406200227e8782880162001d56565b925050606085013567ffffffffffffffff8111156200229c57600080fd5b620022aa8782880162001c47565b91505092959194509250565b60008060008060808587031215620022cd57600080fd5b600085013567ffffffffffffffff811115620022e857600080fd5b620022f68782880162001c47565b9450506020620023098782880162001d56565b93505060406200231c8782880162001d56565b92505060606200232f8782880162001d56565b91505092959194509250565b6000604082840312156200234e57600080fd5b60006200235e8482850162001d03565b91505092915050565b6000602082840312156200237a57600080fd5b60006200238a8482850162001d6c565b91505092915050565b6200239e8162002b3a565b82525050565b620023af8162002bdf565b82525050565b620023c08162002b71565b82525050565b620023d18162002bf3565b82525050565b620023e28162002c07565b82525050565b620023f38162002c1b565b82525050565b620024048162002c2f565b82525050565b6000620024178262002b2f565b8084526200242d81602086016020860162002c52565b620024388162002c88565b602085010191505092915050565b6000815460018116600081146200246657600181146200248757620024cc565b607f600283041680865260ff198316602087015260408601935050620024cc565b600282048086526020860195506200249f8562002b1d565b60005b82811015620024c357815481890152600182019150602081019050620024a2565b80880195505050505b505092915050565b6000601d82527f5468697320656d61696c20697320616c726564792072656769737465720000006020830152604082019050919050565b6000600f82527f414444454420544f204d41524b455400000000000000000000000000000000006020830152604082019050919050565b6000601282527f526567697374726174696f6e20646f6e652100000000000000000000000000006020830152604082019050919050565b620025848162002b7b565b82525050565b600060e082019050620025a1600083018a62002393565b620025b0602083018962002393565b8181036040830152620025c481886200240a565b90508181036060830152620025da81876200240a565b90508181036080830152620025f081866200240a565b90506200260160a083018562002579565b81810360c08301526200261581846200240a565b905098975050505050505050565b60006040820190506200263a600083018562002393565b81810360208301526200264e81846200240a565b90509392505050565b60006060820190506200266e600083018662002393565b6200267d602083018562002579565b6200268c604083018462002393565b949350505050565b6000606082019050620026ab600083018662002393565b620026ba602083018562002579565b620026c9604083018462002579565b949350505050565b6000602082019050620026e86000830184620023b5565b92915050565b6000606082019050620027056000830186620023b5565b81810360208301526200271981856200240a565b90506200272a604083018462002393565b949350505050565b6000606082019050620027496000830186620023c6565b620027586020830185620023f9565b620027676040830184620023c6565b949350505050565b600060208201905081810360008301526200278b81846200240a565b905092915050565b60006040820190508181036000830152620027af81856200240a565b90508181036020830152620027c581846200240a565b90509392505050565b60006080820190508181036000830152620027ea81876200240a565b905081810360208301526200280081866200240a565b905062002811604083018562002393565b81810360608301526200282581846200240a565b905095945050505050565b600060808201905081810360008301526200284c81876200240a565b905081810360208301526200286281866200240a565b9050620028736040830185620023a4565b62002882606083018462002579565b95945050505050565b600060a0820190508181036000830152620028a781886200240a565b9050620028b8602083018762002579565b620028c7604083018662002579565b620028d66060830185620023d7565b620028e56080830184620023e8565b9695505050505050565b600060a08201905081810360008301526200290b81886200240a565b90506200291c602083018762002579565b6200292b604083018662002579565b6200293a6060830185620023e8565b620029496080830184620023e8565b9695505050505050565b600060a08201905081810360008301526200296f81886200240a565b905062002980602083018762002579565b6200298f604083018662002579565b6200299e606083018562002579565b620029ad6080830184620023d7565b9695505050505050565b600060a0820190508181036000830152620029d381886200240a565b9050620029e4602083018762002579565b620029f3604083018662002579565b62002a02606083018562002579565b62002a116080830184620023e8565b9695505050505050565b6000602082019050818103600083015262002a37818462002446565b905092915050565b6000602082019050818103600083015262002a5a81620024d4565b9050919050565b6000602082019050818103600083015262002a7c816200250b565b9050919050565b6000602082019050818103600083015262002a9e8162002542565b9050919050565b600060208201905062002abc600083018462002579565b92915050565b6000604051905081810181811067ffffffffffffffff8211171562002ae657600080fd5b8060405250919050565b600067ffffffffffffffff82111562002b0857600080fd5b601f19601f8301169050602081019050919050565b60008160005260206000209050919050565b600081519050919050565b600073ffffffffffffffffffffffffffffffffffffffff82169050919050565b600060028210151562002b6957fe5b819050919050565b6000819050919050565b6000819050919050565b600073ffffffffffffffffffffffffffffffffffffffff82169050919050565b60008115159050919050565b600060028210151562002bc357600080fd5b819050919050565b6000819050919050565b6000819050919050565b600062002bec8262002b5a565b9050919050565b600062002c008262002b3a565b9050919050565b600062002c148262002b7b565b9050919050565b600062002c288262002b7b565b9050919050565b600062002c3c8262002b7b565b9050919050565b82818337600083830152505050565b60005b8381101562002c7257808201518184015260208101905062002c55565b8381111562002c82576000848401525b50505050565b6000601f19601f8301169050919050560060806040523480156200001157600080fd5b50604051620035e2380380620035e2833981018060405262000037919081019062000217565b83600190805190602001906200004f929190620000de565b50826002908051906020019062000068929190620000de565b50816000806101000a81548160ff021916908360018111156200008757fe5b021790555033600460006101000a81548173ffffffffffffffffffffffffffffffffffffffff021916908373ffffffffffffffffffffffffffffffffffffffff16021790555080600381905550505050506200036a565b828054600181600116156101000203166002900490600052602060002090601f016020900481019282601f106200012157805160ff191683800117855562000152565b8280016001018555821562000152579182015b828111156200015157825182559160200191906001019062000134565b5b50905062000161919062000165565b5090565b6200018a91905b80821115620001865760008160009055506001016200016c565b5090565b90565b60006200019b825162000310565b905092915050565b600082601f8301121515620001b757600080fd5b8151620001ce620001c882620002e3565b620002b5565b91508082526020830160208301858383011115620001eb57600080fd5b620001f883828462000334565b50505092915050565b60006200020f82516200032a565b905092915050565b600080600080608085870312156200022e57600080fd5b600085015167ffffffffffffffff8111156200024957600080fd5b6200025787828801620001a3565b945050602085015167ffffffffffffffff8111156200027557600080fd5b6200028387828801620001a3565b935050604062000296878288016200018d565b9250506060620002a98782880162000201565b91505092959194509250565b6000604051905081810181811067ffffffffffffffff82111715620002d957600080fd5b8060405250919050565b600067ffffffffffffffff821115620002fb57600080fd5b601f19601f8301169050602081019050919050565b60006002821015156200032257600080fd5b819050919050565b6000819050919050565b60005b838110156200035457808201518184015260208101905062000337565b8381111562000364576000848401525b50505050565b613268806200037a6000396000f300608060405260043610610099576000357c0100000000000000000000000000000000000000000000000000000000900463ffffffff16806335aedaee1461009e578063478f79f8146100c957806348892632146101065780639f2ad8af14610131578063c525ff5b1461015a578063d810f9ad14610185578063f302fc0a146101c3578063f8df397914610201578063fbe0f8301461023e575b600080fd5b3480156100aa57600080fd5b506100b3610267565b6040516100c09190613111565b60405180910390f35b3480156100d557600080fd5b506100f060048036036100eb9190810190612e25565b610274565b6040516100fd91906130f6565b60405180910390f35b34801561011257600080fd5b5061011b6102d8565b604051610128919061303c565b60405180910390f35b34801561013d57600080fd5b5061015860048036036101539190810190612dd6565b61037a565b005b34801561016657600080fd5b5061016f610795565b60405161017c9190613111565b60405180910390f35b34801561019157600080fd5b506101ac60048036036101a79190810190612e4e565b6107a2565b6040516101ba92919061312c565b60405180910390f35b3480156101cf57600080fd5b506101ea60048036036101e59190810190612e4e565b610a34565b6040516101f892919061312c565b60405180910390f35b34801561020d57600080fd5b5061022860048036036102239190810190612e25565b610cc6565b60405161023591906130f6565b60405180910390f35b34801561024a57600080fd5b5061026560048036036102609190810190612dd6565b610d2a565b005b6000600680549050905090565b61027c612d7a565b604080519081016040528060058481548110151561029657fe5b90600052602060002090600402016001015481526020016005848154811015156102bc57fe5b9060005260206000209060040201600301548152509050919050565b606060018054600181600116156101000203166002900480601f0160208091040260200160405190810160405280929190818152602001828054600181600116156101000203166002900480156103705780601f1061034557610100808354040283529160200191610370565b820191906000526020600020905b81548152906001019060200180831161035357829003601f168201915b5050505050905090565b6000803373ffffffffffffffffffffffffffffffffffffffff16600460009054906101000a900473ffffffffffffffffffffffffffffffffffffffff1673ffffffffffffffffffffffffffffffffffffffff161415156103d957600080fd5b60006005805490501415156107795760009150600460009054906101000a900473ffffffffffffffffffffffffffffffffffffffff1690505b60058281548110151561042157fe5b906000526020600020906004020160030154831115806104415750600084115b156107785760058281548110151561045557fe5b906000526020600020906004020160010154841015156105f6576000600181111561047c57fe5b6000809054906101000a900460ff16600181111561049657fe5b14156105c8578073ffffffffffffffffffffffffffffffffffffffff16638299ba74866005858154811015156104c857fe5b906000526020600020906004020160000160009054906101000a900473ffffffffffffffffffffffffffffffffffffffff16600161052560058881548110151561050e57fe5b906000526020600020906004020160010154611146565b61054e60058981548110151561053757fe5b90600052602060002090600402016003015461116c565b60035460026040518863ffffffff167c01000000000000000000000000000000000000000000000000000000000281526004016105919796959493929190612fb1565b600060405180830381600087803b1580156105ab57600080fd5b505af11580156105bf573d6000803e3d6000fd5b505050506105f1565b6001808111156105d457fe5b6000809054906101000a900460ff1660018111156105ee57fe5b50505b610759565b6000600181111561060357fe5b6000809054906101000a900460ff16600181111561061d57fe5b141561072f578073ffffffffffffffffffffffffffffffffffffffff16638299ba748660058581548110151561064f57fe5b906000526020600020906004020160000160009054906101000a900473ffffffffffffffffffffffffffffffffffffffff16600161068c89611146565b6106b560058981548110151561069e57fe5b90600052602060002090600402016003015461116c565b60035460026040518863ffffffff167c01000000000000000000000000000000000000000000000000000000000281526004016106f89796959493929190612fb1565b600060405180830381600087803b15801561071257600080fd5b505af1158015610726573d6000803e3d6000fd5b50505050610758565b60018081111561073b57fe5b6000809054906101000a900460ff16600181111561075557fe5b50505b5b6107638285610a34565b80955081935050508180600101925050610412565b5b600084111561078e5761078d85858561120f565b5b5050505050565b6000600580549050905090565b6000806000600460009054906101000a900473ffffffffffffffffffffffffffffffffffffffff1690506006858154811015156107db57fe5b906000526020600020906004020160010154841015156109025760068581548110151561080457fe5b906000526020600020906004020160010154840393508073ffffffffffffffffffffffffffffffffffffffff1663f73d8841600160068881548110151561084757fe5b90600052602060002090600402016001015460068981548110151561086857fe5b90600052602060002090600402016003015460016040518563ffffffff167c01000000000000000000000000000000000000000000000000000000000281526004016108b794939291906130aa565b600060405180830381600087803b1580156108d157600080fd5b505af11580156108e5573d6000803e3d6000fd5b505050506108f46006866113a2565b848060019003955050610a26565b60068581548110151561091157fe5b906000526020600020906004020160010154821015610a25578360068681548110151561093a57fe5b9060005260206000209060040201600101540360068681548110151561095c57fe5b9060005260206000209060040201600101819055508073ffffffffffffffffffffffffffffffffffffffff1663f73d884160018460068981548110151561099f57fe5b90600052602060002090600402016003015460016040518563ffffffff167c01000000000000000000000000000000000000000000000000000000000281526004016109ee94939291906130aa565b600060405180830381600087803b158015610a0857600080fd5b505af1158015610a1c573d6000803e3d6000fd5b50505050600093505b5b849250839150509250929050565b6000806000600460009054906101000a900473ffffffffffffffffffffffffffffffffffffffff169050600585815481101515610a6d57fe5b90600052602060002090600402016001015482101515610b9457600585815481101515610a9657fe5b906000526020600020906004020160010154840393508073ffffffffffffffffffffffffffffffffffffffff1663f73d88416001600588815481101515610ad957fe5b906000526020600020906004020160010154600589815481101515610afa57fe5b90600052602060002090600402016003015460006040518563ffffffff167c0100000000000000000000000000000000000000000000000000000000028152600401610b49949392919061305e565b600060405180830381600087803b158015610b6357600080fd5b505af1158015610b77573d6000803e3d6000fd5b50505050610b866005866113a2565b848060019003955050610cb8565b600585815481101515610ba357fe5b906000526020600020906004020160010154821015610cb75783600586815481101515610bcc57fe5b90600052602060002090600402016001015403600586815481101515610bee57fe5b9060005260206000209060040201600101819055508073ffffffffffffffffffffffffffffffffffffffff1663f73d8841600186600589815481101515610c3157fe5b90600052602060002090600402016003015460006040518563ffffffff167c0100000000000000000000000000000000000000000000000000000000028152600401610c80949392919061305e565b600060405180830381600087803b158015610c9a57600080fd5b505af1158015610cae573d6000803e3d6000fd5b50505050600093505b5b849250839150509250929050565b610cce612d7a565b6040805190810160405280600684815481101515610ce857fe5b9060005260206000209060040201600101548152602001600684815481101515610d0e57fe5b9060005260206000209060040201600301548152509050919050565b6000803373ffffffffffffffffffffffffffffffffffffffff16600460009054906101000a900473ffffffffffffffffffffffffffffffffffffffff1673ffffffffffffffffffffffffffffffffffffffff16141515610d8957600080fd5b600060068054905014151561112a5760009150600460009054906101000a900473ffffffffffffffffffffffffffffffffffffffff1690505b600682815481101515610dd157fe5b9060005260206000209060040201600301548310158015610df25750600084115b1561112957600682815481101515610e0657fe5b90600052602060002090600402016001015484101515610fa75760006001811115610e2d57fe5b6000809054906101000a900460ff166001811115610e4757fe5b1415610f79578073ffffffffffffffffffffffffffffffffffffffff16638299ba74600684815481101515610e7857fe5b906000526020600020906004020160000160009054906101000a900473ffffffffffffffffffffffffffffffffffffffff16876001610ed6600688815481101515610ebf57fe5b906000526020600020906004020160010154611146565b610eff600689815481101515610ee857fe5b90600052602060002090600402016003015461116c565b60035460026040518863ffffffff167c0100000000000000000000000000000000000000000000000000000000028152600401610f429796959493929190612fb1565b600060405180830381600087803b158015610f5c57600080fd5b505af1158015610f70573d6000803e3d6000fd5b50505050610fa2565b600180811115610f8557fe5b6000809054906101000a900460ff166001811115610f9f57fe5b50505b61110a565b60006001811115610fb457fe5b6000809054906101000a900460ff166001811115610fce57fe5b14156110e0578073ffffffffffffffffffffffffffffffffffffffff16638299ba74600684815481101515610fff57fe5b906000526020600020906004020160000160009054906101000a900473ffffffffffffffffffffffffffffffffffffffff1687600161103d89611146565b61106660068981548110151561104f57fe5b90600052602060002090600402016003015461116c565b60035460026040518863ffffffff167c01000000000000000000000000000000000000000000000000000000000281526004016110a99796959493929190612fb1565b600060405180830381600087803b1580156110c357600080fd5b505af11580156110d7573d6000803e3d6000fd5b50505050611109565b6001808111156110ec57fe5b6000809054906101000a900460ff16600181111561110657fe5b50505b5b61111482856107a2565b80955081935050508180600101925050610dc2565b5b600084111561113f5761113e858585611504565b5b5050505050565b60606000606061115584611697565b915061116082611740565b90508092505050919050565b606060008060008060006060806103e88981151561118657fe5b0496506103e887029550858903945061119e87611697565b93506111a985611697565b92506111b484611740565b91506111bf83611740565b9050611201826040805190810160405280600181526020017f2e0000000000000000000000000000000000000000000000000000000000000081525083611865565b975050505050505050919050565b600060066080604051908101604052808673ffffffffffffffffffffffffffffffffffffffff168152602001858152602001428152602001848152509080600181540180825580915050906001820390600052602060002090600402016000909192909190915060008201518160000160006101000a81548173ffffffffffffffffffffffffffffffffffffffff021916908373ffffffffffffffffffffffffffffffffffffffff1602179055506020820151816001015560408201518160020155606082015181600301555050506112e8600661189d565b600460009054906101000a900473ffffffffffffffffffffffffffffffffffffffff1690508073ffffffffffffffffffffffffffffffffffffffff166380e55d626001858560016040518563ffffffff167c010000000000000000000000000000000000000000000000000000000002815260040161136a94939291906130aa565b600060405180830381600087803b15801561138457600080fd5b505af1158015611398573d6000803e3d6000fd5b5050505050505050565b60008280549050821015156113b6576114ff565b8190505b60018380549050038110156114995782600182018154811015156113da57fe5b906000526020600020906004020183828154811015156113f657fe5b90600052602060002090600402016000820160009054906101000a900473ffffffffffffffffffffffffffffffffffffffff168160000160006101000a81548173ffffffffffffffffffffffffffffffffffffffff021916908373ffffffffffffffffffffffffffffffffffffffff16021790555060018201548160010155600282015481600201556003820154816003015590505080806001019150506113ba565b8260018480549050038154811015156114ae57fe5b9060005260206000209060040201600080820160006101000a81549073ffffffffffffffffffffffffffffffffffffffff021916905560018201600090556002820160009055600382016000905550505b505050565b600060056080604051908101604052808673ffffffffffffffffffffffffffffffffffffffff168152602001858152602001428152602001848152509080600181540180825580915050906001820390600052602060002090600402016000909192909190915060008201518160000160006101000a81548173ffffffffffffffffffffffffffffffffffffffff021916908373ffffffffffffffffffffffffffffffffffffffff1602179055506020820151816001015560408201518160020155606082015181600301555050506115dd600561189d565b600460009054906101000a900473ffffffffffffffffffffffffffffffffffffffff1690508073ffffffffffffffffffffffffffffffffffffffff166380e55d626001858560006040518563ffffffff167c010000000000000000000000000000000000000000000000000000000002815260040161165f949392919061305e565b600060405180830381600087803b15801561167957600080fd5b505af115801561168d573d6000803e3d6000fd5b5050505050505050565b6000808214156116c9577f30000000000000000000000000000000000000000000000000000000000000009050611738565b5b60008211156117375761010081600190048115156116e457fe5b0460010290507f01000000000000000000000000000000000000000000000000000000000000006030600a8481151561171957fe5b06010260010281179050600a8281151561172f57fe5b0491506116ca565b5b809050919050565b606080600061174d612d94565b611755612d94565b60206040519080825280601f01601f1916602001820160405280156117895781602001602082028038833980820191505090505b5093505b60208310156118125785836020811015156117a457fe5b1a7f01000000000000000000000000000000000000000000000000000000000000000284848151811015156117d557fe5b9060200101907effffffffffffffffffffffffffffffffffffffffffffffffffffffffffffff1916908160001a905350828060010193505061178d565b61181b84611fdb565b915061185061183f6040805190810160405280600181526020016000815250611fdb565b82846120099092919063ffffffff16565b5061185a816120a7565b945050505050919050565b606061189484848460206040519081016040528060008152506020604051908101604052806000815250612109565b90509392505050565b6000600182805490501115156118b257611fd7565b600282805490501415611c09578160018154811015156118ce57fe5b9060005260206000209060040201600301548260008154811015156118ef57fe5b9060005260206000209060040201600301541015611c045781600181548110151561191657fe5b90600052602060002090600402016003015482600081548110151561193757fe5b90600052602060002090600402016003015483600081548110151561195857fe5b9060005260206000209060040201600301600085600181548110151561197a57fe5b906000526020600020906004020160030160008491905055839190505550508160018154811015156119a857fe5b9060005260206000209060040201600101548260008154811015156119c957fe5b9060005260206000209060040201600101548360008154811015156119ea57fe5b90600052602060002090600402016001016000856001815481101515611a0c57fe5b90600052602060002090600402016001016000849190505583919050555050816001815481101515611a3a57fe5b906000526020600020906004020160000160009054906101000a900473ffffffffffffffffffffffffffffffffffffffff16826000815481101515611a7b57fe5b906000526020600020906004020160000160009054906101000a900473ffffffffffffffffffffffffffffffffffffffff16836000815481101515611abc57fe5b90600052602060002090600402016000016000856001815481101515611ade57fe5b906000526020600020906004020160000160008491906101000a81548173ffffffffffffffffffffffffffffffffffffffff021916908373ffffffffffffffffffffffffffffffffffffffff1602179055508391906101000a81548173ffffffffffffffffffffffffffffffffffffffff021916908373ffffffffffffffffffffffffffffffffffffffff1602179055505050816001815481101515611b8057fe5b906000526020600020906004020160020154826000815481101515611ba157fe5b906000526020600020906004020160020154836000815481101515611bc257fe5b90600052602060002090600402016002016000856001815481101515611be457fe5b906000526020600020906004020160020160008491905055839190505550505b611c1d565b611c1c826000600185805490500361251e565b5b600090505b6001828054905003811015611fd6578160018201815481101515611c4257fe5b9060005260206000209060040201600301548282815481101515611c6257fe5b9060005260206000209060040201600301541415611fc9578160018201815481101515611c8b57fe5b9060005260206000209060040201600201548282815481101515611cab57fe5b9060005260206000209060040201600201541015611fc8578160018201815481101515611cd457fe5b9060005260206000209060040201600301548282815481101515611cf457fe5b9060005260206000209060040201600301548383815481101515611d1457fe5b906000526020600020906004020160030160008560018601815481101515611d3857fe5b906000526020600020906004020160030160008491905055839190505550508160018201815481101515611d6857fe5b9060005260206000209060040201600101548282815481101515611d8857fe5b9060005260206000209060040201600101548383815481101515611da857fe5b906000526020600020906004020160010160008560018601815481101515611dcc57fe5b906000526020600020906004020160010160008491905055839190505550508160018201815481101515611dfc57fe5b906000526020600020906004020160000160009054906101000a900473ffffffffffffffffffffffffffffffffffffffff168282815481101515611e3c57fe5b906000526020600020906004020160000160009054906101000a900473ffffffffffffffffffffffffffffffffffffffff168383815481101515611e7c57fe5b906000526020600020906004020160000160008560018601815481101515611ea057fe5b906000526020600020906004020160000160008491906101000a81548173ffffffffffffffffffffffffffffffffffffffff021916908373ffffffffffffffffffffffffffffffffffffffff1602179055508391906101000a81548173ffffffffffffffffffffffffffffffffffffffff021916908373ffffffffffffffffffffffffffffffffffffffff16021790555050508160018201815481101515611f4457fe5b9060005260206000209060040201600201548282815481101515611f6457fe5b9060005260206000209060040201600201548383815481101515611f8457fe5b906000526020600020906004020160020160008560018601815481101515611fa857fe5b906000526020600020906004020160020160008491905055839190505550505b5b8080600101915050611c22565b5b5050565b611fe3612d94565b600060208301905060408051908101604052808451815260200182815250915050919050565b612011612d94565b600061202f856000015186602001518660000151876020015161284d565b9050846020015183602001818152505084602001518103836000018181525050846000015185602001510181141561207157600085600001818152505061209c565b8360000151836000015101856000018181510391508181525050836000015181018560200181815250505b829150509392505050565b606080600083600001516040519080825280601f01601f1916602001820160405280156120e35781602001602082028038833980820191505090505b5091506020820190506120ff8185602001518660000151612933565b8192505050919050565b6060806060806060806060806000808e98508d97508c96508b95508a94508451865188518a518c51010101016040519080825280601f01601f1916602001820160405280156121675781602001602082028038833980820191505090505b50935083925060009150600090505b885181101561222957888181518110151561218d57fe5b9060200101517f010000000000000000000000000000000000000000000000000000000000000090047f01000000000000000000000000000000000000000000000000000000000000000283838060010194508151811015156121ec57fe5b9060200101907effffffffffffffffffffffffffffffffffffffffffffffffffffffffffffff1916908160001a9053508080600101915050612176565b600090505b87518110156122e157878181518110151561224557fe5b9060200101517f010000000000000000000000000000000000000000000000000000000000000090047f01000000000000000000000000000000000000000000000000000000000000000283838060010194508151811015156122a457fe5b9060200101907effffffffffffffffffffffffffffffffffffffffffffffffffffffffffffff1916908160001a905350808060010191505061222e565b600090505b86518110156123995786818151811015156122fd57fe5b9060200101517f010000000000000000000000000000000000000000000000000000000000000090047f010000000000000000000000000000000000000000000000000000000000000002838380600101945081518110151561235c57fe5b9060200101907effffffffffffffffffffffffffffffffffffffffffffffffffffffffffffff1916908160001a90535080806001019150506122e6565b600090505b85518110156124515785818151811015156123b557fe5b9060200101517f010000000000000000000000000000000000000000000000000000000000000090047f010000000000000000000000000000000000000000000000000000000000000002838380600101945081518110151561241457fe5b9060200101907effffffffffffffffffffffffffffffffffffffffffffffffffffffffffffff1916908160001a905350808060010191505061239e565b600090505b845181101561250957848181518110151561246d57fe5b9060200101517f010000000000000000000000000000000000000000000000000000000000000090047f01000000000000000000000000000000000000000000000000000000000000000283838060010194508151811015156124cc57fe5b9060200101907effffffffffffffffffffffffffffffffffffffffffffffffffffffffffffff1916908160001a9053508080600101915050612456565b82995050505050505050505095945050505050565b60008061252c85858561297e565b60009150600185805490500390505b808211151561284657848181548110151561255257fe5b906000526020600020906004020160030154858381548110151561257257fe5b906000526020600020906004020160030154868481548110151561259257fe5b9060005260206000209060040201600301600088858154811015156125b357fe5b9060005260206000209060040201600301600084919050558391905055505084818154811015156125e057fe5b906000526020600020906004020160010154858381548110151561260057fe5b906000526020600020906004020160010154868481548110151561262057fe5b90600052602060002090600402016001016000888581548110151561264157fe5b90600052602060002090600402016001016000849190505583919050555050848181548110151561266e57fe5b906000526020600020906004020160000160009054906101000a900473ffffffffffffffffffffffffffffffffffffffff1685838154811015156126ae57fe5b906000526020600020906004020160000160009054906101000a900473ffffffffffffffffffffffffffffffffffffffff1686848154811015156126ee57fe5b90600052602060002090600402016000016000888581548110151561270f57fe5b906000526020600020906004020160000160008491906101000a81548173ffffffffffffffffffffffffffffffffffffffff021916908373ffffffffffffffffffffffffffffffffffffffff1602179055508391906101000a81548173ffffffffffffffffffffffffffffffffffffffff021916908373ffffffffffffffffffffffffffffffffffffffff160217905550505084818154811015156127b057fe5b90600052602060002090600402016002015485838154811015156127d057fe5b90600052602060002090600402016002015486848154811015156127f057fe5b90600052602060002090600402016002016000888581548110151561281157fe5b90600052602060002090600402016002016000849190505583919050555050818060010192505080806001900391505061253b565b5050505050565b60008060008060008060008060008b97508c8b11151561291d5760208b1115156128d75760018b60200360080260020a03196001029550858a511694508a8d8d010393508588511692505b846000191683600019161415156128cf5783881015156128bc578c8c019850612923565b8780600101985050858851169250612898565b879850612923565b8a8a209150600096505b8a8d038711151561291c578a8820905080600019168260001916141561290957879850612923565b60018801975086806001019750506128e1565b5b8c8c0198505b5050505050505050949350505050565b60005b60208210151561295b5782518452602084019350602083019250602082039150612936565b6001826020036101000a0390508019835116818551168181178652505050505050565b60008060008492508391508183141561299657612d72565b8560028686038115156129a557fe5b0486018154811015156129b457fe5b90600052602060002090600402016003015490505b8183111515612d49575b8086848154811015156129e257fe5b9060005260206000209060040201600301541015612a075782806001019350506129d3565b5b8582815481101515612a1657fe5b906000526020600020906004020160030154811015612a3d57818060019003925050612a08565b8183111515612d44578582815481101515612a5457fe5b9060005260206000209060040201600301548684815481101515612a7457fe5b9060005260206000209060040201600301548785815481101515612a9457fe5b906000526020600020906004020160030160008986815481101515612ab557fe5b906000526020600020906004020160030160008491905055839190505550508582815481101515612ae257fe5b9060005260206000209060040201600101548684815481101515612b0257fe5b9060005260206000209060040201600101548785815481101515612b2257fe5b906000526020600020906004020160010160008986815481101515612b4357fe5b906000526020600020906004020160010160008491905055839190505550508582815481101515612b7057fe5b906000526020600020906004020160000160009054906101000a900473ffffffffffffffffffffffffffffffffffffffff168684815481101515612bb057fe5b906000526020600020906004020160000160009054906101000a900473ffffffffffffffffffffffffffffffffffffffff168785815481101515612bf057fe5b906000526020600020906004020160000160008986815481101515612c1157fe5b906000526020600020906004020160000160008491906101000a81548173ffffffffffffffffffffffffffffffffffffffff021916908373ffffffffffffffffffffffffffffffffffffffff1602179055508391906101000a81548173ffffffffffffffffffffffffffffffffffffffff021916908373ffffffffffffffffffffffffffffffffffffffff16021790555050508582815481101515612cb257fe5b9060005260206000209060040201600201548684815481101515612cd257fe5b9060005260206000209060040201600201548785815481101515612cf257fe5b906000526020600020906004020160020160008986815481101515612d1357fe5b9060005260206000209060040201600201600084919050558391905055505082806001019350508180600190039250505b6129c9565b81851015612d5d57612d5c86868461297e565b5b83831015612d7157612d7086848661297e565b5b5b505050505050565b604080519081016040528060008152602001600081525090565b604080519081016040528060008152602001600081525090565b6000612dba823561319c565b905092915050565b6000612dce82356131bc565b905092915050565b600080600060608486031215612deb57600080fd5b6000612df986828701612dae565b9350506020612e0a86828701612dc2565b9250506040612e1b86828701612dc2565b9150509250925092565b600060208284031215612e3757600080fd5b6000612e4584828501612dc2565b91505092915050565b60008060408385031215612e6157600080fd5b6000612e6f85828601612dc2565b9250506020612e8085828601612dc2565b9150509250929050565b612e9381613172565b82525050565b612ea2816131c6565b82525050565b612eb1816131d8565b82525050565b6000612ec282613167565b808452612ed68160208601602086016131ea565b612edf8161321d565b602085010191505092915050565b600081546001811660008114612f0a5760018114612f2a57612f6b565b607f600283041680865260ff198316602087015260408601935050612f6b565b60028204808652602086019550612f4085613155565b60005b82811015612f6257815481890152600182019150602081019050612f43565b80880195505050505b505092915050565b604082016000820151612f896000850182612fa2565b506020820151612f9c6020850182612fa2565b50505050565b612fab81613192565b82525050565b600060e082019050612fc6600083018a612e8a565b612fd36020830189612e8a565b8181036040830152612fe58188612eed565b90508181036060830152612ff98187612eb7565b9050818103608083015261300d8186612eb7565b905061301c60a0830185612fa2565b81810360c083015261302e8184612eed565b905098975050505050505050565b600060208201905081810360008301526130568184612eb7565b905092915050565b600060808201905081810360008301526130788187612eed565b90506130876020830186612fa2565b6130946040830185612fa2565b6130a16060830184612e99565b95945050505050565b600060808201905081810360008301526130c48187612eed565b90506130d36020830186612fa2565b6130e06040830185612fa2565b6130ed6060830184612ea8565b95945050505050565b600060408201905061310b6000830184612f73565b92915050565b60006020820190506131266000830184612fa2565b92915050565b60006040820190506131416000830185612fa2565b61314e6020830184612fa2565b9392505050565b60008160005260206000209050919050565b600081519050919050565b600073ffffffffffffffffffffffffffffffffffffffff82169050919050565b6000819050919050565b600073ffffffffffffffffffffffffffffffffffffffff82169050919050565b6000819050919050565b60006131d182613192565b9050919050565b60006131e382613192565b9050919050565b60005b838110156132085780820151818401526020810190506131ed565b83811115613217576000848401525b50505050565b6000601f19601f83011690509190505600a265627a7a72305820c66c9a94ac29f8fb99529bb149aeb134a401fbf046de48bd735190f19dc5a3e36c6578706572696d656e74616cf50037a265627a7a72305820f90c798b394c94524cf504ac80d17d12c3e84acfb8998d1d5957403653b5d35d6c6578706572696d656e74616cf5003760806040526040516020806200797483398101806040526200002591908101906200010d565b336000806101000a81548173ffffffffffffffffffffffffffffffffffffffff021916908373ffffffffffffffffffffffffffffffffffffffff1602179055506729a2241af62c000062000078620000e6565b6040518091039082f08015801562000094573d6000803e3d6000fd5b509050600160006101000a81548173ffffffffffffffffffffffffffffffffffffffff021916908373ffffffffffffffffffffffffffffffffffffffff1602179055506000600a819055505062000143565b604051613e428062003b3283390190565b600062000105825162000139565b905092915050565b6000602082840312156200012057600080fd5b60006200013084828501620000f7565b91505092915050565b6000819050919050565b6139df80620001536000396000f3006080604052600436106200008b576000357c0100000000000000000000000000000000000000000000000000000000900463ffffffff16806352f82efd14620000905780636012102314620000b057806381af7ec614620000f65780638229be0914620001245780639cef7a5b146200013e578063d8f36758146200016c578063e7334fe514620001b0575b600080fd5b620000ae6004803603620000a8919081019062001823565b620001e0565b005b348015620000bd57600080fd5b50620000dc6004803603620000d69190810190620019ba565b620003ee565b604051620000ed9392919062001cd7565b60405180910390f35b3480156200010357600080fd5b506200012260048036036200011c919081019062001934565b62000895565b005b3480156200013157600080fd5b506200013c620009fc565b005b3480156200014b57600080fd5b506200016a600480360362000164919081019062001ae4565b62000b5b565b005b3480156200017957600080fd5b5062000198600480360362000192919081019062001a2d565b62000c7b565b604051620001a7919062001cba565b60405180910390f35b348015620001bd57600080fd5b50620001c86200113d565b604051620001d7919062001bb6565b60405180910390f35b6000806000809054906101000a900473ffffffffffffffffffffffffffffffffffffffff1673ffffffffffffffffffffffffffffffffffffffff163373ffffffffffffffffffffffffffffffffffffffff161415156200023f57600080fd5b600360008a73ffffffffffffffffffffffffffffffffffffffff1673ffffffffffffffffffffffffffffffffffffffff16815260200190815260200160002060009054906101000a900460ff169150600360008973ffffffffffffffffffffffffffffffffffffffff1673ffffffffffffffffffffffffffffffffffffffff16815260200190815260200160002060009054906101000a900460ff16905060011515821515148015620002f6575060011515811515145b80156200030b5750670de0b6b3a76400003410155b15156200031757600080fd5b6009348a8a8a8a8a8a600160009054906101000a900473ffffffffffffffffffffffffffffffffffffffff168b6200034e62001522565b6200036198979695949392919062001bd3565b6040518091039082f0801580156200037d573d6000803e3d6000fd5b50905090806001815401808255809150509060018203906000526020600020016000909192909190916101000a81548173ffffffffffffffffffffffffffffffffffffffff021916908373ffffffffffffffffffffffffffffffffffffffff16021790555050505050505050505050565b6000606060008060009054906101000a900473ffffffffffffffffffffffffffffffffffffffff1673ffffffffffffffffffffffffffffffffffffffff163373ffffffffffffffffffffffffffffffffffffffff161415156200045057600080fd5b600115156004866040518082805190602001908083835b6020831015156200048e578051825260208201915060208101905060208303925062000467565b6001836020036101000a038019825116818451168082178552505050505050905001915050908152602001604051809103902060009054906101000a900460ff16151514151562000519577fffffffffffffffffffffffffffffffffffffffffffffffffffffffffffffffff925060206040519081016040528060008152509150600090506200088e565b620006316005866040518082805190602001908083835b60208310151562000557578051825260208201915060208101905060208303925062000530565b6001836020036101000a03801982511681845116808217855250505050505090500191505090815260200160405180910390206003018054600181600116156101000203166002900480601f016020809104026020016040519081016040528092919081815260200182805460018160011615610100020316600290048015620006255780601f10620005f95761010080835404028352916020019162000625565b820191906000526020600020905b8154815290600101906020018083116200060757829003601f168201915b50505050508562001166565b1562000852576005856040518082805190602001908083835b6020831015156200067157805182526020820191506020810190506020830392506200064a565b6001836020036101000a03801982511681845116808217855250505050505090500191505090815260200160405180910390206004015492506005856040518082805190602001908083835b602083101515620006e45780518252602082019150602081019050602083039250620006bd565b6001836020036101000a03801982511681845116808217855250505050505090500191505090815260200160405180910390206000018054600181600116156101000203166002900480601f016020809104026020016040519081016040528092919081815260200182805460018160011615610100020316600290048015620007b25780601f106200078657610100808354040283529160200191620007b2565b820191906000526020600020905b8154815290600101906020018083116200079457829003601f168201915b505050505091506005856040518082805190602001908083835b602083101515620007f35780518252602082019150602081019050602083039250620007cc565b6001836020036101000a038019825116818451168082178552505050505050905001915050908152602001604051809103902060020160009054906101000a900473ffffffffffffffffffffffffffffffffffffffff1690506200088d565b7ffffffffffffffffffffffffffffffffffffffffffffffffffffffffffffffffe925060206040519081016040528060008152509150600090505b5b9250925092565b60011515600360008473ffffffffffffffffffffffffffffffffffffffff1673ffffffffffffffffffffffffffffffffffffffff16815260200190815260200160002060009054906101000a900460ff161515141515620009f8576001600360008473ffffffffffffffffffffffffffffffffffffffff1673ffffffffffffffffffffffffffffffffffffffff16815260200190815260200160002060006101000a81548160ff021916908315150217905550816005826040518082805190602001908083835b6020831015156200098357805182526020820191506020810190506020830392506200095c565b6001836020036101000a038019825116818451168082178552505050505050905001915050908152602001604051809103902060020160006101000a81548173ffffffffffffffffffffffffffffffffffffffff021916908373ffffffffffffffffffffffffffffffffffffffff1602179055505b5050565b62000a0662001533565b600080600260098054905002600b81905550600091505b60098054905082101562000b565760098281548110151562000a3b57fe5b9060005260206000200160009054906101000a900473ffffffffffffffffffffffffffffffffffffffff1690508073ffffffffffffffffffffffffffffffffffffffff1663543703596040518163ffffffff167c0100000000000000000000000000000000000000000000000000000000028152600401608060405180830381600087803b15801562000acd57600080fd5b505af115801562000ae2573d6000803e3d6000fd5b505050506040513d601f19601f8201168201806040525062000b0891908101906200198e565b925062000b2983600060028110151562000b1e57fe5b602002015162001243565b62000b4883600160028110151562000b3d57fe5b602002015162001243565b818060010192505062000a1d565b505050565b600060083390806001815401808255809150509060018203906000526020600020016000909192909190916101000a81548173ffffffffffffffffffffffffffffffffffffffff021916908373ffffffffffffffffffffffffffffffffffffffff160217905550506000809054906101000a900473ffffffffffffffffffffffffffffffffffffffff1690508073ffffffffffffffffffffffffffffffffffffffff166381d3afac3385856040518463ffffffff167c010000000000000000000000000000000000000000000000000000000002815260040162000c429392919062001c7d565b600060405180830381600087803b15801562000c5d57600080fd5b505af115801562000c72573d6000803e3d6000fd5b50505050505050565b60008062000c8862001564565b6000809054906101000a900473ffffffffffffffffffffffffffffffffffffffff1673ffffffffffffffffffffffffffffffffffffffff163373ffffffffffffffffffffffffffffffffffffffff1614151562000ce457600080fd5b600115156004876040518082805190602001908083835b60208310151562000d22578051825260208201915060208101905060208303925062000cfb565b6001836020036101000a038019825116818451168082178552505050505050905001915050908152602001604051809103902060009054906101000a900460ff161515141562000d95577fffffffffffffffffffffffffffffffffffffffffffffffffffffffffffffffff925062001133565b600a60008154809291906001019190505550600a5491506001600360008773ffffffffffffffffffffffffffffffffffffffff1673ffffffffffffffffffffffffffffffffffffffff16815260200190815260200160002060006101000a81548160ff02191690831515021790555060016004876040518082805190602001908083835b60208310151562000e40578051825260208201915060208101905060208303925062000e19565b6001836020036101000a038019825116818451168082178552505050505050905001915050908152602001604051809103902060006101000a81548160ff02191690831515021790555060a060405190810160405280888152602001878152602001600073ffffffffffffffffffffffffffffffffffffffff168152602001858152602001838152509050806005876040518082805190602001908083835b60208310151562000f06578051825260208201915060208101905060208303925062000edf565b6001836020036101000a0380198251168184511680821785525050505050509050019150509081526020016040518091039020600082015181600001908051906020019062000f57929190620015aa565b50602082015181600101908051906020019062000f76929190620015aa565b5060408201518160020160006101000a81548173ffffffffffffffffffffffffffffffffffffffff021916908373ffffffffffffffffffffffffffffffffffffffff160217905550606082015181600301908051906020019062000fdc929190620015aa565b506080820151816004015590505060078190806001815401808255809150509060018203906000526020600020906005020160009091929091909150600082015181600001908051906020019062001036929190620015aa565b50602082015181600101908051906020019062001055929190620015aa565b5060408201518160020160006101000a81548173ffffffffffffffffffffffffffffffffffffffff021916908373ffffffffffffffffffffffffffffffffffffffff1602179055506060820151816003019080519060200190620010bb929190620015aa565b506080820151816004015550505060068590806001815401808255809150509060018203906000526020600020016000909192909190916101000a81548173ffffffffffffffffffffffffffffffffffffffff021916908373ffffffffffffffffffffffffffffffffffffffff160217905550508192505b5050949350505050565b60008060009054906101000a900473ffffffffffffffffffffffffffffffffffffffff16905090565b6000816040518082805190602001908083835b602083101515620011a0578051825260208201915060208101905060208303925062001179565b6001836020036101000a038019825116818451168082178552505050505050905001915050604051809103902060001916836040518082805190602001908083835b602083101515620012095780518252602082019150602081019050602083039250620011e2565b6001836020036101000a03801982511681845116808217855250505050505090500191505060405180910390206000191614905092915050565b6001600b5403600b819055508060200151600d6000836000015173ffffffffffffffffffffffffffffffffffffffff1673ffffffffffffffffffffffffffffffffffffffff1681526020019081526020016000205401600d6000836000015173ffffffffffffffffffffffffffffffffffffffff1673ffffffffffffffffffffffffffffffffffffffff168152602001908152602001600020819055506000600b5414156200130157620012f662001304565b620013006200147e565b5b50565b600080600080600090505b60068054905081101562001478576006818154811015156200132d57fe5b9060005260206000200160009054906101000a900473ffffffffffffffffffffffffffffffffffffffff169250600d60008473ffffffffffffffffffffffffffffffffffffffff1673ffffffffffffffffffffffffffffffffffffffff1681526020019081526020016000205493506000841315620013ea578383306001620013b562001631565b620013c4949392919062001d1b565b604051809103906000f080158015620013e1573d6000803e3d6000fd5b5091506200146a565b600084121562001469578273ffffffffffffffffffffffffffffffffffffffff166108fc7fffffffffffffffffffffffffffffffffffffffffffffffffffffffffffffffff868115156200143a57fe5b059081150290604051600060405180830381858888f1935050505015801562001467573d6000803e3d6000fd5b505b5b80806001019150506200130f565b50505050565b60008090505b6006805490508110156200151f576000600d6000600684815481101515620014a857fe5b9060005260206000200160009054906101000a900473ffffffffffffffffffffffffffffffffffffffff1673ffffffffffffffffffffffffffffffffffffffff1673ffffffffffffffffffffffffffffffffffffffff16815260200190815260200160002081905550808060010191505062001484565b50565b6040516115fa8062001ed883390190565b6080604051908101604052806002905b6200154d62001642565b815260200190600190039081620015435790505090565b60a0604051908101604052806060815260200160608152602001600073ffffffffffffffffffffffffffffffffffffffff16815260200160608152602001600081525090565b828054600181600116156101000203166002900490600052602060002090601f016020900481019282601f10620015ed57805160ff19168380011785556200161e565b828001600101855582156200161e579182015b828111156200161d57825182559160200191906001019062001600565b5b5090506200162d919062001672565b5090565b6040516104d480620034d283390190565b6040805190810160405280600073ffffffffffffffffffffffffffffffffffffffff168152602001600081525090565b6200169791905b808211156200169357600081600090555060010162001679565b5090565b90565b6000620016a8823562001e25565b905092915050565b6000620016be825162001e25565b905092915050565b600082601f8301121515620016da57600080fd5b6002620016f1620016eb8262001d96565b62001d68565b915081838560408402820111156200170857600080fd5b60005b838110156200173c5781620017218882620017ba565b8452602084019350604083019250506001810190506200170b565b5050505092915050565b600062001754825162001e45565b905092915050565b600082601f83011215156200177057600080fd5b813562001787620017818262001db9565b62001d68565b91508082526020830160208301858383011115620017a457600080fd5b620017b183828462001e81565b50505092915050565b600060408284031215620017cd57600080fd5b620017d9604062001d68565b90506000620017eb84828501620016b0565b6000830152506020620018018482850162001746565b60208301525092915050565b60006200181b823562001e4f565b905092915050565b600080600080600080600060e0888a0312156200183f57600080fd5b60006200184f8a828b016200169a565b9750506020620018628a828b016200169a565b965050604088013567ffffffffffffffff8111156200188057600080fd5b6200188e8a828b016200175c565b955050606088013567ffffffffffffffff811115620018ac57600080fd5b620018ba8a828b016200175c565b945050608088013567ffffffffffffffff811115620018d857600080fd5b620018e68a828b016200175c565b93505060a0620018f98a828b016200180d565b92505060c088013567ffffffffffffffff8111156200191757600080fd5b620019258a828b016200175c565b91505092959891949750929550565b600080604083850312156200194857600080fd5b600062001958858286016200169a565b925050602083013567ffffffffffffffff8111156200197657600080fd5b62001984858286016200175c565b9150509250929050565b600060808284031215620019a157600080fd5b6000620019b184828501620016c6565b91505092915050565b60008060408385031215620019ce57600080fd5b600083013567ffffffffffffffff811115620019e957600080fd5b620019f7858286016200175c565b925050602083013567ffffffffffffffff81111562001a1557600080fd5b62001a23858286016200175c565b9150509250929050565b6000806000806080858703121562001a4457600080fd5b600085013567ffffffffffffffff81111562001a5f57600080fd5b62001a6d878288016200175c565b945050602085013567ffffffffffffffff81111562001a8b57600080fd5b62001a99878288016200175c565b935050604062001aac878288016200169a565b925050606085013567ffffffffffffffff81111562001aca57600080fd5b62001ad8878288016200175c565b91505092959194509250565b6000806040838503121562001af857600080fd5b600062001b08858286016200180d565b925050602062001b1b858286016200169a565b9150509250929050565b62001b308162001df1565b82525050565b62001b418162001e59565b82525050565b62001b528162001e11565b82525050565b62001b638162001e6d565b82525050565b600062001b768262001de6565b80845262001b8c81602086016020860162001e90565b62001b978162001ec6565b602085010191505092915050565b62001bb08162001e1b565b82525050565b600060208201905062001bcd600083018462001b25565b92915050565b60006101008201905062001beb600083018b62001b25565b62001bfa602083018a62001b25565b818103604083015262001c0e818962001b69565b9050818103606083015262001c24818862001b69565b9050818103608083015262001c3a818762001b69565b905062001c4b60a083018662001ba5565b62001c5a60c083018562001b25565b81810360e083015262001c6e818462001b69565b90509998505050505050505050565b600060608201905062001c94600083018662001b25565b62001ca3602083018562001ba5565b62001cb2604083018462001b25565b949350505050565b600060208201905062001cd1600083018462001b47565b92915050565b600060608201905062001cee600083018662001b47565b818103602083015262001d02818562001b69565b905062001d13604083018462001b25565b949350505050565b600060808201905062001d32600083018762001ba5565b62001d41602083018662001b25565b62001d50604083018562001b36565b62001d5f606083018462001b58565b95945050505050565b6000604051905081810181811067ffffffffffffffff8211171562001d8c57600080fd5b8060405250919050565b600067ffffffffffffffff82111562001dae57600080fd5b602082029050919050565b600067ffffffffffffffff82111562001dd157600080fd5b601f19601f8301169050602081019050919050565b600081519050919050565b600073ffffffffffffffffffffffffffffffffffffffff82169050919050565b6000819050919050565b6000819050919050565b600073ffffffffffffffffffffffffffffffffffffffff82169050919050565b6000819050919050565b6000819050919050565b600062001e668262001df1565b9050919050565b600062001e7a8262001e1b565b9050919050565b82818337600083830152505050565b60005b8381101562001eb057808201518184015260208101905062001e93565b8381111562001ec0576000848401525b50505050565b6000601f19601f830116905091905056006080604052604051620015fa380380620015fa8339810180604052620000299190810190620008ea565b8583838387846000908051906020019062000046929190620007b1565b5081600190805190602001906200005f929190620007b1565b5082600260006101000a81548173ffffffffffffffffffffffffffffffffffffffff021916908373ffffffffffffffffffffffffffffffffffffffff16021790555033600360006101000a81548173ffffffffffffffffffffffffffffffffffffffff021916908373ffffffffffffffffffffffffffffffffffffffff1602179055508060069080519060200190620000fa929190620007b1565b5083600581905550426004819055505050505050670de0b6b3a764000034101515156200012657600080fd5b87600a60006101000a81548173ffffffffffffffffffffffffffffffffffffffff021916908373ffffffffffffffffffffffffffffffffffffffff16021790555086600b60006101000a81548173ffffffffffffffffffffffffffffffffffffffff021916908373ffffffffffffffffffffffffffffffffffffffff16021790555084600c9080519060200190620001c0929190620007b1565b50620001da620001e8640100000000026401000000009004565b505050505050505062000ba7565b6000600260009054906101000a900473ffffffffffffffffffffffffffffffffffffffff1690506200030260018054600181600116156101000203166002900480601f016020809104026020016040519081016040528092919081815260200182805460018160011615610100020316600290048015620002ad5780601f106200028157610100808354040283529160200191620002ad565b820191906000526020600020905b8154815290600101906020018083116200028f57829003601f168201915b50505050506040805190810160405280600381526020017f424f450000000000000000000000000000000000000000000000000000000000815250620006d46401000000000262000930176401000000009004565b15620003a6578073ffffffffffffffffffffffffffffffffffffffff1663cc9df742670de0b6b3a7640000600c60006040518463ffffffff167c01000000000000000000000000000000000000000000000000000000000281526004016200036c92919062000a9f565b6000604051808303818588803b1580156200038657600080fd5b505af11580156200039b573d6000803e3d6000fd5b5050505050620006d1565b6200049960018054600181600116156101000203166002900480601f016020809104026020016040519081016040528092919081815260200182805460018160011615610100020316600290048015620004445780601f10620004185761010080835404028352916020019162000444565b820191906000526020600020905b8154815290600101906020018083116200042657829003601f168201915b50505050506040805190810160405280600581526020017f4555524558000000000000000000000000000000000000000000000000000000815250620006d46401000000000262000930176401000000009004565b156200053d578073ffffffffffffffffffffffffffffffffffffffff1663c4899919670de0b6b3a7640000600c60006040518463ffffffff167c01000000000000000000000000000000000000000000000000000000000281526004016200050392919062000a9f565b6000604051808303818588803b1580156200051d57600080fd5b505af115801562000532573d6000803e3d6000fd5b5050505050620006d0565b6200063060018054600181600116156101000203166002900480601f016020809104026020016040519081016040528092919081815260200182805460018160011615610100020316600290048015620005db5780601f10620005af57610100808354040283529160200191620005db565b820191906000526020600020905b815481529060010190602001808311620005bd57829003601f168201915b50505050506040805190810160405280600381526020017f434d450000000000000000000000000000000000000000000000000000000000815250620006d46401000000000262000930176401000000009004565b15620006cf578073ffffffffffffffffffffffffffffffffffffffff166382636bd8670de0b6b3a7640000600c60006040518463ffffffff167c01000000000000000000000000000000000000000000000000000000000281526004016200069a92919062000a9f565b6000604051808303818588803b158015620006b457600080fd5b505af1158015620006c9573d6000803e3d6000fd5b50505050505b5b5b50565b6000816040518082805190602001908083835b6020831015156200070e5780518252602082019150602081019050602083039250620006e7565b6001836020036101000a038019825116818451168082178552505050505050905001915050604051809103902060001916836040518082805190602001908083835b60208310151562000777578051825260208201915060208101905060208303925062000750565b6001836020036101000a03801982511681845116808217855250505050505090500191505060405180910390206000191614905092915050565b828054600181600116156101000203166002900490600052602060002090601f016020900481019282601f10620007f457805160ff191683800117855562000825565b8280016001018555821562000825579182015b828111156200082457825182559160200191906001019062000807565b5b50905062000834919062000838565b5090565b6200085d91905b80821115620008595760008160009055506001016200083f565b5090565b90565b60006200086e825162000b47565b905092915050565b600082601f83011215156200088a57600080fd5b8151620008a16200089b8262000b08565b62000ada565b91508082526020830160208301858383011115620008be57600080fd5b620008cb83828462000b71565b50505092915050565b6000620008e2825162000b67565b905092915050565b600080600080600080600080610100898b0312156200090857600080fd5b6000620009188b828c0162000860565b98505060206200092b8b828c0162000860565b975050604089015167ffffffffffffffff8111156200094957600080fd5b620009578b828c0162000876565b965050606089015167ffffffffffffffff8111156200097557600080fd5b620009838b828c0162000876565b955050608089015167ffffffffffffffff811115620009a157600080fd5b620009af8b828c0162000876565b94505060a0620009c28b828c01620008d4565b93505060c0620009d58b828c0162000860565b92505060e089015167ffffffffffffffff811115620009f357600080fd5b62000a018b828c0162000876565b9150509295985092959890939650565b60008154600181166000811462000a31576001811462000a525762000a97565b607f600283041680865260ff19831660208701526040860193505062000a97565b6002820480865260208601955062000a6a8562000b35565b60005b8281101562000a8e5781548189015260018201915060208101905062000a6d565b80880195505050505b505092915050565b6000604082019050818103600083015262000abb818562000a11565b9050818103602083015262000ad1818462000a11565b90509392505050565b6000604051905081810181811067ffffffffffffffff8211171562000afe57600080fd5b8060405250919050565b600067ffffffffffffffff82111562000b2057600080fd5b601f19601f8301169050602081019050919050565b60008160005260206000209050919050565b600073ffffffffffffffffffffffffffffffffffffffff82169050919050565b6000819050919050565b60005b8381101562000b9157808201518184015260208101905062000b74565b8381111562000ba1576000848401525b50505050565b610a438062000bb76000396000f30060806040526004361061006d576000357c0100000000000000000000000000000000000000000000000000000000900463ffffffff16806344cc75c31461007257806354370359146100af578063afabb0cc146100da578063b769fe9e14610105578063e38ecb2914610142575b600080fd5b34801561007e57600080fd5b506100996004803603610094919081019061069c565b61016b565b6040516100a691906107e9565b60405180910390f35b3480156100bb57600080fd5b506100c46101ff565b6040516100d1919061081f565b60405180910390f35b3480156100e657600080fd5b506100ef610401565b6040516100fc9190610804565b60405180910390f35b34801561011157600080fd5b5061012c6004803603610127919081019061069c565b6104bf565b60405161013991906107e9565b60405180910390f35b34801561014e57600080fd5b50610169600480360361016491908101906106c5565b610553565b005b600080600760008473ffffffffffffffffffffffffffffffffffffffff1673ffffffffffffffffffffffffffffffffffffffff16815260200190815260200160002060009054906101000a900473ffffffffffffffffffffffffffffffffffffffff16905060008173ffffffffffffffffffffffffffffffffffffffff161415156101f8578091506101f9565b5b50919050565b6102076105b2565b6000604080519081016040528073ca35b7d915458ef540ade6068dfe2f44e8fa733c73ffffffffffffffffffffffffffffffffffffffff168152602001600a81525081600060028110151561025857fe5b6002020160008201518160000160006101000a81548173ffffffffffffffffffffffffffffffffffffffff021916908373ffffffffffffffffffffffffffffffffffffffff16021790555060208201518160010155905050604080519081016040528073ca35b7d915458ef540ade6068dfe2f44e8fa733c73ffffffffffffffffffffffffffffffffffffffff168152602001600a8152508160016002811015156102ff57fe5b6002020160008201518160000160006101000a81548173ffffffffffffffffffffffffffffffffffffffff021916908373ffffffffffffffffffffffffffffffffffffffff1602179055506020820151816001015590505080600280602002604051908101604052809291906000905b828210156103f7578382600202016040805190810160405290816000820160009054906101000a900473ffffffffffffffffffffffffffffffffffffffff1673ffffffffffffffffffffffffffffffffffffffff1673ffffffffffffffffffffffffffffffffffffffff1681526020016001820154815250508152602001906001019061036f565b5050505091505090565b6104096105e0565b6040805190810160405280600a60009054906101000a900473ffffffffffffffffffffffffffffffffffffffff1673ffffffffffffffffffffffffffffffffffffffff1673ffffffffffffffffffffffffffffffffffffffff168152602001600b60009054906101000a900473ffffffffffffffffffffffffffffffffffffffff1673ffffffffffffffffffffffffffffffffffffffff1673ffffffffffffffffffffffffffffffffffffffff16815250905090565b600080600760008473ffffffffffffffffffffffffffffffffffffffff1673ffffffffffffffffffffffffffffffffffffffff16815260200190815260200160002060009054906101000a900473ffffffffffffffffffffffffffffffffffffffff16905060008173ffffffffffffffffffffffffffffffffffffffff1614151561054c5780915061054d565b5b50919050565b600260009054906101000a900473ffffffffffffffffffffffffffffffffffffffff1673ffffffffffffffffffffffffffffffffffffffff163373ffffffffffffffffffffffffffffffffffffffff161415156105af57600080fd5b50565b6080604051908101604052806002905b6105ca610602565b8152602001906001900390816105c25790505090565b6040805190810160405280600290602082028038833980820191505090505090565b6040805190810160405280600073ffffffffffffffffffffffffffffffffffffffff168152602001600081525090565b600061063e8235610901565b905092915050565b600082601f830112151561065957600080fd5b813561066c61066782610867565b61083a565b9150808252602083016020830185838301111561068857600080fd5b610693838284610921565b50505092915050565b6000602082840312156106ae57600080fd5b60006106bc84828501610632565b91505092915050565b6000602082840312156106d757600080fd5b600082013567ffffffffffffffff8111156106f157600080fd5b6106fd84828501610646565b91505092915050565b61070f816108d7565b82525050565b61071e816108a7565b61072782610893565b60005b828110156107595761073d858351610706565b610746826108bd565b915060208501945060018101905061072a565b5050505050565b610769816108b2565b6107728261089d565b60005b828110156107a4576107888583516107ba565b610791826108ca565b9150604085019450600181019050610775565b5050505050565b6107b4816108f7565b82525050565b6040820160008201516107d06000850182610706565b5060208201516107e360208501826107ab565b50505050565b60006020820190506107fe6000830184610706565b92915050565b60006040820190506108196000830184610715565b92915050565b60006080820190506108346000830184610760565b92915050565b6000604051905081810181811067ffffffffffffffff8211171561085d57600080fd5b8060405250919050565b600067ffffffffffffffff82111561087e57600080fd5b601f19601f8301169050602081019050919050565b6000819050919050565b6000819050919050565b600060029050919050565b600060029050919050565b6000602082019050919050565b6000602082019050919050565b600073ffffffffffffffffffffffffffffffffffffffff82169050919050565b6000819050919050565b600073ffffffffffffffffffffffffffffffffffffffff82169050919050565b82818337600083830152505050565b6000816040518082805190602001908083835b6020831015156109685780518252602082019150602081019050602083039250610943565b6001836020036101000a038019825116818451168082178552505050505050905001915050604051809103902060001916836040518082805190602001908083835b6020831015156109cf57805182526020820191506020810190506020830392506109aa565b6001836020036101000a038019825116818451168082178552505050505050905001915050604051809103902060001916149050929150505600a265627a7a723058203f6a62612ef19e5257a7e040179244fe0b79aa6aca0349ada543af131fe71bb76c6578706572696d656e74616cf50037608060405234801561001057600080fd5b506040516080806104d483398101806040528101908080519060200190929190805190602001909291908051906020019092919080519060200190929190505050600033600260016101000a81548173ffffffffffffffffffffffffffffffffffffffff021916908373ffffffffffffffffffffffffffffffffffffffff16021790555082600460006101000a81548173ffffffffffffffffffffffffffffffffffffffff021916908373ffffffffffffffffffffffffffffffffffffffff16021790555083600360006101000a81548173ffffffffffffffffffffffffffffffffffffffff021916908373ffffffffffffffffffffffffffffffffffffffff16021790555084600081905550816001819055506000600260006101000a81548160ff021916908315150217905550600460009054906101000a900473ffffffffffffffffffffffffffffffffffffffff1690508073ffffffffffffffffffffffffffffffffffffffff16639cef7a5b600054600360009054906101000a900473ffffffffffffffffffffffffffffffffffffffff166040518363ffffffff167c0100000000000000000000000000000000000000000000000000000000028152600401808381526020018273ffffffffffffffffffffffffffffffffffffffff1673ffffffffffffffffffffffffffffffffffffffff16815260200192505050600060405180830381600087803b15801561022b57600080fd5b505af115801561023f573d6000803e3d6000fd5b50505050505050505061027d806102576000396000f30060806040526004361061006d576000357c0100000000000000000000000000000000000000000000000000000000900463ffffffff1680631b9265b814610072578063209652551461009457806331b2ffaf146100bf5780634212ed2614610116578063893d20e814610145575b600080fd5b61007a61019c565b604051808215151515815260200191505060405180910390f35b3480156100a057600080fd5b506100a96101dd565b6040518082815260200191505060405180910390f35b3480156100cb57600080fd5b506100d46101e6565b604051808273ffffffffffffffffffffffffffffffffffffffff1673ffffffffffffffffffffffffffffffffffffffff16815260200191505060405180910390f35b34801561012257600080fd5b5061012b610210565b604051808215151515815260200191505060405180910390f35b34801561015157600080fd5b5061015a610227565b604051808273ffffffffffffffffffffffffffffffffffffffff1673ffffffffffffffffffffffffffffffffffffffff16815260200191505060405180910390f35b60008054341415156101ad57600080fd5b6001600260006101000a81548160ff021916908315150217905550600260009054906101000a900460ff16905090565b60008054905090565b6000600360009054906101000a900473ffffffffffffffffffffffffffffffffffffffff16905090565b6000600260009054906101000a900460ff16905090565b6000600260019054906101000a900473ffffffffffffffffffffffffffffffffffffffff169050905600a165627a7a72305820b04fefe2ceb71329ab983b16fc7e391fcf2749a2aa4db888d08d4753ecbf7c060029a265627a7a7230582020bc27dceff3269082d17c2a720db977feca1e910eac79fbb32602ac2373cad66c6578706572696d656e74616cf500376080604052623d0900600855736f485c8bf6fc43ea212e93bbf8ce046c7f1cb4756000806101000a81548173ffffffffffffffffffffffffffffffffffffffff021916908373ffffffffffffffffffffffffffffffffffffffff160217905550620000c160017f01000000000000000000000000000000000000000000000000000000000000000260107f0100000000000000000000000000000000000000000000000000000000000000021762000108640100000000026401000000009004565b33600760006101000a81548173ffffffffffffffffffffffffffffffffffffffff021916908373ffffffffffffffffffffffffffffffffffffffff16021790555062000b82565b60008060009054906101000a900473ffffffffffffffffffffffffffffffffffffffff1673ffffffffffffffffffffffffffffffffffffffff1614806200018957506000620001876000809054906101000a900473ffffffffffffffffffffffffffffffffffffffff1662000476640100000000026401000000009004565b145b15620001ac57620001aa600062000481640100000000026401000000009004565b505b6000809054906101000a900473ffffffffffffffffffffffffffffffffffffffff1673ffffffffffffffffffffffffffffffffffffffff166338cc48316040518163ffffffff167c0100000000000000000000000000000000000000000000000000000000028152600401602060405180830381600087803b1580156200023257600080fd5b505af115801562000247573d6000803e3d6000fd5b505050506040513d601f19601f820116820180604052506200026d919081019062000adc565b73ffffffffffffffffffffffffffffffffffffffff16600160009054906101000a900473ffffffffffffffffffffffffffffffffffffffff1673ffffffffffffffffffffffffffffffffffffffff16141515620003c6576000809054906101000a900473ffffffffffffffffffffffffffffffffffffffff1673ffffffffffffffffffffffffffffffffffffffff166338cc48316040518163ffffffff167c0100000000000000000000000000000000000000000000000000000000028152600401602060405180830381600087803b1580156200034a57600080fd5b505af11580156200035f573d6000803e3d6000fd5b505050506040513d601f19601f8201168201806040525062000385919081019062000adc565b600160006101000a81548173ffffffffffffffffffffffffffffffffffffffff021916908373ffffffffffffffffffffffffffffffffffffffff1602179055505b600160009054906101000a900473ffffffffffffffffffffffffffffffffffffffff1673ffffffffffffffffffffffffffffffffffffffff1663688dcfd7826040518263ffffffff167c01000000000000000000000000000000000000000000000000000000000281526004016200043f919062000b19565b600060405180830381600087803b1580156200045a57600080fd5b505af11580156200046f573d6000803e3d6000fd5b5050505050565b6000813b9050919050565b60006200049c620004a3640100000000026401000000009004565b9050919050565b600080620004d4731d3b2638a7cc9f2cb3d298a3da7a90b67e5506ed62000476640100000000026401000000009004565b11156200058857731d3b2638a7cc9f2cb3d298a3da7a90b67e5506ed6000806101000a81548173ffffffffffffffffffffffffffffffffffffffff021916908373ffffffffffffffffffffffffffffffffffffffff1602179055506200057e6040805190810160405280600b81526020017f6574685f6d61696e6e6574000000000000000000000000000000000000000000815250620009fb640100000000026401000000009004565b60019050620009f8565b6000620005b873c03a2615d5efaf5f49f60b7bb6583eaec212fdf162000476640100000000026401000000009004565b11156200066c5773c03a2615d5efaf5f49f60b7bb6583eaec212fdf16000806101000a81548173ffffffffffffffffffffffffffffffffffffffff021916908373ffffffffffffffffffffffffffffffffffffffff160217905550620006626040805190810160405280600c81526020017f6574685f726f707374656e330000000000000000000000000000000000000000815250620009fb640100000000026401000000009004565b60019050620009f8565b60006200069c73b7a07bcf2ba2f2703b24c0691b5278999c59ac7e62000476640100000000026401000000009004565b1115620007505773b7a07bcf2ba2f2703b24c0691b5278999c59ac7e6000806101000a81548173ffffffffffffffffffffffffffffffffffffffff021916908373ffffffffffffffffffffffffffffffffffffffff160217905550620007466040805190810160405280600981526020017f6574685f6b6f76616e0000000000000000000000000000000000000000000000815250620009fb640100000000026401000000009004565b60019050620009f8565b60006200078073146500cfd35b22e4a392fe0adc06de1a1368ed4862000476640100000000026401000000009004565b1115620008345773146500cfd35b22e4a392fe0adc06de1a1368ed486000806101000a81548173ffffffffffffffffffffffffffffffffffffffff021916908373ffffffffffffffffffffffffffffffffffffffff1602179055506200082a6040805190810160405280600b81526020017f6574685f72696e6b656279000000000000000000000000000000000000000000815250620009fb640100000000026401000000009004565b60019050620009f8565b600062000864736f485c8bf6fc43ea212e93bbf8ce046c7f1cb47562000476640100000000026401000000009004565b1115620008c957736f485c8bf6fc43ea212e93bbf8ce046c7f1cb4756000806101000a81548173ffffffffffffffffffffffffffffffffffffffff021916908373ffffffffffffffffffffffffffffffffffffffff16021790555060019050620009f8565b6000620008f97320e12a1f859b3feae5fb2a0a32c18f5a65555bbf62000476640100000000026401000000009004565b11156200095e577320e12a1f859b3feae5fb2a0a32c18f5a65555bbf6000806101000a81548173ffffffffffffffffffffffffffffffffffffffff021916908373ffffffffffffffffffffffffffffffffffffffff16021790555060019050620009f8565b60006200098e7351efaf4c8b3c9afbd5ab9f4bbc82784ab6ef8faa62000476640100000000026401000000009004565b1115620009f3577351efaf4c8b3c9afbd5ab9f4bbc82784ab6ef8faa6000806101000a81548173ffffffffffffffffffffffffffffffffffffffff021916908373ffffffffffffffffffffffffffffffffffffffff16021790555060019050620009f8565b600090505b90565b806002908051906020019062000a1392919062000a17565b5050565b828054600181600116156101000203166002900490600052602060002090601f016020900481019282601f1062000a5a57805160ff191683800117855562000a8b565b8280016001018555821562000a8b579182015b8281111562000a8a57825182559160200191906001019062000a6d565b5b50905062000a9a919062000a9e565b5090565b62000ac391905b8082111562000abf57600081600090555060010162000aa5565b5090565b90565b600062000ad4825162000b62565b905092915050565b60006020828403121562000aef57600080fd5b600062000aff8482850162000ac6565b91505092915050565b62000b138162000b36565b82525050565b600060208201905062000b30600083018462000b08565b92915050565b60007fff0000000000000000000000000000000000000000000000000000000000000082169050919050565b600073ffffffffffffffffffffffffffffffffffffffff82169050919050565b6132b08062000b926000396000f30060806040526004361062000097576000357c0100000000000000000000000000000000000000000000000000000000900463ffffffff16806327dc297e146200009c57806338bbfa5014620000ca57806382636bd814620000f85780639c38dc921462000118578063c1b1d06c1462000138578063c48999191462000158578063cc9df7421462000178578063da1cc1161462000198575b600080fd5b348015620000a957600080fd5b50620000c86004803603620000c2919081019062002824565b620001b8565b005b348015620000d757600080fd5b50620000f66004803603620000f091908101906200287e565b62000381565b005b6200011660048036036200011091908101906200294b565b62000386565b005b6200013660048036036200013091908101906200294b565b620005e4565b005b6200015660048036036200015091908101906200294b565b62000842565b005b6200017660048036036200017091908101906200294b565b62000a73565b005b6200019660048036036200019091908101906200294b565b62000cd1565b005b620001b66004803603620001b0919081019062002906565b62000f2f565b005b600080620001c562001123565b73ffffffffffffffffffffffffffffffffffffffff163373ffffffffffffffffffffffffffffffffffffffff16141515620001ff57600080fd5b600560008560001916600019168152602001908152602001600020549150600182141562000266577f8655c5cfb1c5a83d9d6bc1412ec42f2ef81e85b5714e2627b4078576fba07a9f8360405162000258919062002b91565b60405180910390a16200037b565b6002821415620002af577f8655c5cfb1c5a83d9d6bc1412ec42f2ef81e85b5714e2627b4078576fba07a9f83604051620002a1919062002b91565b60405180910390a16200037a565b6003821415620002f8577f5b81f211753ecf8f010d9a311a6ec4a2f060d40ffe7bb868905b4f3eece480cb83604051620002ea919062002b91565b60405180910390a162000379565b600482141562000378576064734b0897b0513fdc7c541b6d9d7e929c4e5364d2db600760009054906101000a900473ffffffffffffffffffffffffffffffffffffffff16600162000348620025f8565b62000357949392919062002b44565b604051809103906000f08015801562000374573d6000803e3d6000fd5b5090505b5b5b5b50505050565b505050565b60608060608060608060003073ffffffffffffffffffffffffffffffffffffffff1631620003e96040805190810160405280600381526020017f55524c00000000000000000000000000000000000000000000000000000000008152506200148b565b1015620005d957606060405190810160405280602e81526020017f6a736f6e2868747470733a2f2f38332e3233312e31342e31373a333030322f4381526020017f4d452f636f6d707574655661522f00000000000000000000000000000000000081525096506040805190810160405280600481526020017f302e39350000000000000000000000000000000000000000000000000000000081525095506040805190810160405280600181526020017f2f0000000000000000000000000000000000000000000000000000000000000081525094506040805190810160405280600481526020017f2f292e2a000000000000000000000000000000000000000000000000000000008152509350620005068787878c8962001802565b92506200051583898662001c2c565b91506200055b6040805190810160405280600381526020017f55524c00000000000000000000000000000000000000000000000000000000008152508360085462001c66565b90503360066000836000191660001916815260200190815260200160002060006101000a81548173ffffffffffffffffffffffffffffffffffffffff021916908373ffffffffffffffffffffffffffffffffffffffff1602179055506004600560008360001916600019168152602001908152602001600020819055505b505050505050505050565b60608060608060608060003073ffffffffffffffffffffffffffffffffffffffff1631620006476040805190810160405280600381526020017f55524c00000000000000000000000000000000000000000000000000000000008152506200148b565b10156200083757606060405190810160405280602e81526020017f6a736f6e2868747470733a2f2f38332e3233312e31342e31373a333030322f4281526020017f4f452f636f6d707574655661522f00000000000000000000000000000000000081525096506040805190810160405280600481526020017f302e39350000000000000000000000000000000000000000000000000000000081525095506040805190810160405280600181526020017f2f0000000000000000000000000000000000000000000000000000000000000081525094506040805190810160405280600481526020017f2f292e2a000000000000000000000000000000000000000000000000000000008152509350620007648787878c8962001802565b92506200077383898662001c2c565b9150620007b96040805190810160405280600381526020017f55524c00000000000000000000000000000000000000000000000000000000008152508360085462001c66565b90503360066000836000191660001916815260200190815260200160002060006101000a81548173ffffffffffffffffffffffffffffffffffffffff021916908373ffffffffffffffffffffffffffffffffffffffff1602179055506004600560008360001916600019168152602001908152602001600020819055505b505050505050505050565b606080606080606080606060003073ffffffffffffffffffffffffffffffffffffffff1631620008a76040805190810160405280600381526020017f55524c00000000000000000000000000000000000000000000000000000000008152506200148b565b101562000a6757608060405190810160405280605681526020017f6a736f6e28687474703a2f2f646174612e66697865722e696f2f6170692f6c6181526020017f746573743f6163636573735f6b65793d6330366333626466356561356536356381526020017f3264666235373466373434373235633426626173653d0000000000000000000081525097508996506040805190810160405280600981526020017f2673796d626f6c733d000000000000000000000000000000000000000000000081525095508894506040805190810160405280600881526020017f292e72617465732e0000000000000000000000000000000000000000000000008152509350620009b788888888620020e0565b9250620009c683858762001c2c565b91507f621c2856e3b87f81235f8ac8a22bbb40a0142961960710d00b2b6c380902b57e604051620009f79062002be9565b60405180910390a162000a436040805190810160405280600381526020017f55524c00000000000000000000000000000000000000000000000000000000008152508360085462001c66565b90506001600560008360001916600019168152602001908152602001600020819055505b50505050505050505050565b60608060608060608060003073ffffffffffffffffffffffffffffffffffffffff163162000ad66040805190810160405280600381526020017f55524c00000000000000000000000000000000000000000000000000000000008152506200148b565b101562000cc657606060405190810160405280603081526020017f6a736f6e2868747470733a2f2f38332e3233312e31342e31373a333030322f4581526020017f555245582f636f6d707574655661522f0000000000000000000000000000000081525096506040805190810160405280600481526020017f302e39350000000000000000000000000000000000000000000000000000000081525095506040805190810160405280600181526020017f2f0000000000000000000000000000000000000000000000000000000000000081525094506040805190810160405280600481526020017f2f292e2a00000000000000000000000000000000000000000000000000000000815250935062000bf38787878c8962001802565b925062000c0283898662001c2c565b915062000c486040805190810160405280600381526020017f55524c00000000000000000000000000000000000000000000000000000000008152508360085462001c66565b90503360066000836000191660001916815260200190815260200160002060006101000a81548173ffffffffffffffffffffffffffffffffffffffff021916908373ffffffffffffffffffffffffffffffffffffffff1602179055506004600560008360001916600019168152602001908152602001600020819055505b505050505050505050565b60608060608060608060003073ffffffffffffffffffffffffffffffffffffffff163162000d346040805190810160405280600381526020017f55524c00000000000000000000000000000000000000000000000000000000008152506200148b565b101562000f2457606060405190810160405280602e81526020017f6a736f6e2868747470733a2f2f38332e3233312e31342e31373a333030322f4281526020017f4f452f636f6d707574655661522f00000000000000000000000000000000000081525096506040805190810160405280600481526020017f302e39350000000000000000000000000000000000000000000000000000000081525095506040805190810160405280600181526020017f2f0000000000000000000000000000000000000000000000000000000000000081525094506040805190810160405280600481526020017f2f292e2a00000000000000000000000000000000000000000000000000000000815250935062000e518787878c8962001802565b925062000e6083898662001c2c565b915062000ea66040805190810160405280600381526020017f55524c00000000000000000000000000000000000000000000000000000000008152508360085462001c66565b90503360066000836000191660001916815260200190815260200160002060006101000a81548173ffffffffffffffffffffffffffffffffffffffff021916908373ffffffffffffffffffffffffffffffffffffffff1602179055506004600560008360001916600019168152602001908152602001600020819055505b505050505050505050565b606080606080606060003073ffffffffffffffffffffffffffffffffffffffff163162000f916040805190810160405280600381526020017f55524c00000000000000000000000000000000000000000000000000000000008152506200148b565b10156200111a57606060405190810160405280603481526020017f6a736f6e2868747470733a2f2f6170692e6b72616b656e2e636f6d2f302f707581526020017f626c69632f5469636b65723f706169723d45544800000000000000000000000081525095508694506040805190810160405280600e81526020017f292e726573756c742e584554485a00000000000000000000000000000000000081525093506040805190810160405280600481526020017f2e632e3000000000000000000000000000000000000000000000000000000000815250925062001079868686888762001802565b91507f621c2856e3b87f81235f8ac8a22bbb40a0142961960710d00b2b6c380902b57e604051620010aa9062002be9565b60405180910390a1620010f66040805190810160405280600381526020017f55524c00000000000000000000000000000000000000000000000000000000008152508360085462001c66565b90506003600560008360001916600019168152602001908152602001600020819055505b50505050505050565b6000806000809054906101000a900473ffffffffffffffffffffffffffffffffffffffff1673ffffffffffffffffffffffffffffffffffffffff1614806200119657506000620011946000809054906101000a900473ffffffffffffffffffffffffffffffffffffffff166200210b565b145b15620011aa57620011a8600062002116565b505b6000809054906101000a900473ffffffffffffffffffffffffffffffffffffffff1673ffffffffffffffffffffffffffffffffffffffff166338cc48316040518163ffffffff167c0100000000000000000000000000000000000000000000000000000000028152600401602060405180830381600087803b1580156200123057600080fd5b505af115801562001245573d6000803e3d6000fd5b505050506040513d601f19601f820116820180604052506200126b9190810190620027cc565b73ffffffffffffffffffffffffffffffffffffffff16600160009054906101000a900473ffffffffffffffffffffffffffffffffffffffff1673ffffffffffffffffffffffffffffffffffffffff16141515620013c4576000809054906101000a900473ffffffffffffffffffffffffffffffffffffffff1673ffffffffffffffffffffffffffffffffffffffff166338cc48316040518163ffffffff167c0100000000000000000000000000000000000000000000000000000000028152600401602060405180830381600087803b1580156200134857600080fd5b505af11580156200135d573d6000803e3d6000fd5b505050506040513d601f19601f82011682018060405250620013839190810190620027cc565b600160006101000a81548173ffffffffffffffffffffffffffffffffffffffff021916908373ffffffffffffffffffffffffffffffffffffffff1602179055505b600160009054906101000a900473ffffffffffffffffffffffffffffffffffffffff1673ffffffffffffffffffffffffffffffffffffffff1663c281d19e6040518163ffffffff167c0100000000000000000000000000000000000000000000000000000000028152600401602060405180830381600087803b1580156200144b57600080fd5b505af115801562001460573d6000803e3d6000fd5b505050506040513d601f19601f82011682018060405250620014869190810190620027cc565b905090565b6000806000809054906101000a900473ffffffffffffffffffffffffffffffffffffffff1673ffffffffffffffffffffffffffffffffffffffff161480620014fe57506000620014fc6000809054906101000a900473ffffffffffffffffffffffffffffffffffffffff166200210b565b145b15620015125762001510600062002116565b505b6000809054906101000a900473ffffffffffffffffffffffffffffffffffffffff1673ffffffffffffffffffffffffffffffffffffffff166338cc48316040518163ffffffff167c0100000000000000000000000000000000000000000000000000000000028152600401602060405180830381600087803b1580156200159857600080fd5b505af1158015620015ad573d6000803e3d6000fd5b505050506040513d601f19601f82011682018060405250620015d39190810190620027cc565b73ffffffffffffffffffffffffffffffffffffffff16600160009054906101000a900473ffffffffffffffffffffffffffffffffffffffff1673ffffffffffffffffffffffffffffffffffffffff161415156200172c576000809054906101000a900473ffffffffffffffffffffffffffffffffffffffff1673ffffffffffffffffffffffffffffffffffffffff166338cc48316040518163ffffffff167c0100000000000000000000000000000000000000000000000000000000028152600401602060405180830381600087803b158015620016b057600080fd5b505af1158015620016c5573d6000803e3d6000fd5b505050506040513d601f19601f82011682018060405250620016eb9190810190620027cc565b600160006101000a81548173ffffffffffffffffffffffffffffffffffffffff021916908373ffffffffffffffffffffffffffffffffffffffff1602179055505b600160009054906101000a900473ffffffffffffffffffffffffffffffffffffffff1673ffffffffffffffffffffffffffffffffffffffff1663524f3889836040518263ffffffff167c0100000000000000000000000000000000000000000000000000000000028152600401620017a5919062002b91565b602060405180830381600087803b158015620017c057600080fd5b505af1158015620017d5573d6000803e3d6000fd5b505050506040513d601f19601f82011682018060405250620017fb9190810190620029be565b9050919050565b6060806060806060806060806000808e98508d97508c96508b95508a94508451865188518a518c51010101016040519080825280601f01601f191660200182016040528015620018615781602001602082028038833980820191505090505b50935083925060009150600090505b8851811015620019275788818151811015156200188957fe5b9060200101517f010000000000000000000000000000000000000000000000000000000000000090047f0100000000000000000000000000000000000000000000000000000000000000028383806001019450815181101515620018e957fe5b9060200101907effffffffffffffffffffffffffffffffffffffffffffffffffffffffffffff1916908160001a905350808060010191505062001870565b600090505b8751811015620019e35787818151811015156200194557fe5b9060200101517f010000000000000000000000000000000000000000000000000000000000000090047f0100000000000000000000000000000000000000000000000000000000000000028383806001019450815181101515620019a557fe5b9060200101907effffffffffffffffffffffffffffffffffffffffffffffffffffffffffffff1916908160001a90535080806001019150506200192c565b600090505b865181101562001a9f57868181518110151562001a0157fe5b9060200101517f010000000000000000000000000000000000000000000000000000000000000090047f010000000000000000000000000000000000000000000000000000000000000002838380600101945081518110151562001a6157fe5b9060200101907effffffffffffffffffffffffffffffffffffffffffffffffffffffffffffff1916908160001a9053508080600101915050620019e8565b600090505b855181101562001b5b57858181518110151562001abd57fe5b9060200101517f010000000000000000000000000000000000000000000000000000000000000090047f010000000000000000000000000000000000000000000000000000000000000002838380600101945081518110151562001b1d57fe5b9060200101907effffffffffffffffffffffffffffffffffffffffffffffffffffffffffffff1916908160001a905350808060010191505062001aa4565b600090505b845181101562001c1757848181518110151562001b7957fe5b9060200101517f010000000000000000000000000000000000000000000000000000000000000090047f010000000000000000000000000000000000000000000000000000000000000002838380600101945081518110151562001bd957fe5b9060200101907effffffffffffffffffffffffffffffffffffffffffffffffffffffffffffff1916908160001a905350808060010191505062001b60565b82995050505050505050505095945050505050565b606062001c5d8484846020604051908101604052806000815250602060405190810160405280600081525062001802565b90509392505050565b60008060008060009054906101000a900473ffffffffffffffffffffffffffffffffffffffff1673ffffffffffffffffffffffffffffffffffffffff16148062001cdb5750600062001cd96000809054906101000a900473ffffffffffffffffffffffffffffffffffffffff166200210b565b145b1562001cef5762001ced600062002116565b505b6000809054906101000a900473ffffffffffffffffffffffffffffffffffffffff1673ffffffffffffffffffffffffffffffffffffffff166338cc48316040518163ffffffff167c0100000000000000000000000000000000000000000000000000000000028152600401602060405180830381600087803b15801562001d7557600080fd5b505af115801562001d8a573d6000803e3d6000fd5b505050506040513d601f19601f8201168201806040525062001db09190810190620027cc565b73ffffffffffffffffffffffffffffffffffffffff16600160009054906101000a900473ffffffffffffffffffffffffffffffffffffffff1673ffffffffffffffffffffffffffffffffffffffff1614151562001f09576000809054906101000a900473ffffffffffffffffffffffffffffffffffffffff1673ffffffffffffffffffffffffffffffffffffffff166338cc48316040518163ffffffff167c0100000000000000000000000000000000000000000000000000000000028152600401602060405180830381600087803b15801562001e8d57600080fd5b505af115801562001ea2573d6000803e3d6000fd5b505050506040513d601f19601f8201168201806040525062001ec89190810190620027cc565b600160006101000a81548173ffffffffffffffffffffffffffffffffffffffff021916908373ffffffffffffffffffffffffffffffffffffffff1602179055505b600160009054906101000a900473ffffffffffffffffffffffffffffffffffffffff1673ffffffffffffffffffffffffffffffffffffffff16632ef3accc86856040518363ffffffff167c010000000000000000000000000000000000000000000000000000000002815260040162001f8492919062002bb5565b602060405180830381600087803b15801562001f9f57600080fd5b505af115801562001fb4573d6000803e3d6000fd5b505050506040513d601f19601f8201168201806040525062001fda9190810190620029be565b9050823a02670de0b6b3a76400000181111562001ffe5760006001029150620020d8565b600160009054906101000a900473ffffffffffffffffffffffffffffffffffffffff1673ffffffffffffffffffffffffffffffffffffffff1663c51be90f8260008888886040518663ffffffff167c01000000000000000000000000000000000000000000000000000000000281526004016200207f949392919062002ae9565b6020604051808303818588803b1580156200209957600080fd5b505af1158015620020ae573d6000803e3d6000fd5b50505050506040513d601f19601f82011682018060405250620020d59190810190620027f8565b91505b509392505050565b60606200210185858585602060405190810160405280600081525062001802565b9050949350505050565b6000813b9050919050565b60006200212262002129565b9050919050565b6000806200214b731d3b2638a7cc9f2cb3d298a3da7a90b67e5506ed6200210b565b1115620021f057731d3b2638a7cc9f2cb3d298a3da7a90b67e5506ed6000806101000a81548173ffffffffffffffffffffffffffffffffffffffff021916908373ffffffffffffffffffffffffffffffffffffffff160217905550620021e66040805190810160405280600b81526020017f6574685f6d61696e6e6574000000000000000000000000000000000000000000815250620025dc565b60019050620025d9565b60006200221173c03a2615d5efaf5f49f60b7bb6583eaec212fdf16200210b565b1115620022b65773c03a2615d5efaf5f49f60b7bb6583eaec212fdf16000806101000a81548173ffffffffffffffffffffffffffffffffffffffff021916908373ffffffffffffffffffffffffffffffffffffffff160217905550620022ac6040805190810160405280600c81526020017f6574685f726f707374656e330000000000000000000000000000000000000000815250620025dc565b60019050620025d9565b6000620022d773b7a07bcf2ba2f2703b24c0691b5278999c59ac7e6200210b565b11156200237c5773b7a07bcf2ba2f2703b24c0691b5278999c59ac7e6000806101000a81548173ffffffffffffffffffffffffffffffffffffffff021916908373ffffffffffffffffffffffffffffffffffffffff160217905550620023726040805190810160405280600981526020017f6574685f6b6f76616e0000000000000000000000000000000000000000000000815250620025dc565b60019050620025d9565b60006200239d73146500cfd35b22e4a392fe0adc06de1a1368ed486200210b565b1115620024425773146500cfd35b22e4a392fe0adc06de1a1368ed486000806101000a81548173ffffffffffffffffffffffffffffffffffffffff021916908373ffffffffffffffffffffffffffffffffffffffff160217905550620024386040805190810160405280600b81526020017f6574685f72696e6b656279000000000000000000000000000000000000000000815250620025dc565b60019050620025d9565b600062002463736f485c8bf6fc43ea212e93bbf8ce046c7f1cb4756200210b565b1115620024c857736f485c8bf6fc43ea212e93bbf8ce046c7f1cb4756000806101000a81548173ffffffffffffffffffffffffffffffffffffffff021916908373ffffffffffffffffffffffffffffffffffffffff16021790555060019050620025d9565b6000620024e97320e12a1f859b3feae5fb2a0a32c18f5a65555bbf6200210b565b11156200254e577320e12a1f859b3feae5fb2a0a32c18f5a65555bbf6000806101000a81548173ffffffffffffffffffffffffffffffffffffffff021916908373ffffffffffffffffffffffffffffffffffffffff16021790555060019050620025d9565b60006200256f7351efaf4c8b3c9afbd5ab9f4bbc82784ab6ef8faa6200210b565b1115620025d4577351efaf4c8b3c9afbd5ab9f4bbc82784ab6ef8faa6000806101000a81548173ffffffffffffffffffffffffffffffffffffffff021916908373ffffffffffffffffffffffffffffffffffffffff16021790555060019050620025d9565b600090505b90565b8060029080519060200190620025f492919062002609565b5050565b6040516104d48062002da383390190565b828054600181600116156101000203166002900490600052602060002090601f016020900481019282601f106200264c57805160ff19168380011785556200267d565b828001600101855582156200267d579182015b828111156200267c5782518255916020019190600101906200265f565b5b5090506200268c919062002690565b5090565b620026b591905b80821115620026b157600081600090555060010162002697565b5090565b90565b6000620026c6825162002cc8565b905092915050565b6000620026dc823562002ce8565b905092915050565b6000620026f2825162002ce8565b905092915050565b600082601f83011215156200270e57600080fd5b8135620027256200271f8262002c39565b62002c0b565b915080825260208301602083018583830111156200274257600080fd5b6200274f83828462002d4c565b50505092915050565b600082601f83011215156200276c57600080fd5b8135620027836200277d8262002c66565b62002c0b565b91508082526020830160208301858383011115620027a057600080fd5b620027ad83828462002d4c565b50505092915050565b6000620027c4825162002cf2565b905092915050565b600060208284031215620027df57600080fd5b6000620027ef84828501620026b8565b91505092915050565b6000602082840312156200280b57600080fd5b60006200281b84828501620026e4565b91505092915050565b600080604083850312156200283857600080fd5b60006200284885828601620026ce565b925050602083013567ffffffffffffffff8111156200286657600080fd5b620028748582860162002758565b9150509250929050565b6000806000606084860312156200289457600080fd5b6000620028a486828701620026ce565b935050602084013567ffffffffffffffff811115620028c257600080fd5b620028d08682870162002758565b925050604084013567ffffffffffffffff811115620028ee57600080fd5b620028fc86828701620026fa565b9150509250925092565b6000602082840312156200291957600080fd5b600082013567ffffffffffffffff8111156200293457600080fd5b620029428482850162002758565b91505092915050565b600080604083850312156200295f57600080fd5b600083013567ffffffffffffffff8111156200297a57600080fd5b620029888582860162002758565b925050602083013567ffffffffffffffff811115620029a657600080fd5b620029b48582860162002758565b9150509250929050565b600060208284031215620029d157600080fd5b6000620029e184828501620027b6565b91505092915050565b620029f58162002c9e565b82525050565b62002a068162002cfc565b82525050565b62002a178162002d10565b82525050565b62002a288162002d24565b82525050565b62002a398162002d38565b82525050565b600062002a4c8262002c93565b80845262002a6281602086016020860162002d5b565b62002a6d8162002d91565b602085010191505092915050565b6000603582527f4f7261636c697a65207175657279207761732073656e742c207374616e64696e60208301527f6720627920666f722074686520616e737765722e2e00000000000000000000006040830152606082019050919050565b62002ae38162002cbe565b82525050565b600060808201905062002b006000830187620029fb565b818103602083015262002b14818662002a3f565b9050818103604083015262002b2a818562002a3f565b905062002b3b606083018462002ad8565b95945050505050565b600060808201905062002b5b600083018762002a0c565b62002b6a602083018662002a2e565b62002b796040830185620029ea565b62002b88606083018462002a1d565b95945050505050565b6000602082019050818103600083015262002bad818462002a3f565b905092915050565b6000604082019050818103600083015262002bd1818562002a3f565b905062002be2602083018462002ad8565b9392505050565b6000602082019050818103600083015262002c048162002a7b565b9050919050565b6000604051905081810181811067ffffffffffffffff8211171562002c2f57600080fd5b8060405250919050565b600067ffffffffffffffff82111562002c5157600080fd5b601f19601f8301169050602081019050919050565b600067ffffffffffffffff82111562002c7e57600080fd5b601f19601f8301169050602081019050919050565b600081519050919050565b600073ffffffffffffffffffffffffffffffffffffffff82169050919050565b6000819050919050565b600073ffffffffffffffffffffffffffffffffffffffff82169050919050565b6000819050919050565b6000819050919050565b600062002d098262002cbe565b9050919050565b600062002d1d8262002cbe565b9050919050565b600062002d318262002cbe565b9050919050565b600062002d458262002c9e565b9050919050565b82818337600083830152505050565b60005b8381101562002d7b57808201518184015260208101905062002d5e565b8381111562002d8b576000848401525b50505050565b6000601f19601f83011690509190505600608060405234801561001057600080fd5b506040516080806104d483398101806040528101908080519060200190929190805190602001909291908051906020019092919080519060200190929190505050600033600260016101000a81548173ffffffffffffffffffffffffffffffffffffffff021916908373ffffffffffffffffffffffffffffffffffffffff16021790555082600460006101000a81548173ffffffffffffffffffffffffffffffffffffffff021916908373ffffffffffffffffffffffffffffffffffffffff16021790555083600360006101000a81548173ffffffffffffffffffffffffffffffffffffffff021916908373ffffffffffffffffffffffffffffffffffffffff16021790555084600081905550816001819055506000600260006101000a81548160ff021916908315150217905550600460009054906101000a900473ffffffffffffffffffffffffffffffffffffffff1690508073ffffffffffffffffffffffffffffffffffffffff16639cef7a5b600054600360009054906101000a900473ffffffffffffffffffffffffffffffffffffffff166040518363ffffffff167c0100000000000000000000000000000000000000000000000000000000028152600401808381526020018273ffffffffffffffffffffffffffffffffffffffff1673ffffffffffffffffffffffffffffffffffffffff16815260200192505050600060405180830381600087803b15801561022b57600080fd5b505af115801561023f573d6000803e3d6000fd5b50505050505050505061027d806102576000396000f30060806040526004361061006d576000357c0100000000000000000000000000000000000000000000000000000000900463ffffffff1680631b9265b814610072578063209652551461009457806331b2ffaf146100bf5780634212ed2614610116578063893d20e814610145575b600080fd5b61007a61019c565b604051808215151515815260200191505060405180910390f35b3480156100a057600080fd5b506100a96101dd565b6040518082815260200191505060405180910390f35b3480156100cb57600080fd5b506100d46101e6565b604051808273ffffffffffffffffffffffffffffffffffffffff1673ffffffffffffffffffffffffffffffffffffffff16815260200191505060405180910390f35b34801561012257600080fd5b5061012b610210565b604051808215151515815260200191505060405180910390f35b34801561015157600080fd5b5061015a610227565b604051808273ffffffffffffffffffffffffffffffffffffffff1673ffffffffffffffffffffffffffffffffffffffff16815260200191505060405180910390f35b60008054341415156101ad57600080fd5b6001600260006101000a81548160ff021916908315150217905550600260009054906101000a900460ff16905090565b60008054905090565b6000600360009054906101000a900473ffffffffffffffffffffffffffffffffffffffff16905090565b6000600260009054906101000a900460ff16905090565b6000600260019054906101000a900473ffffffffffffffffffffffffffffffffffffffff169050905600a165627a7a72305820b04fefe2ceb71329ab983b16fc7e391fcf2749a2aa4db888d08d4753ecbf7c060029a265627a7a72305820767d1d6b4d5449785eac99752e6072572bc57bb27e728471d08cea357a8bcd786c6578706572696d656e74616cf50037",
  "source": "pragma experimental ABIEncoderV2;\n\nimport \"./strings.sol\";\n\nimport \"./Utils.sol\";\nimport \"./OrderBook.sol\";\nimport \"./CompensationChamber.sol\";\nimport \"./PaymentRequest.sol\";\n\ncontract Market\n{\n    address compensationChamberAddress;\n    address owner;\n\n    mapping (string => address) mapInstrumentIdToOrderBookAddress;\n    string[] availableInstrumentIDs;\n\n    modifier onlyCCP()\n    {\n        require (msg.sender == compensationChamberAddress);\n        _;\n    }\n\n    modifier onlyOwner()\n    {\n        require (msg.sender == owner);\n        _;\n    }\n\n    event logRegInfo(string getString);\n    event logString(string getString);\n\n    event logAddressID(int addressID);\n\n    event logBytes32(bytes32 getBytes32);\n\n    // side: bid-buy = 1, sell-ask = 0\n    event logMarketOrder(string instrumentID, uint quantity, uint price, uint side, uint orderType);\n\n    event logInstruments(string instrumentID);\n\n    function Market(uint timestampUntilNextVMRevision) public payable\n    {\n        require (msg.value >= 15 ether);\n\n        owner = msg.sender;\n        compensationChamberAddress = (new CompensationChamber).value(12 ether)(timestampUntilNextVMRevision);\n    }\n\n    function addClearingMember(string _name, string _email, string _password)\n    {\n       //Start for test\n      CompensationChamber _compensationChamber = CompensationChamber(compensationChamberAddress);\n      int addressID = _compensationChamber.addClearingMember(_name, _email, msg.sender, _password);\n\n      if (addressID == -1)\n      {\n          logRegInfo(\"This email is alredy register\");\n      }\n      else\n      {\n          logRegInfo(\"Registration done!\");\n      }\n      logAddressID(addressID);\n      // End for test\n    }\n\n    function confirmClearingMemberAddress(string email)\n    {\n      CompensationChamber _compensationChamber = CompensationChamber(compensationChamberAddress);\n      _compensationChamber.confirmClearingMember(msg.sender, email);\n    }\n\n    event logPaymentRequestAddress(address paymentRequestAddress, uint value, address clearingMemberAddress);\n\n    function paymentRequest(address _paymentRequestAddress, uint _value, address _clearingMemberAddress) public onlyCCP\n    {\n        logPaymentRequestAddress(_paymentRequestAddress, _value, _clearingMemberAddress);\n    }\n\n    function payPaymentRequest(address _paymentRequestAddress) public payable\n    {\n        PaymentRequest _paymentRequestContract = PaymentRequest(_paymentRequestAddress);\n\n        require (_paymentRequestContract.getValue() <= msg.value);\n        bool result = _paymentRequestContract.pay.value(msg.value)();\n\n        if (result == true)\n        {\n            string memory _result = Utils.strConcat(\"Payment request \", Utils.addressToString(_paymentRequestAddress), \"Payed successfully\");\n            logString(_result);\n        }\n    }\n\n    function addNewDerivative (string _instrumentID, string _market, Utils.instrumentType _instrumentType, uint _settlementTimestamp) public /*onlyOwner*/ payable\n    {\n      if (mapInstrumentIdToOrderBookAddress[_instrumentID] == 0)\n      {\n        mapInstrumentIdToOrderBookAddress[_instrumentID] = new OrderBook(_instrumentID, _market, _instrumentType, _settlementTimestamp);\n        availableInstrumentIDs.push(_instrumentID);\n      }\n    }\n\n    function addFutureToCCP(address _longClearingMemberAddress, address _shortClearingMemberAddress, string _instrumentID, string _amount, string _price, uint _settlementTimestamp, string  _market) public\n    {\n      logString(\"ADDED TO MARKET\");\n      logPaymentRequestAddress(0x0, 20, 0x0);\n        CompensationChamber _compensationChamber = CompensationChamber(compensationChamberAddress);\n        _compensationChamber.futureNovation.value(1 ether)(_longClearingMemberAddress, _shortClearingMemberAddress, _instrumentID, _amount, _price, _settlementTimestamp, _market);\n    }\n\n    function addOrder(string _instrumentID, uint _quantity, uint _price, string _type) public payable\n    {\n        require (this.balance >= 1 ether);\n        address _orderBookAddress = mapInstrumentIdToOrderBookAddress[_instrumentID];\n\n        if (_orderBookAddress != 0)\n        {\n            OrderBook _orderBook = OrderBook(_orderBookAddress);\n            uint quantity;\n            uint price;\n\n            if (Utils.compareStrings(_type, \"BUY\"))\n            {\n                _orderBook.addBuyOrder(msg.sender, _quantity, _price);\n            }\n            else if (Utils.compareStrings(_type, \"SELL\"))\n            {\n                _orderBook.addSellOrder(msg.sender, _quantity, _price);\n            }\n        }\n    }\n\n    function signIn(string _email, string _password) public returns (int addressID, string name, address compensationMemberAddress)\n    {\n      CompensationChamber _compensationChamber = CompensationChamber(compensationChamberAddress);\n      var( _addressID, _name, _compensationMemberAddress )=_compensationChamber.checkSignInEmailAndPassword(_email, _password);\n\n      addressID = _addressID;\n      name = _name;\n      compensationMemberAddress = _compensationMemberAddress;\n    }\n\n    mapping(uint => string) sideMap;\n\n    function getInstruments() public\n    {\n      for (uint i = 0; i < availableInstrumentIDs.length; i++)\n      {\n        emit logInstruments(availableInstrumentIDs[i]);\n      }\n    }\n\n    function addOrderEvent(string _instrumentID, uint _quantity, uint _price, uint _side)\n    {\n      emit logMarketOrder(_instrumentID, _quantity, _price, _side, 1);\n    }\n\n    function removeOrderEvent(string _instrumentID, uint _quantity, uint _price, uint _side)\n    {\n      emit logMarketOrder(_instrumentID, _quantity, _price, _side, 0);\n    }\n\n    function getMarket() public\n    {\n      for (uint i = 0; i < availableInstrumentIDs.length; i++)\n      {\n        address _orderBookAddress = mapInstrumentIdToOrderBookAddress[availableInstrumentIDs[i]];\n        OrderBook _orderBook = OrderBook(_orderBookAddress);\n\n        string memory _instrumentID = _orderBook.getInstrumentID();\n\n        uint askLength = _orderBook.getAskOrdersLength();\n\n\n        Utils.marketOrder memory _marketOrder ;\n        uint j;\n\n        for (j = 0; j < askLength; j++)\n        {\n          _marketOrder = _orderBook.getAskOrders(j);\n          emit logMarketOrder(_instrumentID, _marketOrder.quantity, _marketOrder.price, 0, 1);\n        }\n\n        uint bidLength = _orderBook.getBidOrdersLength();\n\n        for (j = 0; j < bidLength; j++)\n        {\n          _marketOrder = _orderBook.getBidOrders(j);\n          emit logMarketOrder(_instrumentID, _marketOrder.quantity, _marketOrder.price, 1, 1);\n        }\n\n      }\n    }\n\n}\n",
  "sourcePath": "/home/dtm/Desktop/TFM/DAPPS/CompensationChamber/contracts/Market.sol",
  "compiler": {
    "name": "solc",
    "version": "0.4.24+commit.e67f0147.Emscripten.clang"
  },
  "schemaVersion": "2.0.1",
  "updatedAt": "2018-07-20T12:33:15.964Z"
}