{
  "contractName": "Market",
  "abi": [
    {
      "inputs": [
        {
          "name": "timestampUntilNextVMRevision",
          "type": "uint256"
        }
      ],
      "payable": true,
      "stateMutability": "payable",
      "type": "constructor"
    },
    {
      "anonymous": false,
      "inputs": [
        {
          "indexed": false,
          "name": "getString",
          "type": "string"
        }
      ],
      "name": "logRegInfo",
      "type": "event"
    },
    {
      "anonymous": false,
      "inputs": [
        {
          "indexed": false,
          "name": "getString",
          "type": "string"
        }
      ],
      "name": "logString",
      "type": "event"
    },
    {
      "anonymous": false,
      "inputs": [
        {
          "indexed": false,
          "name": "getBytes32",
          "type": "bytes32"
        }
      ],
      "name": "logBytes32",
      "type": "event"
    },
    {
      "anonymous": false,
      "inputs": [
        {
          "indexed": false,
          "name": "paymentRequestAddress",
          "type": "address"
        },
        {
          "indexed": false,
          "name": "value",
          "type": "uint256"
        },
        {
          "indexed": false,
          "name": "clearingMemberAddress",
          "type": "address"
        }
      ],
      "name": "logPaymentRequestAddress",
      "type": "event"
    },
    {
      "constant": false,
      "inputs": [
        {
          "name": "_name",
          "type": "string"
        },
        {
          "name": "_email",
          "type": "string"
        },
        {
          "name": "_password",
          "type": "string"
        }
      ],
      "name": "addClearingMember",
      "outputs": [
        {
          "name": "",
          "type": "int256"
        }
      ],
      "payable": false,
      "stateMutability": "nonpayable",
      "type": "function"
    },
    {
      "constant": false,
      "inputs": [
        {
          "name": "_paymentRequestAddress",
          "type": "address"
        },
        {
          "name": "_value",
          "type": "uint256"
        },
        {
          "name": "_clearingMemberAddress",
          "type": "address"
        }
      ],
      "name": "paymentRequest",
      "outputs": [],
      "payable": false,
      "stateMutability": "nonpayable",
      "type": "function"
    },
    {
      "constant": false,
      "inputs": [
        {
          "name": "_paymentRequestAddress",
          "type": "address"
        }
      ],
      "name": "payPaymentRequest",
      "outputs": [],
      "payable": true,
      "stateMutability": "payable",
      "type": "function"
    },
    {
      "constant": false,
      "inputs": [
        {
          "name": "_instrumentID",
          "type": "string"
        },
        {
          "name": "_market",
          "type": "string"
        },
        {
          "name": "_instrumentType",
          "type": "uint8"
        },
        {
          "name": "_settlementTimestamp",
          "type": "uint256"
        }
      ],
      "name": "addNewDerivative",
      "outputs": [],
      "payable": true,
      "stateMutability": "payable",
      "type": "function"
    },
    {
      "constant": false,
      "inputs": [
        {
          "name": "_longClearingMemberAddress",
          "type": "address"
        },
        {
          "name": "_shortClearingMemberAddress",
          "type": "address"
        },
        {
          "name": "_instrumentID",
          "type": "string"
        },
        {
          "name": "_amount",
          "type": "string"
        },
        {
          "name": "_price",
          "type": "string"
        },
        {
          "name": "_settlementTimestamp",
          "type": "uint256"
        },
        {
          "name": "_market",
          "type": "string"
        }
      ],
      "name": "addFutureToCCP",
      "outputs": [],
      "payable": false,
      "stateMutability": "nonpayable",
      "type": "function"
    },
    {
      "constant": false,
      "inputs": [
        {
          "name": "_instrumentID",
          "type": "string"
        },
        {
          "name": "_quantity",
          "type": "uint256"
        },
        {
          "name": "_price",
          "type": "uint256"
        },
        {
          "name": "_type",
          "type": "string"
        }
      ],
      "name": "addOrder",
      "outputs": [],
      "payable": true,
      "stateMutability": "payable",
      "type": "function"
    },
    {
      "constant": false,
      "inputs": [
        {
          "name": "_email",
          "type": "string"
        },
        {
          "name": "_password",
          "type": "string"
        }
      ],
      "name": "signIn",
      "outputs": [
        {
          "name": "",
          "type": "int256"
        }
      ],
      "payable": false,
      "stateMutability": "nonpayable",
      "type": "function"
    }
  ],
  "bytecode": "0x60806040526040516020806200c30b8339810180604052810190808051906020019092919050505067d02ab486cedc0000341015151561003e57600080fd5b33600160006101000a81548173ffffffffffffffffffffffffffffffffffffffff021916908373ffffffffffffffffffffffffffffffffffffffff16021790555067a688906bd8b00000816100916100fe565b808281526020019150506040518091039082f0801580156100b6573d6000803e3d6000fd5b5090506000806101000a81548173ffffffffffffffffffffffffffffffffffffffff021916908373ffffffffffffffffffffffffffffffffffffffff1602179055505061010f565b6040516174e98062004e2283390190565b614d03806200011f6000396000f3006080604052600436106200008b576000357c0100000000000000000000000000000000000000000000000000000000900463ffffffff16806306fd653614620000905780632c162dbc146200014b57806381d3afac14620002115780638299ba7414620002815780639b0feabc1462000409578063bd447a4714620004c1578063dc18840314620004f9575b600080fd5b62000149600480360381019080803590602001908201803590602001908080601f0160208091040260200160405190810160405280939291908181526020018383808284378201915050505050509192919290803590602001908201803590602001908080601f0160208091040260200160405190810160405280939291908181526020018383808284378201915050505050509192919290803560ff1690602001909291908035906020019092919050505062000605565b005b3480156200015857600080fd5b50620001fb600480360381019080803590602001908201803590602001908080601f0160208091040260200160405190810160405280939291908181526020018383808284378201915050505050509192919290803590602001908201803590602001908080601f0160208091040260200160405190810160405280939291908181526020018383808284378201915050505050509192919290505050620007e0565b6040518082815260200191505060405180910390f35b3480156200021e57600080fd5b506200027f600480360381019080803573ffffffffffffffffffffffffffffffffffffffff16906020019092919080359060200190929190803573ffffffffffffffffffffffffffffffffffffffff1690602001909291905050506200099b565b005b3480156200028e57600080fd5b5062000407600480360381019080803573ffffffffffffffffffffffffffffffffffffffff169060200190929190803573ffffffffffffffffffffffffffffffffffffffff169060200190929190803590602001908201803590602001908080601f0160208091040260200160405190810160405280939291908181526020018383808284378201915050505050509192919290803590602001908201803590602001908080601f0160208091040260200160405190810160405280939291908181526020018383808284378201915050505050509192919290803590602001908201803590602001908080601f016020809104026020016040519081016040528093929190818152602001838380828437820191505050505050919291929080359060200190929190803590602001908201803590602001908080601f016020809104026020016040519081016040528093929190818152602001838380828437820191505050505050919291929050505062000a9b565b005b620004bf600480360381019080803590602001908201803590602001908080601f01602080910402602001604051908101604052809392919081815260200183838082843782019150505050505091929192908035906020019092919080359060200190929190803590602001908201803590602001908080601f016020809104026020016040519081016040528093929190818152602001838380828437820191505050505050919291929050505062000d85565b005b620004f7600480360381019080803573ffffffffffffffffffffffffffffffffffffffff16906020019092919050505062001094565b005b3480156200050657600080fd5b50620005ef600480360381019080803590602001908201803590602001908080601f0160208091040260200160405190810160405280939291908181526020018383808284378201915050505050509192919290803590602001908201803590602001908080601f0160208091040260200160405190810160405280939291908181526020018383808284378201915050505050509192919290803590602001908201803590602001908080601f016020809104026020016040519081016040528093929190818152602001838380828437820191505050505050919291929050505062001329565b6040518082815260200191505060405180910390f35b838383836200061362001cbb565b8080602001806020018560018111156200062957fe5b60ff168152602001848152602001838103835287818151815260200191508051906020019080838360005b838110156200067157808201518184015260208101905062000654565b50505050905090810190601f1680156200069f5780820380516001836020036101000a031916815260200191505b50838103825286818151815260200191508051906020019080838360005b83811015620006da578082015181840152602081019050620006bd565b50505050905090810190601f168015620007085780820380516001836020036101000a031916815260200191505b509650505050505050604051809103906000f0801580156200072e573d6000803e3d6000fd5b506002856040518082805190602001908083835b60208310151562000769578051825260208201915060208101905060208303925062000742565b6001836020036101000a038019825116818451168082178552505050505050905001915050908152602001604051809103902060006101000a81548173ffffffffffffffffffffffffffffffffffffffff021916908373ffffffffffffffffffffffffffffffffffffffff16021790555050505050565b60008060008060009054906101000a900473ffffffffffffffffffffffffffffffffffffffff1691508173ffffffffffffffffffffffffffffffffffffffff16636012102386866040518363ffffffff167c0100000000000000000000000000000000000000000000000000000000028152600401808060200180602001838103835285818151815260200191508051906020019080838360005b83811015620008985780820151818401526020810190506200087b565b50505050905090810190601f168015620008c65780820380516001836020036101000a031916815260200191505b50838103825284818151815260200191508051906020019080838360005b8381101562000901578082015181840152602081019050620008e4565b50505050905090810190601f1680156200092f5780820380516001836020036101000a031916815260200191505b50945050505050602060405180830381600087803b1580156200095157600080fd5b505af115801562000966573d6000803e3d6000fd5b505050506040513d60208110156200097d57600080fd5b81019080805190602001909291905050509050809250505092915050565b6000809054906101000a900473ffffffffffffffffffffffffffffffffffffffff1673ffffffffffffffffffffffffffffffffffffffff163373ffffffffffffffffffffffffffffffffffffffff16141515620009f757600080fd5b7f8103e7f922f5dfa0279dda3f2772a8568bc52e54e93ae50ac613938e846a392f838383604051808473ffffffffffffffffffffffffffffffffffffffff1673ffffffffffffffffffffffffffffffffffffffff1681526020018381526020018273ffffffffffffffffffffffffffffffffffffffff1673ffffffffffffffffffffffffffffffffffffffff168152602001935050505060405180910390a1505050565b60008060009054906101000a900473ffffffffffffffffffffffffffffffffffffffff1690508073ffffffffffffffffffffffffffffffffffffffff166352f82efd670de0b6b3a76400008a8a8a8a8a8a8a6040518963ffffffff167c0100000000000000000000000000000000000000000000000000000000028152600401808873ffffffffffffffffffffffffffffffffffffffff1673ffffffffffffffffffffffffffffffffffffffff1681526020018773ffffffffffffffffffffffffffffffffffffffff1673ffffffffffffffffffffffffffffffffffffffff1681526020018060200180602001806020018681526020018060200185810385528a818151815260200191508051906020019080838360005b8381101562000bd057808201518184015260208101905062000bb3565b50505050905090810190601f16801562000bfe5780820380516001836020036101000a031916815260200191505b50858103845289818151815260200191508051906020019080838360005b8381101562000c3957808201518184015260208101905062000c1c565b50505050905090810190601f16801562000c675780820380516001836020036101000a031916815260200191505b50858103835288818151815260200191508051906020019080838360005b8381101562000ca257808201518184015260208101905062000c85565b50505050905090810190601f16801562000cd05780820380516001836020036101000a031916815260200191505b50858103825286818151815260200191508051906020019080838360005b8381101562000d0b57808201518184015260208101905062000cee565b50505050905090810190601f16801562000d395780820380516001836020036101000a031916815260200191505b509b5050505050505050505050506000604051808303818588803b15801562000d6157600080fd5b505af115801562000d76573d6000803e3d6000fd5b50505050505050505050505050565b600080670de0b6b3a76400003073ffffffffffffffffffffffffffffffffffffffff16311015151562000db757600080fd5b6002866040518082805190602001908083835b60208310151562000df1578051825260208201915060208101905060208303925062000dca565b6001836020036101000a038019825116818451168082178552505050505050905001915050908152602001604051809103902060009054906101000a900473ffffffffffffffffffffffffffffffffffffffff16915060008273ffffffffffffffffffffffffffffffffffffffff161415156200108c5781905062000eac836040805190810160405280600381526020017f425559000000000000000000000000000000000000000000000000000000000081525062001689565b1562000f7d578073ffffffffffffffffffffffffffffffffffffffff16639f2ad8af3387876040518463ffffffff167c0100000000000000000000000000000000000000000000000000000000028152600401808473ffffffffffffffffffffffffffffffffffffffff1673ffffffffffffffffffffffffffffffffffffffff1681526020018381526020018281526020019350505050600060405180830381600087803b15801562000f5e57600080fd5b505af115801562000f73573d6000803e3d6000fd5b505050506200108b565b62000fbe836040805190810160405280600481526020017f53454c4c0000000000000000000000000000000000000000000000000000000081525062001689565b156200108a578073ffffffffffffffffffffffffffffffffffffffff1663fbe0f8303387876040518463ffffffff167c0100000000000000000000000000000000000000000000000000000000028152600401808473ffffffffffffffffffffffffffffffffffffffff1673ffffffffffffffffffffffffffffffffffffffff1681526020018381526020018281526020019350505050600060405180830381600087803b1580156200107057600080fd5b505af115801562001085573d6000803e3d6000fd5b505050505b5b5b505050505050565b6000806060839250348373ffffffffffffffffffffffffffffffffffffffff1663209652556040518163ffffffff167c0100000000000000000000000000000000000000000000000000000000028152600401602060405180830381600087803b1580156200110257600080fd5b505af115801562001117573d6000803e3d6000fd5b505050506040513d60208110156200112e57600080fd5b8101908080519060200190929190505050111515156200114d57600080fd5b8273ffffffffffffffffffffffffffffffffffffffff16631b9265b8346040518263ffffffff167c01000000000000000000000000000000000000000000000000000000000281526004016020604051808303818588803b158015620011b257600080fd5b505af1158015620011c7573d6000803e3d6000fd5b50505050506040513d6020811015620011df57600080fd5b810190808051906020019092919050505091506001151582151514156200132357620012816040805190810160405280601081526020017f5061796d656e7420726571756573742000000000000000000000000000000000815250620012458662001766565b6040805190810160405280601281526020017f5061796564207375636365737366756c6c79000000000000000000000000000081525062001857565b90507f0bb563d6789cea5d754d1b7f85bfebdfe7a1a86e2e0ffccfb8a6bbdb07826ae2816040518080602001828103825283818151815260200191508051906020019080838360005b83811015620012e7578082015181840152602081019050620012ca565b50505050905090810190601f168015620013155780820380516001836020036101000a031916815260200191505b509250505060405180910390a15b50505050565b60008060008060009054906101000a900473ffffffffffffffffffffffffffffffffffffffff1691508173ffffffffffffffffffffffffffffffffffffffff1663d8f36758878733886040518563ffffffff167c01000000000000000000000000000000000000000000000000000000000281526004018080602001806020018573ffffffffffffffffffffffffffffffffffffffff1673ffffffffffffffffffffffffffffffffffffffff16815260200180602001848103845288818151815260200191508051906020019080838360005b8381101562001419578082015181840152602081019050620013fc565b50505050905090810190601f168015620014475780820380516001836020036101000a031916815260200191505b50848103835287818151815260200191508051906020019080838360005b838110156200148257808201518184015260208101905062001465565b50505050905090810190601f168015620014b05780820380516001836020036101000a031916815260200191505b50848103825285818151815260200191508051906020019080838360005b83811015620014eb578082015181840152602081019050620014ce565b50505050905090810190601f168015620015195780820380516001836020036101000a031916815260200191505b50975050505050505050602060405180830381600087803b1580156200153e57600080fd5b505af115801562001553573d6000803e3d6000fd5b505050506040513d60208110156200156a57600080fd5b810190808051906020019092919050505090507fffffffffffffffffffffffffffffffffffffffffffffffffffffffffffffffff81141562001614577fad679787e86cc1ad43d48f68523bf13fe426f8a127fc1a95937edd6dab4e82f960405180806020018281038252601d8152602001807f5468697320656d61696c20697320616c7265647920726567697374657200000081525060200191505060405180910390a16200167d565b7fad679787e86cc1ad43d48f68523bf13fe426f8a127fc1a95937edd6dab4e82f96040518080602001828103825260128152602001807f526567697374726174696f6e20646f6e6521000000000000000000000000000081525060200191505060405180910390a15b80925050509392505050565b6000816040518082805190602001908083835b602083101515620016c357805182526020820191506020810190506020830392506200169c565b6001836020036101000a038019825116818451168082178552505050505050905001915050604051809103902060001916836040518082805190602001908083835b6020831015156200172c578051825260208201915060208101905060208303925062001705565b6001836020036101000a03801982511681845116808217855250505050505090500191505060405180910390206000191614905092915050565b606080600060146040519080825280601f01601f191660200182016040528015620017a05781602001602082028038833980820191505090505b509150600090505b60148110156200184d578060130360080260020a8473ffffffffffffffffffffffffffffffffffffffff16811515620017dd57fe5b047f01000000000000000000000000000000000000000000000000000000000000000282828151811015156200180f57fe5b9060200101907effffffffffffffffffffffffffffffffffffffffffffffffffffffffffffff1916908160001a9053508080600101915050620017a8565b8192505050919050565b6060620018888484846020604051908101604052806000815250602060405190810160405280600081525062001891565b90509392505050565b6060806060806060806060806000808e98508d97508c96508b95508a94508451865188518a518c51010101016040519080825280601f01601f191660200182016040528015620018f05781602001602082028038833980820191505090505b50935083925060009150600090505b8851811015620019b65788818151811015156200191857fe5b9060200101517f010000000000000000000000000000000000000000000000000000000000000090047f01000000000000000000000000000000000000000000000000000000000000000283838060010194508151811015156200197857fe5b9060200101907effffffffffffffffffffffffffffffffffffffffffffffffffffffffffffff1916908160001a9053508080600101915050620018ff565b600090505b875181101562001a72578781815181101515620019d457fe5b9060200101517f010000000000000000000000000000000000000000000000000000000000000090047f010000000000000000000000000000000000000000000000000000000000000002838380600101945081518110151562001a3457fe5b9060200101907effffffffffffffffffffffffffffffffffffffffffffffffffffffffffffff1916908160001a9053508080600101915050620019bb565b600090505b865181101562001b2e57868181518110151562001a9057fe5b9060200101517f010000000000000000000000000000000000000000000000000000000000000090047f010000000000000000000000000000000000000000000000000000000000000002838380600101945081518110151562001af057fe5b9060200101907effffffffffffffffffffffffffffffffffffffffffffffffffffffffffffff1916908160001a905350808060010191505062001a77565b600090505b855181101562001bea57858181518110151562001b4c57fe5b9060200101517f010000000000000000000000000000000000000000000000000000000000000090047f010000000000000000000000000000000000000000000000000000000000000002838380600101945081518110151562001bac57fe5b9060200101907effffffffffffffffffffffffffffffffffffffffffffffffffffffffffffff1916908160001a905350808060010191505062001b33565b600090505b845181101562001ca657848181518110151562001c0857fe5b9060200101517f010000000000000000000000000000000000000000000000000000000000000090047f010000000000000000000000000000000000000000000000000000000000000002838380600101945081518110151562001c6857fe5b9060200101907effffffffffffffffffffffffffffffffffffffffffffffffffffffffffffff1916908160001a905350808060010191505062001bef565b82995050505050505050505095945050505050565b60405161300b8062001ccd83390190560060806040523480156200001157600080fd5b506040516200300b3803806200300b8339810180604052810190808051820192919060200180518201929190602001805190602001909291908051906020019092919050505083600190805190602001906200006f929190620000fe565b50826002908051906020019062000088929190620000fe565b50816000806101000a81548160ff02191690836001811115620000a757fe5b021790555033600460006101000a81548173ffffffffffffffffffffffffffffffffffffffff021916908373ffffffffffffffffffffffffffffffffffffffff1602179055508060038190555050505050620001ad565b828054600181600116156101000203166002900490600052602060002090601f016020900481019282601f106200014157805160ff191683800117855562000172565b8280016001018555821562000172579182015b828111156200017157825182559160200191906001019062000154565b5b50905062000181919062000185565b5090565b620001aa91905b80821115620001a65760008160009055506001016200018c565b5090565b90565b612e4e80620001bd6000396000f30060806040526004361061004c576000357c0100000000000000000000000000000000000000000000000000000000900463ffffffff1680639f2ad8af14610051578063fbe0f830146100a8575b600080fd5b34801561005d57600080fd5b506100a6600480360381019080803573ffffffffffffffffffffffffffffffffffffffff16906020019092919080359060200190929190803590602001909291905050506100ff565b005b3480156100b457600080fd5b506100fd600480360381019080803573ffffffffffffffffffffffffffffffffffffffff1690602001909291908035906020019092919080359060200190929190505050610a20565b005b6000803373ffffffffffffffffffffffffffffffffffffffff16600460009054906101000a900473ffffffffffffffffffffffffffffffffffffffff1673ffffffffffffffffffffffffffffffffffffffff1614151561015e57600080fd5b6000600580549050141515610a045760009150600460009054906101000a900473ffffffffffffffffffffffffffffffffffffffff1690505b6005828154811015156101a657fe5b906000526020600020906004020160030154831115806101c65750600084115b15610a03576005828154811015156101da57fe5b906000526020600020906004020160010154841015156105fe576000600181111561020157fe5b6000809054906101000a900460ff16600181111561021b57fe5b1415610597578073ffffffffffffffffffffffffffffffffffffffff16638299ba748660058581548110151561024d57fe5b906000526020600020906004020160000160009054906101000a900473ffffffffffffffffffffffffffffffffffffffff1660016102aa60058881548110151561029357fe5b906000526020600020906004020160010154611342565b6102d36005898154811015156102bc57fe5b906000526020600020906004020160030154611368565b60035460026040518863ffffffff167c0100000000000000000000000000000000000000000000000000000000028152600401808873ffffffffffffffffffffffffffffffffffffffff1673ffffffffffffffffffffffffffffffffffffffff1681526020018773ffffffffffffffffffffffffffffffffffffffff1673ffffffffffffffffffffffffffffffffffffffff1681526020018060200180602001806020018681526020018060200185810385528a8181546001816001161561010002031660029004815260200191508054600181600116156101000203166002900480156104025780601f106103d757610100808354040283529160200191610402565b820191906000526020600020905b8154815290600101906020018083116103e557829003601f168201915b5050858103845289818151815260200191508051906020019080838360005b8381101561043c578082015181840152602081019050610421565b50505050905090810190601f1680156104695780820380516001836020036101000a031916815260200191505b50858103835288818151815260200191508051906020019080838360005b838110156104a2578082015181840152602081019050610487565b50505050905090810190601f1680156104cf5780820380516001836020036101000a031916815260200191505b508581038252868181546001816001161561010002031660029004815260200191508054600181600116156101000203166002900480156105515780601f1061052657610100808354040283529160200191610551565b820191906000526020600020905b81548152906001019060200180831161053457829003601f168201915b50509b505050505050505050505050600060405180830381600087803b15801561057a57600080fd5b505af115801561058e573d6000803e3d6000fd5b505050506105c0565b6001808111156105a357fe5b6000809054906101000a900460ff1660018111156105bd57fe5b50505b6005828154811015156105cf57fe5b906000526020600020906004020160010154840393506105f060058361140b565b8180600190039250506109f6565b6000600181111561060b57fe5b6000809054906101000a900460ff16600181111561062557fe5b1415610981578073ffffffffffffffffffffffffffffffffffffffff16638299ba748660058581548110151561065757fe5b906000526020600020906004020160000160009054906101000a900473ffffffffffffffffffffffffffffffffffffffff16600161069489611342565b6106bd6005898154811015156106a657fe5b906000526020600020906004020160030154611368565b60035460026040518863ffffffff167c0100000000000000000000000000000000000000000000000000000000028152600401808873ffffffffffffffffffffffffffffffffffffffff1673ffffffffffffffffffffffffffffffffffffffff1681526020018773ffffffffffffffffffffffffffffffffffffffff1673ffffffffffffffffffffffffffffffffffffffff1681526020018060200180602001806020018681526020018060200185810385528a8181546001816001161561010002031660029004815260200191508054600181600116156101000203166002900480156107ec5780601f106107c1576101008083540402835291602001916107ec565b820191906000526020600020905b8154815290600101906020018083116107cf57829003601f168201915b5050858103845289818151815260200191508051906020019080838360005b8381101561082657808201518184015260208101905061080b565b50505050905090810190601f1680156108535780820380516001836020036101000a031916815260200191505b50858103835288818151815260200191508051906020019080838360005b8381101561088c578082015181840152602081019050610871565b50505050905090810190601f1680156108b95780820380516001836020036101000a031916815260200191505b5085810382528681815460018160011615610100020316600290048152602001915080546001816001161561010002031660029004801561093b5780601f106109105761010080835404028352916020019161093b565b820191906000526020600020905b81548152906001019060200180831161091e57829003601f168201915b50509b505050505050505050505050600060405180830381600087803b15801561096457600080fd5b505af1158015610978573d6000803e3d6000fd5b505050506109aa565b60018081111561098d57fe5b6000809054906101000a900460ff1660018111156109a757fe5b50505b836005838154811015156109ba57fe5b906000526020600020906004020160010154036005838154811015156109dc57fe5b906000526020600020906004020160010181905550600093505b8180600101925050610197565b5b6000841115610a1957610a1885858561156d565b5b5050505050565b6000803373ffffffffffffffffffffffffffffffffffffffff16600460009054906101000a900473ffffffffffffffffffffffffffffffffffffffff1673ffffffffffffffffffffffffffffffffffffffff16141515610a7f57600080fd5b60006006805490501415156113265760009150600460009054906101000a900473ffffffffffffffffffffffffffffffffffffffff1690505b600682815481101515610ac757fe5b9060005260206000209060040201600301548310158015610ae85750600084115b1561132557600682815481101515610afc57fe5b90600052602060002090600402016001015484101515610f205760006001811115610b2357fe5b6000809054906101000a900460ff166001811115610b3d57fe5b1415610eb9578073ffffffffffffffffffffffffffffffffffffffff16638299ba74600684815481101515610b6e57fe5b906000526020600020906004020160000160009054906101000a900473ffffffffffffffffffffffffffffffffffffffff16876001610bcc600688815481101515610bb557fe5b906000526020600020906004020160010154611342565b610bf5600689815481101515610bde57fe5b906000526020600020906004020160030154611368565b60035460026040518863ffffffff167c0100000000000000000000000000000000000000000000000000000000028152600401808873ffffffffffffffffffffffffffffffffffffffff1673ffffffffffffffffffffffffffffffffffffffff1681526020018773ffffffffffffffffffffffffffffffffffffffff1673ffffffffffffffffffffffffffffffffffffffff1681526020018060200180602001806020018681526020018060200185810385528a818154600181600116156101000203166002900481526020019150805460018160011615610100020316600290048015610d245780601f10610cf957610100808354040283529160200191610d24565b820191906000526020600020905b815481529060010190602001808311610d0757829003601f168201915b5050858103845289818151815260200191508051906020019080838360005b83811015610d5e578082015181840152602081019050610d43565b50505050905090810190601f168015610d8b5780820380516001836020036101000a031916815260200191505b50858103835288818151815260200191508051906020019080838360005b83811015610dc4578082015181840152602081019050610da9565b50505050905090810190601f168015610df15780820380516001836020036101000a031916815260200191505b50858103825286818154600181600116156101000203166002900481526020019150805460018160011615610100020316600290048015610e735780601f10610e4857610100808354040283529160200191610e73565b820191906000526020600020905b815481529060010190602001808311610e5657829003601f168201915b50509b505050505050505050505050600060405180830381600087803b158015610e9c57600080fd5b505af1158015610eb0573d6000803e3d6000fd5b50505050610ee2565b600180811115610ec557fe5b6000809054906101000a900460ff166001811115610edf57fe5b50505b600682815481101515610ef157fe5b90600052602060002090600402016001015484039350610f1260068361140b565b818060019003925050611318565b60006001811115610f2d57fe5b6000809054906101000a900460ff166001811115610f4757fe5b14156112a3578073ffffffffffffffffffffffffffffffffffffffff16638299ba74600684815481101515610f7857fe5b906000526020600020906004020160000160009054906101000a900473ffffffffffffffffffffffffffffffffffffffff16876001610fb689611342565b610fdf600689815481101515610fc857fe5b906000526020600020906004020160030154611368565b60035460026040518863ffffffff167c0100000000000000000000000000000000000000000000000000000000028152600401808873ffffffffffffffffffffffffffffffffffffffff1673ffffffffffffffffffffffffffffffffffffffff1681526020018773ffffffffffffffffffffffffffffffffffffffff1673ffffffffffffffffffffffffffffffffffffffff1681526020018060200180602001806020018681526020018060200185810385528a81815460018160011615610100020316600290048152602001915080546001816001161561010002031660029004801561110e5780601f106110e35761010080835404028352916020019161110e565b820191906000526020600020905b8154815290600101906020018083116110f157829003601f168201915b5050858103845289818151815260200191508051906020019080838360005b8381101561114857808201518184015260208101905061112d565b50505050905090810190601f1680156111755780820380516001836020036101000a031916815260200191505b50858103835288818151815260200191508051906020019080838360005b838110156111ae578082015181840152602081019050611193565b50505050905090810190601f1680156111db5780820380516001836020036101000a031916815260200191505b5085810382528681815460018160011615610100020316600290048152602001915080546001816001161561010002031660029004801561125d5780601f106112325761010080835404028352916020019161125d565b820191906000526020600020905b81548152906001019060200180831161124057829003601f168201915b50509b505050505050505050505050600060405180830381600087803b15801561128657600080fd5b505af115801561129a573d6000803e3d6000fd5b505050506112cc565b6001808111156112af57fe5b6000809054906101000a900460ff1660018111156112c957fe5b50505b836006838154811015156112dc57fe5b906000526020600020906004020160010154036006838154811015156112fe57fe5b906000526020600020906004020160010181905550600093505b8180600101925050610ab8565b5b600084111561133b5761133a858585611649565b5b5050505050565b60606000606061135184611725565b915061135c826117ce565b90508092505050919050565b606060008060008060006060806103e88981151561138257fe5b0496506103e887029550858903945061139a87611725565b93506113a585611725565b92506113b0846117ce565b91506113bb836117ce565b90506113fd826040805190810160405280600181526020017f2e00000000000000000000000000000000000000000000000000000000000000815250836118f3565b975050505050505050919050565b600082805490508210151561141f57611568565b8190505b600183805490500381101561150257826001820181548110151561144357fe5b9060005260206000209060040201838281548110151561145f57fe5b90600052602060002090600402016000820160009054906101000a900473ffffffffffffffffffffffffffffffffffffffff168160000160006101000a81548173ffffffffffffffffffffffffffffffffffffffff021916908373ffffffffffffffffffffffffffffffffffffffff1602179055506001820154816001015560028201548160020155600382015481600301559050508080600101915050611423565b82600184805490500381548110151561151757fe5b9060005260206000209060040201600080820160006101000a81549073ffffffffffffffffffffffffffffffffffffffff021916905560018201600090556002820160009055600382016000905550505b505050565b60066080604051908101604052808573ffffffffffffffffffffffffffffffffffffffff168152602001848152602001428152602001838152509080600181540180825580915050906001820390600052602060002090600402016000909192909190915060008201518160000160006101000a81548173ffffffffffffffffffffffffffffffffffffffff021916908373ffffffffffffffffffffffffffffffffffffffff160217905550602082015181600101556040820151816002015560608201518160030155505050611644600661192b565b505050565b60056080604051908101604052808573ffffffffffffffffffffffffffffffffffffffff168152602001848152602001428152602001838152509080600181540180825580915050906001820390600052602060002090600402016000909192909190915060008201518160000160006101000a81548173ffffffffffffffffffffffffffffffffffffffff021916908373ffffffffffffffffffffffffffffffffffffffff160217905550602082015181600101556040820151816002015560608201518160030155505050611720600661192b565b505050565b600080821415611757577f300000000000000000000000000000000000000000000000000000000000000090506117c6565b5b60008211156117c557610100816001900481151561177257fe5b0460010290507f01000000000000000000000000000000000000000000000000000000000000006030600a848115156117a757fe5b06010260010281179050600a828115156117bd57fe5b049150611758565b5b809050919050565b60608060006117db612e08565b6117e3612e08565b60206040519080825280601f01601f1916602001820160405280156118175781602001602082028038833980820191505090505b5093505b60208310156118a057858360208110151561183257fe5b1a7f010000000000000000000000000000000000000000000000000000000000000002848481518110151561186357fe5b9060200101907effffffffffffffffffffffffffffffffffffffffffffffffffffffffffffff1916908160001a905350828060010193505061181b565b6118a984612069565b91506118de6118cd6040805190810160405280600181526020016000815250612069565b82846120979092919063ffffffff16565b506118e881612135565b945050505050919050565b606061192284848460206040519081016040528060008152506020604051908101604052806000815250612197565b90509392505050565b60006001828054905011151561194057612065565b600282805490501415611c975781600181548110151561195c57fe5b90600052602060002090600402016003015482600081548110151561197d57fe5b9060005260206000209060040201600301541015611c92578160018154811015156119a457fe5b9060005260206000209060040201600301548260008154811015156119c557fe5b9060005260206000209060040201600301548360008154811015156119e657fe5b90600052602060002090600402016003016000856001815481101515611a0857fe5b90600052602060002090600402016003016000849190505583919050555050816001815481101515611a3657fe5b906000526020600020906004020160010154826000815481101515611a5757fe5b906000526020600020906004020160010154836000815481101515611a7857fe5b90600052602060002090600402016001016000856001815481101515611a9a57fe5b90600052602060002090600402016001016000849190505583919050555050816001815481101515611ac857fe5b906000526020600020906004020160000160009054906101000a900473ffffffffffffffffffffffffffffffffffffffff16826000815481101515611b0957fe5b906000526020600020906004020160000160009054906101000a900473ffffffffffffffffffffffffffffffffffffffff16836000815481101515611b4a57fe5b90600052602060002090600402016000016000856001815481101515611b6c57fe5b906000526020600020906004020160000160008491906101000a81548173ffffffffffffffffffffffffffffffffffffffff021916908373ffffffffffffffffffffffffffffffffffffffff1602179055508391906101000a81548173ffffffffffffffffffffffffffffffffffffffff021916908373ffffffffffffffffffffffffffffffffffffffff1602179055505050816001815481101515611c0e57fe5b906000526020600020906004020160020154826000815481101515611c2f57fe5b906000526020600020906004020160020154836000815481101515611c5057fe5b90600052602060002090600402016002016000856001815481101515611c7257fe5b906000526020600020906004020160020160008491905055839190505550505b611cab565b611caa82600060018580549050036125ac565b5b600090505b6001828054905003811015612064578160018201815481101515611cd057fe5b9060005260206000209060040201600301548282815481101515611cf057fe5b9060005260206000209060040201600301541415612057578160018201815481101515611d1957fe5b9060005260206000209060040201600201548282815481101515611d3957fe5b9060005260206000209060040201600201541015612056578160018201815481101515611d6257fe5b9060005260206000209060040201600301548282815481101515611d8257fe5b9060005260206000209060040201600301548383815481101515611da257fe5b906000526020600020906004020160030160008560018601815481101515611dc657fe5b906000526020600020906004020160030160008491905055839190505550508160018201815481101515611df657fe5b9060005260206000209060040201600101548282815481101515611e1657fe5b9060005260206000209060040201600101548383815481101515611e3657fe5b906000526020600020906004020160010160008560018601815481101515611e5a57fe5b906000526020600020906004020160010160008491905055839190505550508160018201815481101515611e8a57fe5b906000526020600020906004020160000160009054906101000a900473ffffffffffffffffffffffffffffffffffffffff168282815481101515611eca57fe5b906000526020600020906004020160000160009054906101000a900473ffffffffffffffffffffffffffffffffffffffff168383815481101515611f0a57fe5b906000526020600020906004020160000160008560018601815481101515611f2e57fe5b906000526020600020906004020160000160008491906101000a81548173ffffffffffffffffffffffffffffffffffffffff021916908373ffffffffffffffffffffffffffffffffffffffff1602179055508391906101000a81548173ffffffffffffffffffffffffffffffffffffffff021916908373ffffffffffffffffffffffffffffffffffffffff16021790555050508160018201815481101515611fd257fe5b9060005260206000209060040201600201548282815481101515611ff257fe5b906000526020600020906004020160020154838381548110151561201257fe5b90600052602060002090600402016002016000856001860181548110151561203657fe5b906000526020600020906004020160020160008491905055839190505550505b5b8080600101915050611cb0565b5b5050565b612071612e08565b600060208301905060408051908101604052808451815260200182815250915050919050565b61209f612e08565b60006120bd85600001518660200151866000015187602001516128db565b905084602001518360200181815250508460200151810383600001818152505084600001518560200151018114156120ff57600085600001818152505061212a565b8360000151836000015101856000018181510391508181525050836000015181018560200181815250505b829150509392505050565b606080600083600001516040519080825280601f01601f1916602001820160405280156121715781602001602082028038833980820191505090505b50915060208201905061218d81856020015186600001516129c1565b8192505050919050565b6060806060806060806060806000808e98508d97508c96508b95508a94508451865188518a518c51010101016040519080825280601f01601f1916602001820160405280156121f55781602001602082028038833980820191505090505b50935083925060009150600090505b88518110156122b757888181518110151561221b57fe5b9060200101517f010000000000000000000000000000000000000000000000000000000000000090047f010000000000000000000000000000000000000000000000000000000000000002838380600101945081518110151561227a57fe5b9060200101907effffffffffffffffffffffffffffffffffffffffffffffffffffffffffffff1916908160001a9053508080600101915050612204565b600090505b875181101561236f5787818151811015156122d357fe5b9060200101517f010000000000000000000000000000000000000000000000000000000000000090047f010000000000000000000000000000000000000000000000000000000000000002838380600101945081518110151561233257fe5b9060200101907effffffffffffffffffffffffffffffffffffffffffffffffffffffffffffff1916908160001a90535080806001019150506122bc565b600090505b865181101561242757868181518110151561238b57fe5b9060200101517f010000000000000000000000000000000000000000000000000000000000000090047f01000000000000000000000000000000000000000000000000000000000000000283838060010194508151811015156123ea57fe5b9060200101907effffffffffffffffffffffffffffffffffffffffffffffffffffffffffffff1916908160001a9053508080600101915050612374565b600090505b85518110156124df57858181518110151561244357fe5b9060200101517f010000000000000000000000000000000000000000000000000000000000000090047f01000000000000000000000000000000000000000000000000000000000000000283838060010194508151811015156124a257fe5b9060200101907effffffffffffffffffffffffffffffffffffffffffffffffffffffffffffff1916908160001a905350808060010191505061242c565b600090505b84518110156125975784818151811015156124fb57fe5b9060200101517f010000000000000000000000000000000000000000000000000000000000000090047f010000000000000000000000000000000000000000000000000000000000000002838380600101945081518110151561255a57fe5b9060200101907effffffffffffffffffffffffffffffffffffffffffffffffffffffffffffff1916908160001a90535080806001019150506124e4565b82995050505050505050505095945050505050565b6000806125ba858585612a0c565b60009150600185805490500390505b80821115156128d45784818154811015156125e057fe5b906000526020600020906004020160030154858381548110151561260057fe5b906000526020600020906004020160030154868481548110151561262057fe5b90600052602060002090600402016003016000888581548110151561264157fe5b90600052602060002090600402016003016000849190505583919050555050848181548110151561266e57fe5b906000526020600020906004020160010154858381548110151561268e57fe5b90600052602060002090600402016001015486848154811015156126ae57fe5b9060005260206000209060040201600101600088858154811015156126cf57fe5b9060005260206000209060040201600101600084919050558391905055505084818154811015156126fc57fe5b906000526020600020906004020160000160009054906101000a900473ffffffffffffffffffffffffffffffffffffffff16858381548110151561273c57fe5b906000526020600020906004020160000160009054906101000a900473ffffffffffffffffffffffffffffffffffffffff16868481548110151561277c57fe5b90600052602060002090600402016000016000888581548110151561279d57fe5b906000526020600020906004020160000160008491906101000a81548173ffffffffffffffffffffffffffffffffffffffff021916908373ffffffffffffffffffffffffffffffffffffffff1602179055508391906101000a81548173ffffffffffffffffffffffffffffffffffffffff021916908373ffffffffffffffffffffffffffffffffffffffff1602179055505050848181548110151561283e57fe5b906000526020600020906004020160020154858381548110151561285e57fe5b906000526020600020906004020160020154868481548110151561287e57fe5b90600052602060002090600402016002016000888581548110151561289f57fe5b9060005260206000209060040201600201600084919050558391905055505081806001019250508080600190039150506125c9565b5050505050565b60008060008060008060008060008b97508c8b1115156129ab5760208b1115156129655760018b60200360080260020a03196001029550858a511694508a8d8d010393508588511692505b8460001916836000191614151561295d57838810151561294a578c8c0198506129b1565b8780600101985050858851169250612926565b8798506129b1565b8a8a209150600096505b8a8d03871115156129aa578a88209050806000191682600019161415612997578798506129b1565b600188019750868060010197505061296f565b5b8c8c0198505b5050505050505050949350505050565b60005b6020821015156129e957825184526020840193506020830192506020820391506129c4565b6001826020036101000a0390508019835116818551168181178652505050505050565b600080600084925083915081831415612a2457612e00565b856002868603811515612a3357fe5b048601815481101515612a4257fe5b90600052602060002090600402016003015490505b8183111515612dd7575b808684815481101515612a7057fe5b9060005260206000209060040201600301541015612a95578280600101935050612a61565b5b8582815481101515612aa457fe5b906000526020600020906004020160030154811015612acb57818060019003925050612a96565b8183111515612dd2578582815481101515612ae257fe5b9060005260206000209060040201600301548684815481101515612b0257fe5b9060005260206000209060040201600301548785815481101515612b2257fe5b906000526020600020906004020160030160008986815481101515612b4357fe5b906000526020600020906004020160030160008491905055839190505550508582815481101515612b7057fe5b9060005260206000209060040201600101548684815481101515612b9057fe5b9060005260206000209060040201600101548785815481101515612bb057fe5b906000526020600020906004020160010160008986815481101515612bd157fe5b906000526020600020906004020160010160008491905055839190505550508582815481101515612bfe57fe5b906000526020600020906004020160000160009054906101000a900473ffffffffffffffffffffffffffffffffffffffff168684815481101515612c3e57fe5b906000526020600020906004020160000160009054906101000a900473ffffffffffffffffffffffffffffffffffffffff168785815481101515612c7e57fe5b906000526020600020906004020160000160008986815481101515612c9f57fe5b906000526020600020906004020160000160008491906101000a81548173ffffffffffffffffffffffffffffffffffffffff021916908373ffffffffffffffffffffffffffffffffffffffff1602179055508391906101000a81548173ffffffffffffffffffffffffffffffffffffffff021916908373ffffffffffffffffffffffffffffffffffffffff16021790555050508582815481101515612d4057fe5b9060005260206000209060040201600201548684815481101515612d6057fe5b9060005260206000209060040201600201548785815481101515612d8057fe5b906000526020600020906004020160020160008986815481101515612da157fe5b9060005260206000209060040201600201600084919050558391905055505082806001019350508180600190039250505b612a57565b81851015612deb57612dea868684612a0c565b5b83831015612dff57612dfe868486612a0c565b5b5b505050505050565b6040805190810160405280600081526020016000815250905600a165627a7a723058203695dfa093132fe33ce1e6dabfbf6216201ea4d2458e986bbf7fcde383b53e1c0029a165627a7a72305820911ff19ee25b1bd6ee753ccc990e090a838e609a5b6d51ba86ea1b6f2cbc42d800296080604052604051602080620074e983398101806040526200002591908101906200010d565b336000806101000a81548173ffffffffffffffffffffffffffffffffffffffff021916908373ffffffffffffffffffffffffffffffffffffffff1602179055506729a2241af62c000062000078620000e6565b6040518091039082f08015801562000094573d6000803e3d6000fd5b509050600160006101000a81548173ffffffffffffffffffffffffffffffffffffffff021916908373ffffffffffffffffffffffffffffffffffffffff1602179055506000600a819055505062000143565b604051613e7c806200366d83390190565b600062000105825162000139565b905092915050565b6000602082840312156200012057600080fd5b60006200013084828501620000f7565b91505092915050565b6000819050919050565b61351a80620001536000396000f3006080604052600436106200007f576000357c0100000000000000000000000000000000000000000000000000000000900463ffffffff16806352f82efd14620000845780636012102314620000a45780638229be0914620000e85780639cef7a5b1462000102578063d8f367581462000130578063e7334fe51462000174575b600080fd5b620000a260048036036200009c9190810190620013fc565b620001a4565b005b348015620000b157600080fd5b50620000d06004803603620000ca919081019062001539565b620003b2565b604051620000df919062001839565b60405180910390f35b348015620000f557600080fd5b5062000100620005d6565b005b3480156200010f57600080fd5b506200012e600480360362000128919081019062001663565b62000735565b005b3480156200013d57600080fd5b506200015c6004803603620001569190810190620015ac565b62000855565b6040516200016b919062001839565b60405180910390f35b3480156200018157600080fd5b506200018c62000d16565b6040516200019b919062001735565b60405180910390f35b6000806000809054906101000a900473ffffffffffffffffffffffffffffffffffffffff1673ffffffffffffffffffffffffffffffffffffffff163373ffffffffffffffffffffffffffffffffffffffff161415156200020357600080fd5b600360008a73ffffffffffffffffffffffffffffffffffffffff1673ffffffffffffffffffffffffffffffffffffffff16815260200190815260200160002060009054906101000a900460ff169150600360008973ffffffffffffffffffffffffffffffffffffffff1673ffffffffffffffffffffffffffffffffffffffff16815260200190815260200160002060009054906101000a900460ff16905060011515821515148015620002ba575060011515811515145b8015620002cf5750670de0b6b3a76400003410155b1515620002db57600080fd5b6009348a8a8a8a8a8a600160009054906101000a900473ffffffffffffffffffffffffffffffffffffffff168b62000312620010fb565b6200032598979695949392919062001752565b6040518091039082f08015801562000341573d6000803e3d6000fd5b50905090806001815401808255809150509060018203906000526020600020016000909192909190916101000a81548173ffffffffffffffffffffffffffffffffffffffff021916908373ffffffffffffffffffffffffffffffffffffffff16021790555050505050505050505050565b60008060009054906101000a900473ffffffffffffffffffffffffffffffffffffffff1673ffffffffffffffffffffffffffffffffffffffff163373ffffffffffffffffffffffffffffffffffffffff161415156200041057600080fd5b600115156004846040518082805190602001908083835b6020831015156200044e578051825260208201915060208101905060208303925062000427565b6001836020036101000a038019825116818451168082178552505050505050905001915050908152602001604051809103902060009054906101000a900460ff161515141515620004a35760029050620005d0565b620005bb6005846040518082805190602001908083835b602083101515620004e15780518252602082019150602081019050602083039250620004ba565b6001836020036101000a03801982511681845116808217855250505050505090500191505090815260200160405180910390206003018054600181600116156101000203166002900480601f016020809104026020016040519081016040528092919081815260200182805460018160011615610100020316600290048015620005af5780601f106200058357610100808354040283529160200191620005af565b820191906000526020600020905b8154815290600101906020018083116200059157829003601f168201915b50505050508362000d3f565b15620005cb57600a9050620005d0565b600390505b92915050565b620005e06200110c565b600080600260098054905002600b81905550600091505b60098054905082101562000730576009828154811015156200061557fe5b9060005260206000200160009054906101000a900473ffffffffffffffffffffffffffffffffffffffff1690508073ffffffffffffffffffffffffffffffffffffffff1663543703596040518163ffffffff167c0100000000000000000000000000000000000000000000000000000000028152600401608060405180830381600087803b158015620006a757600080fd5b505af1158015620006bc573d6000803e3d6000fd5b505050506040513d601f19601f82011682018060405250620006e291908101906200150d565b925062000703836000600281101515620006f857fe5b602002015162000e1c565b620007228360016002811015156200071757fe5b602002015162000e1c565b8180600101925050620005f7565b505050565b600060083390806001815401808255809150509060018203906000526020600020016000909192909190916101000a81548173ffffffffffffffffffffffffffffffffffffffff021916908373ffffffffffffffffffffffffffffffffffffffff160217905550506000809054906101000a900473ffffffffffffffffffffffffffffffffffffffff1690508073ffffffffffffffffffffffffffffffffffffffff166381d3afac3385856040518463ffffffff167c01000000000000000000000000000000000000000000000000000000000281526004016200081c93929190620017fc565b600060405180830381600087803b1580156200083757600080fd5b505af11580156200084c573d6000803e3d6000fd5b50505050505050565b600080620008626200113d565b6000809054906101000a900473ffffffffffffffffffffffffffffffffffffffff1673ffffffffffffffffffffffffffffffffffffffff163373ffffffffffffffffffffffffffffffffffffffff16141515620008be57600080fd5b600115156004876040518082805190602001908083835b602083101515620008fc5780518252602082019150602081019050602083039250620008d5565b6001836020036101000a038019825116818451168082178552505050505050905001915050908152602001604051809103902060009054906101000a900460ff16151514156200096f577fffffffffffffffffffffffffffffffffffffffffffffffffffffffffffffffff925062000d0c565b600a60008154809291906001019190505550600a5491506001600360008773ffffffffffffffffffffffffffffffffffffffff1673ffffffffffffffffffffffffffffffffffffffff16815260200190815260200160002060006101000a81548160ff02191690831515021790555060016004876040518082805190602001908083835b60208310151562000a1a5780518252602082019150602081019050602083039250620009f3565b6001836020036101000a038019825116818451168082178552505050505050905001915050908152602001604051809103902060006101000a81548160ff02191690831515021790555060a0604051908101604052808881526020018781526020018673ffffffffffffffffffffffffffffffffffffffff168152602001858152602001838152509050806005876040518082805190602001908083835b60208310151562000adf578051825260208201915060208101905060208303925062000ab8565b6001836020036101000a0380198251168184511680821785525050505050509050019150509081526020016040518091039020600082015181600001908051906020019062000b3092919062001183565b50602082015181600101908051906020019062000b4f92919062001183565b5060408201518160020160006101000a81548173ffffffffffffffffffffffffffffffffffffffff021916908373ffffffffffffffffffffffffffffffffffffffff160217905550606082015181600301908051906020019062000bb592919062001183565b506080820151816004015590505060078190806001815401808255809150509060018203906000526020600020906005020160009091929091909150600082015181600001908051906020019062000c0f92919062001183565b50602082015181600101908051906020019062000c2e92919062001183565b5060408201518160020160006101000a81548173ffffffffffffffffffffffffffffffffffffffff021916908373ffffffffffffffffffffffffffffffffffffffff160217905550606082015181600301908051906020019062000c9492919062001183565b506080820151816004015550505060068590806001815401808255809150509060018203906000526020600020016000909192909190916101000a81548173ffffffffffffffffffffffffffffffffffffffff021916908373ffffffffffffffffffffffffffffffffffffffff160217905550508192505b5050949350505050565b60008060009054906101000a900473ffffffffffffffffffffffffffffffffffffffff16905090565b6000816040518082805190602001908083835b60208310151562000d79578051825260208201915060208101905060208303925062000d52565b6001836020036101000a038019825116818451168082178552505050505050905001915050604051809103902060001916836040518082805190602001908083835b60208310151562000de2578051825260208201915060208101905060208303925062000dbb565b6001836020036101000a03801982511681845116808217855250505050505090500191505060405180910390206000191614905092915050565b6001600b5403600b819055508060200151600d6000836000015173ffffffffffffffffffffffffffffffffffffffff1673ffffffffffffffffffffffffffffffffffffffff1681526020019081526020016000205401600d6000836000015173ffffffffffffffffffffffffffffffffffffffff1673ffffffffffffffffffffffffffffffffffffffff168152602001908152602001600020819055506000600b54141562000eda5762000ecf62000edd565b62000ed962001057565b5b50565b600080600080600090505b600680549050811015620010515760068181548110151562000f0657fe5b9060005260206000200160009054906101000a900473ffffffffffffffffffffffffffffffffffffffff169250600d60008473ffffffffffffffffffffffffffffffffffffffff1673ffffffffffffffffffffffffffffffffffffffff168152602001908152602001600020549350600084131562000fc357838330600162000f8e6200120a565b62000f9d949392919062001856565b604051809103906000f08015801562000fba573d6000803e3d6000fd5b50915062001043565b600084121562001042578273ffffffffffffffffffffffffffffffffffffffff166108fc7fffffffffffffffffffffffffffffffffffffffffffffffffffffffffffffffff868115156200101357fe5b059081150290604051600060405180830381858888f1935050505015801562001040573d6000803e3d6000fd5b505b5b808060010191505062000ee8565b50505050565b60008090505b600680549050811015620010f8576000600d60006006848154811015156200108157fe5b9060005260206000200160009054906101000a900473ffffffffffffffffffffffffffffffffffffffff1673ffffffffffffffffffffffffffffffffffffffff1673ffffffffffffffffffffffffffffffffffffffff1681526020019081526020016000208190555080806001019150506200105d565b50565b6040516115fa8062001a1383390190565b6080604051908101604052806002905b620011266200121b565b8152602001906001900390816200111c5790505090565b60a0604051908101604052806060815260200160608152602001600073ffffffffffffffffffffffffffffffffffffffff16815260200160608152602001600081525090565b828054600181600116156101000203166002900490600052602060002090601f016020900481019282601f10620011c657805160ff1916838001178555620011f7565b82800160010185558215620011f7579182015b82811115620011f6578251825591602001919060010190620011d9565b5b5090506200120691906200124b565b5090565b6040516104d4806200300d83390190565b6040805190810160405280600073ffffffffffffffffffffffffffffffffffffffff168152602001600081525090565b6200127091905b808211156200126c57600081600090555060010162001252565b5090565b90565b600062001281823562001960565b905092915050565b600062001297825162001960565b905092915050565b600082601f8301121515620012b357600080fd5b6002620012ca620012c482620018d1565b620018a3565b91508183856040840282011115620012e157600080fd5b60005b83811015620013155781620012fa888262001393565b845260208401935060408301925050600181019050620012e4565b5050505092915050565b60006200132d825162001980565b905092915050565b600082601f83011215156200134957600080fd5b8135620013606200135a82620018f4565b620018a3565b915080825260208301602083018583830111156200137d57600080fd5b6200138a838284620019bc565b50505092915050565b600060408284031215620013a657600080fd5b620013b26040620018a3565b90506000620013c48482850162001289565b6000830152506020620013da848285016200131f565b60208301525092915050565b6000620013f482356200198a565b905092915050565b600080600080600080600060e0888a0312156200141857600080fd5b6000620014288a828b0162001273565b97505060206200143b8a828b0162001273565b965050604088013567ffffffffffffffff8111156200145957600080fd5b620014678a828b0162001335565b955050606088013567ffffffffffffffff8111156200148557600080fd5b620014938a828b0162001335565b945050608088013567ffffffffffffffff811115620014b157600080fd5b620014bf8a828b0162001335565b93505060a0620014d28a828b01620013e6565b92505060c088013567ffffffffffffffff811115620014f057600080fd5b620014fe8a828b0162001335565b91505092959891949750929550565b6000608082840312156200152057600080fd5b600062001530848285016200129f565b91505092915050565b600080604083850312156200154d57600080fd5b600083013567ffffffffffffffff8111156200156857600080fd5b620015768582860162001335565b925050602083013567ffffffffffffffff8111156200159457600080fd5b620015a28582860162001335565b9150509250929050565b60008060008060808587031215620015c357600080fd5b600085013567ffffffffffffffff811115620015de57600080fd5b620015ec8782880162001335565b945050602085013567ffffffffffffffff8111156200160a57600080fd5b620016188782880162001335565b93505060406200162b8782880162001273565b925050606085013567ffffffffffffffff8111156200164957600080fd5b620016578782880162001335565b91505092959194509250565b600080604083850312156200167757600080fd5b60006200168785828601620013e6565b92505060206200169a8582860162001273565b9150509250929050565b620016af816200192c565b82525050565b620016c08162001994565b82525050565b620016d1816200194c565b82525050565b620016e281620019a8565b82525050565b6000620016f58262001921565b8084526200170b816020860160208601620019cb565b620017168162001a01565b602085010191505092915050565b6200172f8162001956565b82525050565b60006020820190506200174c6000830184620016a4565b92915050565b6000610100820190506200176a600083018b620016a4565b62001779602083018a620016a4565b81810360408301526200178d8189620016e8565b90508181036060830152620017a38188620016e8565b90508181036080830152620017b98187620016e8565b9050620017ca60a083018662001724565b620017d960c0830185620016a4565b81810360e0830152620017ed8184620016e8565b90509998505050505050505050565b6000606082019050620018136000830186620016a4565b62001822602083018562001724565b620018316040830184620016a4565b949350505050565b6000602082019050620018506000830184620016c6565b92915050565b60006080820190506200186d600083018762001724565b6200187c6020830186620016a4565b6200188b6040830185620016b5565b6200189a6060830184620016d7565b95945050505050565b6000604051905081810181811067ffffffffffffffff82111715620018c757600080fd5b8060405250919050565b600067ffffffffffffffff821115620018e957600080fd5b602082029050919050565b600067ffffffffffffffff8211156200190c57600080fd5b601f19601f8301169050602081019050919050565b600081519050919050565b600073ffffffffffffffffffffffffffffffffffffffff82169050919050565b6000819050919050565b6000819050919050565b600073ffffffffffffffffffffffffffffffffffffffff82169050919050565b6000819050919050565b6000819050919050565b6000620019a1826200192c565b9050919050565b6000620019b58262001956565b9050919050565b82818337600083830152505050565b60005b83811015620019eb578082015181840152602081019050620019ce565b83811115620019fb576000848401525b50505050565b6000601f19601f830116905091905056006080604052604051620015fa380380620015fa8339810180604052620000299190810190620008ea565b8583838387846000908051906020019062000046929190620007b1565b5081600190805190602001906200005f929190620007b1565b5082600260006101000a81548173ffffffffffffffffffffffffffffffffffffffff021916908373ffffffffffffffffffffffffffffffffffffffff16021790555033600360006101000a81548173ffffffffffffffffffffffffffffffffffffffff021916908373ffffffffffffffffffffffffffffffffffffffff1602179055508060069080519060200190620000fa929190620007b1565b5083600581905550426004819055505050505050670de0b6b3a764000034101515156200012657600080fd5b87600a60006101000a81548173ffffffffffffffffffffffffffffffffffffffff021916908373ffffffffffffffffffffffffffffffffffffffff16021790555086600b60006101000a81548173ffffffffffffffffffffffffffffffffffffffff021916908373ffffffffffffffffffffffffffffffffffffffff16021790555084600c9080519060200190620001c0929190620007b1565b50620001da620001e8640100000000026401000000009004565b505050505050505062000ba7565b6000600260009054906101000a900473ffffffffffffffffffffffffffffffffffffffff1690506200030260018054600181600116156101000203166002900480601f016020809104026020016040519081016040528092919081815260200182805460018160011615610100020316600290048015620002ad5780601f106200028157610100808354040283529160200191620002ad565b820191906000526020600020905b8154815290600101906020018083116200028f57829003601f168201915b50505050506040805190810160405280600381526020017f424f450000000000000000000000000000000000000000000000000000000000815250620006d46401000000000262000930176401000000009004565b15620003a6578073ffffffffffffffffffffffffffffffffffffffff1663cc9df742670de0b6b3a7640000600c60006040518463ffffffff167c01000000000000000000000000000000000000000000000000000000000281526004016200036c92919062000a9f565b6000604051808303818588803b1580156200038657600080fd5b505af11580156200039b573d6000803e3d6000fd5b5050505050620006d1565b6200049960018054600181600116156101000203166002900480601f016020809104026020016040519081016040528092919081815260200182805460018160011615610100020316600290048015620004445780601f10620004185761010080835404028352916020019162000444565b820191906000526020600020905b8154815290600101906020018083116200042657829003601f168201915b50505050506040805190810160405280600581526020017f4555524558000000000000000000000000000000000000000000000000000000815250620006d46401000000000262000930176401000000009004565b156200053d578073ffffffffffffffffffffffffffffffffffffffff1663c4899919670de0b6b3a7640000600c60006040518463ffffffff167c01000000000000000000000000000000000000000000000000000000000281526004016200050392919062000a9f565b6000604051808303818588803b1580156200051d57600080fd5b505af115801562000532573d6000803e3d6000fd5b5050505050620006d0565b6200063060018054600181600116156101000203166002900480601f016020809104026020016040519081016040528092919081815260200182805460018160011615610100020316600290048015620005db5780601f10620005af57610100808354040283529160200191620005db565b820191906000526020600020905b815481529060010190602001808311620005bd57829003601f168201915b50505050506040805190810160405280600381526020017f434d450000000000000000000000000000000000000000000000000000000000815250620006d46401000000000262000930176401000000009004565b15620006cf578073ffffffffffffffffffffffffffffffffffffffff166382636bd8670de0b6b3a7640000600c60006040518463ffffffff167c01000000000000000000000000000000000000000000000000000000000281526004016200069a92919062000a9f565b6000604051808303818588803b158015620006b457600080fd5b505af1158015620006c9573d6000803e3d6000fd5b50505050505b5b5b50565b6000816040518082805190602001908083835b6020831015156200070e5780518252602082019150602081019050602083039250620006e7565b6001836020036101000a038019825116818451168082178552505050505050905001915050604051809103902060001916836040518082805190602001908083835b60208310151562000777578051825260208201915060208101905060208303925062000750565b6001836020036101000a03801982511681845116808217855250505050505090500191505060405180910390206000191614905092915050565b828054600181600116156101000203166002900490600052602060002090601f016020900481019282601f10620007f457805160ff191683800117855562000825565b8280016001018555821562000825579182015b828111156200082457825182559160200191906001019062000807565b5b50905062000834919062000838565b5090565b6200085d91905b80821115620008595760008160009055506001016200083f565b5090565b90565b60006200086e825162000b47565b905092915050565b600082601f83011215156200088a57600080fd5b8151620008a16200089b8262000b08565b62000ada565b91508082526020830160208301858383011115620008be57600080fd5b620008cb83828462000b71565b50505092915050565b6000620008e2825162000b67565b905092915050565b600080600080600080600080610100898b0312156200090857600080fd5b6000620009188b828c0162000860565b98505060206200092b8b828c0162000860565b975050604089015167ffffffffffffffff8111156200094957600080fd5b620009578b828c0162000876565b965050606089015167ffffffffffffffff8111156200097557600080fd5b620009838b828c0162000876565b955050608089015167ffffffffffffffff811115620009a157600080fd5b620009af8b828c0162000876565b94505060a0620009c28b828c01620008d4565b93505060c0620009d58b828c0162000860565b92505060e089015167ffffffffffffffff811115620009f357600080fd5b62000a018b828c0162000876565b9150509295985092959890939650565b60008154600181166000811462000a31576001811462000a525762000a97565b607f600283041680865260ff19831660208701526040860193505062000a97565b6002820480865260208601955062000a6a8562000b35565b60005b8281101562000a8e5781548189015260018201915060208101905062000a6d565b80880195505050505b505092915050565b6000604082019050818103600083015262000abb818562000a11565b9050818103602083015262000ad1818462000a11565b90509392505050565b6000604051905081810181811067ffffffffffffffff8211171562000afe57600080fd5b8060405250919050565b600067ffffffffffffffff82111562000b2057600080fd5b601f19601f8301169050602081019050919050565b60008160005260206000209050919050565b600073ffffffffffffffffffffffffffffffffffffffff82169050919050565b6000819050919050565b60005b8381101562000b9157808201518184015260208101905062000b74565b8381111562000ba1576000848401525b50505050565b610a438062000bb76000396000f30060806040526004361061006d576000357c0100000000000000000000000000000000000000000000000000000000900463ffffffff16806344cc75c31461007257806354370359146100af578063afabb0cc146100da578063b769fe9e14610105578063e38ecb2914610142575b600080fd5b34801561007e57600080fd5b506100996004803603610094919081019061069c565b61016b565b6040516100a691906107e9565b60405180910390f35b3480156100bb57600080fd5b506100c46101ff565b6040516100d1919061081f565b60405180910390f35b3480156100e657600080fd5b506100ef610401565b6040516100fc9190610804565b60405180910390f35b34801561011157600080fd5b5061012c6004803603610127919081019061069c565b6104bf565b60405161013991906107e9565b60405180910390f35b34801561014e57600080fd5b50610169600480360361016491908101906106c5565b610553565b005b600080600760008473ffffffffffffffffffffffffffffffffffffffff1673ffffffffffffffffffffffffffffffffffffffff16815260200190815260200160002060009054906101000a900473ffffffffffffffffffffffffffffffffffffffff16905060008173ffffffffffffffffffffffffffffffffffffffff161415156101f8578091506101f9565b5b50919050565b6102076105b2565b6000604080519081016040528073ca35b7d915458ef540ade6068dfe2f44e8fa733c73ffffffffffffffffffffffffffffffffffffffff168152602001600a81525081600060028110151561025857fe5b6002020160008201518160000160006101000a81548173ffffffffffffffffffffffffffffffffffffffff021916908373ffffffffffffffffffffffffffffffffffffffff16021790555060208201518160010155905050604080519081016040528073ca35b7d915458ef540ade6068dfe2f44e8fa733c73ffffffffffffffffffffffffffffffffffffffff168152602001600a8152508160016002811015156102ff57fe5b6002020160008201518160000160006101000a81548173ffffffffffffffffffffffffffffffffffffffff021916908373ffffffffffffffffffffffffffffffffffffffff1602179055506020820151816001015590505080600280602002604051908101604052809291906000905b828210156103f7578382600202016040805190810160405290816000820160009054906101000a900473ffffffffffffffffffffffffffffffffffffffff1673ffffffffffffffffffffffffffffffffffffffff1673ffffffffffffffffffffffffffffffffffffffff1681526020016001820154815250508152602001906001019061036f565b5050505091505090565b6104096105e0565b6040805190810160405280600a60009054906101000a900473ffffffffffffffffffffffffffffffffffffffff1673ffffffffffffffffffffffffffffffffffffffff1673ffffffffffffffffffffffffffffffffffffffff168152602001600b60009054906101000a900473ffffffffffffffffffffffffffffffffffffffff1673ffffffffffffffffffffffffffffffffffffffff1673ffffffffffffffffffffffffffffffffffffffff16815250905090565b600080600760008473ffffffffffffffffffffffffffffffffffffffff1673ffffffffffffffffffffffffffffffffffffffff16815260200190815260200160002060009054906101000a900473ffffffffffffffffffffffffffffffffffffffff16905060008173ffffffffffffffffffffffffffffffffffffffff1614151561054c5780915061054d565b5b50919050565b600260009054906101000a900473ffffffffffffffffffffffffffffffffffffffff1673ffffffffffffffffffffffffffffffffffffffff163373ffffffffffffffffffffffffffffffffffffffff161415156105af57600080fd5b50565b6080604051908101604052806002905b6105ca610602565b8152602001906001900390816105c25790505090565b6040805190810160405280600290602082028038833980820191505090505090565b6040805190810160405280600073ffffffffffffffffffffffffffffffffffffffff168152602001600081525090565b600061063e8235610901565b905092915050565b600082601f830112151561065957600080fd5b813561066c61066782610867565b61083a565b9150808252602083016020830185838301111561068857600080fd5b610693838284610921565b50505092915050565b6000602082840312156106ae57600080fd5b60006106bc84828501610632565b91505092915050565b6000602082840312156106d757600080fd5b600082013567ffffffffffffffff8111156106f157600080fd5b6106fd84828501610646565b91505092915050565b61070f816108d7565b82525050565b61071e816108a7565b61072782610893565b60005b828110156107595761073d858351610706565b610746826108bd565b915060208501945060018101905061072a565b5050505050565b610769816108b2565b6107728261089d565b60005b828110156107a4576107888583516107ba565b610791826108ca565b9150604085019450600181019050610775565b5050505050565b6107b4816108f7565b82525050565b6040820160008201516107d06000850182610706565b5060208201516107e360208501826107ab565b50505050565b60006020820190506107fe6000830184610706565b92915050565b60006040820190506108196000830184610715565b92915050565b60006080820190506108346000830184610760565b92915050565b6000604051905081810181811067ffffffffffffffff8211171561085d57600080fd5b8060405250919050565b600067ffffffffffffffff82111561087e57600080fd5b601f19601f8301169050602081019050919050565b6000819050919050565b6000819050919050565b600060029050919050565b600060029050919050565b6000602082019050919050565b6000602082019050919050565b600073ffffffffffffffffffffffffffffffffffffffff82169050919050565b6000819050919050565b600073ffffffffffffffffffffffffffffffffffffffff82169050919050565b82818337600083830152505050565b6000816040518082805190602001908083835b6020831015156109685780518252602082019150602081019050602083039250610943565b6001836020036101000a038019825116818451168082178552505050505050905001915050604051809103902060001916836040518082805190602001908083835b6020831015156109cf57805182526020820191506020810190506020830392506109aa565b6001836020036101000a038019825116818451168082178552505050505050905001915050604051809103902060001916149050929150505600a265627a7a723058207d2a3be65d6b7581bd6b36ab922aa10b14d6980ce27eb14eb72ba2fdfc676a6d6c6578706572696d656e74616cf50037608060405234801561001057600080fd5b506040516080806104d483398101806040528101908080519060200190929190805190602001909291908051906020019092919080519060200190929190505050600033600260016101000a81548173ffffffffffffffffffffffffffffffffffffffff021916908373ffffffffffffffffffffffffffffffffffffffff16021790555082600460006101000a81548173ffffffffffffffffffffffffffffffffffffffff021916908373ffffffffffffffffffffffffffffffffffffffff16021790555083600360006101000a81548173ffffffffffffffffffffffffffffffffffffffff021916908373ffffffffffffffffffffffffffffffffffffffff16021790555084600081905550816001819055506000600260006101000a81548160ff021916908315150217905550600460009054906101000a900473ffffffffffffffffffffffffffffffffffffffff1690508073ffffffffffffffffffffffffffffffffffffffff16639cef7a5b600054600360009054906101000a900473ffffffffffffffffffffffffffffffffffffffff166040518363ffffffff167c0100000000000000000000000000000000000000000000000000000000028152600401808381526020018273ffffffffffffffffffffffffffffffffffffffff1673ffffffffffffffffffffffffffffffffffffffff16815260200192505050600060405180830381600087803b15801561022b57600080fd5b505af115801561023f573d6000803e3d6000fd5b50505050505050505061027d806102576000396000f30060806040526004361061006d576000357c0100000000000000000000000000000000000000000000000000000000900463ffffffff1680631b9265b814610072578063209652551461009457806331b2ffaf146100bf5780634212ed2614610116578063893d20e814610145575b600080fd5b61007a61019c565b604051808215151515815260200191505060405180910390f35b3480156100a057600080fd5b506100a96101dd565b6040518082815260200191505060405180910390f35b3480156100cb57600080fd5b506100d46101e6565b604051808273ffffffffffffffffffffffffffffffffffffffff1673ffffffffffffffffffffffffffffffffffffffff16815260200191505060405180910390f35b34801561012257600080fd5b5061012b610210565b604051808215151515815260200191505060405180910390f35b34801561015157600080fd5b5061015a610227565b604051808273ffffffffffffffffffffffffffffffffffffffff1673ffffffffffffffffffffffffffffffffffffffff16815260200191505060405180910390f35b60008054341415156101ad57600080fd5b6001600260006101000a81548160ff021916908315150217905550600260009054906101000a900460ff16905090565b60008054905090565b6000600360009054906101000a900473ffffffffffffffffffffffffffffffffffffffff16905090565b6000600260009054906101000a900460ff16905090565b6000600260019054906101000a900473ffffffffffffffffffffffffffffffffffffffff169050905600a165627a7a7230582036d87ce50b5fbaf92fdb787c422e90a9f45b9b7574f163d6984cf27ee27001ad0029a265627a7a72305820756b478e84135eb1e06e86463c0af90eaf088856d4090cac1a772191f6f0f87f6c6578706572696d656e74616cf500376080604052623d0900600855736f485c8bf6fc43ea212e93bbf8ce046c7f1cb4756000806101000a81548173ffffffffffffffffffffffffffffffffffffffff021916908373ffffffffffffffffffffffffffffffffffffffff160217905550620000c160017f01000000000000000000000000000000000000000000000000000000000000000260107f0100000000000000000000000000000000000000000000000000000000000000021762000108640100000000026401000000009004565b33600760006101000a81548173ffffffffffffffffffffffffffffffffffffffff021916908373ffffffffffffffffffffffffffffffffffffffff16021790555062000b0c565b60008060009054906101000a900473ffffffffffffffffffffffffffffffffffffffff1673ffffffffffffffffffffffffffffffffffffffff1614806200018957506000620001876000809054906101000a900473ffffffffffffffffffffffffffffffffffffffff16620004bc640100000000026401000000009004565b145b15620001ac57620001aa6000620004c7640100000000026401000000009004565b505b6000809054906101000a900473ffffffffffffffffffffffffffffffffffffffff1673ffffffffffffffffffffffffffffffffffffffff166338cc48316040518163ffffffff167c0100000000000000000000000000000000000000000000000000000000028152600401602060405180830381600087803b1580156200023257600080fd5b505af115801562000247573d6000803e3d6000fd5b505050506040513d60208110156200025e57600080fd5b810190808051906020019092919050505073ffffffffffffffffffffffffffffffffffffffff16600160009054906101000a900473ffffffffffffffffffffffffffffffffffffffff1673ffffffffffffffffffffffffffffffffffffffff16141515620003ca576000809054906101000a900473ffffffffffffffffffffffffffffffffffffffff1673ffffffffffffffffffffffffffffffffffffffff166338cc48316040518163ffffffff167c0100000000000000000000000000000000000000000000000000000000028152600401602060405180830381600087803b1580156200034c57600080fd5b505af115801562000361573d6000803e3d6000fd5b505050506040513d60208110156200037857600080fd5b8101908080519060200190929190505050600160006101000a81548173ffffffffffffffffffffffffffffffffffffffff021916908373ffffffffffffffffffffffffffffffffffffffff1602179055505b600160009054906101000a900473ffffffffffffffffffffffffffffffffffffffff1673ffffffffffffffffffffffffffffffffffffffff1663688dcfd7826040518263ffffffff167c010000000000000000000000000000000000000000000000000000000002815260040180827effffffffffffffffffffffffffffffffffffffffffffffffffffffffffffff19167effffffffffffffffffffffffffffffffffffffffffffffffffffffffffffff19168152602001915050600060405180830381600087803b158015620004a057600080fd5b505af1158015620004b5573d6000803e3d6000fd5b5050505050565b6000813b9050919050565b6000620004e2620004e9640100000000026401000000009004565b9050919050565b6000806200051a731d3b2638a7cc9f2cb3d298a3da7a90b67e5506ed620004bc640100000000026401000000009004565b1115620005ce57731d3b2638a7cc9f2cb3d298a3da7a90b67e5506ed6000806101000a81548173ffffffffffffffffffffffffffffffffffffffff021916908373ffffffffffffffffffffffffffffffffffffffff160217905550620005c46040805190810160405280600b81526020017f6574685f6d61696e6e657400000000000000000000000000000000000000000081525062000a41640100000000026401000000009004565b6001905062000a3e565b6000620005fe73c03a2615d5efaf5f49f60b7bb6583eaec212fdf1620004bc640100000000026401000000009004565b1115620006b25773c03a2615d5efaf5f49f60b7bb6583eaec212fdf16000806101000a81548173ffffffffffffffffffffffffffffffffffffffff021916908373ffffffffffffffffffffffffffffffffffffffff160217905550620006a86040805190810160405280600c81526020017f6574685f726f707374656e33000000000000000000000000000000000000000081525062000a41640100000000026401000000009004565b6001905062000a3e565b6000620006e273b7a07bcf2ba2f2703b24c0691b5278999c59ac7e620004bc640100000000026401000000009004565b1115620007965773b7a07bcf2ba2f2703b24c0691b5278999c59ac7e6000806101000a81548173ffffffffffffffffffffffffffffffffffffffff021916908373ffffffffffffffffffffffffffffffffffffffff1602179055506200078c6040805190810160405280600981526020017f6574685f6b6f76616e000000000000000000000000000000000000000000000081525062000a41640100000000026401000000009004565b6001905062000a3e565b6000620007c673146500cfd35b22e4a392fe0adc06de1a1368ed48620004bc640100000000026401000000009004565b11156200087a5773146500cfd35b22e4a392fe0adc06de1a1368ed486000806101000a81548173ffffffffffffffffffffffffffffffffffffffff021916908373ffffffffffffffffffffffffffffffffffffffff160217905550620008706040805190810160405280600b81526020017f6574685f72696e6b65627900000000000000000000000000000000000000000081525062000a41640100000000026401000000009004565b6001905062000a3e565b6000620008aa736f485c8bf6fc43ea212e93bbf8ce046c7f1cb475620004bc640100000000026401000000009004565b11156200090f57736f485c8bf6fc43ea212e93bbf8ce046c7f1cb4756000806101000a81548173ffffffffffffffffffffffffffffffffffffffff021916908373ffffffffffffffffffffffffffffffffffffffff1602179055506001905062000a3e565b60006200093f7320e12a1f859b3feae5fb2a0a32c18f5a65555bbf620004bc640100000000026401000000009004565b1115620009a4577320e12a1f859b3feae5fb2a0a32c18f5a65555bbf6000806101000a81548173ffffffffffffffffffffffffffffffffffffffff021916908373ffffffffffffffffffffffffffffffffffffffff1602179055506001905062000a3e565b6000620009d47351efaf4c8b3c9afbd5ab9f4bbc82784ab6ef8faa620004bc640100000000026401000000009004565b111562000a39577351efaf4c8b3c9afbd5ab9f4bbc82784ab6ef8faa6000806101000a81548173ffffffffffffffffffffffffffffffffffffffff021916908373ffffffffffffffffffffffffffffffffffffffff1602179055506001905062000a3e565b600090505b90565b806002908051906020019062000a5992919062000a5d565b5050565b828054600181600116156101000203166002900490600052602060002090601f016020900481019282601f1062000aa057805160ff191683800117855562000ad1565b8280016001018555821562000ad1579182015b8281111562000ad057825182559160200191906001019062000ab3565b5b50905062000ae0919062000ae4565b5090565b62000b0991905b8082111562000b0557600081600090555060010162000aeb565b5090565b90565b6133608062000b1c6000396000f30060806040526004361062000097576000357c0100000000000000000000000000000000000000000000000000000000900463ffffffff16806327dc297e146200009c57806338bbfa50146200011657806382636bd814620001d65780639c38dc92146200027a578063c1b1d06c146200031e578063c489991914620003c2578063cc9df7421462000466578063da1cc116146200050a575b600080fd5b348015620000a957600080fd5b50620001146004803603810190808035600019169060200190929190803590602001908201803590602001908080601f016020809104026020016040519081016040528093929190818152602001838380828437820191505050505050919291929050505062000568565b005b3480156200012357600080fd5b50620001d46004803603810190808035600019169060200190929190803590602001908201803590602001908080601f0160208091040260200160405190810160405280939291908181526020018383808284378201915050505050509192919290803590602001908201803590602001908080601f0160208091040260200160405190810160405280939291908181526020018383808284378201915050505050509192919290505050620008b5565b005b62000278600480360381019080803590602001908201803590602001908080601f0160208091040260200160405190810160405280939291908181526020018383808284378201915050505050509192919290803590602001908201803590602001908080601f0160208091040260200160405190810160405280939291908181526020018383808284378201915050505050509192919290505050620008ba565b005b6200031c600480360381019080803590602001908201803590602001908080601f0160208091040260200160405190810160405280939291908181526020018383808284378201915050505050509192919290803590602001908201803590602001908080601f016020809104026020016040519081016040528093929190818152602001838380828437820191505050505050919291929050505062000b18565b005b620003c0600480360381019080803590602001908201803590602001908080601f0160208091040260200160405190810160405280939291908181526020018383808284378201915050505050509192919290803590602001908201803590602001908080601f016020809104026020016040519081016040528093929190818152602001838380828437820191505050505050919291929050505062000d76565b005b62000464600480360381019080803590602001908201803590602001908080601f0160208091040260200160405190810160405280939291908181526020018383808284378201915050505050509192919290803590602001908201803590602001908080601f016020809104026020016040519081016040528093929190818152602001838380828437820191505050505050919291929050505062000ffe565b005b62000508600480360381019080803590602001908201803590602001908080601f0160208091040260200160405190810160405280939291908181526020018383808284378201915050505050509192919290803590602001908201803590602001908080601f01602080910402602001604051908101604052809392919081815260200183838082843782019150505050505091929192905050506200125c565b005b62000566600480360381019080803590602001908201803590602001908080601f0160208091040260200160405190810160405280939291908181526020018383808284378201915050505050509192919290505050620014ba565b005b6000806200057562001705565b73ffffffffffffffffffffffffffffffffffffffff163373ffffffffffffffffffffffffffffffffffffffff16141515620005af57600080fd5b60056000856000191660001916815260200190815260200160002054915060018214156200067c577f8655c5cfb1c5a83d9d6bc1412ec42f2ef81e85b5714e2627b4078576fba07a9f836040518080602001828103825283818151815260200191508051906020019080838360005b838110156200063b5780820151818401526020810190506200061e565b50505050905090810190601f168015620006695780820380516001836020036101000a031916815260200191505b509250505060405180910390a1620008af565b60028214156200072b577f8655c5cfb1c5a83d9d6bc1412ec42f2ef81e85b5714e2627b4078576fba07a9f836040518080602001828103825283818151815260200191508051906020019080838360005b83811015620006ea578082015181840152602081019050620006cd565b50505050905090810190601f168015620007185780820380516001836020036101000a031916815260200191505b509250505060405180910390a1620008ae565b6003821415620007da577f5b81f211753ecf8f010d9a311a6ec4a2f060d40ffe7bb868905b4f3eece480cb836040518080602001828103825283818151815260200191508051906020019080838360005b83811015620007995780820151818401526020810190506200077c565b50505050905090810190601f168015620007c75780820380516001836020036101000a031916815260200191505b509250505060405180910390a1620008ad565b6004821415620008ac576064734b0897b0513fdc7c541b6d9d7e929c4e5364d2db600760009054906101000a900473ffffffffffffffffffffffffffffffffffffffff1660016200082a62002da0565b808581526020018473ffffffffffffffffffffffffffffffffffffffff1681526020018373ffffffffffffffffffffffffffffffffffffffff1673ffffffffffffffffffffffffffffffffffffffff168152602001828152602001945050505050604051809103906000f080158015620008a8573d6000803e3d6000fd5b5090505b5b5b5b50505050565b505050565b60608060608060608060003073ffffffffffffffffffffffffffffffffffffffff16316200091d6040805190810160405280600381526020017f55524c000000000000000000000000000000000000000000000000000000000081525062001a73565b101562000b0d57606060405190810160405280602e81526020017f6a736f6e2868747470733a2f2f38332e3233312e31342e31373a333030322f4381526020017f4d452f636f6d707574655661522f00000000000000000000000000000000000081525096506040805190810160405280600481526020017f302e39350000000000000000000000000000000000000000000000000000000081525095506040805190810160405280600181526020017f2f0000000000000000000000000000000000000000000000000000000000000081525094506040805190810160405280600481526020017f2f292e2a00000000000000000000000000000000000000000000000000000000815250935062000a3a8787878c8962001e56565b925062000a4983898662002280565b915062000a8f6040805190810160405280600381526020017f55524c000000000000000000000000000000000000000000000000000000000081525083600854620022ba565b90503360066000836000191660001916815260200190815260200160002060006101000a81548173ffffffffffffffffffffffffffffffffffffffff021916908373ffffffffffffffffffffffffffffffffffffffff1602179055506004600560008360001916600019168152602001908152602001600020819055505b505050505050505050565b60608060608060608060003073ffffffffffffffffffffffffffffffffffffffff163162000b7b6040805190810160405280600381526020017f55524c000000000000000000000000000000000000000000000000000000000081525062001a73565b101562000d6b57606060405190810160405280602e81526020017f6a736f6e2868747470733a2f2f38332e3233312e31342e31373a333030322f4281526020017f4f452f636f6d707574655661522f00000000000000000000000000000000000081525096506040805190810160405280600481526020017f302e39350000000000000000000000000000000000000000000000000000000081525095506040805190810160405280600181526020017f2f0000000000000000000000000000000000000000000000000000000000000081525094506040805190810160405280600481526020017f2f292e2a00000000000000000000000000000000000000000000000000000000815250935062000c988787878c8962001e56565b925062000ca783898662002280565b915062000ced6040805190810160405280600381526020017f55524c000000000000000000000000000000000000000000000000000000000081525083600854620022ba565b90503360066000836000191660001916815260200190815260200160002060006101000a81548173ffffffffffffffffffffffffffffffffffffffff021916908373ffffffffffffffffffffffffffffffffffffffff1602179055506004600560008360001916600019168152602001908152602001600020819055505b505050505050505050565b606080606080606080606060003073ffffffffffffffffffffffffffffffffffffffff163162000ddb6040805190810160405280600381526020017f55524c000000000000000000000000000000000000000000000000000000000081525062001a73565b101562000ff257608060405190810160405280605681526020017f6a736f6e28687474703a2f2f646174612e66697865722e696f2f6170692f6c6181526020017f746573743f6163636573735f6b65793d6330366333626466356561356536356381526020017f3264666235373466373434373235633426626173653d0000000000000000000081525097508996506040805190810160405280600981526020017f2673796d626f6c733d000000000000000000000000000000000000000000000081525095508894506040805190810160405280600881526020017f292e72617465732e000000000000000000000000000000000000000000000000815250935062000eeb8888888862002888565b925062000efa83858762002280565b91507f621c2856e3b87f81235f8ac8a22bbb40a0142961960710d00b2b6c380902b57e6040518080602001828103825260358152602001807f4f7261636c697a65207175657279207761732073656e742c207374616e64696e81526020017f6720627920666f722074686520616e737765722e2e000000000000000000000081525060400191505060405180910390a162000fce6040805190810160405280600381526020017f55524c000000000000000000000000000000000000000000000000000000000081525083600854620022ba565b90506001600560008360001916600019168152602001908152602001600020819055505b50505050505050505050565b60608060608060608060003073ffffffffffffffffffffffffffffffffffffffff1631620010616040805190810160405280600381526020017f55524c000000000000000000000000000000000000000000000000000000000081525062001a73565b10156200125157606060405190810160405280603081526020017f6a736f6e2868747470733a2f2f38332e3233312e31342e31373a333030322f4581526020017f555245582f636f6d707574655661522f0000000000000000000000000000000081525096506040805190810160405280600481526020017f302e39350000000000000000000000000000000000000000000000000000000081525095506040805190810160405280600181526020017f2f0000000000000000000000000000000000000000000000000000000000000081525094506040805190810160405280600481526020017f2f292e2a0000000000000000000000000000000000000000000000000000000081525093506200117e8787878c8962001e56565b92506200118d83898662002280565b9150620011d36040805190810160405280600381526020017f55524c000000000000000000000000000000000000000000000000000000000081525083600854620022ba565b90503360066000836000191660001916815260200190815260200160002060006101000a81548173ffffffffffffffffffffffffffffffffffffffff021916908373ffffffffffffffffffffffffffffffffffffffff1602179055506004600560008360001916600019168152602001908152602001600020819055505b505050505050505050565b60608060608060608060003073ffffffffffffffffffffffffffffffffffffffff1631620012bf6040805190810160405280600381526020017f55524c000000000000000000000000000000000000000000000000000000000081525062001a73565b1015620014af57606060405190810160405280602e81526020017f6a736f6e2868747470733a2f2f38332e3233312e31342e31373a333030322f4281526020017f4f452f636f6d707574655661522f00000000000000000000000000000000000081525096506040805190810160405280600481526020017f302e39350000000000000000000000000000000000000000000000000000000081525095506040805190810160405280600181526020017f2f0000000000000000000000000000000000000000000000000000000000000081525094506040805190810160405280600481526020017f2f292e2a000000000000000000000000000000000000000000000000000000008152509350620013dc8787878c8962001e56565b9250620013eb83898662002280565b9150620014316040805190810160405280600381526020017f55524c000000000000000000000000000000000000000000000000000000000081525083600854620022ba565b90503360066000836000191660001916815260200190815260200160002060006101000a81548173ffffffffffffffffffffffffffffffffffffffff021916908373ffffffffffffffffffffffffffffffffffffffff1602179055506004600560008360001916600019168152602001908152602001600020819055505b505050505050505050565b606080606080606060003073ffffffffffffffffffffffffffffffffffffffff16316200151c6040805190810160405280600381526020017f55524c000000000000000000000000000000000000000000000000000000000081525062001a73565b1015620016fc57606060405190810160405280603481526020017f6a736f6e2868747470733a2f2f6170692e6b72616b656e2e636f6d2f302f707581526020017f626c69632f5469636b65723f706169723d45544800000000000000000000000081525095508694506040805190810160405280600e81526020017f292e726573756c742e584554485a00000000000000000000000000000000000081525093506040805190810160405280600481526020017f2e632e3000000000000000000000000000000000000000000000000000000000815250925062001604868686888762001e56565b91507f621c2856e3b87f81235f8ac8a22bbb40a0142961960710d00b2b6c380902b57e6040518080602001828103825260358152602001807f4f7261636c697a65207175657279207761732073656e742c207374616e64696e81526020017f6720627920666f722074686520616e737765722e2e000000000000000000000081525060400191505060405180910390a1620016d86040805190810160405280600381526020017f55524c000000000000000000000000000000000000000000000000000000000081525083600854620022ba565b90506003600560008360001916600019168152602001908152602001600020819055505b50505050505050565b6000806000809054906101000a900473ffffffffffffffffffffffffffffffffffffffff1673ffffffffffffffffffffffffffffffffffffffff1614806200177857506000620017766000809054906101000a900473ffffffffffffffffffffffffffffffffffffffff16620028b3565b145b156200178c576200178a6000620028be565b505b6000809054906101000a900473ffffffffffffffffffffffffffffffffffffffff1673ffffffffffffffffffffffffffffffffffffffff166338cc48316040518163ffffffff167c0100000000000000000000000000000000000000000000000000000000028152600401602060405180830381600087803b1580156200181257600080fd5b505af115801562001827573d6000803e3d6000fd5b505050506040513d60208110156200183e57600080fd5b810190808051906020019092919050505073ffffffffffffffffffffffffffffffffffffffff16600160009054906101000a900473ffffffffffffffffffffffffffffffffffffffff1673ffffffffffffffffffffffffffffffffffffffff16141515620019aa576000809054906101000a900473ffffffffffffffffffffffffffffffffffffffff1673ffffffffffffffffffffffffffffffffffffffff166338cc48316040518163ffffffff167c0100000000000000000000000000000000000000000000000000000000028152600401602060405180830381600087803b1580156200192c57600080fd5b505af115801562001941573d6000803e3d6000fd5b505050506040513d60208110156200195857600080fd5b8101908080519060200190929190505050600160006101000a81548173ffffffffffffffffffffffffffffffffffffffff021916908373ffffffffffffffffffffffffffffffffffffffff1602179055505b600160009054906101000a900473ffffffffffffffffffffffffffffffffffffffff1673ffffffffffffffffffffffffffffffffffffffff1663c281d19e6040518163ffffffff167c0100000000000000000000000000000000000000000000000000000000028152600401602060405180830381600087803b15801562001a3157600080fd5b505af115801562001a46573d6000803e3d6000fd5b505050506040513d602081101562001a5d57600080fd5b8101908080519060200190929190505050905090565b6000806000809054906101000a900473ffffffffffffffffffffffffffffffffffffffff1673ffffffffffffffffffffffffffffffffffffffff16148062001ae65750600062001ae46000809054906101000a900473ffffffffffffffffffffffffffffffffffffffff16620028b3565b145b1562001afa5762001af86000620028be565b505b6000809054906101000a900473ffffffffffffffffffffffffffffffffffffffff1673ffffffffffffffffffffffffffffffffffffffff166338cc48316040518163ffffffff167c0100000000000000000000000000000000000000000000000000000000028152600401602060405180830381600087803b15801562001b8057600080fd5b505af115801562001b95573d6000803e3d6000fd5b505050506040513d602081101562001bac57600080fd5b810190808051906020019092919050505073ffffffffffffffffffffffffffffffffffffffff16600160009054906101000a900473ffffffffffffffffffffffffffffffffffffffff1673ffffffffffffffffffffffffffffffffffffffff1614151562001d18576000809054906101000a900473ffffffffffffffffffffffffffffffffffffffff1673ffffffffffffffffffffffffffffffffffffffff166338cc48316040518163ffffffff167c0100000000000000000000000000000000000000000000000000000000028152600401602060405180830381600087803b15801562001c9a57600080fd5b505af115801562001caf573d6000803e3d6000fd5b505050506040513d602081101562001cc657600080fd5b8101908080519060200190929190505050600160006101000a81548173ffffffffffffffffffffffffffffffffffffffff021916908373ffffffffffffffffffffffffffffffffffffffff1602179055505b600160009054906101000a900473ffffffffffffffffffffffffffffffffffffffff1673ffffffffffffffffffffffffffffffffffffffff1663524f3889836040518263ffffffff167c01000000000000000000000000000000000000000000000000000000000281526004018080602001828103825283818151815260200191508051906020019080838360005b8381101562001dc457808201518184015260208101905062001da7565b50505050905090810190601f16801562001df25780820380516001836020036101000a031916815260200191505b5092505050602060405180830381600087803b15801562001e1257600080fd5b505af115801562001e27573d6000803e3d6000fd5b505050506040513d602081101562001e3e57600080fd5b81019080805190602001909291905050509050919050565b6060806060806060806060806000808e98508d97508c96508b95508a94508451865188518a518c51010101016040519080825280601f01601f19166020018201604052801562001eb55781602001602082028038833980820191505090505b50935083925060009150600090505b885181101562001f7b57888181518110151562001edd57fe5b9060200101517f010000000000000000000000000000000000000000000000000000000000000090047f010000000000000000000000000000000000000000000000000000000000000002838380600101945081518110151562001f3d57fe5b9060200101907effffffffffffffffffffffffffffffffffffffffffffffffffffffffffffff1916908160001a905350808060010191505062001ec4565b600090505b87518110156200203757878181518110151562001f9957fe5b9060200101517f010000000000000000000000000000000000000000000000000000000000000090047f010000000000000000000000000000000000000000000000000000000000000002838380600101945081518110151562001ff957fe5b9060200101907effffffffffffffffffffffffffffffffffffffffffffffffffffffffffffff1916908160001a905350808060010191505062001f80565b600090505b8651811015620020f35786818151811015156200205557fe5b9060200101517f010000000000000000000000000000000000000000000000000000000000000090047f0100000000000000000000000000000000000000000000000000000000000000028383806001019450815181101515620020b557fe5b9060200101907effffffffffffffffffffffffffffffffffffffffffffffffffffffffffffff1916908160001a90535080806001019150506200203c565b600090505b8551811015620021af5785818151811015156200211157fe5b9060200101517f010000000000000000000000000000000000000000000000000000000000000090047f01000000000000000000000000000000000000000000000000000000000000000283838060010194508151811015156200217157fe5b9060200101907effffffffffffffffffffffffffffffffffffffffffffffffffffffffffffff1916908160001a9053508080600101915050620020f8565b600090505b84518110156200226b578481815181101515620021cd57fe5b9060200101517f010000000000000000000000000000000000000000000000000000000000000090047f01000000000000000000000000000000000000000000000000000000000000000283838060010194508151811015156200222d57fe5b9060200101907effffffffffffffffffffffffffffffffffffffffffffffffffffffffffffff1916908160001a9053508080600101915050620021b4565b82995050505050505050505095945050505050565b6060620022b18484846020604051908101604052806000815250602060405190810160405280600081525062001e56565b90509392505050565b60008060008060009054906101000a900473ffffffffffffffffffffffffffffffffffffffff1673ffffffffffffffffffffffffffffffffffffffff1614806200232f575060006200232d6000809054906101000a900473ffffffffffffffffffffffffffffffffffffffff16620028b3565b145b156200234357620023416000620028be565b505b6000809054906101000a900473ffffffffffffffffffffffffffffffffffffffff1673ffffffffffffffffffffffffffffffffffffffff166338cc48316040518163ffffffff167c0100000000000000000000000000000000000000000000000000000000028152600401602060405180830381600087803b158015620023c957600080fd5b505af1158015620023de573d6000803e3d6000fd5b505050506040513d6020811015620023f557600080fd5b810190808051906020019092919050505073ffffffffffffffffffffffffffffffffffffffff16600160009054906101000a900473ffffffffffffffffffffffffffffffffffffffff1673ffffffffffffffffffffffffffffffffffffffff1614151562002561576000809054906101000a900473ffffffffffffffffffffffffffffffffffffffff1673ffffffffffffffffffffffffffffffffffffffff166338cc48316040518163ffffffff167c0100000000000000000000000000000000000000000000000000000000028152600401602060405180830381600087803b158015620024e357600080fd5b505af1158015620024f8573d6000803e3d6000fd5b505050506040513d60208110156200250f57600080fd5b8101908080519060200190929190505050600160006101000a81548173ffffffffffffffffffffffffffffffffffffffff021916908373ffffffffffffffffffffffffffffffffffffffff1602179055505b600160009054906101000a900473ffffffffffffffffffffffffffffffffffffffff1673ffffffffffffffffffffffffffffffffffffffff16632ef3accc86856040518363ffffffff167c01000000000000000000000000000000000000000000000000000000000281526004018080602001838152602001828103825284818151815260200191508051906020019080838360005b8381101562002614578082015181840152602081019050620025f7565b50505050905090810190601f168015620026425780820380516001836020036101000a031916815260200191505b509350505050602060405180830381600087803b1580156200266357600080fd5b505af115801562002678573d6000803e3d6000fd5b505050506040513d60208110156200268f57600080fd5b81019080805190602001909291905050509050823a02670de0b6b3a764000001811115620026c4576000600102915062002880565b600160009054906101000a900473ffffffffffffffffffffffffffffffffffffffff1673ffffffffffffffffffffffffffffffffffffffff1663c51be90f8260008888886040518663ffffffff167c0100000000000000000000000000000000000000000000000000000000028152600401808581526020018060200180602001848152602001838103835286818151815260200191508051906020019080838360005b838110156200278557808201518184015260208101905062002768565b50505050905090810190601f168015620027b35780820380516001836020036101000a031916815260200191505b50838103825285818151815260200191508051906020019080838360005b83811015620027ee578082015181840152602081019050620027d1565b50505050905090810190601f1680156200281c5780820380516001836020036101000a031916815260200191505b5096505050505050506020604051808303818588803b1580156200283f57600080fd5b505af115801562002854573d6000803e3d6000fd5b50505050506040513d60208110156200286c57600080fd5b810190808051906020019092919050505091505b509392505050565b6060620028a985858585602060405190810160405280600081525062001e56565b9050949350505050565b6000813b9050919050565b6000620028ca620028d1565b9050919050565b600080620028f3731d3b2638a7cc9f2cb3d298a3da7a90b67e5506ed620028b3565b11156200299857731d3b2638a7cc9f2cb3d298a3da7a90b67e5506ed6000806101000a81548173ffffffffffffffffffffffffffffffffffffffff021916908373ffffffffffffffffffffffffffffffffffffffff1602179055506200298e6040805190810160405280600b81526020017f6574685f6d61696e6e657400000000000000000000000000000000000000000081525062002d84565b6001905062002d81565b6000620029b973c03a2615d5efaf5f49f60b7bb6583eaec212fdf1620028b3565b111562002a5e5773c03a2615d5efaf5f49f60b7bb6583eaec212fdf16000806101000a81548173ffffffffffffffffffffffffffffffffffffffff021916908373ffffffffffffffffffffffffffffffffffffffff16021790555062002a546040805190810160405280600c81526020017f6574685f726f707374656e33000000000000000000000000000000000000000081525062002d84565b6001905062002d81565b600062002a7f73b7a07bcf2ba2f2703b24c0691b5278999c59ac7e620028b3565b111562002b245773b7a07bcf2ba2f2703b24c0691b5278999c59ac7e6000806101000a81548173ffffffffffffffffffffffffffffffffffffffff021916908373ffffffffffffffffffffffffffffffffffffffff16021790555062002b1a6040805190810160405280600981526020017f6574685f6b6f76616e000000000000000000000000000000000000000000000081525062002d84565b6001905062002d81565b600062002b4573146500cfd35b22e4a392fe0adc06de1a1368ed48620028b3565b111562002bea5773146500cfd35b22e4a392fe0adc06de1a1368ed486000806101000a81548173ffffffffffffffffffffffffffffffffffffffff021916908373ffffffffffffffffffffffffffffffffffffffff16021790555062002be06040805190810160405280600b81526020017f6574685f72696e6b65627900000000000000000000000000000000000000000081525062002d84565b6001905062002d81565b600062002c0b736f485c8bf6fc43ea212e93bbf8ce046c7f1cb475620028b3565b111562002c7057736f485c8bf6fc43ea212e93bbf8ce046c7f1cb4756000806101000a81548173ffffffffffffffffffffffffffffffffffffffff021916908373ffffffffffffffffffffffffffffffffffffffff1602179055506001905062002d81565b600062002c917320e12a1f859b3feae5fb2a0a32c18f5a65555bbf620028b3565b111562002cf6577320e12a1f859b3feae5fb2a0a32c18f5a65555bbf6000806101000a81548173ffffffffffffffffffffffffffffffffffffffff021916908373ffffffffffffffffffffffffffffffffffffffff1602179055506001905062002d81565b600062002d177351efaf4c8b3c9afbd5ab9f4bbc82784ab6ef8faa620028b3565b111562002d7c577351efaf4c8b3c9afbd5ab9f4bbc82784ab6ef8faa6000806101000a81548173ffffffffffffffffffffffffffffffffffffffff021916908373ffffffffffffffffffffffffffffffffffffffff1602179055506001905062002d81565b600090505b90565b806002908051906020019062002d9c92919062002db1565b5050565b6040516104d48062002e6183390190565b828054600181600116156101000203166002900490600052602060002090601f016020900481019282601f1062002df457805160ff191683800117855562002e25565b8280016001018555821562002e25579182015b8281111562002e2457825182559160200191906001019062002e07565b5b50905062002e34919062002e38565b5090565b62002e5d91905b8082111562002e5957600081600090555060010162002e3f565b5090565b905600608060405234801561001057600080fd5b506040516080806104d483398101806040528101908080519060200190929190805190602001909291908051906020019092919080519060200190929190505050600033600260016101000a81548173ffffffffffffffffffffffffffffffffffffffff021916908373ffffffffffffffffffffffffffffffffffffffff16021790555082600460006101000a81548173ffffffffffffffffffffffffffffffffffffffff021916908373ffffffffffffffffffffffffffffffffffffffff16021790555083600360006101000a81548173ffffffffffffffffffffffffffffffffffffffff021916908373ffffffffffffffffffffffffffffffffffffffff16021790555084600081905550816001819055506000600260006101000a81548160ff021916908315150217905550600460009054906101000a900473ffffffffffffffffffffffffffffffffffffffff1690508073ffffffffffffffffffffffffffffffffffffffff16639cef7a5b600054600360009054906101000a900473ffffffffffffffffffffffffffffffffffffffff166040518363ffffffff167c0100000000000000000000000000000000000000000000000000000000028152600401808381526020018273ffffffffffffffffffffffffffffffffffffffff1673ffffffffffffffffffffffffffffffffffffffff16815260200192505050600060405180830381600087803b15801561022b57600080fd5b505af115801561023f573d6000803e3d6000fd5b50505050505050505061027d806102576000396000f30060806040526004361061006d576000357c0100000000000000000000000000000000000000000000000000000000900463ffffffff1680631b9265b814610072578063209652551461009457806331b2ffaf146100bf5780634212ed2614610116578063893d20e814610145575b600080fd5b61007a61019c565b604051808215151515815260200191505060405180910390f35b3480156100a057600080fd5b506100a96101dd565b6040518082815260200191505060405180910390f35b3480156100cb57600080fd5b506100d46101e6565b604051808273ffffffffffffffffffffffffffffffffffffffff1673ffffffffffffffffffffffffffffffffffffffff16815260200191505060405180910390f35b34801561012257600080fd5b5061012b610210565b604051808215151515815260200191505060405180910390f35b34801561015157600080fd5b5061015a610227565b604051808273ffffffffffffffffffffffffffffffffffffffff1673ffffffffffffffffffffffffffffffffffffffff16815260200191505060405180910390f35b60008054341415156101ad57600080fd5b6001600260006101000a81548160ff021916908315150217905550600260009054906101000a900460ff16905090565b60008054905090565b6000600360009054906101000a900473ffffffffffffffffffffffffffffffffffffffff16905090565b6000600260009054906101000a900460ff16905090565b6000600260019054906101000a900473ffffffffffffffffffffffffffffffffffffffff169050905600a165627a7a7230582036d87ce50b5fbaf92fdb787c422e90a9f45b9b7574f163d6984cf27ee27001ad0029a165627a7a723058200c3429fb37cc74adbc485e3df71aa095d2ca8160c5e22cf7ee83ed708d2ba4100029",
  "source": "pragma solidity ^0.4.20;\n\nimport \"./strings.sol\";\n\nimport \"./Utils.sol\";\nimport \"./OrderBook.sol\";\nimport \"./CompensationChamber.sol\";\nimport \"./PaymentRequest.sol\";\n\ncontract Market\n{\n    address compensationChamberAddress;\n    address owner;\n\n    mapping (string => address) mapInstrumentIdToOrderBookAddress;\n\n    modifier onlyCCP()\n    {\n        require (msg.sender == compensationChamberAddress);\n        _;\n    }\n\n    modifier onlyOwner()\n    {\n        require (msg.sender == owner);\n        _;\n    }\n\n    event logRegInfo(string getString);\n    event logString(string getString);\n\n    event logBytes32(bytes32 getBytes32);\n\n    function Market(uint timestampUntilNextVMRevision) public payable\n    {\n        require (msg.value >= 15 ether);\n\n        owner = msg.sender;\n        compensationChamberAddress = (new CompensationChamber).value(12 ether)(timestampUntilNextVMRevision);\n    }\n\n    function addClearingMember(string _name, string _email, string _password) public returns (int)\n    {\n       //Start for test\n      CompensationChamber _compensationChamber = CompensationChamber(compensationChamberAddress);\n      int addressID = _compensationChamber.addClearingMember(_name, _email, msg.sender, _password);\n\n      if (addressID == -1)\n      {\n          logRegInfo(\"This email is alredy register\");\n      }\n      else\n      {\n          logRegInfo(\"Registration done!\");\n      }\n      return addressID;\n      // End for test\n    }\n\n    event logPaymentRequestAddress(address paymentRequestAddress, uint value, address clearingMemberAddress);\n\n    function paymentRequest(address _paymentRequestAddress, uint _value, address _clearingMemberAddress) public onlyCCP\n    {\n        logPaymentRequestAddress(_paymentRequestAddress, _value, _clearingMemberAddress);\n    }\n\n    function payPaymentRequest(address _paymentRequestAddress) public payable\n    {\n        PaymentRequest _paymentRequestContract = PaymentRequest(_paymentRequestAddress);\n\n        require (_paymentRequestContract.getValue() <= msg.value);\n        bool result = _paymentRequestContract.pay.value(msg.value)();\n\n        if (result == true)\n        {\n            string memory _result = Utils.strConcat(\"Payment request \", Utils.addressToString(_paymentRequestAddress), \"Payed successfully\");\n            logString(_result);\n        }\n    }\n\n    function addNewDerivative (string _instrumentID, string _market, Utils.instrumentType _instrumentType, uint _settlementTimestamp) public /*onlyOwner*/ payable\n    {\n        mapInstrumentIdToOrderBookAddress[_instrumentID] = new OrderBook(_instrumentID, _market, _instrumentType, _settlementTimestamp);\n    }\n\n    function addFutureToCCP(address _longClearingMemberAddress, address _shortClearingMemberAddress, string _instrumentID, string _amount, string _price, uint _settlementTimestamp, string  _market) public\n    {\n        CompensationChamber _compensationChamber = CompensationChamber(compensationChamberAddress);\n        _compensationChamber.futureNovation.value(1 ether)(_longClearingMemberAddress, _shortClearingMemberAddress, _instrumentID, _amount, _price, _settlementTimestamp, _market);\n    }\n\n    function addOrder(string _instrumentID, uint _quantity, uint _price, string _type) public payable\n    {\n        require (this.balance >= 1 ether);\n        address _orderBookAddress = mapInstrumentIdToOrderBookAddress[_instrumentID];\n\n        if (_orderBookAddress != 0)\n        {\n            OrderBook _orderBook = OrderBook(_orderBookAddress);\n\n            if (Utils.compareStrings(_type, \"BUY\"))\n            {\n                _orderBook.addBuyOrder(msg.sender, _quantity, _price);\n            }\n            else if (Utils.compareStrings(_type, \"SELL\"))\n            {\n                _orderBook.addSellOrder(msg.sender, _quantity, _price);\n            }\n        }\n    }\n\n    function signIn(string _email, string _password) public returns (int)\n    {\n      CompensationChamber _compensationChamber = CompensationChamber(compensationChamberAddress);\n      int addressID =_compensationChamber.checkSignInEmailAndPassword(_email, _password);\n\n      return addressID;\n    }\n}\n",
  "sourcePath": "/home/dtm/Desktop/TFM/DAPPS/CompensationChamber/contracts/Market.sol",
  "compiler": {
    "name": "solc",
    "version": "0.4.24+commit.e67f0147.Emscripten.clang"
  },
  "schemaVersion": "2.0.1",
  "updatedAt": "2018-07-17T09:00:53.722Z"
}