{
  "contractName": "MarketData",
  "abi": [
    {
      "inputs": [],
      "payable": true,
      "stateMutability": "payable",
      "type": "constructor"
    },
    {
      "anonymous": false,
      "inputs": [
        {
          "indexed": false,
          "name": "description",
          "type": "string"
        }
      ],
      "name": "LogNewOraclizeQuery",
      "type": "event"
    },
    {
      "anonymous": false,
      "inputs": [
        {
          "indexed": false,
          "name": "currExchange",
          "type": "string"
        }
      ],
      "name": "returnCurrencyExchange",
      "type": "event"
    },
    {
      "anonymous": false,
      "inputs": [
        {
          "indexed": false,
          "name": "ethPrice",
          "type": "string"
        }
      ],
      "name": "returnETHPrice",
      "type": "event"
    },
    {
      "anonymous": false,
      "inputs": [
        {
          "indexed": false,
          "name": "log",
          "type": "string"
        }
      ],
      "name": "callbackRuning",
      "type": "event"
    },
    {
      "constant": false,
      "inputs": [
        {
          "name": "_base",
          "type": "string"
        },
        {
          "name": "_secundary",
          "type": "string"
        }
      ],
      "name": "getCurrencyExchange",
      "outputs": [],
      "payable": true,
      "stateMutability": "payable",
      "type": "function"
    },
    {
      "constant": false,
      "inputs": [
        {
          "name": "_baseCurrency",
          "type": "string"
        }
      ],
      "name": "getETHPrice",
      "outputs": [],
      "payable": true,
      "stateMutability": "payable",
      "type": "function"
    },
    {
      "constant": false,
      "inputs": [
        {
          "name": "_nominal",
          "type": "string"
        },
        {
          "name": "_instrumentID",
          "type": "string"
        }
      ],
      "name": "getIMFutureBOE",
      "outputs": [],
      "payable": true,
      "stateMutability": "payable",
      "type": "function"
    },
    {
      "constant": false,
      "inputs": [
        {
          "name": "_nominal",
          "type": "string"
        },
        {
          "name": "_instrumentID",
          "type": "string"
        }
      ],
      "name": "getIMFutureEUREX",
      "outputs": [],
      "payable": true,
      "stateMutability": "payable",
      "type": "function"
    },
    {
      "constant": false,
      "inputs": [
        {
          "name": "_nominal",
          "type": "string"
        },
        {
          "name": "_instrumentID",
          "type": "string"
        }
      ],
      "name": "getIMFutureCME",
      "outputs": [],
      "payable": true,
      "stateMutability": "payable",
      "type": "function"
    },
    {
      "constant": false,
      "inputs": [
        {
          "name": "_nominal",
          "type": "string"
        },
        {
          "name": "_instrumentID",
          "type": "string"
        }
      ],
      "name": "getIMSwap",
      "outputs": [],
      "payable": true,
      "stateMutability": "payable",
      "type": "function"
    },
    {
      "constant": false,
      "inputs": [
        {
          "name": "myid",
          "type": "bytes32"
        },
        {
          "name": "result",
          "type": "string"
        }
      ],
      "name": "__callback",
      "outputs": [],
      "payable": false,
      "stateMutability": "nonpayable",
      "type": "function"
    },
    {
      "constant": false,
      "inputs": [
        {
          "name": "myid",
          "type": "bytes32"
        },
        {
          "name": "result",
          "type": "string"
        },
        {
          "name": "proof",
          "type": "bytes"
        }
      ],
      "name": "__callback",
      "outputs": [],
      "payable": false,
      "stateMutability": "nonpayable",
      "type": "function"
    }
  ],
  "bytecode": "0x6080604052623d0900600855736f485c8bf6fc43ea212e93bbf8ce046c7f1cb4756000806101000a81548173ffffffffffffffffffffffffffffffffffffffff021916908373ffffffffffffffffffffffffffffffffffffffff160217905550620000c160017f01000000000000000000000000000000000000000000000000000000000000000260107f0100000000000000000000000000000000000000000000000000000000000000021762000108640100000000026401000000009004565b33600760006101000a81548173ffffffffffffffffffffffffffffffffffffffff021916908373ffffffffffffffffffffffffffffffffffffffff16021790555062000b82565b60008060009054906101000a900473ffffffffffffffffffffffffffffffffffffffff1673ffffffffffffffffffffffffffffffffffffffff1614806200018957506000620001876000809054906101000a900473ffffffffffffffffffffffffffffffffffffffff1662000476640100000000026401000000009004565b145b15620001ac57620001aa600062000481640100000000026401000000009004565b505b6000809054906101000a900473ffffffffffffffffffffffffffffffffffffffff1673ffffffffffffffffffffffffffffffffffffffff166338cc48316040518163ffffffff167c0100000000000000000000000000000000000000000000000000000000028152600401602060405180830381600087803b1580156200023257600080fd5b505af115801562000247573d6000803e3d6000fd5b505050506040513d601f19601f820116820180604052506200026d919081019062000adc565b73ffffffffffffffffffffffffffffffffffffffff16600160009054906101000a900473ffffffffffffffffffffffffffffffffffffffff1673ffffffffffffffffffffffffffffffffffffffff16141515620003c6576000809054906101000a900473ffffffffffffffffffffffffffffffffffffffff1673ffffffffffffffffffffffffffffffffffffffff166338cc48316040518163ffffffff167c0100000000000000000000000000000000000000000000000000000000028152600401602060405180830381600087803b1580156200034a57600080fd5b505af11580156200035f573d6000803e3d6000fd5b505050506040513d601f19601f8201168201806040525062000385919081019062000adc565b600160006101000a81548173ffffffffffffffffffffffffffffffffffffffff021916908373ffffffffffffffffffffffffffffffffffffffff1602179055505b600160009054906101000a900473ffffffffffffffffffffffffffffffffffffffff1673ffffffffffffffffffffffffffffffffffffffff1663688dcfd7826040518263ffffffff167c01000000000000000000000000000000000000000000000000000000000281526004016200043f919062000b19565b600060405180830381600087803b1580156200045a57600080fd5b505af11580156200046f573d6000803e3d6000fd5b5050505050565b6000813b9050919050565b60006200049c620004a3640100000000026401000000009004565b9050919050565b600080620004d4731d3b2638a7cc9f2cb3d298a3da7a90b67e5506ed62000476640100000000026401000000009004565b11156200058857731d3b2638a7cc9f2cb3d298a3da7a90b67e5506ed6000806101000a81548173ffffffffffffffffffffffffffffffffffffffff021916908373ffffffffffffffffffffffffffffffffffffffff1602179055506200057e6040805190810160405280600b81526020017f6574685f6d61696e6e6574000000000000000000000000000000000000000000815250620009fb640100000000026401000000009004565b60019050620009f8565b6000620005b873c03a2615d5efaf5f49f60b7bb6583eaec212fdf162000476640100000000026401000000009004565b11156200066c5773c03a2615d5efaf5f49f60b7bb6583eaec212fdf16000806101000a81548173ffffffffffffffffffffffffffffffffffffffff021916908373ffffffffffffffffffffffffffffffffffffffff160217905550620006626040805190810160405280600c81526020017f6574685f726f707374656e330000000000000000000000000000000000000000815250620009fb640100000000026401000000009004565b60019050620009f8565b60006200069c73b7a07bcf2ba2f2703b24c0691b5278999c59ac7e62000476640100000000026401000000009004565b1115620007505773b7a07bcf2ba2f2703b24c0691b5278999c59ac7e6000806101000a81548173ffffffffffffffffffffffffffffffffffffffff021916908373ffffffffffffffffffffffffffffffffffffffff160217905550620007466040805190810160405280600981526020017f6574685f6b6f76616e0000000000000000000000000000000000000000000000815250620009fb640100000000026401000000009004565b60019050620009f8565b60006200078073146500cfd35b22e4a392fe0adc06de1a1368ed4862000476640100000000026401000000009004565b1115620008345773146500cfd35b22e4a392fe0adc06de1a1368ed486000806101000a81548173ffffffffffffffffffffffffffffffffffffffff021916908373ffffffffffffffffffffffffffffffffffffffff1602179055506200082a6040805190810160405280600b81526020017f6574685f72696e6b656279000000000000000000000000000000000000000000815250620009fb640100000000026401000000009004565b60019050620009f8565b600062000864736f485c8bf6fc43ea212e93bbf8ce046c7f1cb47562000476640100000000026401000000009004565b1115620008c957736f485c8bf6fc43ea212e93bbf8ce046c7f1cb4756000806101000a81548173ffffffffffffffffffffffffffffffffffffffff021916908373ffffffffffffffffffffffffffffffffffffffff16021790555060019050620009f8565b6000620008f97320e12a1f859b3feae5fb2a0a32c18f5a65555bbf62000476640100000000026401000000009004565b11156200095e577320e12a1f859b3feae5fb2a0a32c18f5a65555bbf6000806101000a81548173ffffffffffffffffffffffffffffffffffffffff021916908373ffffffffffffffffffffffffffffffffffffffff16021790555060019050620009f8565b60006200098e7351efaf4c8b3c9afbd5ab9f4bbc82784ab6ef8faa62000476640100000000026401000000009004565b1115620009f3577351efaf4c8b3c9afbd5ab9f4bbc82784ab6ef8faa6000806101000a81548173ffffffffffffffffffffffffffffffffffffffff021916908373ffffffffffffffffffffffffffffffffffffffff16021790555060019050620009f8565b600090505b90565b806002908051906020019062000a1392919062000a17565b5050565b828054600181600116156101000203166002900490600052602060002090601f016020900481019282601f1062000a5a57805160ff191683800117855562000a8b565b8280016001018555821562000a8b579182015b8281111562000a8a57825182559160200191906001019062000a6d565b5b50905062000a9a919062000a9e565b5090565b62000ac391905b8082111562000abf57600081600090555060010162000aa5565b5090565b90565b600062000ad4825162000b62565b905092915050565b60006020828403121562000aef57600080fd5b600062000aff8482850162000ac6565b91505092915050565b62000b138162000b36565b82525050565b600060208201905062000b30600083018462000b08565b92915050565b60007fff0000000000000000000000000000000000000000000000000000000000000082169050919050565b600073ffffffffffffffffffffffffffffffffffffffff82169050919050565b6132b08062000b926000396000f30060806040526004361062000097576000357c0100000000000000000000000000000000000000000000000000000000900463ffffffff16806327dc297e146200009c57806338bbfa5014620000ca57806382636bd814620000f85780639c38dc921462000118578063c1b1d06c1462000138578063c48999191462000158578063cc9df7421462000178578063da1cc1161462000198575b600080fd5b348015620000a957600080fd5b50620000c86004803603620000c2919081019062002824565b620001b8565b005b348015620000d757600080fd5b50620000f66004803603620000f091908101906200287e565b62000381565b005b6200011660048036036200011091908101906200294b565b62000386565b005b6200013660048036036200013091908101906200294b565b620005e4565b005b6200015660048036036200015091908101906200294b565b62000842565b005b6200017660048036036200017091908101906200294b565b62000a73565b005b6200019660048036036200019091908101906200294b565b62000cd1565b005b620001b66004803603620001b0919081019062002906565b62000f2f565b005b600080620001c562001123565b73ffffffffffffffffffffffffffffffffffffffff163373ffffffffffffffffffffffffffffffffffffffff16141515620001ff57600080fd5b600560008560001916600019168152602001908152602001600020549150600182141562000266577f8655c5cfb1c5a83d9d6bc1412ec42f2ef81e85b5714e2627b4078576fba07a9f8360405162000258919062002b91565b60405180910390a16200037b565b6002821415620002af577f8655c5cfb1c5a83d9d6bc1412ec42f2ef81e85b5714e2627b4078576fba07a9f83604051620002a1919062002b91565b60405180910390a16200037a565b6003821415620002f8577f5b81f211753ecf8f010d9a311a6ec4a2f060d40ffe7bb868905b4f3eece480cb83604051620002ea919062002b91565b60405180910390a162000379565b600482141562000378576064734b0897b0513fdc7c541b6d9d7e929c4e5364d2db600760009054906101000a900473ffffffffffffffffffffffffffffffffffffffff16600162000348620025f8565b62000357949392919062002b44565b604051809103906000f08015801562000374573d6000803e3d6000fd5b5090505b5b5b5b50505050565b505050565b60608060608060608060003073ffffffffffffffffffffffffffffffffffffffff1631620003e96040805190810160405280600381526020017f55524c00000000000000000000000000000000000000000000000000000000008152506200148b565b1015620005d957606060405190810160405280602e81526020017f6a736f6e2868747470733a2f2f38332e3233312e31342e31373a333030322f4381526020017f4d452f636f6d707574655661522f00000000000000000000000000000000000081525096506040805190810160405280600481526020017f302e39350000000000000000000000000000000000000000000000000000000081525095506040805190810160405280600181526020017f2f0000000000000000000000000000000000000000000000000000000000000081525094506040805190810160405280600481526020017f2f292e2a000000000000000000000000000000000000000000000000000000008152509350620005068787878c8962001802565b92506200051583898662001c2c565b91506200055b6040805190810160405280600381526020017f55524c00000000000000000000000000000000000000000000000000000000008152508360085462001c66565b90503360066000836000191660001916815260200190815260200160002060006101000a81548173ffffffffffffffffffffffffffffffffffffffff021916908373ffffffffffffffffffffffffffffffffffffffff1602179055506004600560008360001916600019168152602001908152602001600020819055505b505050505050505050565b60608060608060608060003073ffffffffffffffffffffffffffffffffffffffff1631620006476040805190810160405280600381526020017f55524c00000000000000000000000000000000000000000000000000000000008152506200148b565b10156200083757606060405190810160405280602e81526020017f6a736f6e2868747470733a2f2f38332e3233312e31342e31373a333030322f4281526020017f4f452f636f6d707574655661522f00000000000000000000000000000000000081525096506040805190810160405280600481526020017f302e39350000000000000000000000000000000000000000000000000000000081525095506040805190810160405280600181526020017f2f0000000000000000000000000000000000000000000000000000000000000081525094506040805190810160405280600481526020017f2f292e2a000000000000000000000000000000000000000000000000000000008152509350620007648787878c8962001802565b92506200077383898662001c2c565b9150620007b96040805190810160405280600381526020017f55524c00000000000000000000000000000000000000000000000000000000008152508360085462001c66565b90503360066000836000191660001916815260200190815260200160002060006101000a81548173ffffffffffffffffffffffffffffffffffffffff021916908373ffffffffffffffffffffffffffffffffffffffff1602179055506004600560008360001916600019168152602001908152602001600020819055505b505050505050505050565b606080606080606080606060003073ffffffffffffffffffffffffffffffffffffffff1631620008a76040805190810160405280600381526020017f55524c00000000000000000000000000000000000000000000000000000000008152506200148b565b101562000a6757608060405190810160405280605681526020017f6a736f6e28687474703a2f2f646174612e66697865722e696f2f6170692f6c6181526020017f746573743f6163636573735f6b65793d6330366333626466356561356536356381526020017f3264666235373466373434373235633426626173653d0000000000000000000081525097508996506040805190810160405280600981526020017f2673796d626f6c733d000000000000000000000000000000000000000000000081525095508894506040805190810160405280600881526020017f292e72617465732e0000000000000000000000000000000000000000000000008152509350620009b788888888620020e0565b9250620009c683858762001c2c565b91507f621c2856e3b87f81235f8ac8a22bbb40a0142961960710d00b2b6c380902b57e604051620009f79062002be9565b60405180910390a162000a436040805190810160405280600381526020017f55524c00000000000000000000000000000000000000000000000000000000008152508360085462001c66565b90506001600560008360001916600019168152602001908152602001600020819055505b50505050505050505050565b60608060608060608060003073ffffffffffffffffffffffffffffffffffffffff163162000ad66040805190810160405280600381526020017f55524c00000000000000000000000000000000000000000000000000000000008152506200148b565b101562000cc657606060405190810160405280603081526020017f6a736f6e2868747470733a2f2f38332e3233312e31342e31373a333030322f4581526020017f555245582f636f6d707574655661522f0000000000000000000000000000000081525096506040805190810160405280600481526020017f302e39350000000000000000000000000000000000000000000000000000000081525095506040805190810160405280600181526020017f2f0000000000000000000000000000000000000000000000000000000000000081525094506040805190810160405280600481526020017f2f292e2a00000000000000000000000000000000000000000000000000000000815250935062000bf38787878c8962001802565b925062000c0283898662001c2c565b915062000c486040805190810160405280600381526020017f55524c00000000000000000000000000000000000000000000000000000000008152508360085462001c66565b90503360066000836000191660001916815260200190815260200160002060006101000a81548173ffffffffffffffffffffffffffffffffffffffff021916908373ffffffffffffffffffffffffffffffffffffffff1602179055506004600560008360001916600019168152602001908152602001600020819055505b505050505050505050565b60608060608060608060003073ffffffffffffffffffffffffffffffffffffffff163162000d346040805190810160405280600381526020017f55524c00000000000000000000000000000000000000000000000000000000008152506200148b565b101562000f2457606060405190810160405280602e81526020017f6a736f6e2868747470733a2f2f38332e3233312e31342e31373a333030322f4281526020017f4f452f636f6d707574655661522f00000000000000000000000000000000000081525096506040805190810160405280600481526020017f302e39350000000000000000000000000000000000000000000000000000000081525095506040805190810160405280600181526020017f2f0000000000000000000000000000000000000000000000000000000000000081525094506040805190810160405280600481526020017f2f292e2a00000000000000000000000000000000000000000000000000000000815250935062000e518787878c8962001802565b925062000e6083898662001c2c565b915062000ea66040805190810160405280600381526020017f55524c00000000000000000000000000000000000000000000000000000000008152508360085462001c66565b90503360066000836000191660001916815260200190815260200160002060006101000a81548173ffffffffffffffffffffffffffffffffffffffff021916908373ffffffffffffffffffffffffffffffffffffffff1602179055506004600560008360001916600019168152602001908152602001600020819055505b505050505050505050565b606080606080606060003073ffffffffffffffffffffffffffffffffffffffff163162000f916040805190810160405280600381526020017f55524c00000000000000000000000000000000000000000000000000000000008152506200148b565b10156200111a57606060405190810160405280603481526020017f6a736f6e2868747470733a2f2f6170692e6b72616b656e2e636f6d2f302f707581526020017f626c69632f5469636b65723f706169723d45544800000000000000000000000081525095508694506040805190810160405280600e81526020017f292e726573756c742e584554485a00000000000000000000000000000000000081525093506040805190810160405280600481526020017f2e632e3000000000000000000000000000000000000000000000000000000000815250925062001079868686888762001802565b91507f621c2856e3b87f81235f8ac8a22bbb40a0142961960710d00b2b6c380902b57e604051620010aa9062002be9565b60405180910390a1620010f66040805190810160405280600381526020017f55524c00000000000000000000000000000000000000000000000000000000008152508360085462001c66565b90506003600560008360001916600019168152602001908152602001600020819055505b50505050505050565b6000806000809054906101000a900473ffffffffffffffffffffffffffffffffffffffff1673ffffffffffffffffffffffffffffffffffffffff1614806200119657506000620011946000809054906101000a900473ffffffffffffffffffffffffffffffffffffffff166200210b565b145b15620011aa57620011a8600062002116565b505b6000809054906101000a900473ffffffffffffffffffffffffffffffffffffffff1673ffffffffffffffffffffffffffffffffffffffff166338cc48316040518163ffffffff167c0100000000000000000000000000000000000000000000000000000000028152600401602060405180830381600087803b1580156200123057600080fd5b505af115801562001245573d6000803e3d6000fd5b505050506040513d601f19601f820116820180604052506200126b9190810190620027cc565b73ffffffffffffffffffffffffffffffffffffffff16600160009054906101000a900473ffffffffffffffffffffffffffffffffffffffff1673ffffffffffffffffffffffffffffffffffffffff16141515620013c4576000809054906101000a900473ffffffffffffffffffffffffffffffffffffffff1673ffffffffffffffffffffffffffffffffffffffff166338cc48316040518163ffffffff167c0100000000000000000000000000000000000000000000000000000000028152600401602060405180830381600087803b1580156200134857600080fd5b505af11580156200135d573d6000803e3d6000fd5b505050506040513d601f19601f82011682018060405250620013839190810190620027cc565b600160006101000a81548173ffffffffffffffffffffffffffffffffffffffff021916908373ffffffffffffffffffffffffffffffffffffffff1602179055505b600160009054906101000a900473ffffffffffffffffffffffffffffffffffffffff1673ffffffffffffffffffffffffffffffffffffffff1663c281d19e6040518163ffffffff167c0100000000000000000000000000000000000000000000000000000000028152600401602060405180830381600087803b1580156200144b57600080fd5b505af115801562001460573d6000803e3d6000fd5b505050506040513d601f19601f82011682018060405250620014869190810190620027cc565b905090565b6000806000809054906101000a900473ffffffffffffffffffffffffffffffffffffffff1673ffffffffffffffffffffffffffffffffffffffff161480620014fe57506000620014fc6000809054906101000a900473ffffffffffffffffffffffffffffffffffffffff166200210b565b145b15620015125762001510600062002116565b505b6000809054906101000a900473ffffffffffffffffffffffffffffffffffffffff1673ffffffffffffffffffffffffffffffffffffffff166338cc48316040518163ffffffff167c0100000000000000000000000000000000000000000000000000000000028152600401602060405180830381600087803b1580156200159857600080fd5b505af1158015620015ad573d6000803e3d6000fd5b505050506040513d601f19601f82011682018060405250620015d39190810190620027cc565b73ffffffffffffffffffffffffffffffffffffffff16600160009054906101000a900473ffffffffffffffffffffffffffffffffffffffff1673ffffffffffffffffffffffffffffffffffffffff161415156200172c576000809054906101000a900473ffffffffffffffffffffffffffffffffffffffff1673ffffffffffffffffffffffffffffffffffffffff166338cc48316040518163ffffffff167c0100000000000000000000000000000000000000000000000000000000028152600401602060405180830381600087803b158015620016b057600080fd5b505af1158015620016c5573d6000803e3d6000fd5b505050506040513d601f19601f82011682018060405250620016eb9190810190620027cc565b600160006101000a81548173ffffffffffffffffffffffffffffffffffffffff021916908373ffffffffffffffffffffffffffffffffffffffff1602179055505b600160009054906101000a900473ffffffffffffffffffffffffffffffffffffffff1673ffffffffffffffffffffffffffffffffffffffff1663524f3889836040518263ffffffff167c0100000000000000000000000000000000000000000000000000000000028152600401620017a5919062002b91565b602060405180830381600087803b158015620017c057600080fd5b505af1158015620017d5573d6000803e3d6000fd5b505050506040513d601f19601f82011682018060405250620017fb9190810190620029be565b9050919050565b6060806060806060806060806000808e98508d97508c96508b95508a94508451865188518a518c51010101016040519080825280601f01601f191660200182016040528015620018615781602001602082028038833980820191505090505b50935083925060009150600090505b8851811015620019275788818151811015156200188957fe5b9060200101517f010000000000000000000000000000000000000000000000000000000000000090047f0100000000000000000000000000000000000000000000000000000000000000028383806001019450815181101515620018e957fe5b9060200101907effffffffffffffffffffffffffffffffffffffffffffffffffffffffffffff1916908160001a905350808060010191505062001870565b600090505b8751811015620019e35787818151811015156200194557fe5b9060200101517f010000000000000000000000000000000000000000000000000000000000000090047f0100000000000000000000000000000000000000000000000000000000000000028383806001019450815181101515620019a557fe5b9060200101907effffffffffffffffffffffffffffffffffffffffffffffffffffffffffffff1916908160001a90535080806001019150506200192c565b600090505b865181101562001a9f57868181518110151562001a0157fe5b9060200101517f010000000000000000000000000000000000000000000000000000000000000090047f010000000000000000000000000000000000000000000000000000000000000002838380600101945081518110151562001a6157fe5b9060200101907effffffffffffffffffffffffffffffffffffffffffffffffffffffffffffff1916908160001a9053508080600101915050620019e8565b600090505b855181101562001b5b57858181518110151562001abd57fe5b9060200101517f010000000000000000000000000000000000000000000000000000000000000090047f010000000000000000000000000000000000000000000000000000000000000002838380600101945081518110151562001b1d57fe5b9060200101907effffffffffffffffffffffffffffffffffffffffffffffffffffffffffffff1916908160001a905350808060010191505062001aa4565b600090505b845181101562001c1757848181518110151562001b7957fe5b9060200101517f010000000000000000000000000000000000000000000000000000000000000090047f010000000000000000000000000000000000000000000000000000000000000002838380600101945081518110151562001bd957fe5b9060200101907effffffffffffffffffffffffffffffffffffffffffffffffffffffffffffff1916908160001a905350808060010191505062001b60565b82995050505050505050505095945050505050565b606062001c5d8484846020604051908101604052806000815250602060405190810160405280600081525062001802565b90509392505050565b60008060008060009054906101000a900473ffffffffffffffffffffffffffffffffffffffff1673ffffffffffffffffffffffffffffffffffffffff16148062001cdb5750600062001cd96000809054906101000a900473ffffffffffffffffffffffffffffffffffffffff166200210b565b145b1562001cef5762001ced600062002116565b505b6000809054906101000a900473ffffffffffffffffffffffffffffffffffffffff1673ffffffffffffffffffffffffffffffffffffffff166338cc48316040518163ffffffff167c0100000000000000000000000000000000000000000000000000000000028152600401602060405180830381600087803b15801562001d7557600080fd5b505af115801562001d8a573d6000803e3d6000fd5b505050506040513d601f19601f8201168201806040525062001db09190810190620027cc565b73ffffffffffffffffffffffffffffffffffffffff16600160009054906101000a900473ffffffffffffffffffffffffffffffffffffffff1673ffffffffffffffffffffffffffffffffffffffff1614151562001f09576000809054906101000a900473ffffffffffffffffffffffffffffffffffffffff1673ffffffffffffffffffffffffffffffffffffffff166338cc48316040518163ffffffff167c0100000000000000000000000000000000000000000000000000000000028152600401602060405180830381600087803b15801562001e8d57600080fd5b505af115801562001ea2573d6000803e3d6000fd5b505050506040513d601f19601f8201168201806040525062001ec89190810190620027cc565b600160006101000a81548173ffffffffffffffffffffffffffffffffffffffff021916908373ffffffffffffffffffffffffffffffffffffffff1602179055505b600160009054906101000a900473ffffffffffffffffffffffffffffffffffffffff1673ffffffffffffffffffffffffffffffffffffffff16632ef3accc86856040518363ffffffff167c010000000000000000000000000000000000000000000000000000000002815260040162001f8492919062002bb5565b602060405180830381600087803b15801562001f9f57600080fd5b505af115801562001fb4573d6000803e3d6000fd5b505050506040513d601f19601f8201168201806040525062001fda9190810190620029be565b9050823a02670de0b6b3a76400000181111562001ffe5760006001029150620020d8565b600160009054906101000a900473ffffffffffffffffffffffffffffffffffffffff1673ffffffffffffffffffffffffffffffffffffffff1663c51be90f8260008888886040518663ffffffff167c01000000000000000000000000000000000000000000000000000000000281526004016200207f949392919062002ae9565b6020604051808303818588803b1580156200209957600080fd5b505af1158015620020ae573d6000803e3d6000fd5b50505050506040513d601f19601f82011682018060405250620020d59190810190620027f8565b91505b509392505050565b60606200210185858585602060405190810160405280600081525062001802565b9050949350505050565b6000813b9050919050565b60006200212262002129565b9050919050565b6000806200214b731d3b2638a7cc9f2cb3d298a3da7a90b67e5506ed6200210b565b1115620021f057731d3b2638a7cc9f2cb3d298a3da7a90b67e5506ed6000806101000a81548173ffffffffffffffffffffffffffffffffffffffff021916908373ffffffffffffffffffffffffffffffffffffffff160217905550620021e66040805190810160405280600b81526020017f6574685f6d61696e6e6574000000000000000000000000000000000000000000815250620025dc565b60019050620025d9565b60006200221173c03a2615d5efaf5f49f60b7bb6583eaec212fdf16200210b565b1115620022b65773c03a2615d5efaf5f49f60b7bb6583eaec212fdf16000806101000a81548173ffffffffffffffffffffffffffffffffffffffff021916908373ffffffffffffffffffffffffffffffffffffffff160217905550620022ac6040805190810160405280600c81526020017f6574685f726f707374656e330000000000000000000000000000000000000000815250620025dc565b60019050620025d9565b6000620022d773b7a07bcf2ba2f2703b24c0691b5278999c59ac7e6200210b565b11156200237c5773b7a07bcf2ba2f2703b24c0691b5278999c59ac7e6000806101000a81548173ffffffffffffffffffffffffffffffffffffffff021916908373ffffffffffffffffffffffffffffffffffffffff160217905550620023726040805190810160405280600981526020017f6574685f6b6f76616e0000000000000000000000000000000000000000000000815250620025dc565b60019050620025d9565b60006200239d73146500cfd35b22e4a392fe0adc06de1a1368ed486200210b565b1115620024425773146500cfd35b22e4a392fe0adc06de1a1368ed486000806101000a81548173ffffffffffffffffffffffffffffffffffffffff021916908373ffffffffffffffffffffffffffffffffffffffff160217905550620024386040805190810160405280600b81526020017f6574685f72696e6b656279000000000000000000000000000000000000000000815250620025dc565b60019050620025d9565b600062002463736f485c8bf6fc43ea212e93bbf8ce046c7f1cb4756200210b565b1115620024c857736f485c8bf6fc43ea212e93bbf8ce046c7f1cb4756000806101000a81548173ffffffffffffffffffffffffffffffffffffffff021916908373ffffffffffffffffffffffffffffffffffffffff16021790555060019050620025d9565b6000620024e97320e12a1f859b3feae5fb2a0a32c18f5a65555bbf6200210b565b11156200254e577320e12a1f859b3feae5fb2a0a32c18f5a65555bbf6000806101000a81548173ffffffffffffffffffffffffffffffffffffffff021916908373ffffffffffffffffffffffffffffffffffffffff16021790555060019050620025d9565b60006200256f7351efaf4c8b3c9afbd5ab9f4bbc82784ab6ef8faa6200210b565b1115620025d4577351efaf4c8b3c9afbd5ab9f4bbc82784ab6ef8faa6000806101000a81548173ffffffffffffffffffffffffffffffffffffffff021916908373ffffffffffffffffffffffffffffffffffffffff16021790555060019050620025d9565b600090505b90565b8060029080519060200190620025f492919062002609565b5050565b6040516104d48062002da383390190565b828054600181600116156101000203166002900490600052602060002090601f016020900481019282601f106200264c57805160ff19168380011785556200267d565b828001600101855582156200267d579182015b828111156200267c5782518255916020019190600101906200265f565b5b5090506200268c919062002690565b5090565b620026b591905b80821115620026b157600081600090555060010162002697565b5090565b90565b6000620026c6825162002cc8565b905092915050565b6000620026dc823562002ce8565b905092915050565b6000620026f2825162002ce8565b905092915050565b600082601f83011215156200270e57600080fd5b8135620027256200271f8262002c39565b62002c0b565b915080825260208301602083018583830111156200274257600080fd5b6200274f83828462002d4c565b50505092915050565b600082601f83011215156200276c57600080fd5b8135620027836200277d8262002c66565b62002c0b565b91508082526020830160208301858383011115620027a057600080fd5b620027ad83828462002d4c565b50505092915050565b6000620027c4825162002cf2565b905092915050565b600060208284031215620027df57600080fd5b6000620027ef84828501620026b8565b91505092915050565b6000602082840312156200280b57600080fd5b60006200281b84828501620026e4565b91505092915050565b600080604083850312156200283857600080fd5b60006200284885828601620026ce565b925050602083013567ffffffffffffffff8111156200286657600080fd5b620028748582860162002758565b9150509250929050565b6000806000606084860312156200289457600080fd5b6000620028a486828701620026ce565b935050602084013567ffffffffffffffff811115620028c257600080fd5b620028d08682870162002758565b925050604084013567ffffffffffffffff811115620028ee57600080fd5b620028fc86828701620026fa565b9150509250925092565b6000602082840312156200291957600080fd5b600082013567ffffffffffffffff8111156200293457600080fd5b620029428482850162002758565b91505092915050565b600080604083850312156200295f57600080fd5b600083013567ffffffffffffffff8111156200297a57600080fd5b620029888582860162002758565b925050602083013567ffffffffffffffff811115620029a657600080fd5b620029b48582860162002758565b9150509250929050565b600060208284031215620029d157600080fd5b6000620029e184828501620027b6565b91505092915050565b620029f58162002c9e565b82525050565b62002a068162002cfc565b82525050565b62002a178162002d10565b82525050565b62002a288162002d24565b82525050565b62002a398162002d38565b82525050565b600062002a4c8262002c93565b80845262002a6281602086016020860162002d5b565b62002a6d8162002d91565b602085010191505092915050565b6000603582527f4f7261636c697a65207175657279207761732073656e742c207374616e64696e60208301527f6720627920666f722074686520616e737765722e2e00000000000000000000006040830152606082019050919050565b62002ae38162002cbe565b82525050565b600060808201905062002b006000830187620029fb565b818103602083015262002b14818662002a3f565b9050818103604083015262002b2a818562002a3f565b905062002b3b606083018462002ad8565b95945050505050565b600060808201905062002b5b600083018762002a0c565b62002b6a602083018662002a2e565b62002b796040830185620029ea565b62002b88606083018462002a1d565b95945050505050565b6000602082019050818103600083015262002bad818462002a3f565b905092915050565b6000604082019050818103600083015262002bd1818562002a3f565b905062002be2602083018462002ad8565b9392505050565b6000602082019050818103600083015262002c048162002a7b565b9050919050565b6000604051905081810181811067ffffffffffffffff8211171562002c2f57600080fd5b8060405250919050565b600067ffffffffffffffff82111562002c5157600080fd5b601f19601f8301169050602081019050919050565b600067ffffffffffffffff82111562002c7e57600080fd5b601f19601f8301169050602081019050919050565b600081519050919050565b600073ffffffffffffffffffffffffffffffffffffffff82169050919050565b6000819050919050565b600073ffffffffffffffffffffffffffffffffffffffff82169050919050565b6000819050919050565b6000819050919050565b600062002d098262002cbe565b9050919050565b600062002d1d8262002cbe565b9050919050565b600062002d318262002cbe565b9050919050565b600062002d458262002c9e565b9050919050565b82818337600083830152505050565b60005b8381101562002d7b57808201518184015260208101905062002d5e565b8381111562002d8b576000848401525b50505050565b6000601f19601f83011690509190505600608060405234801561001057600080fd5b506040516080806104d483398101806040528101908080519060200190929190805190602001909291908051906020019092919080519060200190929190505050600033600260016101000a81548173ffffffffffffffffffffffffffffffffffffffff021916908373ffffffffffffffffffffffffffffffffffffffff16021790555082600460006101000a81548173ffffffffffffffffffffffffffffffffffffffff021916908373ffffffffffffffffffffffffffffffffffffffff16021790555083600360006101000a81548173ffffffffffffffffffffffffffffffffffffffff021916908373ffffffffffffffffffffffffffffffffffffffff16021790555084600081905550816001819055506000600260006101000a81548160ff021916908315150217905550600460009054906101000a900473ffffffffffffffffffffffffffffffffffffffff1690508073ffffffffffffffffffffffffffffffffffffffff16639cef7a5b600054600360009054906101000a900473ffffffffffffffffffffffffffffffffffffffff166040518363ffffffff167c0100000000000000000000000000000000000000000000000000000000028152600401808381526020018273ffffffffffffffffffffffffffffffffffffffff1673ffffffffffffffffffffffffffffffffffffffff16815260200192505050600060405180830381600087803b15801561022b57600080fd5b505af115801561023f573d6000803e3d6000fd5b50505050505050505061027d806102576000396000f30060806040526004361061006d576000357c0100000000000000000000000000000000000000000000000000000000900463ffffffff1680631b9265b814610072578063209652551461009457806331b2ffaf146100bf5780634212ed2614610116578063893d20e814610145575b600080fd5b61007a61019c565b604051808215151515815260200191505060405180910390f35b3480156100a057600080fd5b506100a96101dd565b6040518082815260200191505060405180910390f35b3480156100cb57600080fd5b506100d46101e6565b604051808273ffffffffffffffffffffffffffffffffffffffff1673ffffffffffffffffffffffffffffffffffffffff16815260200191505060405180910390f35b34801561012257600080fd5b5061012b610210565b604051808215151515815260200191505060405180910390f35b34801561015157600080fd5b5061015a610227565b604051808273ffffffffffffffffffffffffffffffffffffffff1673ffffffffffffffffffffffffffffffffffffffff16815260200191505060405180910390f35b60008054341415156101ad57600080fd5b6001600260006101000a81548160ff021916908315150217905550600260009054906101000a900460ff16905090565b60008054905090565b6000600360009054906101000a900473ffffffffffffffffffffffffffffffffffffffff16905090565b6000600260009054906101000a900460ff16905090565b6000600260019054906101000a900473ffffffffffffffffffffffffffffffffffffffff169050905600a165627a7a723058208ce9b737799c0dbd7e28cd73e13ea6d97cd4c583d8861ee8da5ff16fbece3bac0029a265627a7a7230582028a1d2dfe6ce569318d7b2c12f02d22a6b7207e7a3cbf2af53c6d09625f2166c6c6578706572696d656e74616cf50037",
  "source": "pragma experimental ABIEncoderV2;\n\n/**\n * Add oraclize API\n */\n//import \"installed_contracts/oraclize-api/contracts/usingOraclize.sol\";\nimport \"./usingOraclize.sol\";\n/**\n * Allow Slice strings\n */\nimport \"./strings.sol\";\n\n//import \"VanillaSwap.sol\";\nimport \"./Derivative.sol\";\nimport \"./PaymentRequest.sol\";\n\ncontract MarketData is usingOraclize\n{\n  /**\n   * To enable strings.sol library\n   */\n  using strings for *;\n\n\n  event LogNewOraclizeQuery(string description);\n  event returnCurrencyExchange(string currExchange);\n  event returnETHPrice(string ethPrice);\n  event callbackRuning(string log);\n\n  mapping(bytes32 => uint) queryIdToFunctionNumber;\n  mapping(bytes32 => address) queryIdToContractAddressThatHaveCalledTheFunction;\n\n  address compensationChamberAddress;\n\n  uint gasLimit = 4000000;\n\n  function MarketData() public payable\n  {\n    OAR = OraclizeAddrResolverI(0x6f485C8BF6fc43eA212E93BBF8ce046C7f1cb475);\n    oraclize_setProof(proofType_TLSNotary | proofStorage_IPFS);\n    compensationChamberAddress = msg.sender;\n  }\n\n  /**\n   * The base coin can only be EUR, for other coins you neew a premium fixer.io account\n   * _base and _secundary with ISO 4217\n   * Function number 1\n   */\n  function getCurrencyExchange(string _base, string _secundary) public payable\n  {\n    if (oraclize_getPrice(\"URL\") < this.balance)\n    {\n      string memory string1 = \"json(http://data.fixer.io/api/latest?access_key=c06c3bdf5ea5e65c2dfb574f744725c4&base=\";\n      string memory string2 = _base;\n      string memory string3 = \"&symbols=\";\n      string memory string4 = _secundary;\n      string memory string5 = \").rates.\";\n\n      string memory querys1 = strConcat(string1, string2, string3, string4);\n      string memory query = strConcat(querys1, string5, string4);\n\n      LogNewOraclizeQuery(\"Oraclize query was sent, standing by for the answer..\");\n      bytes32 queryID = oraclize_query(\"URL\",query, gasLimit);\n      queryIdToFunctionNumber[queryID] = 1;\n    }\n  }\n  /**\n   * Get the actual ETH price with respect to a currency\n   * _baseCurrency ISO 4217\n   * Function number 3\n   */\n  function getETHPrice(string _baseCurrency) public  payable\n  {\n    /**\n     * this.balance is the number of ETH stored in the contract,\n     * msg.value is the amount of ETH send to a public payable method\n     */\n    if (oraclize_getPrice(\"URL\") < this.balance)\n    {\n        string memory URL = \"json(https://api.kraken.com/0/public/Ticker?pair=ETH\";\n        string memory baseCurrency = _baseCurrency;\n        string memory query1 = \").result.XETHZ\";\n        string memory query2 = \".c.0\";\n\n        string memory query = strConcat(URL, baseCurrency, query1,baseCurrency, query2);\n\n        LogNewOraclizeQuery(\"Oraclize query was sent, standing by for the answer..\");\n        bytes32 queryID = oraclize_query(\"URL\",query, gasLimit);\n        queryIdToFunctionNumber[queryID] = 3;\n    }\n  }\n\n  function getIMFutureBOE(string _nominal, string _instrumentID) public payable\n  {\n    if (oraclize_getPrice(\"URL\") < this.balance)\n    {\n      string memory URL = \"json(https://83.231.14.17:3002/BOE/computeVaR/\";\n      //string memory URL = \"json(https://tidy-jellyfish-22.localtunnel.me/BOE/computeVaR/\";\n      string memory query1 = \"0.95\";\n      string memory query2_4 = \"/\";\n      //string memory query3 = _nominal;\n      //string memory query5 = _instrumentID;\n      string memory query6 = \"/).*\";\n\n      string memory _query = strConcat(URL, query1, query2_4, _nominal, query2_4);\n      string memory query = strConcat(_query, _instrumentID, query6);\n      bytes32 queryID = oraclize_query(\"URL\",query, gasLimit);\n      queryIdToContractAddressThatHaveCalledTheFunction[queryID] = msg.sender;\n      queryIdToFunctionNumber[queryID] = 4;\n    }\n  }\n\n  function getIMFutureEUREX(string _nominal, string _instrumentID) public payable\n  {\n    if (oraclize_getPrice(\"URL\") < this.balance)\n    {\n      string memory URL = \"json(https://83.231.14.17:3002/EUREX/computeVaR/\";\n      string memory query1 = \"0.95\";\n      string memory query2_4 = \"/\";\n      //string memory query3 = _nominal;\n      //string memory query5 = _instrumentID;\n      string memory query6 = \"/).*\";\n\n      string memory _query = strConcat(URL, query1, query2_4, _nominal, query2_4);\n      string memory query = strConcat(_query, _instrumentID, query6);\n      bytes32 queryID = oraclize_query(\"URL\",query, gasLimit);\n      queryIdToContractAddressThatHaveCalledTheFunction[queryID] = msg.sender;\n      queryIdToFunctionNumber[queryID] = 4;\n    }\n  }\n\n  function getIMFutureCME(string _nominal, string _instrumentID) public payable\n  {\n    if (oraclize_getPrice(\"URL\") < this.balance)\n    {\n      string memory URL = \"json(https://83.231.14.17:3002/CME/computeVaR/\";\n      string memory query1 = \"0.95\";\n      string memory query2_4 = \"/\";\n      //string memory query3 = _nominal;\n      //string memory query5 = _instrumentID;\n      string memory query6 = \"/).*\";\n\n      string memory _query = strConcat(URL, query1, query2_4, _nominal, query2_4);\n      string memory query = strConcat(_query, _instrumentID, query6);\n      bytes32 queryID = oraclize_query(\"URL\",query, gasLimit);\n      queryIdToContractAddressThatHaveCalledTheFunction[queryID] = msg.sender;\n      queryIdToFunctionNumber[queryID] = 4;\n    }\n  }\n\n\n  function getIMSwap(string _nominal, string _instrumentID) public payable\n  {\n    if (oraclize_getPrice(\"URL\") < this.balance)\n    {\n      string memory URL = \"json(https://83.231.14.17:3002/BOE/computeVaR/\";\n      string memory query1 = \"0.95\";\n      string memory query2_4 = \"/\";\n      //string memory query3 = _nominal;\n      //string memory query5 = _instrumentID;\n      string memory query6 = \"/).*\";\n\n      string memory _query = strConcat(URL, query1, query2_4, _nominal, query2_4);\n      string memory query = strConcat(_query, _instrumentID, query6);\n      //LogNewOraclizeQuery(\"Oraclize query was sent, standing by for the answer..\");\n      bytes32 queryID = oraclize_query(\"URL\",query, gasLimit);\n      queryIdToContractAddressThatHaveCalledTheFunction[queryID] = msg.sender;\n      queryIdToFunctionNumber[queryID] = 4;\n    }\n\n  }\n\n  function __callback(bytes32 myid, string result)\n  {\n    if (msg.sender != oraclize_cbAddress())\n    {\n      revert();\n    }\n    uint functionNumber = queryIdToFunctionNumber[myid];\n\n    if(functionNumber == 1)\n    {\n      returnCurrencyExchange(result);\n    }\n    else if(functionNumber == 2)\n    {\n      returnCurrencyExchange(result);\n    }\n    else if(functionNumber == 3)\n    {\n      returnETHPrice(result);\n    }\n    else if(functionNumber == 4)\n    {\n\n     //address contractAddress = queryIdToContractAddressThatHaveCalledTheFunction[myid];\n     address _a = new PaymentRequest(100, 0x4b0897b0513fdc7c541b6d9d7e929c4e5364d2db, compensationChamberAddress, 1);\n     //Derivative _derivative = Derivative(contractAddress);\n     //vanillaSwap _vanillaSwap = vanillaSwap(contractAddress);\n     //_derivative.setIM(result);\n    }\n  }\n\n}\n",
  "sourcePath": "/home/dtm/Desktop/TFM/DAPPS/CompensationChamber/contracts/MarketData.sol",
  "compiler": {
    "name": "solc",
    "version": "0.4.24+commit.e67f0147.Emscripten.clang"
  },
  "schemaVersion": "2.0.1",
  "updatedAt": "2018-07-18T14:52:39.045Z"
}