{
  "contractName": "MarketData",
  "abi": [
    {
      "inputs": [],
      "payable": true,
      "stateMutability": "payable",
      "type": "constructor"
    },
    {
      "anonymous": false,
      "inputs": [
        {
          "indexed": false,
          "name": "description",
          "type": "string"
        }
      ],
      "name": "LogNewOraclizeQuery",
      "type": "event"
    },
    {
      "anonymous": false,
      "inputs": [
        {
          "indexed": false,
          "name": "currExchange",
          "type": "string"
        }
      ],
      "name": "returnCurrencyExchange",
      "type": "event"
    },
    {
      "anonymous": false,
      "inputs": [
        {
          "indexed": false,
          "name": "ethPrice",
          "type": "string"
        }
      ],
      "name": "returnETHPrice",
      "type": "event"
    },
    {
      "anonymous": false,
      "inputs": [
        {
          "indexed": false,
          "name": "log",
          "type": "string"
        }
      ],
      "name": "callbackRuning",
      "type": "event"
    },
    {
      "constant": false,
      "inputs": [
        {
          "name": "_base",
          "type": "string"
        },
        {
          "name": "_secundary",
          "type": "string"
        }
      ],
      "name": "getCurrencyExchange",
      "outputs": [],
      "payable": true,
      "stateMutability": "payable",
      "type": "function"
    },
    {
      "constant": false,
      "inputs": [
        {
          "name": "_baseCurrency",
          "type": "string"
        }
      ],
      "name": "getETHPrice",
      "outputs": [],
      "payable": true,
      "stateMutability": "payable",
      "type": "function"
    },
    {
      "constant": false,
      "inputs": [
        {
          "name": "_nominal",
          "type": "string"
        },
        {
          "name": "_instrumentID",
          "type": "string"
        }
      ],
      "name": "getIMFutureBOE",
      "outputs": [],
      "payable": true,
      "stateMutability": "payable",
      "type": "function"
    },
    {
      "constant": false,
      "inputs": [
        {
          "name": "_nominal",
          "type": "string"
        },
        {
          "name": "_instrumentID",
          "type": "string"
        }
      ],
      "name": "getIMFutureEUREX",
      "outputs": [],
      "payable": true,
      "stateMutability": "payable",
      "type": "function"
    },
    {
      "constant": false,
      "inputs": [
        {
          "name": "_nominal",
          "type": "string"
        },
        {
          "name": "_instrumentID",
          "type": "string"
        }
      ],
      "name": "getIMFutureCME",
      "outputs": [],
      "payable": true,
      "stateMutability": "payable",
      "type": "function"
    },
    {
      "constant": false,
      "inputs": [
        {
          "name": "_nominal",
          "type": "string"
        },
        {
          "name": "_instrumentID",
          "type": "string"
        }
      ],
      "name": "getIMSwap",
      "outputs": [],
      "payable": true,
      "stateMutability": "payable",
      "type": "function"
    },
    {
      "constant": false,
      "inputs": [
        {
          "name": "myid",
          "type": "bytes32"
        },
        {
          "name": "result",
          "type": "string"
        }
      ],
      "name": "__callback",
      "outputs": [],
      "payable": false,
      "stateMutability": "nonpayable",
      "type": "function"
    },
    {
      "constant": false,
      "inputs": [
        {
          "name": "myid",
          "type": "bytes32"
        },
        {
          "name": "result",
          "type": "string"
        },
        {
          "name": "proof",
          "type": "bytes"
        }
      ],
      "name": "__callback",
      "outputs": [],
      "payable": false,
      "stateMutability": "nonpayable",
      "type": "function"
    }
  ],
  "bytecode": "0x6080604052623d0900600855736f485c8bf6fc43ea212e93bbf8ce046c7f1cb4756000806101000a81548173ffffffffffffffffffffffffffffffffffffffff021916908373ffffffffffffffffffffffffffffffffffffffff160217905550620000c160017f01000000000000000000000000000000000000000000000000000000000000000260107f0100000000000000000000000000000000000000000000000000000000000000021762000108640100000000026401000000009004565b33600760006101000a81548173ffffffffffffffffffffffffffffffffffffffff021916908373ffffffffffffffffffffffffffffffffffffffff16021790555062000b0c565b60008060009054906101000a900473ffffffffffffffffffffffffffffffffffffffff1673ffffffffffffffffffffffffffffffffffffffff1614806200018957506000620001876000809054906101000a900473ffffffffffffffffffffffffffffffffffffffff16620004bc640100000000026401000000009004565b145b15620001ac57620001aa6000620004c7640100000000026401000000009004565b505b6000809054906101000a900473ffffffffffffffffffffffffffffffffffffffff1673ffffffffffffffffffffffffffffffffffffffff166338cc48316040518163ffffffff167c0100000000000000000000000000000000000000000000000000000000028152600401602060405180830381600087803b1580156200023257600080fd5b505af115801562000247573d6000803e3d6000fd5b505050506040513d60208110156200025e57600080fd5b810190808051906020019092919050505073ffffffffffffffffffffffffffffffffffffffff16600160009054906101000a900473ffffffffffffffffffffffffffffffffffffffff1673ffffffffffffffffffffffffffffffffffffffff16141515620003ca576000809054906101000a900473ffffffffffffffffffffffffffffffffffffffff1673ffffffffffffffffffffffffffffffffffffffff166338cc48316040518163ffffffff167c0100000000000000000000000000000000000000000000000000000000028152600401602060405180830381600087803b1580156200034c57600080fd5b505af115801562000361573d6000803e3d6000fd5b505050506040513d60208110156200037857600080fd5b8101908080519060200190929190505050600160006101000a81548173ffffffffffffffffffffffffffffffffffffffff021916908373ffffffffffffffffffffffffffffffffffffffff1602179055505b600160009054906101000a900473ffffffffffffffffffffffffffffffffffffffff1673ffffffffffffffffffffffffffffffffffffffff1663688dcfd7826040518263ffffffff167c010000000000000000000000000000000000000000000000000000000002815260040180827effffffffffffffffffffffffffffffffffffffffffffffffffffffffffffff19167effffffffffffffffffffffffffffffffffffffffffffffffffffffffffffff19168152602001915050600060405180830381600087803b158015620004a057600080fd5b505af1158015620004b5573d6000803e3d6000fd5b5050505050565b6000813b9050919050565b6000620004e2620004e9640100000000026401000000009004565b9050919050565b6000806200051a731d3b2638a7cc9f2cb3d298a3da7a90b67e5506ed620004bc640100000000026401000000009004565b1115620005ce57731d3b2638a7cc9f2cb3d298a3da7a90b67e5506ed6000806101000a81548173ffffffffffffffffffffffffffffffffffffffff021916908373ffffffffffffffffffffffffffffffffffffffff160217905550620005c46040805190810160405280600b81526020017f6574685f6d61696e6e657400000000000000000000000000000000000000000081525062000a41640100000000026401000000009004565b6001905062000a3e565b6000620005fe73c03a2615d5efaf5f49f60b7bb6583eaec212fdf1620004bc640100000000026401000000009004565b1115620006b25773c03a2615d5efaf5f49f60b7bb6583eaec212fdf16000806101000a81548173ffffffffffffffffffffffffffffffffffffffff021916908373ffffffffffffffffffffffffffffffffffffffff160217905550620006a86040805190810160405280600c81526020017f6574685f726f707374656e33000000000000000000000000000000000000000081525062000a41640100000000026401000000009004565b6001905062000a3e565b6000620006e273b7a07bcf2ba2f2703b24c0691b5278999c59ac7e620004bc640100000000026401000000009004565b1115620007965773b7a07bcf2ba2f2703b24c0691b5278999c59ac7e6000806101000a81548173ffffffffffffffffffffffffffffffffffffffff021916908373ffffffffffffffffffffffffffffffffffffffff1602179055506200078c6040805190810160405280600981526020017f6574685f6b6f76616e000000000000000000000000000000000000000000000081525062000a41640100000000026401000000009004565b6001905062000a3e565b6000620007c673146500cfd35b22e4a392fe0adc06de1a1368ed48620004bc640100000000026401000000009004565b11156200087a5773146500cfd35b22e4a392fe0adc06de1a1368ed486000806101000a81548173ffffffffffffffffffffffffffffffffffffffff021916908373ffffffffffffffffffffffffffffffffffffffff160217905550620008706040805190810160405280600b81526020017f6574685f72696e6b65627900000000000000000000000000000000000000000081525062000a41640100000000026401000000009004565b6001905062000a3e565b6000620008aa736f485c8bf6fc43ea212e93bbf8ce046c7f1cb475620004bc640100000000026401000000009004565b11156200090f57736f485c8bf6fc43ea212e93bbf8ce046c7f1cb4756000806101000a81548173ffffffffffffffffffffffffffffffffffffffff021916908373ffffffffffffffffffffffffffffffffffffffff1602179055506001905062000a3e565b60006200093f7320e12a1f859b3feae5fb2a0a32c18f5a65555bbf620004bc640100000000026401000000009004565b1115620009a4577320e12a1f859b3feae5fb2a0a32c18f5a65555bbf6000806101000a81548173ffffffffffffffffffffffffffffffffffffffff021916908373ffffffffffffffffffffffffffffffffffffffff1602179055506001905062000a3e565b6000620009d47351efaf4c8b3c9afbd5ab9f4bbc82784ab6ef8faa620004bc640100000000026401000000009004565b111562000a39577351efaf4c8b3c9afbd5ab9f4bbc82784ab6ef8faa6000806101000a81548173ffffffffffffffffffffffffffffffffffffffff021916908373ffffffffffffffffffffffffffffffffffffffff1602179055506001905062000a3e565b600090505b90565b806002908051906020019062000a5992919062000a5d565b5050565b828054600181600116156101000203166002900490600052602060002090601f016020900481019282601f1062000aa057805160ff191683800117855562000ad1565b8280016001018555821562000ad1579182015b8281111562000ad057825182559160200191906001019062000ab3565b5b50905062000ae0919062000ae4565b5090565b62000b0991905b8082111562000b0557600081600090555060010162000aeb565b5090565b90565b6133608062000b1c6000396000f30060806040526004361062000097576000357c0100000000000000000000000000000000000000000000000000000000900463ffffffff16806327dc297e146200009c57806338bbfa50146200011657806382636bd814620001d65780639c38dc92146200027a578063c1b1d06c146200031e578063c489991914620003c2578063cc9df7421462000466578063da1cc116146200050a575b600080fd5b348015620000a957600080fd5b50620001146004803603810190808035600019169060200190929190803590602001908201803590602001908080601f016020809104026020016040519081016040528093929190818152602001838380828437820191505050505050919291929050505062000568565b005b3480156200012357600080fd5b50620001d46004803603810190808035600019169060200190929190803590602001908201803590602001908080601f0160208091040260200160405190810160405280939291908181526020018383808284378201915050505050509192919290803590602001908201803590602001908080601f0160208091040260200160405190810160405280939291908181526020018383808284378201915050505050509192919290505050620008b5565b005b62000278600480360381019080803590602001908201803590602001908080601f0160208091040260200160405190810160405280939291908181526020018383808284378201915050505050509192919290803590602001908201803590602001908080601f0160208091040260200160405190810160405280939291908181526020018383808284378201915050505050509192919290505050620008ba565b005b6200031c600480360381019080803590602001908201803590602001908080601f0160208091040260200160405190810160405280939291908181526020018383808284378201915050505050509192919290803590602001908201803590602001908080601f016020809104026020016040519081016040528093929190818152602001838380828437820191505050505050919291929050505062000b18565b005b620003c0600480360381019080803590602001908201803590602001908080601f0160208091040260200160405190810160405280939291908181526020018383808284378201915050505050509192919290803590602001908201803590602001908080601f016020809104026020016040519081016040528093929190818152602001838380828437820191505050505050919291929050505062000d76565b005b62000464600480360381019080803590602001908201803590602001908080601f0160208091040260200160405190810160405280939291908181526020018383808284378201915050505050509192919290803590602001908201803590602001908080601f016020809104026020016040519081016040528093929190818152602001838380828437820191505050505050919291929050505062000ffe565b005b62000508600480360381019080803590602001908201803590602001908080601f0160208091040260200160405190810160405280939291908181526020018383808284378201915050505050509192919290803590602001908201803590602001908080601f01602080910402602001604051908101604052809392919081815260200183838082843782019150505050505091929192905050506200125c565b005b62000566600480360381019080803590602001908201803590602001908080601f0160208091040260200160405190810160405280939291908181526020018383808284378201915050505050509192919290505050620014ba565b005b6000806200057562001705565b73ffffffffffffffffffffffffffffffffffffffff163373ffffffffffffffffffffffffffffffffffffffff16141515620005af57600080fd5b60056000856000191660001916815260200190815260200160002054915060018214156200067c577f8655c5cfb1c5a83d9d6bc1412ec42f2ef81e85b5714e2627b4078576fba07a9f836040518080602001828103825283818151815260200191508051906020019080838360005b838110156200063b5780820151818401526020810190506200061e565b50505050905090810190601f168015620006695780820380516001836020036101000a031916815260200191505b509250505060405180910390a1620008af565b60028214156200072b577f8655c5cfb1c5a83d9d6bc1412ec42f2ef81e85b5714e2627b4078576fba07a9f836040518080602001828103825283818151815260200191508051906020019080838360005b83811015620006ea578082015181840152602081019050620006cd565b50505050905090810190601f168015620007185780820380516001836020036101000a031916815260200191505b509250505060405180910390a1620008ae565b6003821415620007da577f5b81f211753ecf8f010d9a311a6ec4a2f060d40ffe7bb868905b4f3eece480cb836040518080602001828103825283818151815260200191508051906020019080838360005b83811015620007995780820151818401526020810190506200077c565b50505050905090810190601f168015620007c75780820380516001836020036101000a031916815260200191505b509250505060405180910390a1620008ad565b6004821415620008ac576064734b0897b0513fdc7c541b6d9d7e929c4e5364d2db600760009054906101000a900473ffffffffffffffffffffffffffffffffffffffff1660016200082a62002da0565b808581526020018473ffffffffffffffffffffffffffffffffffffffff1681526020018373ffffffffffffffffffffffffffffffffffffffff1673ffffffffffffffffffffffffffffffffffffffff168152602001828152602001945050505050604051809103906000f080158015620008a8573d6000803e3d6000fd5b5090505b5b5b5b50505050565b505050565b60608060608060608060003073ffffffffffffffffffffffffffffffffffffffff16316200091d6040805190810160405280600381526020017f55524c000000000000000000000000000000000000000000000000000000000081525062001a73565b101562000b0d57606060405190810160405280602e81526020017f6a736f6e2868747470733a2f2f38332e3233312e31342e31373a333030322f4381526020017f4d452f636f6d707574655661522f00000000000000000000000000000000000081525096506040805190810160405280600481526020017f302e39350000000000000000000000000000000000000000000000000000000081525095506040805190810160405280600181526020017f2f0000000000000000000000000000000000000000000000000000000000000081525094506040805190810160405280600481526020017f2f292e2a00000000000000000000000000000000000000000000000000000000815250935062000a3a8787878c8962001e56565b925062000a4983898662002280565b915062000a8f6040805190810160405280600381526020017f55524c000000000000000000000000000000000000000000000000000000000081525083600854620022ba565b90503360066000836000191660001916815260200190815260200160002060006101000a81548173ffffffffffffffffffffffffffffffffffffffff021916908373ffffffffffffffffffffffffffffffffffffffff1602179055506004600560008360001916600019168152602001908152602001600020819055505b505050505050505050565b60608060608060608060003073ffffffffffffffffffffffffffffffffffffffff163162000b7b6040805190810160405280600381526020017f55524c000000000000000000000000000000000000000000000000000000000081525062001a73565b101562000d6b57606060405190810160405280602e81526020017f6a736f6e2868747470733a2f2f38332e3233312e31342e31373a333030322f4281526020017f4f452f636f6d707574655661522f00000000000000000000000000000000000081525096506040805190810160405280600481526020017f302e39350000000000000000000000000000000000000000000000000000000081525095506040805190810160405280600181526020017f2f0000000000000000000000000000000000000000000000000000000000000081525094506040805190810160405280600481526020017f2f292e2a00000000000000000000000000000000000000000000000000000000815250935062000c988787878c8962001e56565b925062000ca783898662002280565b915062000ced6040805190810160405280600381526020017f55524c000000000000000000000000000000000000000000000000000000000081525083600854620022ba565b90503360066000836000191660001916815260200190815260200160002060006101000a81548173ffffffffffffffffffffffffffffffffffffffff021916908373ffffffffffffffffffffffffffffffffffffffff1602179055506004600560008360001916600019168152602001908152602001600020819055505b505050505050505050565b606080606080606080606060003073ffffffffffffffffffffffffffffffffffffffff163162000ddb6040805190810160405280600381526020017f55524c000000000000000000000000000000000000000000000000000000000081525062001a73565b101562000ff257608060405190810160405280605681526020017f6a736f6e28687474703a2f2f646174612e66697865722e696f2f6170692f6c6181526020017f746573743f6163636573735f6b65793d6330366333626466356561356536356381526020017f3264666235373466373434373235633426626173653d0000000000000000000081525097508996506040805190810160405280600981526020017f2673796d626f6c733d000000000000000000000000000000000000000000000081525095508894506040805190810160405280600881526020017f292e72617465732e000000000000000000000000000000000000000000000000815250935062000eeb8888888862002888565b925062000efa83858762002280565b91507f621c2856e3b87f81235f8ac8a22bbb40a0142961960710d00b2b6c380902b57e6040518080602001828103825260358152602001807f4f7261636c697a65207175657279207761732073656e742c207374616e64696e81526020017f6720627920666f722074686520616e737765722e2e000000000000000000000081525060400191505060405180910390a162000fce6040805190810160405280600381526020017f55524c000000000000000000000000000000000000000000000000000000000081525083600854620022ba565b90506001600560008360001916600019168152602001908152602001600020819055505b50505050505050505050565b60608060608060608060003073ffffffffffffffffffffffffffffffffffffffff1631620010616040805190810160405280600381526020017f55524c000000000000000000000000000000000000000000000000000000000081525062001a73565b10156200125157606060405190810160405280603081526020017f6a736f6e2868747470733a2f2f38332e3233312e31342e31373a333030322f4581526020017f555245582f636f6d707574655661522f0000000000000000000000000000000081525096506040805190810160405280600481526020017f302e39350000000000000000000000000000000000000000000000000000000081525095506040805190810160405280600181526020017f2f0000000000000000000000000000000000000000000000000000000000000081525094506040805190810160405280600481526020017f2f292e2a0000000000000000000000000000000000000000000000000000000081525093506200117e8787878c8962001e56565b92506200118d83898662002280565b9150620011d36040805190810160405280600381526020017f55524c000000000000000000000000000000000000000000000000000000000081525083600854620022ba565b90503360066000836000191660001916815260200190815260200160002060006101000a81548173ffffffffffffffffffffffffffffffffffffffff021916908373ffffffffffffffffffffffffffffffffffffffff1602179055506004600560008360001916600019168152602001908152602001600020819055505b505050505050505050565b60608060608060608060003073ffffffffffffffffffffffffffffffffffffffff1631620012bf6040805190810160405280600381526020017f55524c000000000000000000000000000000000000000000000000000000000081525062001a73565b1015620014af57606060405190810160405280602e81526020017f6a736f6e2868747470733a2f2f38332e3233312e31342e31373a333030322f4281526020017f4f452f636f6d707574655661522f00000000000000000000000000000000000081525096506040805190810160405280600481526020017f302e39350000000000000000000000000000000000000000000000000000000081525095506040805190810160405280600181526020017f2f0000000000000000000000000000000000000000000000000000000000000081525094506040805190810160405280600481526020017f2f292e2a000000000000000000000000000000000000000000000000000000008152509350620013dc8787878c8962001e56565b9250620013eb83898662002280565b9150620014316040805190810160405280600381526020017f55524c000000000000000000000000000000000000000000000000000000000081525083600854620022ba565b90503360066000836000191660001916815260200190815260200160002060006101000a81548173ffffffffffffffffffffffffffffffffffffffff021916908373ffffffffffffffffffffffffffffffffffffffff1602179055506004600560008360001916600019168152602001908152602001600020819055505b505050505050505050565b606080606080606060003073ffffffffffffffffffffffffffffffffffffffff16316200151c6040805190810160405280600381526020017f55524c000000000000000000000000000000000000000000000000000000000081525062001a73565b1015620016fc57606060405190810160405280603481526020017f6a736f6e2868747470733a2f2f6170692e6b72616b656e2e636f6d2f302f707581526020017f626c69632f5469636b65723f706169723d45544800000000000000000000000081525095508694506040805190810160405280600e81526020017f292e726573756c742e584554485a00000000000000000000000000000000000081525093506040805190810160405280600481526020017f2e632e3000000000000000000000000000000000000000000000000000000000815250925062001604868686888762001e56565b91507f621c2856e3b87f81235f8ac8a22bbb40a0142961960710d00b2b6c380902b57e6040518080602001828103825260358152602001807f4f7261636c697a65207175657279207761732073656e742c207374616e64696e81526020017f6720627920666f722074686520616e737765722e2e000000000000000000000081525060400191505060405180910390a1620016d86040805190810160405280600381526020017f55524c000000000000000000000000000000000000000000000000000000000081525083600854620022ba565b90506003600560008360001916600019168152602001908152602001600020819055505b50505050505050565b6000806000809054906101000a900473ffffffffffffffffffffffffffffffffffffffff1673ffffffffffffffffffffffffffffffffffffffff1614806200177857506000620017766000809054906101000a900473ffffffffffffffffffffffffffffffffffffffff16620028b3565b145b156200178c576200178a6000620028be565b505b6000809054906101000a900473ffffffffffffffffffffffffffffffffffffffff1673ffffffffffffffffffffffffffffffffffffffff166338cc48316040518163ffffffff167c0100000000000000000000000000000000000000000000000000000000028152600401602060405180830381600087803b1580156200181257600080fd5b505af115801562001827573d6000803e3d6000fd5b505050506040513d60208110156200183e57600080fd5b810190808051906020019092919050505073ffffffffffffffffffffffffffffffffffffffff16600160009054906101000a900473ffffffffffffffffffffffffffffffffffffffff1673ffffffffffffffffffffffffffffffffffffffff16141515620019aa576000809054906101000a900473ffffffffffffffffffffffffffffffffffffffff1673ffffffffffffffffffffffffffffffffffffffff166338cc48316040518163ffffffff167c0100000000000000000000000000000000000000000000000000000000028152600401602060405180830381600087803b1580156200192c57600080fd5b505af115801562001941573d6000803e3d6000fd5b505050506040513d60208110156200195857600080fd5b8101908080519060200190929190505050600160006101000a81548173ffffffffffffffffffffffffffffffffffffffff021916908373ffffffffffffffffffffffffffffffffffffffff1602179055505b600160009054906101000a900473ffffffffffffffffffffffffffffffffffffffff1673ffffffffffffffffffffffffffffffffffffffff1663c281d19e6040518163ffffffff167c0100000000000000000000000000000000000000000000000000000000028152600401602060405180830381600087803b15801562001a3157600080fd5b505af115801562001a46573d6000803e3d6000fd5b505050506040513d602081101562001a5d57600080fd5b8101908080519060200190929190505050905090565b6000806000809054906101000a900473ffffffffffffffffffffffffffffffffffffffff1673ffffffffffffffffffffffffffffffffffffffff16148062001ae65750600062001ae46000809054906101000a900473ffffffffffffffffffffffffffffffffffffffff16620028b3565b145b1562001afa5762001af86000620028be565b505b6000809054906101000a900473ffffffffffffffffffffffffffffffffffffffff1673ffffffffffffffffffffffffffffffffffffffff166338cc48316040518163ffffffff167c0100000000000000000000000000000000000000000000000000000000028152600401602060405180830381600087803b15801562001b8057600080fd5b505af115801562001b95573d6000803e3d6000fd5b505050506040513d602081101562001bac57600080fd5b810190808051906020019092919050505073ffffffffffffffffffffffffffffffffffffffff16600160009054906101000a900473ffffffffffffffffffffffffffffffffffffffff1673ffffffffffffffffffffffffffffffffffffffff1614151562001d18576000809054906101000a900473ffffffffffffffffffffffffffffffffffffffff1673ffffffffffffffffffffffffffffffffffffffff166338cc48316040518163ffffffff167c0100000000000000000000000000000000000000000000000000000000028152600401602060405180830381600087803b15801562001c9a57600080fd5b505af115801562001caf573d6000803e3d6000fd5b505050506040513d602081101562001cc657600080fd5b8101908080519060200190929190505050600160006101000a81548173ffffffffffffffffffffffffffffffffffffffff021916908373ffffffffffffffffffffffffffffffffffffffff1602179055505b600160009054906101000a900473ffffffffffffffffffffffffffffffffffffffff1673ffffffffffffffffffffffffffffffffffffffff1663524f3889836040518263ffffffff167c01000000000000000000000000000000000000000000000000000000000281526004018080602001828103825283818151815260200191508051906020019080838360005b8381101562001dc457808201518184015260208101905062001da7565b50505050905090810190601f16801562001df25780820380516001836020036101000a031916815260200191505b5092505050602060405180830381600087803b15801562001e1257600080fd5b505af115801562001e27573d6000803e3d6000fd5b505050506040513d602081101562001e3e57600080fd5b81019080805190602001909291905050509050919050565b6060806060806060806060806000808e98508d97508c96508b95508a94508451865188518a518c51010101016040519080825280601f01601f19166020018201604052801562001eb55781602001602082028038833980820191505090505b50935083925060009150600090505b885181101562001f7b57888181518110151562001edd57fe5b9060200101517f010000000000000000000000000000000000000000000000000000000000000090047f010000000000000000000000000000000000000000000000000000000000000002838380600101945081518110151562001f3d57fe5b9060200101907effffffffffffffffffffffffffffffffffffffffffffffffffffffffffffff1916908160001a905350808060010191505062001ec4565b600090505b87518110156200203757878181518110151562001f9957fe5b9060200101517f010000000000000000000000000000000000000000000000000000000000000090047f010000000000000000000000000000000000000000000000000000000000000002838380600101945081518110151562001ff957fe5b9060200101907effffffffffffffffffffffffffffffffffffffffffffffffffffffffffffff1916908160001a905350808060010191505062001f80565b600090505b8651811015620020f35786818151811015156200205557fe5b9060200101517f010000000000000000000000000000000000000000000000000000000000000090047f0100000000000000000000000000000000000000000000000000000000000000028383806001019450815181101515620020b557fe5b9060200101907effffffffffffffffffffffffffffffffffffffffffffffffffffffffffffff1916908160001a90535080806001019150506200203c565b600090505b8551811015620021af5785818151811015156200211157fe5b9060200101517f010000000000000000000000000000000000000000000000000000000000000090047f01000000000000000000000000000000000000000000000000000000000000000283838060010194508151811015156200217157fe5b9060200101907effffffffffffffffffffffffffffffffffffffffffffffffffffffffffffff1916908160001a9053508080600101915050620020f8565b600090505b84518110156200226b578481815181101515620021cd57fe5b9060200101517f010000000000000000000000000000000000000000000000000000000000000090047f01000000000000000000000000000000000000000000000000000000000000000283838060010194508151811015156200222d57fe5b9060200101907effffffffffffffffffffffffffffffffffffffffffffffffffffffffffffff1916908160001a9053508080600101915050620021b4565b82995050505050505050505095945050505050565b6060620022b18484846020604051908101604052806000815250602060405190810160405280600081525062001e56565b90509392505050565b60008060008060009054906101000a900473ffffffffffffffffffffffffffffffffffffffff1673ffffffffffffffffffffffffffffffffffffffff1614806200232f575060006200232d6000809054906101000a900473ffffffffffffffffffffffffffffffffffffffff16620028b3565b145b156200234357620023416000620028be565b505b6000809054906101000a900473ffffffffffffffffffffffffffffffffffffffff1673ffffffffffffffffffffffffffffffffffffffff166338cc48316040518163ffffffff167c0100000000000000000000000000000000000000000000000000000000028152600401602060405180830381600087803b158015620023c957600080fd5b505af1158015620023de573d6000803e3d6000fd5b505050506040513d6020811015620023f557600080fd5b810190808051906020019092919050505073ffffffffffffffffffffffffffffffffffffffff16600160009054906101000a900473ffffffffffffffffffffffffffffffffffffffff1673ffffffffffffffffffffffffffffffffffffffff1614151562002561576000809054906101000a900473ffffffffffffffffffffffffffffffffffffffff1673ffffffffffffffffffffffffffffffffffffffff166338cc48316040518163ffffffff167c0100000000000000000000000000000000000000000000000000000000028152600401602060405180830381600087803b158015620024e357600080fd5b505af1158015620024f8573d6000803e3d6000fd5b505050506040513d60208110156200250f57600080fd5b8101908080519060200190929190505050600160006101000a81548173ffffffffffffffffffffffffffffffffffffffff021916908373ffffffffffffffffffffffffffffffffffffffff1602179055505b600160009054906101000a900473ffffffffffffffffffffffffffffffffffffffff1673ffffffffffffffffffffffffffffffffffffffff16632ef3accc86856040518363ffffffff167c01000000000000000000000000000000000000000000000000000000000281526004018080602001838152602001828103825284818151815260200191508051906020019080838360005b8381101562002614578082015181840152602081019050620025f7565b50505050905090810190601f168015620026425780820380516001836020036101000a031916815260200191505b509350505050602060405180830381600087803b1580156200266357600080fd5b505af115801562002678573d6000803e3d6000fd5b505050506040513d60208110156200268f57600080fd5b81019080805190602001909291905050509050823a02670de0b6b3a764000001811115620026c4576000600102915062002880565b600160009054906101000a900473ffffffffffffffffffffffffffffffffffffffff1673ffffffffffffffffffffffffffffffffffffffff1663c51be90f8260008888886040518663ffffffff167c0100000000000000000000000000000000000000000000000000000000028152600401808581526020018060200180602001848152602001838103835286818151815260200191508051906020019080838360005b838110156200278557808201518184015260208101905062002768565b50505050905090810190601f168015620027b35780820380516001836020036101000a031916815260200191505b50838103825285818151815260200191508051906020019080838360005b83811015620027ee578082015181840152602081019050620027d1565b50505050905090810190601f1680156200281c5780820380516001836020036101000a031916815260200191505b5096505050505050506020604051808303818588803b1580156200283f57600080fd5b505af115801562002854573d6000803e3d6000fd5b50505050506040513d60208110156200286c57600080fd5b810190808051906020019092919050505091505b509392505050565b6060620028a985858585602060405190810160405280600081525062001e56565b9050949350505050565b6000813b9050919050565b6000620028ca620028d1565b9050919050565b600080620028f3731d3b2638a7cc9f2cb3d298a3da7a90b67e5506ed620028b3565b11156200299857731d3b2638a7cc9f2cb3d298a3da7a90b67e5506ed6000806101000a81548173ffffffffffffffffffffffffffffffffffffffff021916908373ffffffffffffffffffffffffffffffffffffffff1602179055506200298e6040805190810160405280600b81526020017f6574685f6d61696e6e657400000000000000000000000000000000000000000081525062002d84565b6001905062002d81565b6000620029b973c03a2615d5efaf5f49f60b7bb6583eaec212fdf1620028b3565b111562002a5e5773c03a2615d5efaf5f49f60b7bb6583eaec212fdf16000806101000a81548173ffffffffffffffffffffffffffffffffffffffff021916908373ffffffffffffffffffffffffffffffffffffffff16021790555062002a546040805190810160405280600c81526020017f6574685f726f707374656e33000000000000000000000000000000000000000081525062002d84565b6001905062002d81565b600062002a7f73b7a07bcf2ba2f2703b24c0691b5278999c59ac7e620028b3565b111562002b245773b7a07bcf2ba2f2703b24c0691b5278999c59ac7e6000806101000a81548173ffffffffffffffffffffffffffffffffffffffff021916908373ffffffffffffffffffffffffffffffffffffffff16021790555062002b1a6040805190810160405280600981526020017f6574685f6b6f76616e000000000000000000000000000000000000000000000081525062002d84565b6001905062002d81565b600062002b4573146500cfd35b22e4a392fe0adc06de1a1368ed48620028b3565b111562002bea5773146500cfd35b22e4a392fe0adc06de1a1368ed486000806101000a81548173ffffffffffffffffffffffffffffffffffffffff021916908373ffffffffffffffffffffffffffffffffffffffff16021790555062002be06040805190810160405280600b81526020017f6574685f72696e6b65627900000000000000000000000000000000000000000081525062002d84565b6001905062002d81565b600062002c0b736f485c8bf6fc43ea212e93bbf8ce046c7f1cb475620028b3565b111562002c7057736f485c8bf6fc43ea212e93bbf8ce046c7f1cb4756000806101000a81548173ffffffffffffffffffffffffffffffffffffffff021916908373ffffffffffffffffffffffffffffffffffffffff1602179055506001905062002d81565b600062002c917320e12a1f859b3feae5fb2a0a32c18f5a65555bbf620028b3565b111562002cf6577320e12a1f859b3feae5fb2a0a32c18f5a65555bbf6000806101000a81548173ffffffffffffffffffffffffffffffffffffffff021916908373ffffffffffffffffffffffffffffffffffffffff1602179055506001905062002d81565b600062002d177351efaf4c8b3c9afbd5ab9f4bbc82784ab6ef8faa620028b3565b111562002d7c577351efaf4c8b3c9afbd5ab9f4bbc82784ab6ef8faa6000806101000a81548173ffffffffffffffffffffffffffffffffffffffff021916908373ffffffffffffffffffffffffffffffffffffffff1602179055506001905062002d81565b600090505b90565b806002908051906020019062002d9c92919062002db1565b5050565b6040516104d48062002e6183390190565b828054600181600116156101000203166002900490600052602060002090601f016020900481019282601f1062002df457805160ff191683800117855562002e25565b8280016001018555821562002e25579182015b8281111562002e2457825182559160200191906001019062002e07565b5b50905062002e34919062002e38565b5090565b62002e5d91905b8082111562002e5957600081600090555060010162002e3f565b5090565b905600608060405234801561001057600080fd5b506040516080806104d483398101806040528101908080519060200190929190805190602001909291908051906020019092919080519060200190929190505050600033600260016101000a81548173ffffffffffffffffffffffffffffffffffffffff021916908373ffffffffffffffffffffffffffffffffffffffff16021790555082600460006101000a81548173ffffffffffffffffffffffffffffffffffffffff021916908373ffffffffffffffffffffffffffffffffffffffff16021790555083600360006101000a81548173ffffffffffffffffffffffffffffffffffffffff021916908373ffffffffffffffffffffffffffffffffffffffff16021790555084600081905550816001819055506000600260006101000a81548160ff021916908315150217905550600460009054906101000a900473ffffffffffffffffffffffffffffffffffffffff1690508073ffffffffffffffffffffffffffffffffffffffff16639cef7a5b600054600360009054906101000a900473ffffffffffffffffffffffffffffffffffffffff166040518363ffffffff167c0100000000000000000000000000000000000000000000000000000000028152600401808381526020018273ffffffffffffffffffffffffffffffffffffffff1673ffffffffffffffffffffffffffffffffffffffff16815260200192505050600060405180830381600087803b15801561022b57600080fd5b505af115801561023f573d6000803e3d6000fd5b50505050505050505061027d806102576000396000f30060806040526004361061006d576000357c0100000000000000000000000000000000000000000000000000000000900463ffffffff1680631b9265b814610072578063209652551461009457806331b2ffaf146100bf5780634212ed2614610116578063893d20e814610145575b600080fd5b61007a61019c565b604051808215151515815260200191505060405180910390f35b3480156100a057600080fd5b506100a96101dd565b6040518082815260200191505060405180910390f35b3480156100cb57600080fd5b506100d46101e6565b604051808273ffffffffffffffffffffffffffffffffffffffff1673ffffffffffffffffffffffffffffffffffffffff16815260200191505060405180910390f35b34801561012257600080fd5b5061012b610210565b604051808215151515815260200191505060405180910390f35b34801561015157600080fd5b5061015a610227565b604051808273ffffffffffffffffffffffffffffffffffffffff1673ffffffffffffffffffffffffffffffffffffffff16815260200191505060405180910390f35b60008054341415156101ad57600080fd5b6001600260006101000a81548160ff021916908315150217905550600260009054906101000a900460ff16905090565b60008054905090565b6000600360009054906101000a900473ffffffffffffffffffffffffffffffffffffffff16905090565b6000600260009054906101000a900460ff16905090565b6000600260019054906101000a900473ffffffffffffffffffffffffffffffffffffffff169050905600a165627a7a72305820c7d27150336c0ad56f090ff17cf45c944c78ebc72f51a5d3462f978af486235e0029a165627a7a723058203c01765f7288f05b25c06803d93bbd911b98646a32cd285b37f9fb853d3bbe3a0029",
  "source": "pragma solidity ^0.4.20;\n\n/**\n * Add oraclize API\n */\nimport \"installed_contracts/oraclize-api/contracts/usingOraclize.sol\";\n\n/**\n * Allow Slice strings\n */\nimport \"./strings.sol\";\n\n//import \"VanillaSwap.sol\";\nimport \"./Derivative.sol\";\nimport \"./PaymentRequest.sol\";\n\ncontract MarketData is usingOraclize\n{\n  /**\n   * To enable strings.sol library\n   */\n  using strings for *;\n\n\n  event LogNewOraclizeQuery(string description);\n  event returnCurrencyExchange(string currExchange);\n  event returnETHPrice(string ethPrice);\n  event callbackRuning(string log);\n\n  mapping(bytes32 => uint) queryIdToFunctionNumber;\n  mapping(bytes32 => address) queryIdToContractAddressThatHaveCalledTheFunction;\n\n  address compensationChamberAddress;\n\n  uint gasLimit = 4000000;\n\n  function MarketData() public payable\n  {\n    OAR = OraclizeAddrResolverI(0x6f485C8BF6fc43eA212E93BBF8ce046C7f1cb475);\n    oraclize_setProof(proofType_TLSNotary | proofStorage_IPFS);\n    compensationChamberAddress = msg.sender;\n  }\n\n  /**\n   * The base coin can only be EUR, for other coins you neew a premium fixer.io account\n   * _base and _secundary with ISO 4217\n   * Function number 1\n   */\n  function getCurrencyExchange(string _base, string _secundary) public payable\n  {\n    if (oraclize_getPrice(\"URL\") < this.balance)\n    {\n      string memory string1 = \"json(http://data.fixer.io/api/latest?access_key=c06c3bdf5ea5e65c2dfb574f744725c4&base=\";\n      string memory string2 = _base;\n      string memory string3 = \"&symbols=\";\n      string memory string4 = _secundary;\n      string memory string5 = \").rates.\";\n\n      string memory querys1 = strConcat(string1, string2, string3, string4);\n      string memory query = strConcat(querys1, string5, string4);\n\n      LogNewOraclizeQuery(\"Oraclize query was sent, standing by for the answer..\");\n      bytes32 queryID = oraclize_query(\"URL\",query, gasLimit);\n      queryIdToFunctionNumber[queryID] = 1;\n    }\n  }\n  /**\n   * Get the actual ETH price with respect to a currency\n   * _baseCurrency ISO 4217\n   * Function number 3\n   */\n  function getETHPrice(string _baseCurrency) public  payable\n  {\n    /**\n     * this.balance is the number of ETH stored in the contract,\n     * msg.value is the amount of ETH send to a public payable method\n     */\n    if (oraclize_getPrice(\"URL\") < this.balance)\n    {\n        string memory URL = \"json(https://api.kraken.com/0/public/Ticker?pair=ETH\";\n        string memory baseCurrency = _baseCurrency;\n        string memory query1 = \").result.XETHZ\";\n        string memory query2 = \".c.0\";\n\n        string memory query = strConcat(URL, baseCurrency, query1,baseCurrency, query2);\n\n        LogNewOraclizeQuery(\"Oraclize query was sent, standing by for the answer..\");\n        bytes32 queryID = oraclize_query(\"URL\",query, gasLimit);\n        queryIdToFunctionNumber[queryID] = 3;\n    }\n  }\n\n  function getIMFutureBOE(string _nominal, string _instrumentID) public payable\n  {\n    if (oraclize_getPrice(\"URL\") < this.balance)\n    {\n      string memory URL = \"json(https://83.231.14.17:3002/BOE/computeVaR/\";\n      //string memory URL = \"json(https://tidy-jellyfish-22.localtunnel.me/BOE/computeVaR/\";\n      string memory query1 = \"0.95\";\n      string memory query2_4 = \"/\";\n      //string memory query3 = _nominal;\n      //string memory query5 = _instrumentID;\n      string memory query6 = \"/).*\";\n\n      string memory _query = strConcat(URL, query1, query2_4, _nominal, query2_4);\n      string memory query = strConcat(_query, _instrumentID, query6);\n      bytes32 queryID = oraclize_query(\"URL\",query, gasLimit);\n      queryIdToContractAddressThatHaveCalledTheFunction[queryID] = msg.sender;\n      queryIdToFunctionNumber[queryID] = 4;\n    }\n  }\n\n  function getIMFutureEUREX(string _nominal, string _instrumentID) public payable\n  {\n    if (oraclize_getPrice(\"URL\") < this.balance)\n    {\n      string memory URL = \"json(https://83.231.14.17:3002/EUREX/computeVaR/\";\n      string memory query1 = \"0.95\";\n      string memory query2_4 = \"/\";\n      //string memory query3 = _nominal;\n      //string memory query5 = _instrumentID;\n      string memory query6 = \"/).*\";\n\n      string memory _query = strConcat(URL, query1, query2_4, _nominal, query2_4);\n      string memory query = strConcat(_query, _instrumentID, query6);\n      bytes32 queryID = oraclize_query(\"URL\",query, gasLimit);\n      queryIdToContractAddressThatHaveCalledTheFunction[queryID] = msg.sender;\n      queryIdToFunctionNumber[queryID] = 4;\n    }\n  }\n\n  function getIMFutureCME(string _nominal, string _instrumentID) public payable\n  {\n    if (oraclize_getPrice(\"URL\") < this.balance)\n    {\n      string memory URL = \"json(https://83.231.14.17:3002/CME/computeVaR/\";\n      string memory query1 = \"0.95\";\n      string memory query2_4 = \"/\";\n      //string memory query3 = _nominal;\n      //string memory query5 = _instrumentID;\n      string memory query6 = \"/).*\";\n\n      string memory _query = strConcat(URL, query1, query2_4, _nominal, query2_4);\n      string memory query = strConcat(_query, _instrumentID, query6);\n      bytes32 queryID = oraclize_query(\"URL\",query, gasLimit);\n      queryIdToContractAddressThatHaveCalledTheFunction[queryID] = msg.sender;\n      queryIdToFunctionNumber[queryID] = 4;\n    }\n  }\n\n\n  function getIMSwap(string _nominal, string _instrumentID) public payable\n  {\n    if (oraclize_getPrice(\"URL\") < this.balance)\n    {\n      string memory URL = \"json(https://83.231.14.17:3002/BOE/computeVaR/\";\n      string memory query1 = \"0.95\";\n      string memory query2_4 = \"/\";\n      //string memory query3 = _nominal;\n      //string memory query5 = _instrumentID;\n      string memory query6 = \"/).*\";\n\n      string memory _query = strConcat(URL, query1, query2_4, _nominal, query2_4);\n      string memory query = strConcat(_query, _instrumentID, query6);\n      //LogNewOraclizeQuery(\"Oraclize query was sent, standing by for the answer..\");\n      bytes32 queryID = oraclize_query(\"URL\",query, gasLimit);\n      queryIdToContractAddressThatHaveCalledTheFunction[queryID] = msg.sender;\n      queryIdToFunctionNumber[queryID] = 4;\n    }\n\n  }\n\n  function __callback(bytes32 myid, string result)\n  {\n    if (msg.sender != oraclize_cbAddress())\n    {\n      revert();\n    }\n    uint functionNumber = queryIdToFunctionNumber[myid];\n\n    if(functionNumber == 1)\n    {\n      returnCurrencyExchange(result);\n    }\n    else if(functionNumber == 2)\n    {\n      returnCurrencyExchange(result);\n    }\n    else if(functionNumber == 3)\n    {\n      returnETHPrice(result);\n    }\n    else if(functionNumber == 4)\n    {\n\n     //address contractAddress = queryIdToContractAddressThatHaveCalledTheFunction[myid];\n     address _a = new PaymentRequest(100, 0x4b0897b0513fdc7c541b6d9d7e929c4e5364d2db, compensationChamberAddress, 1);\n     //Derivative _derivative = Derivative(contractAddress);\n     //vanillaSwap _vanillaSwap = vanillaSwap(contractAddress);\n     //_derivative.setIM(result);\n    }\n  }\n\n}\n",
  "sourcePath": "/home/david/Desktop/CompensationChamber/contracts/MarketData.sol",
  "compiler": {
    "name": "solc",
    "version": "0.4.24+commit.e67f0147.Emscripten.clang"
  },
  "schemaVersion": "2.0.1",
  "updatedAt": "2018-07-14T20:03:40.820Z"
}