{
  "contractName": "OrderBook",
  "abi": [
    {
      "inputs": [
        {
          "name": "_instrumentID",
          "type": "string"
        },
        {
          "name": "_market",
          "type": "string"
        },
        {
          "name": "_instrumentType",
          "type": "uint8"
        },
        {
          "name": "_settlementTimestamp",
          "type": "uint256"
        }
      ],
      "payable": false,
      "stateMutability": "nonpayable",
      "type": "constructor"
    },
    {
      "anonymous": false,
      "inputs": [
        {
          "indexed": false,
          "name": "a",
          "type": "string"
        }
      ],
      "name": "sortDone",
      "type": "event"
    },
    {
      "constant": false,
      "inputs": [
        {
          "name": "_clearingMemberAddress",
          "type": "address"
        },
        {
          "name": "_quantity",
          "type": "uint256"
        },
        {
          "name": "_price",
          "type": "uint256"
        }
      ],
      "name": "addBuyOrder",
      "outputs": [],
      "payable": false,
      "stateMutability": "nonpayable",
      "type": "function"
    },
    {
      "constant": false,
      "inputs": [
        {
          "name": "_clearingMemberAddress",
          "type": "address"
        },
        {
          "name": "_quantity",
          "type": "uint256"
        },
        {
          "name": "_price",
          "type": "uint256"
        }
      ],
      "name": "addSellOrder",
      "outputs": [],
      "payable": false,
      "stateMutability": "nonpayable",
      "type": "function"
    }
  ],
  "bytecode": "0x60806040523480156200001157600080fd5b506040516200300b3803806200300b8339810180604052810190808051820192919060200180518201929190602001805190602001909291908051906020019092919050505083600190805190602001906200006f929190620000fe565b50826002908051906020019062000088929190620000fe565b50816000806101000a81548160ff02191690836001811115620000a757fe5b021790555033600460006101000a81548173ffffffffffffffffffffffffffffffffffffffff021916908373ffffffffffffffffffffffffffffffffffffffff1602179055508060038190555050505050620001ad565b828054600181600116156101000203166002900490600052602060002090601f016020900481019282601f106200014157805160ff191683800117855562000172565b8280016001018555821562000172579182015b828111156200017157825182559160200191906001019062000154565b5b50905062000181919062000185565b5090565b620001aa91905b80821115620001a65760008160009055506001016200018c565b5090565b90565b612e4e80620001bd6000396000f30060806040526004361061004c576000357c0100000000000000000000000000000000000000000000000000000000900463ffffffff1680639f2ad8af14610051578063fbe0f830146100a8575b600080fd5b34801561005d57600080fd5b506100a6600480360381019080803573ffffffffffffffffffffffffffffffffffffffff16906020019092919080359060200190929190803590602001909291905050506100ff565b005b3480156100b457600080fd5b506100fd600480360381019080803573ffffffffffffffffffffffffffffffffffffffff1690602001909291908035906020019092919080359060200190929190505050610a20565b005b6000803373ffffffffffffffffffffffffffffffffffffffff16600460009054906101000a900473ffffffffffffffffffffffffffffffffffffffff1673ffffffffffffffffffffffffffffffffffffffff1614151561015e57600080fd5b6000600580549050141515610a045760009150600460009054906101000a900473ffffffffffffffffffffffffffffffffffffffff1690505b6005828154811015156101a657fe5b906000526020600020906004020160030154831115806101c65750600084115b15610a03576005828154811015156101da57fe5b906000526020600020906004020160010154841015156105fe576000600181111561020157fe5b6000809054906101000a900460ff16600181111561021b57fe5b1415610597578073ffffffffffffffffffffffffffffffffffffffff16638299ba748660058581548110151561024d57fe5b906000526020600020906004020160000160009054906101000a900473ffffffffffffffffffffffffffffffffffffffff1660016102aa60058881548110151561029357fe5b906000526020600020906004020160010154611342565b6102d36005898154811015156102bc57fe5b906000526020600020906004020160030154611368565b60035460026040518863ffffffff167c0100000000000000000000000000000000000000000000000000000000028152600401808873ffffffffffffffffffffffffffffffffffffffff1673ffffffffffffffffffffffffffffffffffffffff1681526020018773ffffffffffffffffffffffffffffffffffffffff1673ffffffffffffffffffffffffffffffffffffffff1681526020018060200180602001806020018681526020018060200185810385528a8181546001816001161561010002031660029004815260200191508054600181600116156101000203166002900480156104025780601f106103d757610100808354040283529160200191610402565b820191906000526020600020905b8154815290600101906020018083116103e557829003601f168201915b5050858103845289818151815260200191508051906020019080838360005b8381101561043c578082015181840152602081019050610421565b50505050905090810190601f1680156104695780820380516001836020036101000a031916815260200191505b50858103835288818151815260200191508051906020019080838360005b838110156104a2578082015181840152602081019050610487565b50505050905090810190601f1680156104cf5780820380516001836020036101000a031916815260200191505b508581038252868181546001816001161561010002031660029004815260200191508054600181600116156101000203166002900480156105515780601f1061052657610100808354040283529160200191610551565b820191906000526020600020905b81548152906001019060200180831161053457829003601f168201915b50509b505050505050505050505050600060405180830381600087803b15801561057a57600080fd5b505af115801561058e573d6000803e3d6000fd5b505050506105c0565b6001808111156105a357fe5b6000809054906101000a900460ff1660018111156105bd57fe5b50505b6005828154811015156105cf57fe5b906000526020600020906004020160010154840393506105f060058361140b565b8180600190039250506109f6565b6000600181111561060b57fe5b6000809054906101000a900460ff16600181111561062557fe5b1415610981578073ffffffffffffffffffffffffffffffffffffffff16638299ba748660058581548110151561065757fe5b906000526020600020906004020160000160009054906101000a900473ffffffffffffffffffffffffffffffffffffffff16600161069489611342565b6106bd6005898154811015156106a657fe5b906000526020600020906004020160030154611368565b60035460026040518863ffffffff167c0100000000000000000000000000000000000000000000000000000000028152600401808873ffffffffffffffffffffffffffffffffffffffff1673ffffffffffffffffffffffffffffffffffffffff1681526020018773ffffffffffffffffffffffffffffffffffffffff1673ffffffffffffffffffffffffffffffffffffffff1681526020018060200180602001806020018681526020018060200185810385528a8181546001816001161561010002031660029004815260200191508054600181600116156101000203166002900480156107ec5780601f106107c1576101008083540402835291602001916107ec565b820191906000526020600020905b8154815290600101906020018083116107cf57829003601f168201915b5050858103845289818151815260200191508051906020019080838360005b8381101561082657808201518184015260208101905061080b565b50505050905090810190601f1680156108535780820380516001836020036101000a031916815260200191505b50858103835288818151815260200191508051906020019080838360005b8381101561088c578082015181840152602081019050610871565b50505050905090810190601f1680156108b95780820380516001836020036101000a031916815260200191505b5085810382528681815460018160011615610100020316600290048152602001915080546001816001161561010002031660029004801561093b5780601f106109105761010080835404028352916020019161093b565b820191906000526020600020905b81548152906001019060200180831161091e57829003601f168201915b50509b505050505050505050505050600060405180830381600087803b15801561096457600080fd5b505af1158015610978573d6000803e3d6000fd5b505050506109aa565b60018081111561098d57fe5b6000809054906101000a900460ff1660018111156109a757fe5b50505b836005838154811015156109ba57fe5b906000526020600020906004020160010154036005838154811015156109dc57fe5b906000526020600020906004020160010181905550600093505b8180600101925050610197565b5b6000841115610a1957610a1885858561156d565b5b5050505050565b6000803373ffffffffffffffffffffffffffffffffffffffff16600460009054906101000a900473ffffffffffffffffffffffffffffffffffffffff1673ffffffffffffffffffffffffffffffffffffffff16141515610a7f57600080fd5b60006006805490501415156113265760009150600460009054906101000a900473ffffffffffffffffffffffffffffffffffffffff1690505b600682815481101515610ac757fe5b9060005260206000209060040201600301548310158015610ae85750600084115b1561132557600682815481101515610afc57fe5b90600052602060002090600402016001015484101515610f205760006001811115610b2357fe5b6000809054906101000a900460ff166001811115610b3d57fe5b1415610eb9578073ffffffffffffffffffffffffffffffffffffffff16638299ba74600684815481101515610b6e57fe5b906000526020600020906004020160000160009054906101000a900473ffffffffffffffffffffffffffffffffffffffff16876001610bcc600688815481101515610bb557fe5b906000526020600020906004020160010154611342565b610bf5600689815481101515610bde57fe5b906000526020600020906004020160030154611368565b60035460026040518863ffffffff167c0100000000000000000000000000000000000000000000000000000000028152600401808873ffffffffffffffffffffffffffffffffffffffff1673ffffffffffffffffffffffffffffffffffffffff1681526020018773ffffffffffffffffffffffffffffffffffffffff1673ffffffffffffffffffffffffffffffffffffffff1681526020018060200180602001806020018681526020018060200185810385528a818154600181600116156101000203166002900481526020019150805460018160011615610100020316600290048015610d245780601f10610cf957610100808354040283529160200191610d24565b820191906000526020600020905b815481529060010190602001808311610d0757829003601f168201915b5050858103845289818151815260200191508051906020019080838360005b83811015610d5e578082015181840152602081019050610d43565b50505050905090810190601f168015610d8b5780820380516001836020036101000a031916815260200191505b50858103835288818151815260200191508051906020019080838360005b83811015610dc4578082015181840152602081019050610da9565b50505050905090810190601f168015610df15780820380516001836020036101000a031916815260200191505b50858103825286818154600181600116156101000203166002900481526020019150805460018160011615610100020316600290048015610e735780601f10610e4857610100808354040283529160200191610e73565b820191906000526020600020905b815481529060010190602001808311610e5657829003601f168201915b50509b505050505050505050505050600060405180830381600087803b158015610e9c57600080fd5b505af1158015610eb0573d6000803e3d6000fd5b50505050610ee2565b600180811115610ec557fe5b6000809054906101000a900460ff166001811115610edf57fe5b50505b600682815481101515610ef157fe5b90600052602060002090600402016001015484039350610f1260068361140b565b818060019003925050611318565b60006001811115610f2d57fe5b6000809054906101000a900460ff166001811115610f4757fe5b14156112a3578073ffffffffffffffffffffffffffffffffffffffff16638299ba74600684815481101515610f7857fe5b906000526020600020906004020160000160009054906101000a900473ffffffffffffffffffffffffffffffffffffffff16876001610fb689611342565b610fdf600689815481101515610fc857fe5b906000526020600020906004020160030154611368565b60035460026040518863ffffffff167c0100000000000000000000000000000000000000000000000000000000028152600401808873ffffffffffffffffffffffffffffffffffffffff1673ffffffffffffffffffffffffffffffffffffffff1681526020018773ffffffffffffffffffffffffffffffffffffffff1673ffffffffffffffffffffffffffffffffffffffff1681526020018060200180602001806020018681526020018060200185810385528a81815460018160011615610100020316600290048152602001915080546001816001161561010002031660029004801561110e5780601f106110e35761010080835404028352916020019161110e565b820191906000526020600020905b8154815290600101906020018083116110f157829003601f168201915b5050858103845289818151815260200191508051906020019080838360005b8381101561114857808201518184015260208101905061112d565b50505050905090810190601f1680156111755780820380516001836020036101000a031916815260200191505b50858103835288818151815260200191508051906020019080838360005b838110156111ae578082015181840152602081019050611193565b50505050905090810190601f1680156111db5780820380516001836020036101000a031916815260200191505b5085810382528681815460018160011615610100020316600290048152602001915080546001816001161561010002031660029004801561125d5780601f106112325761010080835404028352916020019161125d565b820191906000526020600020905b81548152906001019060200180831161124057829003601f168201915b50509b505050505050505050505050600060405180830381600087803b15801561128657600080fd5b505af115801561129a573d6000803e3d6000fd5b505050506112cc565b6001808111156112af57fe5b6000809054906101000a900460ff1660018111156112c957fe5b50505b836006838154811015156112dc57fe5b906000526020600020906004020160010154036006838154811015156112fe57fe5b906000526020600020906004020160010181905550600093505b8180600101925050610ab8565b5b600084111561133b5761133a858585611649565b5b5050505050565b60606000606061135184611725565b915061135c826117ce565b90508092505050919050565b606060008060008060006060806103e88981151561138257fe5b0496506103e887029550858903945061139a87611725565b93506113a585611725565b92506113b0846117ce565b91506113bb836117ce565b90506113fd826040805190810160405280600181526020017f2e00000000000000000000000000000000000000000000000000000000000000815250836118f3565b975050505050505050919050565b600082805490508210151561141f57611568565b8190505b600183805490500381101561150257826001820181548110151561144357fe5b9060005260206000209060040201838281548110151561145f57fe5b90600052602060002090600402016000820160009054906101000a900473ffffffffffffffffffffffffffffffffffffffff168160000160006101000a81548173ffffffffffffffffffffffffffffffffffffffff021916908373ffffffffffffffffffffffffffffffffffffffff1602179055506001820154816001015560028201548160020155600382015481600301559050508080600101915050611423565b82600184805490500381548110151561151757fe5b9060005260206000209060040201600080820160006101000a81549073ffffffffffffffffffffffffffffffffffffffff021916905560018201600090556002820160009055600382016000905550505b505050565b60066080604051908101604052808573ffffffffffffffffffffffffffffffffffffffff168152602001848152602001428152602001838152509080600181540180825580915050906001820390600052602060002090600402016000909192909190915060008201518160000160006101000a81548173ffffffffffffffffffffffffffffffffffffffff021916908373ffffffffffffffffffffffffffffffffffffffff160217905550602082015181600101556040820151816002015560608201518160030155505050611644600661192b565b505050565b60056080604051908101604052808573ffffffffffffffffffffffffffffffffffffffff168152602001848152602001428152602001838152509080600181540180825580915050906001820390600052602060002090600402016000909192909190915060008201518160000160006101000a81548173ffffffffffffffffffffffffffffffffffffffff021916908373ffffffffffffffffffffffffffffffffffffffff160217905550602082015181600101556040820151816002015560608201518160030155505050611720600661192b565b505050565b600080821415611757577f300000000000000000000000000000000000000000000000000000000000000090506117c6565b5b60008211156117c557610100816001900481151561177257fe5b0460010290507f01000000000000000000000000000000000000000000000000000000000000006030600a848115156117a757fe5b06010260010281179050600a828115156117bd57fe5b049150611758565b5b809050919050565b60608060006117db612e08565b6117e3612e08565b60206040519080825280601f01601f1916602001820160405280156118175781602001602082028038833980820191505090505b5093505b60208310156118a057858360208110151561183257fe5b1a7f010000000000000000000000000000000000000000000000000000000000000002848481518110151561186357fe5b9060200101907effffffffffffffffffffffffffffffffffffffffffffffffffffffffffffff1916908160001a905350828060010193505061181b565b6118a984612069565b91506118de6118cd6040805190810160405280600181526020016000815250612069565b82846120979092919063ffffffff16565b506118e881612135565b945050505050919050565b606061192284848460206040519081016040528060008152506020604051908101604052806000815250612197565b90509392505050565b60006001828054905011151561194057612065565b600282805490501415611c975781600181548110151561195c57fe5b90600052602060002090600402016003015482600081548110151561197d57fe5b9060005260206000209060040201600301541015611c92578160018154811015156119a457fe5b9060005260206000209060040201600301548260008154811015156119c557fe5b9060005260206000209060040201600301548360008154811015156119e657fe5b90600052602060002090600402016003016000856001815481101515611a0857fe5b90600052602060002090600402016003016000849190505583919050555050816001815481101515611a3657fe5b906000526020600020906004020160010154826000815481101515611a5757fe5b906000526020600020906004020160010154836000815481101515611a7857fe5b90600052602060002090600402016001016000856001815481101515611a9a57fe5b90600052602060002090600402016001016000849190505583919050555050816001815481101515611ac857fe5b906000526020600020906004020160000160009054906101000a900473ffffffffffffffffffffffffffffffffffffffff16826000815481101515611b0957fe5b906000526020600020906004020160000160009054906101000a900473ffffffffffffffffffffffffffffffffffffffff16836000815481101515611b4a57fe5b90600052602060002090600402016000016000856001815481101515611b6c57fe5b906000526020600020906004020160000160008491906101000a81548173ffffffffffffffffffffffffffffffffffffffff021916908373ffffffffffffffffffffffffffffffffffffffff1602179055508391906101000a81548173ffffffffffffffffffffffffffffffffffffffff021916908373ffffffffffffffffffffffffffffffffffffffff1602179055505050816001815481101515611c0e57fe5b906000526020600020906004020160020154826000815481101515611c2f57fe5b906000526020600020906004020160020154836000815481101515611c5057fe5b90600052602060002090600402016002016000856001815481101515611c7257fe5b906000526020600020906004020160020160008491905055839190505550505b611cab565b611caa82600060018580549050036125ac565b5b600090505b6001828054905003811015612064578160018201815481101515611cd057fe5b9060005260206000209060040201600301548282815481101515611cf057fe5b9060005260206000209060040201600301541415612057578160018201815481101515611d1957fe5b9060005260206000209060040201600201548282815481101515611d3957fe5b9060005260206000209060040201600201541015612056578160018201815481101515611d6257fe5b9060005260206000209060040201600301548282815481101515611d8257fe5b9060005260206000209060040201600301548383815481101515611da257fe5b906000526020600020906004020160030160008560018601815481101515611dc657fe5b906000526020600020906004020160030160008491905055839190505550508160018201815481101515611df657fe5b9060005260206000209060040201600101548282815481101515611e1657fe5b9060005260206000209060040201600101548383815481101515611e3657fe5b906000526020600020906004020160010160008560018601815481101515611e5a57fe5b906000526020600020906004020160010160008491905055839190505550508160018201815481101515611e8a57fe5b906000526020600020906004020160000160009054906101000a900473ffffffffffffffffffffffffffffffffffffffff168282815481101515611eca57fe5b906000526020600020906004020160000160009054906101000a900473ffffffffffffffffffffffffffffffffffffffff168383815481101515611f0a57fe5b906000526020600020906004020160000160008560018601815481101515611f2e57fe5b906000526020600020906004020160000160008491906101000a81548173ffffffffffffffffffffffffffffffffffffffff021916908373ffffffffffffffffffffffffffffffffffffffff1602179055508391906101000a81548173ffffffffffffffffffffffffffffffffffffffff021916908373ffffffffffffffffffffffffffffffffffffffff16021790555050508160018201815481101515611fd257fe5b9060005260206000209060040201600201548282815481101515611ff257fe5b906000526020600020906004020160020154838381548110151561201257fe5b90600052602060002090600402016002016000856001860181548110151561203657fe5b906000526020600020906004020160020160008491905055839190505550505b5b8080600101915050611cb0565b5b5050565b612071612e08565b600060208301905060408051908101604052808451815260200182815250915050919050565b61209f612e08565b60006120bd85600001518660200151866000015187602001516128db565b905084602001518360200181815250508460200151810383600001818152505084600001518560200151018114156120ff57600085600001818152505061212a565b8360000151836000015101856000018181510391508181525050836000015181018560200181815250505b829150509392505050565b606080600083600001516040519080825280601f01601f1916602001820160405280156121715781602001602082028038833980820191505090505b50915060208201905061218d81856020015186600001516129c1565b8192505050919050565b6060806060806060806060806000808e98508d97508c96508b95508a94508451865188518a518c51010101016040519080825280601f01601f1916602001820160405280156121f55781602001602082028038833980820191505090505b50935083925060009150600090505b88518110156122b757888181518110151561221b57fe5b9060200101517f010000000000000000000000000000000000000000000000000000000000000090047f010000000000000000000000000000000000000000000000000000000000000002838380600101945081518110151561227a57fe5b9060200101907effffffffffffffffffffffffffffffffffffffffffffffffffffffffffffff1916908160001a9053508080600101915050612204565b600090505b875181101561236f5787818151811015156122d357fe5b9060200101517f010000000000000000000000000000000000000000000000000000000000000090047f010000000000000000000000000000000000000000000000000000000000000002838380600101945081518110151561233257fe5b9060200101907effffffffffffffffffffffffffffffffffffffffffffffffffffffffffffff1916908160001a90535080806001019150506122bc565b600090505b865181101561242757868181518110151561238b57fe5b9060200101517f010000000000000000000000000000000000000000000000000000000000000090047f01000000000000000000000000000000000000000000000000000000000000000283838060010194508151811015156123ea57fe5b9060200101907effffffffffffffffffffffffffffffffffffffffffffffffffffffffffffff1916908160001a9053508080600101915050612374565b600090505b85518110156124df57858181518110151561244357fe5b9060200101517f010000000000000000000000000000000000000000000000000000000000000090047f01000000000000000000000000000000000000000000000000000000000000000283838060010194508151811015156124a257fe5b9060200101907effffffffffffffffffffffffffffffffffffffffffffffffffffffffffffff1916908160001a905350808060010191505061242c565b600090505b84518110156125975784818151811015156124fb57fe5b9060200101517f010000000000000000000000000000000000000000000000000000000000000090047f010000000000000000000000000000000000000000000000000000000000000002838380600101945081518110151561255a57fe5b9060200101907effffffffffffffffffffffffffffffffffffffffffffffffffffffffffffff1916908160001a90535080806001019150506124e4565b82995050505050505050505095945050505050565b6000806125ba858585612a0c565b60009150600185805490500390505b80821115156128d45784818154811015156125e057fe5b906000526020600020906004020160030154858381548110151561260057fe5b906000526020600020906004020160030154868481548110151561262057fe5b90600052602060002090600402016003016000888581548110151561264157fe5b90600052602060002090600402016003016000849190505583919050555050848181548110151561266e57fe5b906000526020600020906004020160010154858381548110151561268e57fe5b90600052602060002090600402016001015486848154811015156126ae57fe5b9060005260206000209060040201600101600088858154811015156126cf57fe5b9060005260206000209060040201600101600084919050558391905055505084818154811015156126fc57fe5b906000526020600020906004020160000160009054906101000a900473ffffffffffffffffffffffffffffffffffffffff16858381548110151561273c57fe5b906000526020600020906004020160000160009054906101000a900473ffffffffffffffffffffffffffffffffffffffff16868481548110151561277c57fe5b90600052602060002090600402016000016000888581548110151561279d57fe5b906000526020600020906004020160000160008491906101000a81548173ffffffffffffffffffffffffffffffffffffffff021916908373ffffffffffffffffffffffffffffffffffffffff1602179055508391906101000a81548173ffffffffffffffffffffffffffffffffffffffff021916908373ffffffffffffffffffffffffffffffffffffffff1602179055505050848181548110151561283e57fe5b906000526020600020906004020160020154858381548110151561285e57fe5b906000526020600020906004020160020154868481548110151561287e57fe5b90600052602060002090600402016002016000888581548110151561289f57fe5b9060005260206000209060040201600201600084919050558391905055505081806001019250508080600190039150506125c9565b5050505050565b60008060008060008060008060008b97508c8b1115156129ab5760208b1115156129655760018b60200360080260020a03196001029550858a511694508a8d8d010393508588511692505b8460001916836000191614151561295d57838810151561294a578c8c0198506129b1565b8780600101985050858851169250612926565b8798506129b1565b8a8a209150600096505b8a8d03871115156129aa578a88209050806000191682600019161415612997578798506129b1565b600188019750868060010197505061296f565b5b8c8c0198505b5050505050505050949350505050565b60005b6020821015156129e957825184526020840193506020830192506020820391506129c4565b6001826020036101000a0390508019835116818551168181178652505050505050565b600080600084925083915081831415612a2457612e00565b856002868603811515612a3357fe5b048601815481101515612a4257fe5b90600052602060002090600402016003015490505b8183111515612dd7575b808684815481101515612a7057fe5b9060005260206000209060040201600301541015612a95578280600101935050612a61565b5b8582815481101515612aa457fe5b906000526020600020906004020160030154811015612acb57818060019003925050612a96565b8183111515612dd2578582815481101515612ae257fe5b9060005260206000209060040201600301548684815481101515612b0257fe5b9060005260206000209060040201600301548785815481101515612b2257fe5b906000526020600020906004020160030160008986815481101515612b4357fe5b906000526020600020906004020160030160008491905055839190505550508582815481101515612b7057fe5b9060005260206000209060040201600101548684815481101515612b9057fe5b9060005260206000209060040201600101548785815481101515612bb057fe5b906000526020600020906004020160010160008986815481101515612bd157fe5b906000526020600020906004020160010160008491905055839190505550508582815481101515612bfe57fe5b906000526020600020906004020160000160009054906101000a900473ffffffffffffffffffffffffffffffffffffffff168684815481101515612c3e57fe5b906000526020600020906004020160000160009054906101000a900473ffffffffffffffffffffffffffffffffffffffff168785815481101515612c7e57fe5b906000526020600020906004020160000160008986815481101515612c9f57fe5b906000526020600020906004020160000160008491906101000a81548173ffffffffffffffffffffffffffffffffffffffff021916908373ffffffffffffffffffffffffffffffffffffffff1602179055508391906101000a81548173ffffffffffffffffffffffffffffffffffffffff021916908373ffffffffffffffffffffffffffffffffffffffff16021790555050508582815481101515612d4057fe5b9060005260206000209060040201600201548684815481101515612d6057fe5b9060005260206000209060040201600201548785815481101515612d8057fe5b906000526020600020906004020160020160008986815481101515612da157fe5b9060005260206000209060040201600201600084919050558391905055505082806001019350508180600190039250505b612a57565b81851015612deb57612dea868684612a0c565b5b83831015612dff57612dfe868486612a0c565b5b5b505050505050565b6040805190810160405280600081526020016000815250905600a165627a7a723058208c9951253cd63d7cfa87f40ff6a7fbf7307062c0a2cd6b5e8bdf8937967da63f0029",
  "source": "pragma solidity ^0.4.20;\n\nimport \"./QuickSortOrder.sol\";\nimport \"./Market.sol\";\nimport \"./Utils.sol\";\n\ncontract OrderBook is QuickSortOrder\n{\n    Utils.instrumentType instType;\n    string instrumentID;\n    string market;\n    uint settlementTimestamp;\n\n    address marketAddress;\n\n    // ASK are sell orders\n    Utils.order[] askOrders;\n    // BID are buy orders\n    Utils.order[] bidOrders;\n\n    modifier onlyMarket()\n    {\n        require (marketAddress == msg.sender);\n        _;\n    }\n\n    function OrderBook(string _instrumentID, string _market, Utils.instrumentType _instrumentType, uint _settlementTimestamp) public\n    {\n        instrumentID = _instrumentID;\n        market = _market;\n        instType = _instrumentType;\n        marketAddress = msg.sender;\n        settlementTimestamp = _settlementTimestamp;\n    }\n    // In this case we consider than _clearingMemberAddress is equals to _MarketMemberAddress\n    function addBuyOrder(address _clearingMemberAddress, uint _quantity, uint _price) public onlyMarket\n    {\n        if (askOrders.length != 0)\n        {\n            uint i = 0;\n            Market _marketContract = Market(marketAddress);\n\n            while (_price <= askOrders[i].price || _quantity > 0)\n            {\n                if (_quantity >= askOrders[i].quantity)\n                {\n                    if (instType == Utils.instrumentType.future)\n                    {\n                        _marketContract.addFutureToCCP(_clearingMemberAddress, askOrders[i].clearingMemberAddress, instrumentID, Utils.uintToString(askOrders[i].quantity), Utils.uintPriceToString(askOrders[i].price), settlementTimestamp, market);\n                    }\n                    else if (instType == Utils.instrumentType.swap)\n                    {\n                        //_marketContract.addSwapToCCP(_clearingMemberAddress, askOrders[i].clearingMemberAddress, instrumentID, Utils.uintToString(askOrders[i].quantity), Utils.uintPriceToString(askOrders[i].price), settlementTimestamp, market);\n                    }\n\n                    _quantity = _quantity - askOrders[i].quantity;\n                    Utils.removeOrder(askOrders, i);\n                    i--;\n                }\n                else\n                {\n                    if (instType == Utils.instrumentType.future)\n                    {\n                        _marketContract.addFutureToCCP(_clearingMemberAddress, askOrders[i].clearingMemberAddress, instrumentID, Utils.uintToString(_quantity), Utils.uintPriceToString(askOrders[i].price), settlementTimestamp, market);\n                    }\n                    else if (instType == Utils.instrumentType.swap)\n                    {\n                        //_marketContract.addSwapToCCP(_clearingMemberAddress, askOrders[i].clearingMemberAddress, instrumentID, Utils.uintToString(_quantity), Utils.uintPriceToString(askOrders[i].price), settlementTimestamp, market);\n                    }\n\n                    askOrders[i].quantity = askOrders[i].quantity - _quantity;\n                    _quantity = 0;\n                }\n                i++;\n            }\n        }\n\n        if (_quantity > 0)\n        {\n          addBidToOrderBook(_clearingMemberAddress, _quantity, _price);\n        }\n    }\n\n    function addSellOrder(address _clearingMemberAddress, uint _quantity, uint _price) public onlyMarket\n    {\n        if (bidOrders.length != 0)\n        {\n            uint i = 0;\n            Market _marketContract = Market(marketAddress);\n\n            while (_price >= bidOrders[i].price && _quantity > 0)\n            {\n                if (_quantity >= bidOrders[i].quantity)\n                {\n                    if (instType == Utils.instrumentType.future)\n                    {\n                        _marketContract.addFutureToCCP(bidOrders[i].clearingMemberAddress, _clearingMemberAddress, instrumentID, Utils.uintToString(bidOrders[i].quantity), Utils.uintPriceToString(bidOrders[i].price), settlementTimestamp, market);\n                    }\n                    else if (instType == Utils.instrumentType.swap)\n                    {\n                        //_marketContract.addSwapToCCP(bidOrders[i].clearingMemberAddress, _clearingMemberAddress, instrumentID, Utils.uintToString(bidOrders[i].quantity), Utils.uintPriceToString(bidOrders[i].price), settlementTimestamp, market);\n                    }\n\n                    _quantity = _quantity - bidOrders[i].quantity;\n                    Utils.removeOrder(bidOrders, i);\n                    i--;\n                }\n                else\n                {\n                    if (instType == Utils.instrumentType.future)\n                    {\n                        _marketContract.addFutureToCCP(bidOrders[i].clearingMemberAddress, _clearingMemberAddress, instrumentID, Utils.uintToString(_quantity), Utils.uintPriceToString(bidOrders[i].price), settlementTimestamp, market);\n                    }\n                    else if (instType == Utils.instrumentType.swap)\n                    {\n                        //_marketContract.addSwapToCCP(bidOrders[i].clearingMemberAddress, _clearingMemberAddress, instrumentID, Utils.uintToString(_quantity), Utils.uintPriceToString(bidOrders[i].price), settlementTimestamp, market);\n                    }\n                    bidOrders[i].quantity = bidOrders[i].quantity - _quantity;\n                    _quantity = 0;\n                }\n                i++;\n            }\n        }\n\n        if (_quantity > 0)\n        {\n            addAskToOrderBook(_clearingMemberAddress, _quantity, _price);\n        }\n    }\n\n    function addBidToOrderBook(address _clearingMemberAddress, uint _quantity, uint _price) internal\n    {\n        bidOrders.push(Utils.order(_clearingMemberAddress, _quantity, block.timestamp,  _price));\n        orderDecreasing(bidOrders);\n    }\n\n    function addAskToOrderBook(address _clearingMemberAddress, uint _quantity, uint _price) internal\n    {\n        askOrders.push(Utils.order(_clearingMemberAddress, _quantity, block.timestamp,  _price));\n        orderDecreasing(bidOrders);\n    }\n}\n",
  "sourcePath": "/home/dtm/Desktop/TFM/DAPPS/CompensationChamber/contracts/OrderBook.sol",
  "compiler": {
    "name": "solc",
    "version": "0.4.24+commit.e67f0147.Emscripten.clang"
  },
  "schemaVersion": "2.0.1",
  "updatedAt": "2018-07-16T09:51:41.376Z"
}