{
  "contractName": "OrderBook",
  "abi": [
    {
      "inputs": [
        {
          "name": "_instrumentID",
          "type": "string"
        },
        {
          "name": "_market",
          "type": "string"
        },
        {
          "name": "_instrumentType",
          "type": "uint8"
        },
        {
          "name": "_settlementTimestamp",
          "type": "uint256"
        }
      ],
      "payable": false,
      "stateMutability": "nonpayable",
      "type": "constructor"
    },
    {
      "anonymous": false,
      "inputs": [
        {
          "indexed": false,
          "name": "a",
          "type": "string"
        }
      ],
      "name": "sortDone",
      "type": "event"
    },
    {
      "constant": false,
      "inputs": [
        {
          "name": "_clearingMemberAddress",
          "type": "address"
        },
        {
          "name": "_quantity",
          "type": "uint256"
        },
        {
          "name": "_price",
          "type": "uint256"
        }
      ],
      "name": "addBuyOrder",
      "outputs": [],
      "payable": false,
      "stateMutability": "nonpayable",
      "type": "function"
    },
    {
      "constant": false,
      "inputs": [
        {
          "name": "_clearingMemberAddress",
          "type": "address"
        },
        {
          "name": "_quantity",
          "type": "uint256"
        },
        {
          "name": "_price",
          "type": "uint256"
        }
      ],
      "name": "addSellOrder",
      "outputs": [],
      "payable": false,
      "stateMutability": "nonpayable",
      "type": "function"
    },
    {
      "constant": false,
      "inputs": [],
      "name": "getInstrumentID",
      "outputs": [
        {
          "name": "",
          "type": "string"
        }
      ],
      "payable": false,
      "stateMutability": "nonpayable",
      "type": "function"
    },
    {
      "constant": false,
      "inputs": [],
      "name": "getAskOrdersLength",
      "outputs": [
        {
          "name": "",
          "type": "uint256"
        }
      ],
      "payable": false,
      "stateMutability": "nonpayable",
      "type": "function"
    },
    {
      "constant": false,
      "inputs": [],
      "name": "getBidOrdersLength",
      "outputs": [
        {
          "name": "",
          "type": "uint256"
        }
      ],
      "payable": false,
      "stateMutability": "nonpayable",
      "type": "function"
    },
    {
      "constant": true,
      "inputs": [
        {
          "name": "i",
          "type": "uint256"
        }
      ],
      "name": "getAskOrders",
      "outputs": [
        {
          "components": [
            {
              "name": "quantity",
              "type": "uint256"
            },
            {
              "name": "price",
              "type": "uint256"
            }
          ],
          "name": "_marketOrder",
          "type": "tuple"
        }
      ],
      "payable": false,
      "stateMutability": "view",
      "type": "function"
    },
    {
      "constant": true,
      "inputs": [
        {
          "name": "i",
          "type": "uint256"
        }
      ],
      "name": "getBidOrders",
      "outputs": [
        {
          "components": [
            {
              "name": "quantity",
              "type": "uint256"
            },
            {
              "name": "price",
              "type": "uint256"
            }
          ],
          "name": "_marketOrder",
          "type": "tuple"
        }
      ],
      "payable": false,
      "stateMutability": "view",
      "type": "function"
    }
  ],
  "bytecode": "0x60806040523480156200001157600080fd5b5060405162002e6338038062002e63833981018060405262000037919081019062000217565b83600190805190602001906200004f929190620000de565b50826002908051906020019062000068929190620000de565b50816000806101000a81548160ff021916908360018111156200008757fe5b021790555033600460006101000a81548173ffffffffffffffffffffffffffffffffffffffff021916908373ffffffffffffffffffffffffffffffffffffffff16021790555080600381905550505050506200036a565b828054600181600116156101000203166002900490600052602060002090601f016020900481019282601f106200012157805160ff191683800117855562000152565b8280016001018555821562000152579182015b828111156200015157825182559160200191906001019062000134565b5b50905062000161919062000165565b5090565b6200018a91905b80821115620001865760008160009055506001016200016c565b5090565b90565b60006200019b825162000310565b905092915050565b600082601f8301121515620001b757600080fd5b8151620001ce620001c882620002e3565b620002b5565b91508082526020830160208301858383011115620001eb57600080fd5b620001f883828462000334565b50505092915050565b60006200020f82516200032a565b905092915050565b600080600080608085870312156200022e57600080fd5b600085015167ffffffffffffffff8111156200024957600080fd5b6200025787828801620001a3565b945050602085015167ffffffffffffffff8111156200027557600080fd5b6200028387828801620001a3565b935050604062000296878288016200018d565b9250506060620002a98782880162000201565b91505092959194509250565b6000604051905081810181811067ffffffffffffffff82111715620002d957600080fd5b8060405250919050565b600067ffffffffffffffff821115620002fb57600080fd5b601f19601f8301169050602081019050919050565b60006002821015156200032257600080fd5b819050919050565b6000819050919050565b60005b838110156200035457808201518184015260208101905062000337565b8381111562000364576000848401525b50505050565b612ae9806200037a6000396000f300608060405260043610610083576000357c0100000000000000000000000000000000000000000000000000000000900463ffffffff16806335aedaee14610088578063478f79f8146100b357806348892632146100f05780639f2ad8af1461011b578063c525ff5b14610144578063f8df39791461016f578063fbe0f830146101ac575b600080fd5b34801561009457600080fd5b5061009d6101d5565b6040516100aa91906129df565b60405180910390f35b3480156100bf57600080fd5b506100da60048036036100d591908101906127e5565b6101e2565b6040516100e791906129c4565b60405180910390f35b3480156100fc57600080fd5b50610105610246565b60405161011291906129a2565b60405180910390f35b34801561012757600080fd5b50610142600480360361013d9190810190612796565b6102e8565b005b34801561015057600080fd5b50610159610775565b60405161016691906129df565b60405180910390f35b34801561017b57600080fd5b50610196600480360361019191908101906127e5565b610782565b6040516101a391906129c4565b60405180910390f35b3480156101b857600080fd5b506101d360048036036101ce9190810190612796565b6107e6565b005b6000600680549050905090565b6101ea61273a565b604080519081016040528060058481548110151561020457fe5b906000526020600020906004020160010154815260200160058481548110151561022a57fe5b9060005260206000209060040201600301548152509050919050565b606060018054600181600116156101000203166002900480601f0160208091040260200160405190810160405280929190818152602001828054600181600116156101000203166002900480156102de5780601f106102b3576101008083540402835291602001916102de565b820191906000526020600020905b8154815290600101906020018083116102c157829003601f168201915b5050505050905090565b6000803373ffffffffffffffffffffffffffffffffffffffff16600460009054906101000a900473ffffffffffffffffffffffffffffffffffffffff1673ffffffffffffffffffffffffffffffffffffffff1614151561034757600080fd5b60006005805490501415156107595760009150600460009054906101000a900473ffffffffffffffffffffffffffffffffffffffff1690505b60058281548110151561038f57fe5b906000526020600020906004020160030154831115806103af5750600084115b15610758576005828154811015156103c357fe5b9060005260206000209060040201600101548410151561059d57600060018111156103ea57fe5b6000809054906101000a900460ff16600181111561040457fe5b1415610536578073ffffffffffffffffffffffffffffffffffffffff16638299ba748660058581548110151561043657fe5b906000526020600020906004020160000160009054906101000a900473ffffffffffffffffffffffffffffffffffffffff16600161049360058881548110151561047c57fe5b906000526020600020906004020160010154610c74565b6104bc6005898154811015156104a557fe5b906000526020600020906004020160030154610c9a565b60035460026040518863ffffffff167c01000000000000000000000000000000000000000000000000000000000281526004016104ff9796959493929190612917565b600060405180830381600087803b15801561051957600080fd5b505af115801561052d573d6000803e3d6000fd5b5050505061055f565b60018081111561054257fe5b6000809054906101000a900460ff16600181111561055c57fe5b50505b60058281548110151561056e57fe5b9060005260206000209060040201600101548403935061058f600583610d3d565b81806001900392505061074b565b600060018111156105aa57fe5b6000809054906101000a900460ff1660018111156105c457fe5b14156106d6578073ffffffffffffffffffffffffffffffffffffffff16638299ba74866005858154811015156105f657fe5b906000526020600020906004020160000160009054906101000a900473ffffffffffffffffffffffffffffffffffffffff16600161063389610c74565b61065c60058981548110151561064557fe5b906000526020600020906004020160030154610c9a565b60035460026040518863ffffffff167c010000000000000000000000000000000000000000000000000000000002815260040161069f9796959493929190612917565b600060405180830381600087803b1580156106b957600080fd5b505af11580156106cd573d6000803e3d6000fd5b505050506106ff565b6001808111156106e257fe5b6000809054906101000a900460ff1660018111156106fc57fe5b50505b8360058381548110151561070f57fe5b9060005260206000209060040201600101540360058381548110151561073157fe5b906000526020600020906004020160010181905550600093505b8180600101925050610380565b5b600084111561076e5761076d858585610e9f565b5b5050505050565b6000600580549050905090565b61078a61273a565b60408051908101604052806006848154811015156107a457fe5b90600052602060002090600402016001015481526020016006848154811015156107ca57fe5b9060005260206000209060040201600301548152509050919050565b6000803373ffffffffffffffffffffffffffffffffffffffff16600460009054906101000a900473ffffffffffffffffffffffffffffffffffffffff1673ffffffffffffffffffffffffffffffffffffffff1614151561084557600080fd5b6000600680549050141515610c585760009150600460009054906101000a900473ffffffffffffffffffffffffffffffffffffffff1690505b60068281548110151561088d57fe5b90600052602060002090600402016003015483101580156108ae5750600084115b15610c57576006828154811015156108c257fe5b90600052602060002090600402016001015484101515610a9c57600060018111156108e957fe5b6000809054906101000a900460ff16600181111561090357fe5b1415610a35578073ffffffffffffffffffffffffffffffffffffffff16638299ba7460068481548110151561093457fe5b906000526020600020906004020160000160009054906101000a900473ffffffffffffffffffffffffffffffffffffffff1687600161099260068881548110151561097b57fe5b906000526020600020906004020160010154610c74565b6109bb6006898154811015156109a457fe5b906000526020600020906004020160030154610c9a565b60035460026040518863ffffffff167c01000000000000000000000000000000000000000000000000000000000281526004016109fe9796959493929190612917565b600060405180830381600087803b158015610a1857600080fd5b505af1158015610a2c573d6000803e3d6000fd5b50505050610a5e565b600180811115610a4157fe5b6000809054906101000a900460ff166001811115610a5b57fe5b50505b600682815481101515610a6d57fe5b90600052602060002090600402016001015484039350610a8e600683610d3d565b818060019003925050610c4a565b60006001811115610aa957fe5b6000809054906101000a900460ff166001811115610ac357fe5b1415610bd5578073ffffffffffffffffffffffffffffffffffffffff16638299ba74600684815481101515610af457fe5b906000526020600020906004020160000160009054906101000a900473ffffffffffffffffffffffffffffffffffffffff16876001610b3289610c74565b610b5b600689815481101515610b4457fe5b906000526020600020906004020160030154610c9a565b60035460026040518863ffffffff167c0100000000000000000000000000000000000000000000000000000000028152600401610b9e9796959493929190612917565b600060405180830381600087803b158015610bb857600080fd5b505af1158015610bcc573d6000803e3d6000fd5b50505050610bfe565b600180811115610be157fe5b6000809054906101000a900460ff166001811115610bfb57fe5b50505b83600683815481101515610c0e57fe5b90600052602060002090600402016001015403600683815481101515610c3057fe5b906000526020600020906004020160010181905550600093505b818060010192505061087e565b5b6000841115610c6d57610c6c858585610f7b565b5b5050505050565b606060006060610c8384611057565b9150610c8e82611100565b90508092505050919050565b606060008060008060006060806103e889811515610cb457fe5b0496506103e8870295508589039450610ccc87611057565b9350610cd785611057565b9250610ce284611100565b9150610ced83611100565b9050610d2f826040805190810160405280600181526020017f2e0000000000000000000000000000000000000000000000000000000000000081525083611225565b975050505050505050919050565b6000828054905082101515610d5157610e9a565b8190505b6001838054905003811015610e34578260018201815481101515610d7557fe5b90600052602060002090600402018382815481101515610d9157fe5b90600052602060002090600402016000820160009054906101000a900473ffffffffffffffffffffffffffffffffffffffff168160000160006101000a81548173ffffffffffffffffffffffffffffffffffffffff021916908373ffffffffffffffffffffffffffffffffffffffff1602179055506001820154816001015560028201548160020155600382015481600301559050508080600101915050610d55565b826001848054905003815481101515610e4957fe5b9060005260206000209060040201600080820160006101000a81549073ffffffffffffffffffffffffffffffffffffffff021916905560018201600090556002820160009055600382016000905550505b505050565b60066080604051908101604052808573ffffffffffffffffffffffffffffffffffffffff168152602001848152602001428152602001838152509080600181540180825580915050906001820390600052602060002090600402016000909192909190915060008201518160000160006101000a81548173ffffffffffffffffffffffffffffffffffffffff021916908373ffffffffffffffffffffffffffffffffffffffff160217905550602082015181600101556040820151816002015560608201518160030155505050610f76600661125d565b505050565b60056080604051908101604052808573ffffffffffffffffffffffffffffffffffffffff168152602001848152602001428152602001838152509080600181540180825580915050906001820390600052602060002090600402016000909192909190915060008201518160000160006101000a81548173ffffffffffffffffffffffffffffffffffffffff021916908373ffffffffffffffffffffffffffffffffffffffff160217905550602082015181600101556040820151816002015560608201518160030155505050611052600661125d565b505050565b600080821415611089577f300000000000000000000000000000000000000000000000000000000000000090506110f8565b5b60008211156110f75761010081600190048115156110a457fe5b0460010290507f01000000000000000000000000000000000000000000000000000000000000006030600a848115156110d957fe5b06010260010281179050600a828115156110ef57fe5b04915061108a565b5b809050919050565b606080600061110d612754565b611115612754565b60206040519080825280601f01601f1916602001820160405280156111495781602001602082028038833980820191505090505b5093505b60208310156111d257858360208110151561116457fe5b1a7f010000000000000000000000000000000000000000000000000000000000000002848481518110151561119557fe5b9060200101907effffffffffffffffffffffffffffffffffffffffffffffffffffffffffffff1916908160001a905350828060010193505061114d565b6111db8461199b565b91506112106111ff604080519081016040528060018152602001600081525061199b565b82846119c99092919063ffffffff16565b5061121a81611a67565b945050505050919050565b606061125484848460206040519081016040528060008152506020604051908101604052806000815250611ac9565b90509392505050565b60006001828054905011151561127257611997565b6002828054905014156115c95781600181548110151561128e57fe5b9060005260206000209060040201600301548260008154811015156112af57fe5b90600052602060002090600402016003015410156115c4578160018154811015156112d657fe5b9060005260206000209060040201600301548260008154811015156112f757fe5b90600052602060002090600402016003015483600081548110151561131857fe5b9060005260206000209060040201600301600085600181548110151561133a57fe5b9060005260206000209060040201600301600084919050558391905055505081600181548110151561136857fe5b90600052602060002090600402016001015482600081548110151561138957fe5b9060005260206000209060040201600101548360008154811015156113aa57fe5b906000526020600020906004020160010160008560018154811015156113cc57fe5b906000526020600020906004020160010160008491905055839190505550508160018154811015156113fa57fe5b906000526020600020906004020160000160009054906101000a900473ffffffffffffffffffffffffffffffffffffffff1682600081548110151561143b57fe5b906000526020600020906004020160000160009054906101000a900473ffffffffffffffffffffffffffffffffffffffff1683600081548110151561147c57fe5b9060005260206000209060040201600001600085600181548110151561149e57fe5b906000526020600020906004020160000160008491906101000a81548173ffffffffffffffffffffffffffffffffffffffff021916908373ffffffffffffffffffffffffffffffffffffffff1602179055508391906101000a81548173ffffffffffffffffffffffffffffffffffffffff021916908373ffffffffffffffffffffffffffffffffffffffff160217905550505081600181548110151561154057fe5b90600052602060002090600402016002015482600081548110151561156157fe5b90600052602060002090600402016002015483600081548110151561158257fe5b906000526020600020906004020160020160008560018154811015156115a457fe5b906000526020600020906004020160020160008491905055839190505550505b6115dd565b6115dc8260006001858054905003611ede565b5b600090505b600182805490500381101561199657816001820181548110151561160257fe5b906000526020600020906004020160030154828281548110151561162257fe5b906000526020600020906004020160030154141561198957816001820181548110151561164b57fe5b906000526020600020906004020160020154828281548110151561166b57fe5b906000526020600020906004020160020154101561198857816001820181548110151561169457fe5b90600052602060002090600402016003015482828154811015156116b457fe5b90600052602060002090600402016003015483838154811015156116d457fe5b9060005260206000209060040201600301600085600186018154811015156116f857fe5b90600052602060002090600402016003016000849190505583919050555050816001820181548110151561172857fe5b906000526020600020906004020160010154828281548110151561174857fe5b906000526020600020906004020160010154838381548110151561176857fe5b90600052602060002090600402016001016000856001860181548110151561178c57fe5b9060005260206000209060040201600101600084919050558391905055505081600182018154811015156117bc57fe5b906000526020600020906004020160000160009054906101000a900473ffffffffffffffffffffffffffffffffffffffff1682828154811015156117fc57fe5b906000526020600020906004020160000160009054906101000a900473ffffffffffffffffffffffffffffffffffffffff16838381548110151561183c57fe5b90600052602060002090600402016000016000856001860181548110151561186057fe5b906000526020600020906004020160000160008491906101000a81548173ffffffffffffffffffffffffffffffffffffffff021916908373ffffffffffffffffffffffffffffffffffffffff1602179055508391906101000a81548173ffffffffffffffffffffffffffffffffffffffff021916908373ffffffffffffffffffffffffffffffffffffffff1602179055505050816001820181548110151561190457fe5b906000526020600020906004020160020154828281548110151561192457fe5b906000526020600020906004020160020154838381548110151561194457fe5b90600052602060002090600402016002016000856001860181548110151561196857fe5b906000526020600020906004020160020160008491905055839190505550505b5b80806001019150506115e2565b5b5050565b6119a3612754565b600060208301905060408051908101604052808451815260200182815250915050919050565b6119d1612754565b60006119ef856000015186602001518660000151876020015161220d565b90508460200151836020018181525050846020015181038360000181815250508460000151856020015101811415611a31576000856000018181525050611a5c565b8360000151836000015101856000018181510391508181525050836000015181018560200181815250505b829150509392505050565b606080600083600001516040519080825280601f01601f191660200182016040528015611aa35781602001602082028038833980820191505090505b509150602082019050611abf81856020015186600001516122f3565b8192505050919050565b6060806060806060806060806000808e98508d97508c96508b95508a94508451865188518a518c51010101016040519080825280601f01601f191660200182016040528015611b275781602001602082028038833980820191505090505b50935083925060009150600090505b8851811015611be9578881815181101515611b4d57fe5b9060200101517f010000000000000000000000000000000000000000000000000000000000000090047f0100000000000000000000000000000000000000000000000000000000000000028383806001019450815181101515611bac57fe5b9060200101907effffffffffffffffffffffffffffffffffffffffffffffffffffffffffffff1916908160001a9053508080600101915050611b36565b600090505b8751811015611ca1578781815181101515611c0557fe5b9060200101517f010000000000000000000000000000000000000000000000000000000000000090047f0100000000000000000000000000000000000000000000000000000000000000028383806001019450815181101515611c6457fe5b9060200101907effffffffffffffffffffffffffffffffffffffffffffffffffffffffffffff1916908160001a9053508080600101915050611bee565b600090505b8651811015611d59578681815181101515611cbd57fe5b9060200101517f010000000000000000000000000000000000000000000000000000000000000090047f0100000000000000000000000000000000000000000000000000000000000000028383806001019450815181101515611d1c57fe5b9060200101907effffffffffffffffffffffffffffffffffffffffffffffffffffffffffffff1916908160001a9053508080600101915050611ca6565b600090505b8551811015611e11578581815181101515611d7557fe5b9060200101517f010000000000000000000000000000000000000000000000000000000000000090047f0100000000000000000000000000000000000000000000000000000000000000028383806001019450815181101515611dd457fe5b9060200101907effffffffffffffffffffffffffffffffffffffffffffffffffffffffffffff1916908160001a9053508080600101915050611d5e565b600090505b8451811015611ec9578481815181101515611e2d57fe5b9060200101517f010000000000000000000000000000000000000000000000000000000000000090047f0100000000000000000000000000000000000000000000000000000000000000028383806001019450815181101515611e8c57fe5b9060200101907effffffffffffffffffffffffffffffffffffffffffffffffffffffffffffff1916908160001a9053508080600101915050611e16565b82995050505050505050505095945050505050565b600080611eec85858561233e565b60009150600185805490500390505b8082111515612206578481815481101515611f1257fe5b9060005260206000209060040201600301548583815481101515611f3257fe5b9060005260206000209060040201600301548684815481101515611f5257fe5b906000526020600020906004020160030160008885815481101515611f7357fe5b906000526020600020906004020160030160008491905055839190505550508481815481101515611fa057fe5b9060005260206000209060040201600101548583815481101515611fc057fe5b9060005260206000209060040201600101548684815481101515611fe057fe5b90600052602060002090600402016001016000888581548110151561200157fe5b90600052602060002090600402016001016000849190505583919050555050848181548110151561202e57fe5b906000526020600020906004020160000160009054906101000a900473ffffffffffffffffffffffffffffffffffffffff16858381548110151561206e57fe5b906000526020600020906004020160000160009054906101000a900473ffffffffffffffffffffffffffffffffffffffff1686848154811015156120ae57fe5b9060005260206000209060040201600001600088858154811015156120cf57fe5b906000526020600020906004020160000160008491906101000a81548173ffffffffffffffffffffffffffffffffffffffff021916908373ffffffffffffffffffffffffffffffffffffffff1602179055508391906101000a81548173ffffffffffffffffffffffffffffffffffffffff021916908373ffffffffffffffffffffffffffffffffffffffff1602179055505050848181548110151561217057fe5b906000526020600020906004020160020154858381548110151561219057fe5b90600052602060002090600402016002015486848154811015156121b057fe5b9060005260206000209060040201600201600088858154811015156121d157fe5b906000526020600020906004020160020160008491905055839190505550508180600101925050808060019003915050611efb565b5050505050565b60008060008060008060008060008b97508c8b1115156122dd5760208b1115156122975760018b60200360080260020a03196001029550858a511694508a8d8d010393508588511692505b8460001916836000191614151561228f57838810151561227c578c8c0198506122e3565b8780600101985050858851169250612258565b8798506122e3565b8a8a209150600096505b8a8d03871115156122dc578a882090508060001916826000191614156122c9578798506122e3565b60018801975086806001019750506122a1565b5b8c8c0198505b5050505050505050949350505050565b60005b60208210151561231b57825184526020840193506020830192506020820391506122f6565b6001826020036101000a0390508019835116818551168181178652505050505050565b60008060008492508391508183141561235657612732565b85600286860381151561236557fe5b04860181548110151561237457fe5b90600052602060002090600402016003015490505b8183111515612709575b8086848154811015156123a257fe5b90600052602060002090600402016003015410156123c7578280600101935050612393565b5b85828154811015156123d657fe5b9060005260206000209060040201600301548110156123fd578180600190039250506123c8565b818311151561270457858281548110151561241457fe5b906000526020600020906004020160030154868481548110151561243457fe5b906000526020600020906004020160030154878581548110151561245457fe5b90600052602060002090600402016003016000898681548110151561247557fe5b9060005260206000209060040201600301600084919050558391905055505085828154811015156124a257fe5b90600052602060002090600402016001015486848154811015156124c257fe5b90600052602060002090600402016001015487858154811015156124e257fe5b90600052602060002090600402016001016000898681548110151561250357fe5b90600052602060002090600402016001016000849190505583919050555050858281548110151561253057fe5b906000526020600020906004020160000160009054906101000a900473ffffffffffffffffffffffffffffffffffffffff16868481548110151561257057fe5b906000526020600020906004020160000160009054906101000a900473ffffffffffffffffffffffffffffffffffffffff1687858154811015156125b057fe5b9060005260206000209060040201600001600089868154811015156125d157fe5b906000526020600020906004020160000160008491906101000a81548173ffffffffffffffffffffffffffffffffffffffff021916908373ffffffffffffffffffffffffffffffffffffffff1602179055508391906101000a81548173ffffffffffffffffffffffffffffffffffffffff021916908373ffffffffffffffffffffffffffffffffffffffff1602179055505050858281548110151561267257fe5b906000526020600020906004020160020154868481548110151561269257fe5b90600052602060002090600402016002015487858154811015156126b257fe5b9060005260206000209060040201600201600089868154811015156126d357fe5b9060005260206000209060040201600201600084919050558391905055505082806001019350508180600190039250505b612389565b8185101561271d5761271c86868461233e565b5b838310156127315761273086848661233e565b5b5b505050505050565b604080519081016040528060008152602001600081525090565b604080519081016040528060008152602001600081525090565b600061277a8235612a41565b905092915050565b600061278e8235612a61565b905092915050565b6000806000606084860312156127ab57600080fd5b60006127b98682870161276e565b93505060206127ca86828701612782565b92505060406127db86828701612782565b9150509250925092565b6000602082840312156127f757600080fd5b600061280584828501612782565b91505092915050565b61281781612a17565b82525050565b600061282882612a0c565b80845261283c816020860160208601612a6b565b61284581612a9e565b602085010191505092915050565b6000815460018116600081146128705760018114612890576128d1565b607f600283041680865260ff1983166020870152604086019350506128d1565b600282048086526020860195506128a6856129fa565b60005b828110156128c8578154818901526001820191506020810190506128a9565b80880195505050505b505092915050565b6040820160008201516128ef6000850182612908565b5060208201516129026020850182612908565b50505050565b61291181612a37565b82525050565b600060e08201905061292c600083018a61280e565b612939602083018961280e565b818103604083015261294b8188612853565b9050818103606083015261295f818761281d565b90508181036080830152612973818661281d565b905061298260a0830185612908565b81810360c08301526129948184612853565b905098975050505050505050565b600060208201905081810360008301526129bc818461281d565b905092915050565b60006040820190506129d960008301846128d9565b92915050565b60006020820190506129f46000830184612908565b92915050565b60008160005260206000209050919050565b600081519050919050565b600073ffffffffffffffffffffffffffffffffffffffff82169050919050565b6000819050919050565b600073ffffffffffffffffffffffffffffffffffffffff82169050919050565b6000819050919050565b60005b83811015612a89578082015181840152602081019050612a6e565b83811115612a98576000848401525b50505050565b6000601f19601f83011690509190505600a265627a7a723058201269a1b9a09ea28fedf9475fea0198b3fabeec7e6d760019b9c2ac40dffe4eb56c6578706572696d656e74616cf50037",
  "source": "pragma experimental ABIEncoderV2;\n\nimport \"./QuickSortOrder.sol\";\nimport \"./Market.sol\";\nimport \"./Utils.sol\";\n\ncontract OrderBook is QuickSortOrder\n{\n    Utils.instrumentType instType;\n    string instrumentID;\n    string market;\n    uint settlementTimestamp;\n\n    address marketAddress;\n\n    // ASK are sell orders\n    Utils.order[] askOrders;\n    // BID are buy orders\n    Utils.order[] bidOrders;\n\n    modifier onlyMarket()\n    {\n        require (marketAddress == msg.sender);\n        _;\n    }\n\n    function OrderBook(string _instrumentID, string _market, Utils.instrumentType _instrumentType, uint _settlementTimestamp) public\n    {\n        instrumentID = _instrumentID;\n        market = _market;\n        instType = _instrumentType;\n        marketAddress = msg.sender;\n        settlementTimestamp = _settlementTimestamp;\n    }\n    // In this case we consider than _clearingMemberAddress is equals to _MarketMemberAddress\n    function addBuyOrder(address _clearingMemberAddress, uint _quantity, uint _price) public onlyMarket\n    {\n        if (askOrders.length != 0)\n        {\n            uint i = 0;\n            Market _marketContract = Market(marketAddress);\n\n            while (_price <= askOrders[i].price || _quantity > 0)\n            {\n                if (_quantity >= askOrders[i].quantity)\n                {\n                    if (instType == Utils.instrumentType.future)\n                    {\n                        _marketContract.addFutureToCCP(_clearingMemberAddress, askOrders[i].clearingMemberAddress, instrumentID, Utils.uintToString(askOrders[i].quantity), Utils.uintPriceToString(askOrders[i].price), settlementTimestamp, market);\n                    }\n                    else if (instType == Utils.instrumentType.swap)\n                    {\n                        //_marketContract.addSwapToCCP(_clearingMemberAddress, askOrders[i].clearingMemberAddress, instrumentID, Utils.uintToString(askOrders[i].quantity), Utils.uintPriceToString(askOrders[i].price), settlementTimestamp, market);\n                    }\n\n                    _quantity = _quantity - askOrders[i].quantity;\n                    Utils.removeOrder(askOrders, i);\n                    i--;\n                }\n                else\n                {\n                    if (instType == Utils.instrumentType.future)\n                    {\n                        _marketContract.addFutureToCCP(_clearingMemberAddress, askOrders[i].clearingMemberAddress, instrumentID, Utils.uintToString(_quantity), Utils.uintPriceToString(askOrders[i].price), settlementTimestamp, market);\n                    }\n                    else if (instType == Utils.instrumentType.swap)\n                    {\n                        //_marketContract.addSwapToCCP(_clearingMemberAddress, askOrders[i].clearingMemberAddress, instrumentID, Utils.uintToString(_quantity), Utils.uintPriceToString(askOrders[i].price), settlementTimestamp, market);\n                    }\n\n                    askOrders[i].quantity = askOrders[i].quantity - _quantity;\n                    _quantity = 0;\n                }\n                i++;\n            }\n        }\n\n        if (_quantity > 0)\n        {\n          addBidToOrderBook(_clearingMemberAddress, _quantity, _price);\n        }\n    }\n\n    function addSellOrder(address _clearingMemberAddress, uint _quantity, uint _price) public onlyMarket\n    {\n        if (bidOrders.length != 0)\n        {\n            uint i = 0;\n            Market _marketContract = Market(marketAddress);\n\n            while (_price >= bidOrders[i].price && _quantity > 0)\n            {\n                if (_quantity >= bidOrders[i].quantity)\n                {\n                    if (instType == Utils.instrumentType.future)\n                    {\n                        _marketContract.addFutureToCCP(bidOrders[i].clearingMemberAddress, _clearingMemberAddress, instrumentID, Utils.uintToString(bidOrders[i].quantity), Utils.uintPriceToString(bidOrders[i].price), settlementTimestamp, market);\n                    }\n                    else if (instType == Utils.instrumentType.swap)\n                    {\n                        //_marketContract.addSwapToCCP(bidOrders[i].clearingMemberAddress, _clearingMemberAddress, instrumentID, Utils.uintToString(bidOrders[i].quantity), Utils.uintPriceToString(bidOrders[i].price), settlementTimestamp, market);\n                    }\n\n                    _quantity = _quantity - bidOrders[i].quantity;\n                    Utils.removeOrder(bidOrders, i);\n                    i--;\n                }\n                else\n                {\n                    if (instType == Utils.instrumentType.future)\n                    {\n                        _marketContract.addFutureToCCP(bidOrders[i].clearingMemberAddress, _clearingMemberAddress, instrumentID, Utils.uintToString(_quantity), Utils.uintPriceToString(bidOrders[i].price), settlementTimestamp, market);\n                    }\n                    else if (instType == Utils.instrumentType.swap)\n                    {\n                        //_marketContract.addSwapToCCP(bidOrders[i].clearingMemberAddress, _clearingMemberAddress, instrumentID, Utils.uintToString(_quantity), Utils.uintPriceToString(bidOrders[i].price), settlementTimestamp, market);\n                    }\n                    bidOrders[i].quantity = bidOrders[i].quantity - _quantity;\n                    _quantity = 0;\n                }\n                i++;\n            }\n        }\n\n        if (_quantity > 0)\n        {\n            addAskToOrderBook(_clearingMemberAddress, _quantity, _price);\n        }\n    }\n\n    function addBidToOrderBook(address _clearingMemberAddress, uint _quantity, uint _price) internal\n    {\n        bidOrders.push(Utils.order(_clearingMemberAddress, _quantity, block.timestamp,  _price));\n        orderDecreasing(bidOrders);\n    }\n\n    function addAskToOrderBook(address _clearingMemberAddress, uint _quantity, uint _price) internal\n    {\n        askOrders.push(Utils.order(_clearingMemberAddress, _quantity, block.timestamp,  _price));\n        orderDecreasing(bidOrders);\n    }\n    function getInstrumentID() returns (string)\n    {\n      return instrumentID;\n    }\n\n    function getAskOrdersLength() returns (uint)\n    {\n      return askOrders.length;\n    }\n\n    function getBidOrdersLength() returns (uint)\n    {\n      return bidOrders.length;\n    }\n\n    function getAskOrders(uint i) public constant returns (Utils.marketOrder _marketOrder)\n    {\n        _marketOrder = Utils.marketOrder(askOrders[i].quantity, askOrders[i].price);\n    }\n\n    function getBidOrders(uint i) public constant returns (Utils.marketOrder _marketOrder)\n    {\n      _marketOrder = Utils.marketOrder(bidOrders[i].quantity, bidOrders[i].price);\n    }\n}\n",
  "sourcePath": "/home/dtm/Desktop/TFM/DAPPS/CompensationChamber/contracts/OrderBook.sol",
  "compiler": {
    "name": "solc",
    "version": "0.4.24+commit.e67f0147.Emscripten.clang"
  },
  "schemaVersion": "2.0.1",
  "updatedAt": "2018-07-18T14:52:39.483Z"
}