{
  "contractName": "OrderBook",
  "abi": [
    {
      "inputs": [
        {
          "name": "_instrumentID",
          "type": "string"
        },
        {
          "name": "_market",
          "type": "string"
        },
        {
          "name": "_instrumentType",
          "type": "uint8"
        },
        {
          "name": "_settlementTimestamp",
          "type": "uint256"
        }
      ],
      "payable": false,
      "stateMutability": "nonpayable",
      "type": "constructor"
    },
    {
      "anonymous": false,
      "inputs": [
        {
          "indexed": false,
          "name": "a",
          "type": "string"
        }
      ],
      "name": "sortDone",
      "type": "event"
    },
    {
      "constant": false,
      "inputs": [
        {
          "name": "_clearingMemberAddress",
          "type": "address"
        },
        {
          "name": "_quantity",
          "type": "uint256"
        },
        {
          "name": "_price",
          "type": "uint256"
        }
      ],
      "name": "addBuyOrder",
      "outputs": [
        {
          "name": "quantity",
          "type": "uint256"
        },
        {
          "name": "price",
          "type": "uint256"
        }
      ],
      "payable": false,
      "stateMutability": "nonpayable",
      "type": "function"
    },
    {
      "constant": false,
      "inputs": [
        {
          "name": "_clearingMemberAddress",
          "type": "address"
        },
        {
          "name": "_quantity",
          "type": "uint256"
        },
        {
          "name": "_price",
          "type": "uint256"
        }
      ],
      "name": "addSellOrder",
      "outputs": [
        {
          "name": "quantity",
          "type": "uint256"
        },
        {
          "name": "price",
          "type": "uint256"
        }
      ],
      "payable": false,
      "stateMutability": "nonpayable",
      "type": "function"
    },
    {
      "constant": false,
      "inputs": [],
      "name": "getInstrumentID",
      "outputs": [
        {
          "name": "",
          "type": "string"
        }
      ],
      "payable": false,
      "stateMutability": "nonpayable",
      "type": "function"
    },
    {
      "constant": false,
      "inputs": [],
      "name": "getAskOrdersLength",
      "outputs": [
        {
          "name": "",
          "type": "uint256"
        }
      ],
      "payable": false,
      "stateMutability": "nonpayable",
      "type": "function"
    },
    {
      "constant": false,
      "inputs": [],
      "name": "getBidOrdersLength",
      "outputs": [
        {
          "name": "",
          "type": "uint256"
        }
      ],
      "payable": false,
      "stateMutability": "nonpayable",
      "type": "function"
    },
    {
      "constant": true,
      "inputs": [
        {
          "name": "i",
          "type": "uint256"
        }
      ],
      "name": "getAskOrders",
      "outputs": [
        {
          "components": [
            {
              "name": "quantity",
              "type": "uint256"
            },
            {
              "name": "price",
              "type": "uint256"
            }
          ],
          "name": "_marketOrder",
          "type": "tuple"
        }
      ],
      "payable": false,
      "stateMutability": "view",
      "type": "function"
    },
    {
      "constant": true,
      "inputs": [
        {
          "name": "i",
          "type": "uint256"
        }
      ],
      "name": "getBidOrders",
      "outputs": [
        {
          "components": [
            {
              "name": "quantity",
              "type": "uint256"
            },
            {
              "name": "price",
              "type": "uint256"
            }
          ],
          "name": "_marketOrder",
          "type": "tuple"
        }
      ],
      "payable": false,
      "stateMutability": "view",
      "type": "function"
    }
  ],
  "bytecode": "0x60806040523480156200001157600080fd5b5060405162002f4a38038062002f4a833981018060405262000037919081019062000217565b83600190805190602001906200004f929190620000de565b50826002908051906020019062000068929190620000de565b50816000806101000a81548160ff021916908360018111156200008757fe5b021790555033600460006101000a81548173ffffffffffffffffffffffffffffffffffffffff021916908373ffffffffffffffffffffffffffffffffffffffff16021790555080600381905550505050506200036a565b828054600181600116156101000203166002900490600052602060002090601f016020900481019282601f106200012157805160ff191683800117855562000152565b8280016001018555821562000152579182015b828111156200015157825182559160200191906001019062000134565b5b50905062000161919062000165565b5090565b6200018a91905b80821115620001865760008160009055506001016200016c565b5090565b90565b60006200019b825162000310565b905092915050565b600082601f8301121515620001b757600080fd5b8151620001ce620001c882620002e3565b620002b5565b91508082526020830160208301858383011115620001eb57600080fd5b620001f883828462000334565b50505092915050565b60006200020f82516200032a565b905092915050565b600080600080608085870312156200022e57600080fd5b600085015167ffffffffffffffff8111156200024957600080fd5b6200025787828801620001a3565b945050602085015167ffffffffffffffff8111156200027557600080fd5b6200028387828801620001a3565b935050604062000296878288016200018d565b9250506060620002a98782880162000201565b91505092959194509250565b6000604051905081810181811067ffffffffffffffff82111715620002d957600080fd5b8060405250919050565b600067ffffffffffffffff821115620002fb57600080fd5b601f19601f8301169050602081019050919050565b60006002821015156200032257600080fd5b819050919050565b6000819050919050565b60005b838110156200035457808201518184015260208101905062000337565b8381111562000364576000848401525b50505050565b612bd0806200037a6000396000f300608060405260043610610083576000357c0100000000000000000000000000000000000000000000000000000000900463ffffffff16806335aedaee14610088578063478f79f8146100b357806348892632146100f05780639f2ad8af1461011b578063c525ff5b14610159578063f8df397914610184578063fbe0f830146101c1575b600080fd5b34801561009457600080fd5b5061009d6101ff565b6040516100aa9190612a9d565b60405180910390f35b3480156100bf57600080fd5b506100da60048036036100d591908101906128a3565b61020c565b6040516100e79190612a82565b60405180910390f35b3480156100fc57600080fd5b50610105610270565b6040516101129190612a60565b60405180910390f35b34801561012757600080fd5b50610142600480360361013d9190810190612854565b610312565b604051610150929190612ab8565b60405180910390f35b34801561016557600080fd5b5061016e6107e9565b60405161017b9190612a9d565b60405180910390f35b34801561019057600080fd5b506101ab60048036036101a691908101906128a3565b6107f6565b6040516101b89190612a82565b60405180910390f35b3480156101cd57600080fd5b506101e860048036036101e39190810190612854565b61085a565b6040516101f6929190612ab8565b60405180910390f35b6000600680549050905090565b6102146127f8565b604080519081016040528060058481548110151561022e57fe5b906000526020600020906004020160010154815260200160058481548110151561025457fe5b9060005260206000209060040201600301548152509050919050565b606060018054600181600116156101000203166002900480601f0160208091040260200160405190810160405280929190818152602001828054600181600116156101000203166002900480156103085780601f106102dd57610100808354040283529160200191610308565b820191906000526020600020905b8154815290600101906020018083116102eb57829003601f168201915b5050505050905090565b6000806000803373ffffffffffffffffffffffffffffffffffffffff16600460009054906101000a900473ffffffffffffffffffffffffffffffffffffffff1673ffffffffffffffffffffffffffffffffffffffff1614151561037457600080fd5b60006005805490501415156107c45760009150600460009054906101000a900473ffffffffffffffffffffffffffffffffffffffff1690505b6005828154811015156103bc57fe5b906000526020600020906004020160030154851115806103dc5750600086115b156107c3576005828154811015156103f057fe5b906000526020600020906004020160010154861015156105ca576000600181111561041757fe5b6000809054906101000a900460ff16600181111561043157fe5b1415610563578073ffffffffffffffffffffffffffffffffffffffff16638299ba748860058581548110151561046357fe5b906000526020600020906004020160000160009054906101000a900473ffffffffffffffffffffffffffffffffffffffff1660016104c06005888154811015156104a957fe5b906000526020600020906004020160010154610d32565b6104e96005898154811015156104d257fe5b906000526020600020906004020160030154610d58565b60035460026040518863ffffffff167c010000000000000000000000000000000000000000000000000000000002815260040161052c97969594939291906129d5565b600060405180830381600087803b15801561054657600080fd5b505af115801561055a573d6000803e3d6000fd5b5050505061058c565b60018081111561056f57fe5b6000809054906101000a900460ff16600181111561058957fe5b50505b60058281548110151561059b57fe5b906000526020600020906004020160010154860395506105bc600583610dfb565b8180600190039250506107b6565b600060018111156105d757fe5b6000809054906101000a900460ff1660018111156105f157fe5b1415610703578073ffffffffffffffffffffffffffffffffffffffff16638299ba748860058581548110151561062357fe5b906000526020600020906004020160000160009054906101000a900473ffffffffffffffffffffffffffffffffffffffff1660016106608b610d32565b61068960058981548110151561067257fe5b906000526020600020906004020160030154610d58565b60035460026040518863ffffffff167c01000000000000000000000000000000000000000000000000000000000281526004016106cc97969594939291906129d5565b600060405180830381600087803b1580156106e657600080fd5b505af11580156106fa573d6000803e3d6000fd5b5050505061072c565b60018081111561070f57fe5b6000809054906101000a900460ff16600181111561072957fe5b50505b8560058381548110151561073c57fe5b9060005260206000209060040201600101540360058381548110151561075e57fe5b90600052602060002090600402016001018190555060009550600060058381548110151561078857fe5b90600052602060002090600402016001015414156107b5576107ab600583610dfb565b8180600190039250505b5b81806001019250506103ad565b5b60008611156107df576107d8878787610f5d565b8593508492505b5050935093915050565b6000600580549050905090565b6107fe6127f8565b604080519081016040528060068481548110151561081857fe5b906000526020600020906004020160010154815260200160068481548110151561083e57fe5b9060005260206000209060040201600301548152509050919050565b6000806000803373ffffffffffffffffffffffffffffffffffffffff16600460009054906101000a900473ffffffffffffffffffffffffffffffffffffffff1673ffffffffffffffffffffffffffffffffffffffff161415156108bc57600080fd5b6000600680549050141515610d0d5760009150600460009054906101000a900473ffffffffffffffffffffffffffffffffffffffff1690505b60068281548110151561090457fe5b90600052602060002090600402016003015485101580156109255750600086115b15610d0c5760068281548110151561093957fe5b90600052602060002090600402016001015486101515610b13576000600181111561096057fe5b6000809054906101000a900460ff16600181111561097a57fe5b1415610aac578073ffffffffffffffffffffffffffffffffffffffff16638299ba746006848154811015156109ab57fe5b906000526020600020906004020160000160009054906101000a900473ffffffffffffffffffffffffffffffffffffffff16896001610a096006888154811015156109f257fe5b906000526020600020906004020160010154610d32565b610a32600689815481101515610a1b57fe5b906000526020600020906004020160030154610d58565b60035460026040518863ffffffff167c0100000000000000000000000000000000000000000000000000000000028152600401610a7597969594939291906129d5565b600060405180830381600087803b158015610a8f57600080fd5b505af1158015610aa3573d6000803e3d6000fd5b50505050610ad5565b600180811115610ab857fe5b6000809054906101000a900460ff166001811115610ad257fe5b50505b600682815481101515610ae457fe5b90600052602060002090600402016001015486039550610b05600683610dfb565b818060019003925050610cff565b60006001811115610b2057fe5b6000809054906101000a900460ff166001811115610b3a57fe5b1415610c4c578073ffffffffffffffffffffffffffffffffffffffff16638299ba74600684815481101515610b6b57fe5b906000526020600020906004020160000160009054906101000a900473ffffffffffffffffffffffffffffffffffffffff16896001610ba98b610d32565b610bd2600689815481101515610bbb57fe5b906000526020600020906004020160030154610d58565b60035460026040518863ffffffff167c0100000000000000000000000000000000000000000000000000000000028152600401610c1597969594939291906129d5565b600060405180830381600087803b158015610c2f57600080fd5b505af1158015610c43573d6000803e3d6000fd5b50505050610c75565b600180811115610c5857fe5b6000809054906101000a900460ff166001811115610c7257fe5b50505b85600683815481101515610c8557fe5b90600052602060002090600402016001015403600683815481101515610ca757fe5b906000526020600020906004020160010181905550600095506000600683815481101515610cd157fe5b9060005260206000209060040201600101541415610cfe57610cf4600683610dfb565b8180600190039250505b5b81806001019250506108f5565b5b6000861115610d2857610d21878787611039565b8593508492505b5050935093915050565b606060006060610d4184611115565b9150610d4c826111be565b90508092505050919050565b606060008060008060006060806103e889811515610d7257fe5b0496506103e8870295508589039450610d8a87611115565b9350610d9585611115565b9250610da0846111be565b9150610dab836111be565b9050610ded826040805190810160405280600181526020017f2e00000000000000000000000000000000000000000000000000000000000000815250836112e3565b975050505050505050919050565b6000828054905082101515610e0f57610f58565b8190505b6001838054905003811015610ef2578260018201815481101515610e3357fe5b90600052602060002090600402018382815481101515610e4f57fe5b90600052602060002090600402016000820160009054906101000a900473ffffffffffffffffffffffffffffffffffffffff168160000160006101000a81548173ffffffffffffffffffffffffffffffffffffffff021916908373ffffffffffffffffffffffffffffffffffffffff1602179055506001820154816001015560028201548160020155600382015481600301559050508080600101915050610e13565b826001848054905003815481101515610f0757fe5b9060005260206000209060040201600080820160006101000a81549073ffffffffffffffffffffffffffffffffffffffff021916905560018201600090556002820160009055600382016000905550505b505050565b60066080604051908101604052808573ffffffffffffffffffffffffffffffffffffffff168152602001848152602001428152602001838152509080600181540180825580915050906001820390600052602060002090600402016000909192909190915060008201518160000160006101000a81548173ffffffffffffffffffffffffffffffffffffffff021916908373ffffffffffffffffffffffffffffffffffffffff160217905550602082015181600101556040820151816002015560608201518160030155505050611034600661131b565b505050565b60056080604051908101604052808573ffffffffffffffffffffffffffffffffffffffff168152602001848152602001428152602001838152509080600181540180825580915050906001820390600052602060002090600402016000909192909190915060008201518160000160006101000a81548173ffffffffffffffffffffffffffffffffffffffff021916908373ffffffffffffffffffffffffffffffffffffffff160217905550602082015181600101556040820151816002015560608201518160030155505050611110600561131b565b505050565b600080821415611147577f300000000000000000000000000000000000000000000000000000000000000090506111b6565b5b60008211156111b557610100816001900481151561116257fe5b0460010290507f01000000000000000000000000000000000000000000000000000000000000006030600a8481151561119757fe5b06010260010281179050600a828115156111ad57fe5b049150611148565b5b809050919050565b60608060006111cb612812565b6111d3612812565b60206040519080825280601f01601f1916602001820160405280156112075781602001602082028038833980820191505090505b5093505b602083101561129057858360208110151561122257fe5b1a7f010000000000000000000000000000000000000000000000000000000000000002848481518110151561125357fe5b9060200101907effffffffffffffffffffffffffffffffffffffffffffffffffffffffffffff1916908160001a905350828060010193505061120b565b61129984611a59565b91506112ce6112bd6040805190810160405280600181526020016000815250611a59565b8284611a879092919063ffffffff16565b506112d881611b25565b945050505050919050565b606061131284848460206040519081016040528060008152506020604051908101604052806000815250611b87565b90509392505050565b60006001828054905011151561133057611a55565b6002828054905014156116875781600181548110151561134c57fe5b90600052602060002090600402016003015482600081548110151561136d57fe5b90600052602060002090600402016003015410156116825781600181548110151561139457fe5b9060005260206000209060040201600301548260008154811015156113b557fe5b9060005260206000209060040201600301548360008154811015156113d657fe5b906000526020600020906004020160030160008560018154811015156113f857fe5b9060005260206000209060040201600301600084919050558391905055505081600181548110151561142657fe5b90600052602060002090600402016001015482600081548110151561144757fe5b90600052602060002090600402016001015483600081548110151561146857fe5b9060005260206000209060040201600101600085600181548110151561148a57fe5b906000526020600020906004020160010160008491905055839190505550508160018154811015156114b857fe5b906000526020600020906004020160000160009054906101000a900473ffffffffffffffffffffffffffffffffffffffff168260008154811015156114f957fe5b906000526020600020906004020160000160009054906101000a900473ffffffffffffffffffffffffffffffffffffffff1683600081548110151561153a57fe5b9060005260206000209060040201600001600085600181548110151561155c57fe5b906000526020600020906004020160000160008491906101000a81548173ffffffffffffffffffffffffffffffffffffffff021916908373ffffffffffffffffffffffffffffffffffffffff1602179055508391906101000a81548173ffffffffffffffffffffffffffffffffffffffff021916908373ffffffffffffffffffffffffffffffffffffffff16021790555050508160018154811015156115fe57fe5b90600052602060002090600402016002015482600081548110151561161f57fe5b90600052602060002090600402016002015483600081548110151561164057fe5b9060005260206000209060040201600201600085600181548110151561166257fe5b906000526020600020906004020160020160008491905055839190505550505b61169b565b61169a8260006001858054905003611f9c565b5b600090505b6001828054905003811015611a545781600182018154811015156116c057fe5b90600052602060002090600402016003015482828154811015156116e057fe5b9060005260206000209060040201600301541415611a4757816001820181548110151561170957fe5b906000526020600020906004020160020154828281548110151561172957fe5b9060005260206000209060040201600201541015611a4657816001820181548110151561175257fe5b906000526020600020906004020160030154828281548110151561177257fe5b906000526020600020906004020160030154838381548110151561179257fe5b9060005260206000209060040201600301600085600186018154811015156117b657fe5b9060005260206000209060040201600301600084919050558391905055505081600182018154811015156117e657fe5b906000526020600020906004020160010154828281548110151561180657fe5b906000526020600020906004020160010154838381548110151561182657fe5b90600052602060002090600402016001016000856001860181548110151561184a57fe5b90600052602060002090600402016001016000849190505583919050555050816001820181548110151561187a57fe5b906000526020600020906004020160000160009054906101000a900473ffffffffffffffffffffffffffffffffffffffff1682828154811015156118ba57fe5b906000526020600020906004020160000160009054906101000a900473ffffffffffffffffffffffffffffffffffffffff1683838154811015156118fa57fe5b90600052602060002090600402016000016000856001860181548110151561191e57fe5b906000526020600020906004020160000160008491906101000a81548173ffffffffffffffffffffffffffffffffffffffff021916908373ffffffffffffffffffffffffffffffffffffffff1602179055508391906101000a81548173ffffffffffffffffffffffffffffffffffffffff021916908373ffffffffffffffffffffffffffffffffffffffff160217905550505081600182018154811015156119c257fe5b90600052602060002090600402016002015482828154811015156119e257fe5b9060005260206000209060040201600201548383815481101515611a0257fe5b906000526020600020906004020160020160008560018601815481101515611a2657fe5b906000526020600020906004020160020160008491905055839190505550505b5b80806001019150506116a0565b5b5050565b611a61612812565b600060208301905060408051908101604052808451815260200182815250915050919050565b611a8f612812565b6000611aad85600001518660200151866000015187602001516122cb565b90508460200151836020018181525050846020015181038360000181815250508460000151856020015101811415611aef576000856000018181525050611b1a565b8360000151836000015101856000018181510391508181525050836000015181018560200181815250505b829150509392505050565b606080600083600001516040519080825280601f01601f191660200182016040528015611b615781602001602082028038833980820191505090505b509150602082019050611b7d81856020015186600001516123b1565b8192505050919050565b6060806060806060806060806000808e98508d97508c96508b95508a94508451865188518a518c51010101016040519080825280601f01601f191660200182016040528015611be55781602001602082028038833980820191505090505b50935083925060009150600090505b8851811015611ca7578881815181101515611c0b57fe5b9060200101517f010000000000000000000000000000000000000000000000000000000000000090047f0100000000000000000000000000000000000000000000000000000000000000028383806001019450815181101515611c6a57fe5b9060200101907effffffffffffffffffffffffffffffffffffffffffffffffffffffffffffff1916908160001a9053508080600101915050611bf4565b600090505b8751811015611d5f578781815181101515611cc357fe5b9060200101517f010000000000000000000000000000000000000000000000000000000000000090047f0100000000000000000000000000000000000000000000000000000000000000028383806001019450815181101515611d2257fe5b9060200101907effffffffffffffffffffffffffffffffffffffffffffffffffffffffffffff1916908160001a9053508080600101915050611cac565b600090505b8651811015611e17578681815181101515611d7b57fe5b9060200101517f010000000000000000000000000000000000000000000000000000000000000090047f0100000000000000000000000000000000000000000000000000000000000000028383806001019450815181101515611dda57fe5b9060200101907effffffffffffffffffffffffffffffffffffffffffffffffffffffffffffff1916908160001a9053508080600101915050611d64565b600090505b8551811015611ecf578581815181101515611e3357fe5b9060200101517f010000000000000000000000000000000000000000000000000000000000000090047f0100000000000000000000000000000000000000000000000000000000000000028383806001019450815181101515611e9257fe5b9060200101907effffffffffffffffffffffffffffffffffffffffffffffffffffffffffffff1916908160001a9053508080600101915050611e1c565b600090505b8451811015611f87578481815181101515611eeb57fe5b9060200101517f010000000000000000000000000000000000000000000000000000000000000090047f0100000000000000000000000000000000000000000000000000000000000000028383806001019450815181101515611f4a57fe5b9060200101907effffffffffffffffffffffffffffffffffffffffffffffffffffffffffffff1916908160001a9053508080600101915050611ed4565b82995050505050505050505095945050505050565b600080611faa8585856123fc565b60009150600185805490500390505b80821115156122c4578481815481101515611fd057fe5b9060005260206000209060040201600301548583815481101515611ff057fe5b906000526020600020906004020160030154868481548110151561201057fe5b90600052602060002090600402016003016000888581548110151561203157fe5b90600052602060002090600402016003016000849190505583919050555050848181548110151561205e57fe5b906000526020600020906004020160010154858381548110151561207e57fe5b906000526020600020906004020160010154868481548110151561209e57fe5b9060005260206000209060040201600101600088858154811015156120bf57fe5b9060005260206000209060040201600101600084919050558391905055505084818154811015156120ec57fe5b906000526020600020906004020160000160009054906101000a900473ffffffffffffffffffffffffffffffffffffffff16858381548110151561212c57fe5b906000526020600020906004020160000160009054906101000a900473ffffffffffffffffffffffffffffffffffffffff16868481548110151561216c57fe5b90600052602060002090600402016000016000888581548110151561218d57fe5b906000526020600020906004020160000160008491906101000a81548173ffffffffffffffffffffffffffffffffffffffff021916908373ffffffffffffffffffffffffffffffffffffffff1602179055508391906101000a81548173ffffffffffffffffffffffffffffffffffffffff021916908373ffffffffffffffffffffffffffffffffffffffff1602179055505050848181548110151561222e57fe5b906000526020600020906004020160020154858381548110151561224e57fe5b906000526020600020906004020160020154868481548110151561226e57fe5b90600052602060002090600402016002016000888581548110151561228f57fe5b906000526020600020906004020160020160008491905055839190505550508180600101925050808060019003915050611fb9565b5050505050565b60008060008060008060008060008b97508c8b11151561239b5760208b1115156123555760018b60200360080260020a03196001029550858a511694508a8d8d010393508588511692505b8460001916836000191614151561234d57838810151561233a578c8c0198506123a1565b8780600101985050858851169250612316565b8798506123a1565b8a8a209150600096505b8a8d038711151561239a578a88209050806000191682600019161415612387578798506123a1565b600188019750868060010197505061235f565b5b8c8c0198505b5050505050505050949350505050565b60005b6020821015156123d957825184526020840193506020830192506020820391506123b4565b6001826020036101000a0390508019835116818551168181178652505050505050565b600080600084925083915081831415612414576127f0565b85600286860381151561242357fe5b04860181548110151561243257fe5b90600052602060002090600402016003015490505b81831115156127c7575b80868481548110151561246057fe5b9060005260206000209060040201600301541015612485578280600101935050612451565b5b858281548110151561249457fe5b9060005260206000209060040201600301548110156124bb57818060019003925050612486565b81831115156127c25785828154811015156124d257fe5b90600052602060002090600402016003015486848154811015156124f257fe5b906000526020600020906004020160030154878581548110151561251257fe5b90600052602060002090600402016003016000898681548110151561253357fe5b90600052602060002090600402016003016000849190505583919050555050858281548110151561256057fe5b906000526020600020906004020160010154868481548110151561258057fe5b90600052602060002090600402016001015487858154811015156125a057fe5b9060005260206000209060040201600101600089868154811015156125c157fe5b9060005260206000209060040201600101600084919050558391905055505085828154811015156125ee57fe5b906000526020600020906004020160000160009054906101000a900473ffffffffffffffffffffffffffffffffffffffff16868481548110151561262e57fe5b906000526020600020906004020160000160009054906101000a900473ffffffffffffffffffffffffffffffffffffffff16878581548110151561266e57fe5b90600052602060002090600402016000016000898681548110151561268f57fe5b906000526020600020906004020160000160008491906101000a81548173ffffffffffffffffffffffffffffffffffffffff021916908373ffffffffffffffffffffffffffffffffffffffff1602179055508391906101000a81548173ffffffffffffffffffffffffffffffffffffffff021916908373ffffffffffffffffffffffffffffffffffffffff1602179055505050858281548110151561273057fe5b906000526020600020906004020160020154868481548110151561275057fe5b906000526020600020906004020160020154878581548110151561277057fe5b90600052602060002090600402016002016000898681548110151561279157fe5b9060005260206000209060040201600201600084919050558391905055505082806001019350508180600190039250505b612447565b818510156127db576127da8686846123fc565b5b838310156127ef576127ee8684866123fc565b5b5b505050505050565b604080519081016040528060008152602001600081525090565b604080519081016040528060008152602001600081525090565b60006128388235612b28565b905092915050565b600061284c8235612b48565b905092915050565b60008060006060848603121561286957600080fd5b60006128778682870161282c565b935050602061288886828701612840565b925050604061289986828701612840565b9150509250925092565b6000602082840312156128b557600080fd5b60006128c384828501612840565b91505092915050565b6128d581612afe565b82525050565b60006128e682612af3565b8084526128fa816020860160208601612b52565b61290381612b85565b602085010191505092915050565b60008154600181166000811461292e576001811461294e5761298f565b607f600283041680865260ff19831660208701526040860193505061298f565b6002820480865260208601955061296485612ae1565b60005b8281101561298657815481890152600182019150602081019050612967565b80880195505050505b505092915050565b6040820160008201516129ad60008501826129c6565b5060208201516129c060208501826129c6565b50505050565b6129cf81612b1e565b82525050565b600060e0820190506129ea600083018a6128cc565b6129f760208301896128cc565b8181036040830152612a098188612911565b90508181036060830152612a1d81876128db565b90508181036080830152612a3181866128db565b9050612a4060a08301856129c6565b81810360c0830152612a528184612911565b905098975050505050505050565b60006020820190508181036000830152612a7a81846128db565b905092915050565b6000604082019050612a976000830184612997565b92915050565b6000602082019050612ab260008301846129c6565b92915050565b6000604082019050612acd60008301856129c6565b612ada60208301846129c6565b9392505050565b60008160005260206000209050919050565b600081519050919050565b600073ffffffffffffffffffffffffffffffffffffffff82169050919050565b6000819050919050565b600073ffffffffffffffffffffffffffffffffffffffff82169050919050565b6000819050919050565b60005b83811015612b70578082015181840152602081019050612b55565b83811115612b7f576000848401525b50505050565b6000601f19601f83011690509190505600a265627a7a723058209647b1af9385cb466714d5cbb544f7537edce8a1d031cd5b641632bdc946c3316c6578706572696d656e74616cf50037",
  "source": "// It doesen't work well\n\npragma experimental ABIEncoderV2;\n\nimport \"./QuickSortOrder.sol\";\nimport \"./Market.sol\";\nimport \"./Utils.sol\";\n\ncontract OrderBook is QuickSortOrder\n{\n    Utils.instrumentType instType;\n    string instrumentID;\n    string market;\n    uint settlementTimestamp;\n\n    address marketAddress;\n\n    // ASK are sell orders\n    Utils.order[] askOrders;\n    // BID are buy orders\n    Utils.order[] bidOrders;\n\n    modifier onlyMarket()\n    {\n        require (marketAddress == msg.sender);\n        _;\n    }\n\n    function OrderBook(string _instrumentID, string _market, Utils.instrumentType _instrumentType, uint _settlementTimestamp) public\n    {\n        instrumentID = _instrumentID;\n        market = _market;\n        instType = _instrumentType;\n        marketAddress = msg.sender;\n        settlementTimestamp = _settlementTimestamp;\n    }\n    // In this case we consider than _clearingMemberAddress is equals to _MarketMemberAddress\n    function addBuyOrder(address _clearingMemberAddress, uint _quantity, uint _price) public onlyMarket returns(uint quantity, uint price)\n    {\n        if (askOrders.length != 0)\n        {\n            uint i = 0;\n            Market _marketContract = Market(marketAddress);\n\n            while (_price <= askOrders[i].price || _quantity > 0)\n            {\n                if (_quantity >= askOrders[i].quantity)\n                {\n                    if (instType == Utils.instrumentType.future)\n                    {\n                        _marketContract.addFutureToCCP(_clearingMemberAddress, askOrders[i].clearingMemberAddress, instrumentID, Utils.uintToString(askOrders[i].quantity), Utils.uintPriceToString(askOrders[i].price), settlementTimestamp, market);\n                    }\n                    else if (instType == Utils.instrumentType.swap)\n                    {\n                        //_marketContract.addSwapToCCP(_clearingMemberAddress, askOrders[i].clearingMemberAddress, instrumentID, Utils.uintToString(askOrders[i].quantity), Utils.uintPriceToString(askOrders[i].price), settlementTimestamp, market);\n                    }\n\n                    _quantity = _quantity - askOrders[i].quantity;\n                    Utils.removeOrder(askOrders, i);\n                    i--;\n                }\n                else\n                {\n                    if (instType == Utils.instrumentType.future)\n                    {\n                        _marketContract.addFutureToCCP(_clearingMemberAddress, askOrders[i].clearingMemberAddress, instrumentID, Utils.uintToString(_quantity), Utils.uintPriceToString(askOrders[i].price), settlementTimestamp, market);\n                    }\n                    else if (instType == Utils.instrumentType.swap)\n                    {\n                        //_marketContract.addSwapToCCP(_clearingMemberAddress, askOrders[i].clearingMemberAddress, instrumentID, Utils.uintToString(_quantity), Utils.uintPriceToString(askOrders[i].price), settlementTimestamp, market);\n                    }\n\n                    askOrders[i].quantity = askOrders[i].quantity - _quantity;\n                    _quantity = 0;\n\n                    if (askOrders[i].quantity == 0)\n                    {\n                      Utils.removeOrder(askOrders, i);\n                      i--;\n                    }\n                }\n                i++;\n            }\n        }\n\n        if (_quantity > 0)\n        {\n          addBidToOrderBook(_clearingMemberAddress, _quantity, _price);\n          quantity = _quantity;\n          price = _price;\n        }\n    }\n\n    function addSellOrder(address _clearingMemberAddress, uint _quantity, uint _price) public onlyMarket returns(uint quantity, uint price)\n    {\n        if (bidOrders.length != 0)\n        {\n            uint i = 0;\n            Market _marketContract = Market(marketAddress);\n\n            while (_price >= bidOrders[i].price && _quantity > 0)\n            {\n                if (_quantity >= bidOrders[i].quantity)\n                {\n                    if (instType == Utils.instrumentType.future)\n                    {\n                        _marketContract.addFutureToCCP(bidOrders[i].clearingMemberAddress, _clearingMemberAddress, instrumentID, Utils.uintToString(bidOrders[i].quantity), Utils.uintPriceToString(bidOrders[i].price), settlementTimestamp, market);\n                    }\n                    else if (instType == Utils.instrumentType.swap)\n                    {\n                        //_marketContract.addSwapToCCP(bidOrders[i].clearingMemberAddress, _clearingMemberAddress, instrumentID, Utils.uintToString(bidOrders[i].quantity), Utils.uintPriceToString(bidOrders[i].price), settlementTimestamp, market);\n                    }\n\n                    _quantity = _quantity - bidOrders[i].quantity;\n                    Utils.removeOrder(bidOrders, i);\n                    i--;\n                }\n                else\n                {\n                    if (instType == Utils.instrumentType.future)\n                    {\n                        _marketContract.addFutureToCCP(bidOrders[i].clearingMemberAddress, _clearingMemberAddress, instrumentID, Utils.uintToString(_quantity), Utils.uintPriceToString(bidOrders[i].price), settlementTimestamp, market);\n                    }\n                    else if (instType == Utils.instrumentType.swap)\n                    {\n                        //_marketContract.addSwapToCCP(bidOrders[i].clearingMemberAddress, _clearingMemberAddress, instrumentID, Utils.uintToString(_quantity), Utils.uintPriceToString(bidOrders[i].price), settlementTimestamp, market);\n                    }\n                    bidOrders[i].quantity = bidOrders[i].quantity - _quantity;\n                    _quantity = 0;\n\n                    if (bidOrders[i].quantity == 0)\n                    {\n                      Utils.removeOrder(bidOrders, i);\n                      i--;\n                    }\n                }\n                i++;\n            }\n        }\n\n        if (_quantity > 0)\n        {\n            addAskToOrderBook(_clearingMemberAddress, _quantity, _price);\n            quantity = _quantity;\n            price = _price;\n        }\n    }\n\n    function addBidToOrderBook(address _clearingMemberAddress, uint _quantity, uint _price) internal\n    {\n        bidOrders.push(Utils.order(_clearingMemberAddress, _quantity, block.timestamp,  _price));\n        orderDecreasing(bidOrders);\n    }\n\n    function addAskToOrderBook(address _clearingMemberAddress, uint _quantity, uint _price) internal\n    {\n        askOrders.push(Utils.order(_clearingMemberAddress, _quantity, block.timestamp,  _price));\n        orderDecreasing(askOrders);\n    }\n    function getInstrumentID() returns (string)\n    {\n      return instrumentID;\n    }\n\n    function getAskOrdersLength() returns (uint)\n    {\n      return askOrders.length;\n    }\n\n    function getBidOrdersLength() returns (uint)\n    {\n      return bidOrders.length;\n    }\n\n    function getAskOrders(uint i) public constant returns (Utils.marketOrder _marketOrder)\n    {\n        _marketOrder = Utils.marketOrder(askOrders[i].quantity, askOrders[i].price);\n    }\n\n    function getBidOrders(uint i) public constant returns (Utils.marketOrder _marketOrder)\n    {\n      _marketOrder = Utils.marketOrder(bidOrders[i].quantity, bidOrders[i].price);\n    }\n}\n",
  "sourcePath": "/home/dtm/Desktop/TFM/DAPPS/CompensationChamber/contracts/OrderBook.sol",
  "compiler": {
    "name": "solc",
    "version": "0.4.24+commit.e67f0147.Emscripten.clang"
  },
  "schemaVersion": "2.0.1",
  "updatedAt": "2018-07-19T14:28:25.426Z"
}