{
  "contractName": "OrderBook",
  "abi": [
    {
      "inputs": [
        {
          "name": "_instrumentID",
          "type": "string"
        },
        {
          "name": "_market",
          "type": "string"
        },
        {
          "name": "_instrumentType",
          "type": "uint8"
        },
        {
          "name": "_settlementTimestamp",
          "type": "uint256"
        }
      ],
      "payable": false,
      "stateMutability": "nonpayable",
      "type": "constructor"
    },
    {
      "anonymous": false,
      "inputs": [
        {
          "indexed": false,
          "name": "a",
          "type": "string"
        }
      ],
      "name": "sortDone",
      "type": "event"
    },
    {
      "constant": false,
      "inputs": [
        {
          "name": "_clearingMemberAddress",
          "type": "address"
        },
        {
          "name": "_quantity",
          "type": "uint256"
        },
        {
          "name": "_price",
          "type": "uint256"
        }
      ],
      "name": "addBuyOrder",
      "outputs": [],
      "payable": false,
      "stateMutability": "nonpayable",
      "type": "function"
    },
    {
      "constant": false,
      "inputs": [
        {
          "name": "_clearingMemberAddress",
          "type": "address"
        },
        {
          "name": "_quantity",
          "type": "uint256"
        },
        {
          "name": "_price",
          "type": "uint256"
        }
      ],
      "name": "addSellOrder",
      "outputs": [],
      "payable": false,
      "stateMutability": "nonpayable",
      "type": "function"
    },
    {
      "constant": false,
      "inputs": [
        {
          "name": "i",
          "type": "uint256"
        },
        {
          "name": "quantity",
          "type": "uint256"
        }
      ],
      "name": "removeAskFromOrderBook",
      "outputs": [
        {
          "name": "_i",
          "type": "uint256"
        },
        {
          "name": "_quantity",
          "type": "uint256"
        }
      ],
      "payable": false,
      "stateMutability": "nonpayable",
      "type": "function"
    },
    {
      "constant": false,
      "inputs": [
        {
          "name": "i",
          "type": "uint256"
        },
        {
          "name": "quantity",
          "type": "uint256"
        }
      ],
      "name": "removeBidFromOrderBook",
      "outputs": [
        {
          "name": "_i",
          "type": "uint256"
        },
        {
          "name": "_quantity",
          "type": "uint256"
        }
      ],
      "payable": false,
      "stateMutability": "nonpayable",
      "type": "function"
    },
    {
      "constant": false,
      "inputs": [],
      "name": "getInstrumentID",
      "outputs": [
        {
          "name": "",
          "type": "string"
        }
      ],
      "payable": false,
      "stateMutability": "nonpayable",
      "type": "function"
    },
    {
      "constant": false,
      "inputs": [],
      "name": "getAskOrdersLength",
      "outputs": [
        {
          "name": "",
          "type": "uint256"
        }
      ],
      "payable": false,
      "stateMutability": "nonpayable",
      "type": "function"
    },
    {
      "constant": false,
      "inputs": [],
      "name": "getBidOrdersLength",
      "outputs": [
        {
          "name": "",
          "type": "uint256"
        }
      ],
      "payable": false,
      "stateMutability": "nonpayable",
      "type": "function"
    },
    {
      "constant": true,
      "inputs": [
        {
          "name": "i",
          "type": "uint256"
        }
      ],
      "name": "getAskOrders",
      "outputs": [
        {
          "components": [
            {
              "name": "quantity",
              "type": "uint256"
            },
            {
              "name": "price",
              "type": "uint256"
            }
          ],
          "name": "_marketOrder",
          "type": "tuple"
        }
      ],
      "payable": false,
      "stateMutability": "view",
      "type": "function"
    },
    {
      "constant": true,
      "inputs": [
        {
          "name": "i",
          "type": "uint256"
        }
      ],
      "name": "getBidOrders",
      "outputs": [
        {
          "components": [
            {
              "name": "quantity",
              "type": "uint256"
            },
            {
              "name": "price",
              "type": "uint256"
            }
          ],
          "name": "_marketOrder",
          "type": "tuple"
        }
      ],
      "payable": false,
      "stateMutability": "view",
      "type": "function"
    }
  ],
  "bytecode": "0x60806040523480156200001157600080fd5b50604051620035e2380380620035e2833981018060405262000037919081019062000217565b83600190805190602001906200004f929190620000de565b50826002908051906020019062000068929190620000de565b50816000806101000a81548160ff021916908360018111156200008757fe5b021790555033600460006101000a81548173ffffffffffffffffffffffffffffffffffffffff021916908373ffffffffffffffffffffffffffffffffffffffff16021790555080600381905550505050506200036a565b828054600181600116156101000203166002900490600052602060002090601f016020900481019282601f106200012157805160ff191683800117855562000152565b8280016001018555821562000152579182015b828111156200015157825182559160200191906001019062000134565b5b50905062000161919062000165565b5090565b6200018a91905b80821115620001865760008160009055506001016200016c565b5090565b90565b60006200019b825162000310565b905092915050565b600082601f8301121515620001b757600080fd5b8151620001ce620001c882620002e3565b620002b5565b91508082526020830160208301858383011115620001eb57600080fd5b620001f883828462000334565b50505092915050565b60006200020f82516200032a565b905092915050565b600080600080608085870312156200022e57600080fd5b600085015167ffffffffffffffff8111156200024957600080fd5b6200025787828801620001a3565b945050602085015167ffffffffffffffff8111156200027557600080fd5b6200028387828801620001a3565b935050604062000296878288016200018d565b9250506060620002a98782880162000201565b91505092959194509250565b6000604051905081810181811067ffffffffffffffff82111715620002d957600080fd5b8060405250919050565b600067ffffffffffffffff821115620002fb57600080fd5b601f19601f8301169050602081019050919050565b60006002821015156200032257600080fd5b819050919050565b6000819050919050565b60005b838110156200035457808201518184015260208101905062000337565b8381111562000364576000848401525b50505050565b613268806200037a6000396000f300608060405260043610610099576000357c0100000000000000000000000000000000000000000000000000000000900463ffffffff16806335aedaee1461009e578063478f79f8146100c957806348892632146101065780639f2ad8af14610131578063c525ff5b1461015a578063d810f9ad14610185578063f302fc0a146101c3578063f8df397914610201578063fbe0f8301461023e575b600080fd5b3480156100aa57600080fd5b506100b3610267565b6040516100c09190613111565b60405180910390f35b3480156100d557600080fd5b506100f060048036036100eb9190810190612e25565b610274565b6040516100fd91906130f6565b60405180910390f35b34801561011257600080fd5b5061011b6102d8565b604051610128919061303c565b60405180910390f35b34801561013d57600080fd5b5061015860048036036101539190810190612dd6565b61037a565b005b34801561016657600080fd5b5061016f610795565b60405161017c9190613111565b60405180910390f35b34801561019157600080fd5b506101ac60048036036101a79190810190612e4e565b6107a2565b6040516101ba92919061312c565b60405180910390f35b3480156101cf57600080fd5b506101ea60048036036101e59190810190612e4e565b610a34565b6040516101f892919061312c565b60405180910390f35b34801561020d57600080fd5b5061022860048036036102239190810190612e25565b610cc6565b60405161023591906130f6565b60405180910390f35b34801561024a57600080fd5b5061026560048036036102609190810190612dd6565b610d2a565b005b6000600680549050905090565b61027c612d7a565b604080519081016040528060058481548110151561029657fe5b90600052602060002090600402016001015481526020016005848154811015156102bc57fe5b9060005260206000209060040201600301548152509050919050565b606060018054600181600116156101000203166002900480601f0160208091040260200160405190810160405280929190818152602001828054600181600116156101000203166002900480156103705780601f1061034557610100808354040283529160200191610370565b820191906000526020600020905b81548152906001019060200180831161035357829003601f168201915b5050505050905090565b6000803373ffffffffffffffffffffffffffffffffffffffff16600460009054906101000a900473ffffffffffffffffffffffffffffffffffffffff1673ffffffffffffffffffffffffffffffffffffffff161415156103d957600080fd5b60006005805490501415156107795760009150600460009054906101000a900473ffffffffffffffffffffffffffffffffffffffff1690505b60058281548110151561042157fe5b906000526020600020906004020160030154831115806104415750600084115b156107785760058281548110151561045557fe5b906000526020600020906004020160010154841015156105f6576000600181111561047c57fe5b6000809054906101000a900460ff16600181111561049657fe5b14156105c8578073ffffffffffffffffffffffffffffffffffffffff16638299ba74866005858154811015156104c857fe5b906000526020600020906004020160000160009054906101000a900473ffffffffffffffffffffffffffffffffffffffff16600161052560058881548110151561050e57fe5b906000526020600020906004020160010154611146565b61054e60058981548110151561053757fe5b90600052602060002090600402016003015461116c565b60035460026040518863ffffffff167c01000000000000000000000000000000000000000000000000000000000281526004016105919796959493929190612fb1565b600060405180830381600087803b1580156105ab57600080fd5b505af11580156105bf573d6000803e3d6000fd5b505050506105f1565b6001808111156105d457fe5b6000809054906101000a900460ff1660018111156105ee57fe5b50505b610759565b6000600181111561060357fe5b6000809054906101000a900460ff16600181111561061d57fe5b141561072f578073ffffffffffffffffffffffffffffffffffffffff16638299ba748660058581548110151561064f57fe5b906000526020600020906004020160000160009054906101000a900473ffffffffffffffffffffffffffffffffffffffff16600161068c89611146565b6106b560058981548110151561069e57fe5b90600052602060002090600402016003015461116c565b60035460026040518863ffffffff167c01000000000000000000000000000000000000000000000000000000000281526004016106f89796959493929190612fb1565b600060405180830381600087803b15801561071257600080fd5b505af1158015610726573d6000803e3d6000fd5b50505050610758565b60018081111561073b57fe5b6000809054906101000a900460ff16600181111561075557fe5b50505b5b6107638285610a34565b80955081935050508180600101925050610412565b5b600084111561078e5761078d85858561120f565b5b5050505050565b6000600580549050905090565b6000806000600460009054906101000a900473ffffffffffffffffffffffffffffffffffffffff1690506006858154811015156107db57fe5b906000526020600020906004020160010154841015156109025760068581548110151561080457fe5b906000526020600020906004020160010154840393508073ffffffffffffffffffffffffffffffffffffffff1663f73d8841600160068881548110151561084757fe5b90600052602060002090600402016001015460068981548110151561086857fe5b90600052602060002090600402016003015460016040518563ffffffff167c01000000000000000000000000000000000000000000000000000000000281526004016108b794939291906130aa565b600060405180830381600087803b1580156108d157600080fd5b505af11580156108e5573d6000803e3d6000fd5b505050506108f46006866113a2565b848060019003955050610a26565b60068581548110151561091157fe5b906000526020600020906004020160010154821015610a25578360068681548110151561093a57fe5b9060005260206000209060040201600101540360068681548110151561095c57fe5b9060005260206000209060040201600101819055508073ffffffffffffffffffffffffffffffffffffffff1663f73d884160018460068981548110151561099f57fe5b90600052602060002090600402016003015460016040518563ffffffff167c01000000000000000000000000000000000000000000000000000000000281526004016109ee94939291906130aa565b600060405180830381600087803b158015610a0857600080fd5b505af1158015610a1c573d6000803e3d6000fd5b50505050600093505b5b849250839150509250929050565b6000806000600460009054906101000a900473ffffffffffffffffffffffffffffffffffffffff169050600585815481101515610a6d57fe5b90600052602060002090600402016001015482101515610b9457600585815481101515610a9657fe5b906000526020600020906004020160010154840393508073ffffffffffffffffffffffffffffffffffffffff1663f73d88416001600588815481101515610ad957fe5b906000526020600020906004020160010154600589815481101515610afa57fe5b90600052602060002090600402016003015460006040518563ffffffff167c0100000000000000000000000000000000000000000000000000000000028152600401610b49949392919061305e565b600060405180830381600087803b158015610b6357600080fd5b505af1158015610b77573d6000803e3d6000fd5b50505050610b866005866113a2565b848060019003955050610cb8565b600585815481101515610ba357fe5b906000526020600020906004020160010154821015610cb75783600586815481101515610bcc57fe5b90600052602060002090600402016001015403600586815481101515610bee57fe5b9060005260206000209060040201600101819055508073ffffffffffffffffffffffffffffffffffffffff1663f73d8841600186600589815481101515610c3157fe5b90600052602060002090600402016003015460006040518563ffffffff167c0100000000000000000000000000000000000000000000000000000000028152600401610c80949392919061305e565b600060405180830381600087803b158015610c9a57600080fd5b505af1158015610cae573d6000803e3d6000fd5b50505050600093505b5b849250839150509250929050565b610cce612d7a565b6040805190810160405280600684815481101515610ce857fe5b9060005260206000209060040201600101548152602001600684815481101515610d0e57fe5b9060005260206000209060040201600301548152509050919050565b6000803373ffffffffffffffffffffffffffffffffffffffff16600460009054906101000a900473ffffffffffffffffffffffffffffffffffffffff1673ffffffffffffffffffffffffffffffffffffffff16141515610d8957600080fd5b600060068054905014151561112a5760009150600460009054906101000a900473ffffffffffffffffffffffffffffffffffffffff1690505b600682815481101515610dd157fe5b9060005260206000209060040201600301548310158015610df25750600084115b1561112957600682815481101515610e0657fe5b90600052602060002090600402016001015484101515610fa75760006001811115610e2d57fe5b6000809054906101000a900460ff166001811115610e4757fe5b1415610f79578073ffffffffffffffffffffffffffffffffffffffff16638299ba74600684815481101515610e7857fe5b906000526020600020906004020160000160009054906101000a900473ffffffffffffffffffffffffffffffffffffffff16876001610ed6600688815481101515610ebf57fe5b906000526020600020906004020160010154611146565b610eff600689815481101515610ee857fe5b90600052602060002090600402016003015461116c565b60035460026040518863ffffffff167c0100000000000000000000000000000000000000000000000000000000028152600401610f429796959493929190612fb1565b600060405180830381600087803b158015610f5c57600080fd5b505af1158015610f70573d6000803e3d6000fd5b50505050610fa2565b600180811115610f8557fe5b6000809054906101000a900460ff166001811115610f9f57fe5b50505b61110a565b60006001811115610fb457fe5b6000809054906101000a900460ff166001811115610fce57fe5b14156110e0578073ffffffffffffffffffffffffffffffffffffffff16638299ba74600684815481101515610fff57fe5b906000526020600020906004020160000160009054906101000a900473ffffffffffffffffffffffffffffffffffffffff1687600161103d89611146565b61106660068981548110151561104f57fe5b90600052602060002090600402016003015461116c565b60035460026040518863ffffffff167c01000000000000000000000000000000000000000000000000000000000281526004016110a99796959493929190612fb1565b600060405180830381600087803b1580156110c357600080fd5b505af11580156110d7573d6000803e3d6000fd5b50505050611109565b6001808111156110ec57fe5b6000809054906101000a900460ff16600181111561110657fe5b50505b5b61111482856107a2565b80955081935050508180600101925050610dc2565b5b600084111561113f5761113e858585611504565b5b5050505050565b60606000606061115584611697565b915061116082611740565b90508092505050919050565b606060008060008060006060806103e88981151561118657fe5b0496506103e887029550858903945061119e87611697565b93506111a985611697565b92506111b484611740565b91506111bf83611740565b9050611201826040805190810160405280600181526020017f2e0000000000000000000000000000000000000000000000000000000000000081525083611865565b975050505050505050919050565b600060066080604051908101604052808673ffffffffffffffffffffffffffffffffffffffff168152602001858152602001428152602001848152509080600181540180825580915050906001820390600052602060002090600402016000909192909190915060008201518160000160006101000a81548173ffffffffffffffffffffffffffffffffffffffff021916908373ffffffffffffffffffffffffffffffffffffffff1602179055506020820151816001015560408201518160020155606082015181600301555050506112e8600661189d565b600460009054906101000a900473ffffffffffffffffffffffffffffffffffffffff1690508073ffffffffffffffffffffffffffffffffffffffff166380e55d626001858560016040518563ffffffff167c010000000000000000000000000000000000000000000000000000000002815260040161136a94939291906130aa565b600060405180830381600087803b15801561138457600080fd5b505af1158015611398573d6000803e3d6000fd5b5050505050505050565b60008280549050821015156113b6576114ff565b8190505b60018380549050038110156114995782600182018154811015156113da57fe5b906000526020600020906004020183828154811015156113f657fe5b90600052602060002090600402016000820160009054906101000a900473ffffffffffffffffffffffffffffffffffffffff168160000160006101000a81548173ffffffffffffffffffffffffffffffffffffffff021916908373ffffffffffffffffffffffffffffffffffffffff16021790555060018201548160010155600282015481600201556003820154816003015590505080806001019150506113ba565b8260018480549050038154811015156114ae57fe5b9060005260206000209060040201600080820160006101000a81549073ffffffffffffffffffffffffffffffffffffffff021916905560018201600090556002820160009055600382016000905550505b505050565b600060056080604051908101604052808673ffffffffffffffffffffffffffffffffffffffff168152602001858152602001428152602001848152509080600181540180825580915050906001820390600052602060002090600402016000909192909190915060008201518160000160006101000a81548173ffffffffffffffffffffffffffffffffffffffff021916908373ffffffffffffffffffffffffffffffffffffffff1602179055506020820151816001015560408201518160020155606082015181600301555050506115dd600561189d565b600460009054906101000a900473ffffffffffffffffffffffffffffffffffffffff1690508073ffffffffffffffffffffffffffffffffffffffff166380e55d626001858560006040518563ffffffff167c010000000000000000000000000000000000000000000000000000000002815260040161165f949392919061305e565b600060405180830381600087803b15801561167957600080fd5b505af115801561168d573d6000803e3d6000fd5b5050505050505050565b6000808214156116c9577f30000000000000000000000000000000000000000000000000000000000000009050611738565b5b60008211156117375761010081600190048115156116e457fe5b0460010290507f01000000000000000000000000000000000000000000000000000000000000006030600a8481151561171957fe5b06010260010281179050600a8281151561172f57fe5b0491506116ca565b5b809050919050565b606080600061174d612d94565b611755612d94565b60206040519080825280601f01601f1916602001820160405280156117895781602001602082028038833980820191505090505b5093505b60208310156118125785836020811015156117a457fe5b1a7f01000000000000000000000000000000000000000000000000000000000000000284848151811015156117d557fe5b9060200101907effffffffffffffffffffffffffffffffffffffffffffffffffffffffffffff1916908160001a905350828060010193505061178d565b61181b84611fdb565b915061185061183f6040805190810160405280600181526020016000815250611fdb565b82846120099092919063ffffffff16565b5061185a816120a7565b945050505050919050565b606061189484848460206040519081016040528060008152506020604051908101604052806000815250612109565b90509392505050565b6000600182805490501115156118b257611fd7565b600282805490501415611c09578160018154811015156118ce57fe5b9060005260206000209060040201600301548260008154811015156118ef57fe5b9060005260206000209060040201600301541015611c045781600181548110151561191657fe5b90600052602060002090600402016003015482600081548110151561193757fe5b90600052602060002090600402016003015483600081548110151561195857fe5b9060005260206000209060040201600301600085600181548110151561197a57fe5b906000526020600020906004020160030160008491905055839190505550508160018154811015156119a857fe5b9060005260206000209060040201600101548260008154811015156119c957fe5b9060005260206000209060040201600101548360008154811015156119ea57fe5b90600052602060002090600402016001016000856001815481101515611a0c57fe5b90600052602060002090600402016001016000849190505583919050555050816001815481101515611a3a57fe5b906000526020600020906004020160000160009054906101000a900473ffffffffffffffffffffffffffffffffffffffff16826000815481101515611a7b57fe5b906000526020600020906004020160000160009054906101000a900473ffffffffffffffffffffffffffffffffffffffff16836000815481101515611abc57fe5b90600052602060002090600402016000016000856001815481101515611ade57fe5b906000526020600020906004020160000160008491906101000a81548173ffffffffffffffffffffffffffffffffffffffff021916908373ffffffffffffffffffffffffffffffffffffffff1602179055508391906101000a81548173ffffffffffffffffffffffffffffffffffffffff021916908373ffffffffffffffffffffffffffffffffffffffff1602179055505050816001815481101515611b8057fe5b906000526020600020906004020160020154826000815481101515611ba157fe5b906000526020600020906004020160020154836000815481101515611bc257fe5b90600052602060002090600402016002016000856001815481101515611be457fe5b906000526020600020906004020160020160008491905055839190505550505b611c1d565b611c1c826000600185805490500361251e565b5b600090505b6001828054905003811015611fd6578160018201815481101515611c4257fe5b9060005260206000209060040201600301548282815481101515611c6257fe5b9060005260206000209060040201600301541415611fc9578160018201815481101515611c8b57fe5b9060005260206000209060040201600201548282815481101515611cab57fe5b9060005260206000209060040201600201541015611fc8578160018201815481101515611cd457fe5b9060005260206000209060040201600301548282815481101515611cf457fe5b9060005260206000209060040201600301548383815481101515611d1457fe5b906000526020600020906004020160030160008560018601815481101515611d3857fe5b906000526020600020906004020160030160008491905055839190505550508160018201815481101515611d6857fe5b9060005260206000209060040201600101548282815481101515611d8857fe5b9060005260206000209060040201600101548383815481101515611da857fe5b906000526020600020906004020160010160008560018601815481101515611dcc57fe5b906000526020600020906004020160010160008491905055839190505550508160018201815481101515611dfc57fe5b906000526020600020906004020160000160009054906101000a900473ffffffffffffffffffffffffffffffffffffffff168282815481101515611e3c57fe5b906000526020600020906004020160000160009054906101000a900473ffffffffffffffffffffffffffffffffffffffff168383815481101515611e7c57fe5b906000526020600020906004020160000160008560018601815481101515611ea057fe5b906000526020600020906004020160000160008491906101000a81548173ffffffffffffffffffffffffffffffffffffffff021916908373ffffffffffffffffffffffffffffffffffffffff1602179055508391906101000a81548173ffffffffffffffffffffffffffffffffffffffff021916908373ffffffffffffffffffffffffffffffffffffffff16021790555050508160018201815481101515611f4457fe5b9060005260206000209060040201600201548282815481101515611f6457fe5b9060005260206000209060040201600201548383815481101515611f8457fe5b906000526020600020906004020160020160008560018601815481101515611fa857fe5b906000526020600020906004020160020160008491905055839190505550505b5b8080600101915050611c22565b5b5050565b611fe3612d94565b600060208301905060408051908101604052808451815260200182815250915050919050565b612011612d94565b600061202f856000015186602001518660000151876020015161284d565b9050846020015183602001818152505084602001518103836000018181525050846000015185602001510181141561207157600085600001818152505061209c565b8360000151836000015101856000018181510391508181525050836000015181018560200181815250505b829150509392505050565b606080600083600001516040519080825280601f01601f1916602001820160405280156120e35781602001602082028038833980820191505090505b5091506020820190506120ff8185602001518660000151612933565b8192505050919050565b6060806060806060806060806000808e98508d97508c96508b95508a94508451865188518a518c51010101016040519080825280601f01601f1916602001820160405280156121675781602001602082028038833980820191505090505b50935083925060009150600090505b885181101561222957888181518110151561218d57fe5b9060200101517f010000000000000000000000000000000000000000000000000000000000000090047f01000000000000000000000000000000000000000000000000000000000000000283838060010194508151811015156121ec57fe5b9060200101907effffffffffffffffffffffffffffffffffffffffffffffffffffffffffffff1916908160001a9053508080600101915050612176565b600090505b87518110156122e157878181518110151561224557fe5b9060200101517f010000000000000000000000000000000000000000000000000000000000000090047f01000000000000000000000000000000000000000000000000000000000000000283838060010194508151811015156122a457fe5b9060200101907effffffffffffffffffffffffffffffffffffffffffffffffffffffffffffff1916908160001a905350808060010191505061222e565b600090505b86518110156123995786818151811015156122fd57fe5b9060200101517f010000000000000000000000000000000000000000000000000000000000000090047f010000000000000000000000000000000000000000000000000000000000000002838380600101945081518110151561235c57fe5b9060200101907effffffffffffffffffffffffffffffffffffffffffffffffffffffffffffff1916908160001a90535080806001019150506122e6565b600090505b85518110156124515785818151811015156123b557fe5b9060200101517f010000000000000000000000000000000000000000000000000000000000000090047f010000000000000000000000000000000000000000000000000000000000000002838380600101945081518110151561241457fe5b9060200101907effffffffffffffffffffffffffffffffffffffffffffffffffffffffffffff1916908160001a905350808060010191505061239e565b600090505b845181101561250957848181518110151561246d57fe5b9060200101517f010000000000000000000000000000000000000000000000000000000000000090047f01000000000000000000000000000000000000000000000000000000000000000283838060010194508151811015156124cc57fe5b9060200101907effffffffffffffffffffffffffffffffffffffffffffffffffffffffffffff1916908160001a9053508080600101915050612456565b82995050505050505050505095945050505050565b60008061252c85858561297e565b60009150600185805490500390505b808211151561284657848181548110151561255257fe5b906000526020600020906004020160030154858381548110151561257257fe5b906000526020600020906004020160030154868481548110151561259257fe5b9060005260206000209060040201600301600088858154811015156125b357fe5b9060005260206000209060040201600301600084919050558391905055505084818154811015156125e057fe5b906000526020600020906004020160010154858381548110151561260057fe5b906000526020600020906004020160010154868481548110151561262057fe5b90600052602060002090600402016001016000888581548110151561264157fe5b90600052602060002090600402016001016000849190505583919050555050848181548110151561266e57fe5b906000526020600020906004020160000160009054906101000a900473ffffffffffffffffffffffffffffffffffffffff1685838154811015156126ae57fe5b906000526020600020906004020160000160009054906101000a900473ffffffffffffffffffffffffffffffffffffffff1686848154811015156126ee57fe5b90600052602060002090600402016000016000888581548110151561270f57fe5b906000526020600020906004020160000160008491906101000a81548173ffffffffffffffffffffffffffffffffffffffff021916908373ffffffffffffffffffffffffffffffffffffffff1602179055508391906101000a81548173ffffffffffffffffffffffffffffffffffffffff021916908373ffffffffffffffffffffffffffffffffffffffff160217905550505084818154811015156127b057fe5b90600052602060002090600402016002015485838154811015156127d057fe5b90600052602060002090600402016002015486848154811015156127f057fe5b90600052602060002090600402016002016000888581548110151561281157fe5b90600052602060002090600402016002016000849190505583919050555050818060010192505080806001900391505061253b565b5050505050565b60008060008060008060008060008b97508c8b11151561291d5760208b1115156128d75760018b60200360080260020a03196001029550858a511694508a8d8d010393508588511692505b846000191683600019161415156128cf5783881015156128bc578c8c019850612923565b8780600101985050858851169250612898565b879850612923565b8a8a209150600096505b8a8d038711151561291c578a8820905080600019168260001916141561290957879850612923565b60018801975086806001019750506128e1565b5b8c8c0198505b5050505050505050949350505050565b60005b60208210151561295b5782518452602084019350602083019250602082039150612936565b6001826020036101000a0390508019835116818551168181178652505050505050565b60008060008492508391508183141561299657612d72565b8560028686038115156129a557fe5b0486018154811015156129b457fe5b90600052602060002090600402016003015490505b8183111515612d49575b8086848154811015156129e257fe5b9060005260206000209060040201600301541015612a075782806001019350506129d3565b5b8582815481101515612a1657fe5b906000526020600020906004020160030154811015612a3d57818060019003925050612a08565b8183111515612d44578582815481101515612a5457fe5b9060005260206000209060040201600301548684815481101515612a7457fe5b9060005260206000209060040201600301548785815481101515612a9457fe5b906000526020600020906004020160030160008986815481101515612ab557fe5b906000526020600020906004020160030160008491905055839190505550508582815481101515612ae257fe5b9060005260206000209060040201600101548684815481101515612b0257fe5b9060005260206000209060040201600101548785815481101515612b2257fe5b906000526020600020906004020160010160008986815481101515612b4357fe5b906000526020600020906004020160010160008491905055839190505550508582815481101515612b7057fe5b906000526020600020906004020160000160009054906101000a900473ffffffffffffffffffffffffffffffffffffffff168684815481101515612bb057fe5b906000526020600020906004020160000160009054906101000a900473ffffffffffffffffffffffffffffffffffffffff168785815481101515612bf057fe5b906000526020600020906004020160000160008986815481101515612c1157fe5b906000526020600020906004020160000160008491906101000a81548173ffffffffffffffffffffffffffffffffffffffff021916908373ffffffffffffffffffffffffffffffffffffffff1602179055508391906101000a81548173ffffffffffffffffffffffffffffffffffffffff021916908373ffffffffffffffffffffffffffffffffffffffff16021790555050508582815481101515612cb257fe5b9060005260206000209060040201600201548684815481101515612cd257fe5b9060005260206000209060040201600201548785815481101515612cf257fe5b906000526020600020906004020160020160008986815481101515612d1357fe5b9060005260206000209060040201600201600084919050558391905055505082806001019350508180600190039250505b6129c9565b81851015612d5d57612d5c86868461297e565b5b83831015612d7157612d7086848661297e565b5b5b505050505050565b604080519081016040528060008152602001600081525090565b604080519081016040528060008152602001600081525090565b6000612dba823561319c565b905092915050565b6000612dce82356131bc565b905092915050565b600080600060608486031215612deb57600080fd5b6000612df986828701612dae565b9350506020612e0a86828701612dc2565b9250506040612e1b86828701612dc2565b9150509250925092565b600060208284031215612e3757600080fd5b6000612e4584828501612dc2565b91505092915050565b60008060408385031215612e6157600080fd5b6000612e6f85828601612dc2565b9250506020612e8085828601612dc2565b9150509250929050565b612e9381613172565b82525050565b612ea2816131c6565b82525050565b612eb1816131d8565b82525050565b6000612ec282613167565b808452612ed68160208601602086016131ea565b612edf8161321d565b602085010191505092915050565b600081546001811660008114612f0a5760018114612f2a57612f6b565b607f600283041680865260ff198316602087015260408601935050612f6b565b60028204808652602086019550612f4085613155565b60005b82811015612f6257815481890152600182019150602081019050612f43565b80880195505050505b505092915050565b604082016000820151612f896000850182612fa2565b506020820151612f9c6020850182612fa2565b50505050565b612fab81613192565b82525050565b600060e082019050612fc6600083018a612e8a565b612fd36020830189612e8a565b8181036040830152612fe58188612eed565b90508181036060830152612ff98187612eb7565b9050818103608083015261300d8186612eb7565b905061301c60a0830185612fa2565b81810360c083015261302e8184612eed565b905098975050505050505050565b600060208201905081810360008301526130568184612eb7565b905092915050565b600060808201905081810360008301526130788187612eed565b90506130876020830186612fa2565b6130946040830185612fa2565b6130a16060830184612e99565b95945050505050565b600060808201905081810360008301526130c48187612eed565b90506130d36020830186612fa2565b6130e06040830185612fa2565b6130ed6060830184612ea8565b95945050505050565b600060408201905061310b6000830184612f73565b92915050565b60006020820190506131266000830184612fa2565b92915050565b60006040820190506131416000830185612fa2565b61314e6020830184612fa2565b9392505050565b60008160005260206000209050919050565b600081519050919050565b600073ffffffffffffffffffffffffffffffffffffffff82169050919050565b6000819050919050565b600073ffffffffffffffffffffffffffffffffffffffff82169050919050565b6000819050919050565b60006131d182613192565b9050919050565b60006131e382613192565b9050919050565b60005b838110156132085780820151818401526020810190506131ed565b83811115613217576000848401525b50505050565b6000601f19601f83011690509190505600a265627a7a72305820c66c9a94ac29f8fb99529bb149aeb134a401fbf046de48bd735190f19dc5a3e36c6578706572696d656e74616cf50037",
  "source": "// It doesen't work well\n\npragma experimental ABIEncoderV2;\n\nimport \"./QuickSortOrder.sol\";\nimport \"./Market.sol\";\nimport \"./Utils.sol\";\n\ncontract OrderBook is QuickSortOrder\n{\n    Utils.instrumentType instType;\n    string instrumentID;\n    string market;\n    uint settlementTimestamp;\n\n    address marketAddress;\n\n    // ASK are sell orders\n    Utils.order[] askOrders;\n    // BID are buy orders\n    Utils.order[] bidOrders;\n\n    modifier onlyMarket()\n    {\n        require (marketAddress == msg.sender);\n        _;\n    }\n\n    function OrderBook(string _instrumentID, string _market, Utils.instrumentType _instrumentType, uint _settlementTimestamp) public\n    {\n        instrumentID = _instrumentID;\n        market = _market;\n        instType = _instrumentType;\n        marketAddress = msg.sender;\n        settlementTimestamp = _settlementTimestamp;\n    }\n    // In this case we consider than _clearingMemberAddress is equals to _MarketMemberAddress\n    function addBuyOrder(address _clearingMemberAddress, uint _quantity, uint _price) public onlyMarket\n    {\n        if (askOrders.length != 0)\n        {\n            uint i = 0;\n            Market _marketContract = Market(marketAddress);\n\n            while (_price <= askOrders[i].price || _quantity > 0)\n            {\n                if (_quantity >= askOrders[i].quantity)\n                {\n                    if (instType == Utils.instrumentType.future)\n                    {\n                        _marketContract.addFutureToCCP(_clearingMemberAddress, askOrders[i].clearingMemberAddress, instrumentID, Utils.uintToString(askOrders[i].quantity), Utils.uintPriceToString(askOrders[i].price), settlementTimestamp, market);\n                    }\n                    else if (instType == Utils.instrumentType.swap)\n                    {\n                        //_marketContract.addSwapToCCP(_clearingMemberAddress, askOrders[i].clearingMemberAddress, instrumentID, Utils.uintToString(askOrders[i].quantity), Utils.uintPriceToString(askOrders[i].price), settlementTimestamp, market);\n                    }\n                }\n                else\n                {\n                    if (instType == Utils.instrumentType.future)\n                    {\n                        _marketContract.addFutureToCCP(_clearingMemberAddress, askOrders[i].clearingMemberAddress, instrumentID, Utils.uintToString(_quantity), Utils.uintPriceToString(askOrders[i].price), settlementTimestamp, market);\n                    }\n                    else if (instType == Utils.instrumentType.swap)\n                    {\n                        //_marketContract.addSwapToCCP(_clearingMemberAddress, askOrders[i].clearingMemberAddress, instrumentID, Utils.uintToString(_quantity), Utils.uintPriceToString(askOrders[i].price), settlementTimestamp, market);\n                    }\n                }\n                (i, _quantity) = removeAskFromOrderBook(i, _quantity);\n                i++;\n            }\n        }\n\n        if (_quantity > 0)\n        {\n          addBidToOrderBook(_clearingMemberAddress, _quantity, _price);\n        }\n    }\n\n    function addSellOrder(address _clearingMemberAddress, uint _quantity, uint _price) public onlyMarket\n    {\n        if (bidOrders.length != 0)\n        {\n            uint i = 0;\n            Market _marketContract = Market(marketAddress);\n\n            while (_price >= bidOrders[i].price && _quantity > 0)\n            {\n                if (_quantity >= bidOrders[i].quantity)\n                {\n                    if (instType == Utils.instrumentType.future)\n                    {\n                        _marketContract.addFutureToCCP(bidOrders[i].clearingMemberAddress, _clearingMemberAddress, instrumentID, Utils.uintToString(bidOrders[i].quantity), Utils.uintPriceToString(bidOrders[i].price), settlementTimestamp, market);\n                    }\n                    else if (instType == Utils.instrumentType.swap)\n                    {\n                        //_marketContract.addSwapToCCP(bidOrders[i].clearingMemberAddress, _clearingMemberAddress, instrumentID, Utils.uintToString(bidOrders[i].quantity), Utils.uintPriceToString(bidOrders[i].price), settlementTimestamp, market);\n                    }\n                }\n                else\n                {\n                    if (instType == Utils.instrumentType.future)\n                    {\n                        _marketContract.addFutureToCCP(bidOrders[i].clearingMemberAddress, _clearingMemberAddress, instrumentID, Utils.uintToString(_quantity), Utils.uintPriceToString(bidOrders[i].price), settlementTimestamp, market);\n                    }\n                    else if (instType == Utils.instrumentType.swap)\n                    {\n                        //_marketContract.addSwapToCCP(bidOrders[i].clearingMemberAddress, _clearingMemberAddress, instrumentID, Utils.uintToString(_quantity), Utils.uintPriceToString(bidOrders[i].price), settlementTimestamp, market);\n                    }\n                }\n                (i, _quantity) = removeBidFromOrderBook(i, _quantity);\n                i++;\n            }\n        }\n\n        if (_quantity > 0)\n        {\n            addAskToOrderBook(_clearingMemberAddress, _quantity, _price);\n        }\n    }\n\n    function addBidToOrderBook(address _clearingMemberAddress, uint _quantity, uint _price) internal\n    {\n        bidOrders.push(Utils.order(_clearingMemberAddress, _quantity, block.timestamp,  _price));\n        orderDecreasing(bidOrders);\n        Market _marketContract = Market(marketAddress);\n        _marketContract.addOrderEvent(instrumentID, _quantity, _price, 1);\n    }\n\n    function addAskToOrderBook(address _clearingMemberAddress, uint _quantity, uint _price) internal\n    {\n        askOrders.push(Utils.order(_clearingMemberAddress, _quantity, block.timestamp,  _price));\n        orderDecreasing(askOrders);\n        Market _marketContract = Market(marketAddress);\n        _marketContract.addOrderEvent(instrumentID, _quantity, _price, 0);\n    }\n\n    function removeAskFromOrderBook(uint i, uint quantity) returns (uint _i, uint _quantity)\n    {\n      Market _marketContract = Market(marketAddress);\n\n      if (_quantity >= askOrders[i].quantity)\n      {\n        quantity = quantity - askOrders[i].quantity;\n        _marketContract.removeOrderEvent(instrumentID, askOrders[i].quantity, askOrders[i].price, 0);\n        Utils.removeOrder(askOrders, i);\n        i--;\n      }\n      else if (_quantity < askOrders[i].quantity)\n      {\n        askOrders[i].quantity = askOrders[i].quantity - quantity;\n        _marketContract.removeOrderEvent(instrumentID, quantity, askOrders[i].price, 0);\n        quantity = 0;\n      }\n      _i = i;\n      _quantity = quantity;\n    }\n\n    function removeBidFromOrderBook(uint i, uint quantity) returns (uint _i, uint _quantity)\n    {\n      Market _marketContract = Market(marketAddress);\n\n      if (quantity >= bidOrders[i].quantity)\n      {\n        quantity = quantity - bidOrders[i].quantity;\n        _marketContract.removeOrderEvent(instrumentID, bidOrders[i].quantity, bidOrders[i].price, 1);\n        Utils.removeOrder(bidOrders, i);\n        i--;\n      }\n      else if (_quantity < bidOrders[i].quantity)\n      {\n        bidOrders[i].quantity = bidOrders[i].quantity - quantity;\n        _marketContract.removeOrderEvent(instrumentID, _quantity, bidOrders[i].price, 1);\n        quantity = 0;\n      }\n      _i = i;\n      _quantity = quantity;\n    }\n    function getInstrumentID() returns (string)\n    {\n      return instrumentID;\n    }\n\n    function getAskOrdersLength() returns (uint)\n    {\n      return askOrders.length;\n    }\n\n    function getBidOrdersLength() returns (uint)\n    {\n      return bidOrders.length;\n    }\n\n    function getAskOrders(uint i) public constant returns (Utils.marketOrder _marketOrder)\n    {\n        _marketOrder = Utils.marketOrder(askOrders[i].quantity, askOrders[i].price);\n    }\n\n    function getBidOrders(uint i) public constant returns (Utils.marketOrder _marketOrder)\n    {\n      _marketOrder = Utils.marketOrder(bidOrders[i].quantity, bidOrders[i].price);\n    }\n}\n",
  "sourcePath": "/home/dtm/Desktop/TFM/DAPPS/CompensationChamber/contracts/OrderBook.sol",
  "compiler": {
    "name": "solc",
    "version": "0.4.24+commit.e67f0147.Emscripten.clang"
  },
  "schemaVersion": "2.0.1",
  "updatedAt": "2018-07-20T12:33:16.400Z"
}