{
  "contractName": "PaymentRequest",
  "abi": [
    {
      "inputs": [
        {
          "name": "_value",
          "type": "uint256"
        },
        {
          "name": "_clearingMemberAddress",
          "type": "address"
        },
        {
          "name": "_compensationChamberAddress",
          "type": "address"
        },
        {
          "name": "_payType",
          "type": "uint256"
        }
      ],
      "payable": false,
      "stateMutability": "nonpayable",
      "type": "constructor"
    },
    {
      "constant": true,
      "inputs": [],
      "name": "getValue",
      "outputs": [
        {
          "name": "",
          "type": "uint256"
        }
      ],
      "payable": false,
      "stateMutability": "view",
      "type": "function"
    },
    {
      "constant": true,
      "inputs": [],
      "name": "getClearingMember",
      "outputs": [
        {
          "name": "",
          "type": "address"
        }
      ],
      "payable": false,
      "stateMutability": "view",
      "type": "function"
    },
    {
      "constant": true,
      "inputs": [],
      "name": "getOwner",
      "outputs": [
        {
          "name": "",
          "type": "address"
        }
      ],
      "payable": false,
      "stateMutability": "view",
      "type": "function"
    },
    {
      "constant": false,
      "inputs": [],
      "name": "pay",
      "outputs": [
        {
          "name": "",
          "type": "bool"
        }
      ],
      "payable": true,
      "stateMutability": "payable",
      "type": "function"
    },
    {
      "constant": true,
      "inputs": [],
      "name": "isPayed",
      "outputs": [
        {
          "name": "",
          "type": "bool"
        }
      ],
      "payable": false,
      "stateMutability": "view",
      "type": "function"
    }
  ],
  "bytecode": "0x608060405234801561001057600080fd5b506040516080806104d483398101806040528101908080519060200190929190805190602001909291908051906020019092919080519060200190929190505050600033600260016101000a81548173ffffffffffffffffffffffffffffffffffffffff021916908373ffffffffffffffffffffffffffffffffffffffff16021790555082600460006101000a81548173ffffffffffffffffffffffffffffffffffffffff021916908373ffffffffffffffffffffffffffffffffffffffff16021790555083600360006101000a81548173ffffffffffffffffffffffffffffffffffffffff021916908373ffffffffffffffffffffffffffffffffffffffff16021790555084600081905550816001819055506000600260006101000a81548160ff021916908315150217905550600460009054906101000a900473ffffffffffffffffffffffffffffffffffffffff1690508073ffffffffffffffffffffffffffffffffffffffff16639cef7a5b600054600360009054906101000a900473ffffffffffffffffffffffffffffffffffffffff166040518363ffffffff167c0100000000000000000000000000000000000000000000000000000000028152600401808381526020018273ffffffffffffffffffffffffffffffffffffffff1673ffffffffffffffffffffffffffffffffffffffff16815260200192505050600060405180830381600087803b15801561022b57600080fd5b505af115801561023f573d6000803e3d6000fd5b50505050505050505061027d806102576000396000f30060806040526004361061006d576000357c0100000000000000000000000000000000000000000000000000000000900463ffffffff1680631b9265b814610072578063209652551461009457806331b2ffaf146100bf5780634212ed2614610116578063893d20e814610145575b600080fd5b61007a61019c565b604051808215151515815260200191505060405180910390f35b3480156100a057600080fd5b506100a96101dd565b6040518082815260200191505060405180910390f35b3480156100cb57600080fd5b506100d46101e6565b604051808273ffffffffffffffffffffffffffffffffffffffff1673ffffffffffffffffffffffffffffffffffffffff16815260200191505060405180910390f35b34801561012257600080fd5b5061012b610210565b604051808215151515815260200191505060405180910390f35b34801561015157600080fd5b5061015a610227565b604051808273ffffffffffffffffffffffffffffffffffffffff1673ffffffffffffffffffffffffffffffffffffffff16815260200191505060405180910390f35b60008054341415156101ad57600080fd5b6001600260006101000a81548160ff021916908315150217905550600260009054906101000a900460ff16905090565b60008054905090565b6000600360009054906101000a900473ffffffffffffffffffffffffffffffffffffffff16905090565b6000600260009054906101000a900460ff16905090565b6000600260019054906101000a900473ffffffffffffffffffffffffffffffffffffffff169050905600a165627a7a7230582053af4396cd6c246904ac52ed50b70d6b16c51359a6aacfb3141bb2cfe3eb36bc0029",
  "source": "pragma solidity ^0.4.20;\n\nimport \"./Utils.sol\";\nimport \"./CompensationChamber.sol\";\n\n/**\n * Add oraclize API\n */\n//import \"installed_contracts/oraclize-api/contracts/usingOraclize.sol\";\nimport \"./usingOraclize.sol\";\ncontract PaymentRequest\n{\n    uint value;\n    uint payType;\n    bool payed;\n\n    address owner;\n    address clearingMemberAddress;\n    address compensationChamberAddress;\n\n    function PaymentRequest(uint _value, address _clearingMemberAddress, address _compensationChamberAddress, uint _payType) public\n    {\n        owner = msg.sender;\n        compensationChamberAddress = _compensationChamberAddress;\n        clearingMemberAddress = _clearingMemberAddress;\n        value = _value;\n        payType = _payType;\n        payed = false;\n        CompensationChamber _compensationChamberContract = CompensationChamber(compensationChamberAddress);\n        _compensationChamberContract.paymentRequest(value, clearingMemberAddress);\n    }\n\n    function getValue() view public returns(uint)\n    {\n        return value;\n    }\n\n    function getClearingMember() view public returns(address)\n    {\n        return clearingMemberAddress;\n    }\n\n    function getOwner() view public returns(address)\n    {\n        return owner;\n    }\n\n    function pay() public payable returns(bool)\n    {\n        require(msg.value == value);\n        payed = true;\n\n        return payed;\n    }\n\n    function isPayed() view public returns(bool)\n    {\n        return payed;\n    }\n}\n",
  "sourcePath": "/home/dtm/Desktop/TFM/DAPPS/CompensationChamber/contracts/PaymentRequest.sol",
  "compiler": {
    "name": "solc",
    "version": "0.4.24+commit.e67f0147.Emscripten.clang"
  },
  "schemaVersion": "2.0.1",
  "updatedAt": "2018-07-16T14:31:40.964Z"
}