{
  "contractName": "VariationMarginAutoExecution",
  "abi": [
    {
      "inputs": [
        {
          "name": "_timeUntilFirstVMRevisionInSeconds",
          "type": "uint256"
        }
      ],
      "payable": false,
      "stateMutability": "nonpayable",
      "type": "constructor"
    },
    {
      "constant": false,
      "inputs": [],
      "name": "computeVariationMargin",
      "outputs": [],
      "payable": false,
      "stateMutability": "nonpayable",
      "type": "function"
    },
    {
      "constant": false,
      "inputs": [
        {
          "name": "myid",
          "type": "bytes32"
        },
        {
          "name": "result",
          "type": "string"
        }
      ],
      "name": "__callback",
      "outputs": [],
      "payable": false,
      "stateMutability": "nonpayable",
      "type": "function"
    },
    {
      "constant": false,
      "inputs": [
        {
          "name": "myid",
          "type": "bytes32"
        },
        {
          "name": "result",
          "type": "string"
        },
        {
          "name": "proof",
          "type": "bytes"
        }
      ],
      "name": "__callback",
      "outputs": [],
      "payable": false,
      "stateMutability": "nonpayable",
      "type": "function"
    }
  ],
  "bytecode": "0x60806040526201518060055534801561001757600080fd5b50604051602080610ea68339810180604052810190808051906020019092919050505033600860006101000a81548173ffffffffffffffffffffffffffffffffffffffff021916908373ffffffffffffffffffffffffffffffffffffffff1602179055506001600660006101000a81548160ff0219169083151502179055508060078190555050610df9806100ad6000396000f300608060405260043610610057576000357c0100000000000000000000000000000000000000000000000000000000900463ffffffff16806327dc297e1461005c57806338bbfa50146100d35780638229be0914610190575b600080fd5b34801561006857600080fd5b506100d16004803603810190808035600019169060200190929190803590602001908201803590602001908080601f01602080910402602001604051908101604052809392919081815260200183838082843782019150505050505091929192905050506101a7565b005b3480156100df57600080fd5b5061018e6004803603810190808035600019169060200190929190803590602001908201803590602001908080601f0160208091040260200160405190810160405280939291908181526020018383808284378201915050505050509192919290803590602001908201803590602001908080601f01602080910402602001604051908101604052809392919081815260200183838082843782019150505050505091929192905050506101d3565b005b34801561019c57600080fd5b506101a56101d8565b005b6000600860009054906101000a900473ffffffffffffffffffffffffffffffffffffffff169050505050565b505050565b60011515600660009054906101000a900460ff1615151415610267576000600660006101000a81548160ff0219169083151502179055506102616007546040805190810160405280600381526020017f55524c000000000000000000000000000000000000000000000000000000000081525060206040519081016040528060008152506102c1565b506102bf565b6102bd620151806001026040805190810160405280600381526020017f55524c000000000000000000000000000000000000000000000000000000000081525060206040519081016040528060008152506102c1565b505b565b60008060008060009054906101000a900473ffffffffffffffffffffffffffffffffffffffff1673ffffffffffffffffffffffffffffffffffffffff161480610333575060006103316000809054906101000a900473ffffffffffffffffffffffffffffffffffffffff16610863565b145b1561034457610342600061086e565b505b6000809054906101000a900473ffffffffffffffffffffffffffffffffffffffff1673ffffffffffffffffffffffffffffffffffffffff166338cc48316040518163ffffffff167c0100000000000000000000000000000000000000000000000000000000028152600401602060405180830381600087803b1580156103c957600080fd5b505af11580156103dd573d6000803e3d6000fd5b505050506040513d60208110156103f357600080fd5b810190808051906020019092919050505073ffffffffffffffffffffffffffffffffffffffff16600160009054906101000a900473ffffffffffffffffffffffffffffffffffffffff1673ffffffffffffffffffffffffffffffffffffffff1614151561055b576000809054906101000a900473ffffffffffffffffffffffffffffffffffffffff1673ffffffffffffffffffffffffffffffffffffffff166338cc48316040518163ffffffff167c0100000000000000000000000000000000000000000000000000000000028152600401602060405180830381600087803b1580156104df57600080fd5b505af11580156104f3573d6000803e3d6000fd5b505050506040513d602081101561050957600080fd5b8101908080519060200190929190505050600160006101000a81548173ffffffffffffffffffffffffffffffffffffffff021916908373ffffffffffffffffffffffffffffffffffffffff1602179055505b600160009054906101000a900473ffffffffffffffffffffffffffffffffffffffff1673ffffffffffffffffffffffffffffffffffffffff1663524f3889856040518263ffffffff167c01000000000000000000000000000000000000000000000000000000000281526004018080602001828103825283818151815260200191508051906020019080838360005b838110156106055780820151818401526020810190506105ea565b50505050905090810190601f1680156106325780820380516001836020036101000a031916815260200191505b5092505050602060405180830381600087803b15801561065157600080fd5b505af1158015610665573d6000803e3d6000fd5b505050506040513d602081101561067b57600080fd5b8101908080519060200190929190505050905062030d403a02670de0b6b3a7640000018111156106b1576000600102915061085b565b600160009054906101000a900473ffffffffffffffffffffffffffffffffffffffff1673ffffffffffffffffffffffffffffffffffffffff1663adf59f99828787876040518563ffffffff167c0100000000000000000000000000000000000000000000000000000000028152600401808481526020018060200180602001838103835285818151815260200191508051906020019080838360005b8381101561076857808201518184015260208101905061074d565b50505050905090810190601f1680156107955780820380516001836020036101000a031916815260200191505b50838103825284818151815260200191508051906020019080838360005b838110156107ce5780820151818401526020810190506107b3565b50505050905090810190601f1680156107fb5780820380516001836020036101000a031916815260200191505b50955050505050506020604051808303818588803b15801561081c57600080fd5b505af1158015610830573d6000803e3d6000fd5b50505050506040513d602081101561084757600080fd5b810190808051906020019092919050505091505b509392505050565b6000813b9050919050565b600061087861087f565b9050919050565b60008061089f731d3b2638a7cc9f2cb3d298a3da7a90b67e5506ed610863565b111561094057731d3b2638a7cc9f2cb3d298a3da7a90b67e5506ed6000806101000a81548173ffffffffffffffffffffffffffffffffffffffff021916908373ffffffffffffffffffffffffffffffffffffffff1602179055506109376040805190810160405280600b81526020017f6574685f6d61696e6e6574000000000000000000000000000000000000000000815250610d0e565b60019050610d0b565b600061095f73c03a2615d5efaf5f49f60b7bb6583eaec212fdf1610863565b1115610a005773c03a2615d5efaf5f49f60b7bb6583eaec212fdf16000806101000a81548173ffffffffffffffffffffffffffffffffffffffff021916908373ffffffffffffffffffffffffffffffffffffffff1602179055506109f76040805190810160405280600c81526020017f6574685f726f707374656e330000000000000000000000000000000000000000815250610d0e565b60019050610d0b565b6000610a1f73b7a07bcf2ba2f2703b24c0691b5278999c59ac7e610863565b1115610ac05773b7a07bcf2ba2f2703b24c0691b5278999c59ac7e6000806101000a81548173ffffffffffffffffffffffffffffffffffffffff021916908373ffffffffffffffffffffffffffffffffffffffff160217905550610ab76040805190810160405280600981526020017f6574685f6b6f76616e0000000000000000000000000000000000000000000000815250610d0e565b60019050610d0b565b6000610adf73146500cfd35b22e4a392fe0adc06de1a1368ed48610863565b1115610b805773146500cfd35b22e4a392fe0adc06de1a1368ed486000806101000a81548173ffffffffffffffffffffffffffffffffffffffff021916908373ffffffffffffffffffffffffffffffffffffffff160217905550610b776040805190810160405280600b81526020017f6574685f72696e6b656279000000000000000000000000000000000000000000815250610d0e565b60019050610d0b565b6000610b9f736f485c8bf6fc43ea212e93bbf8ce046c7f1cb475610863565b1115610c0257736f485c8bf6fc43ea212e93bbf8ce046c7f1cb4756000806101000a81548173ffffffffffffffffffffffffffffffffffffffff021916908373ffffffffffffffffffffffffffffffffffffffff16021790555060019050610d0b565b6000610c217320e12a1f859b3feae5fb2a0a32c18f5a65555bbf610863565b1115610c84577320e12a1f859b3feae5fb2a0a32c18f5a65555bbf6000806101000a81548173ffffffffffffffffffffffffffffffffffffffff021916908373ffffffffffffffffffffffffffffffffffffffff16021790555060019050610d0b565b6000610ca37351efaf4c8b3c9afbd5ab9f4bbc82784ab6ef8faa610863565b1115610d06577351efaf4c8b3c9afbd5ab9f4bbc82784ab6ef8faa6000806101000a81548173ffffffffffffffffffffffffffffffffffffffff021916908373ffffffffffffffffffffffffffffffffffffffff16021790555060019050610d0b565b600090505b90565b8060029080519060200190610d24929190610d28565b5050565b828054600181600116156101000203166002900490600052602060002090601f016020900481019282601f10610d6957805160ff1916838001178555610d97565b82800160010185558215610d97579182015b82811115610d96578251825591602001919060010190610d7b565b5b509050610da49190610da8565b5090565b610dca91905b80821115610dc6576000816000905550600101610dae565b5090565b905600a165627a7a723058200ad9ff02f9130dbc2f304280478c01153043358294dc1fa5f7c4cccf7e17d1dd0029",
  "source": "pragma solidity ^0.4.20;\n\n/**\n * Add oraclize API\n */\nimport \"installed_contracts/oraclize-api/contracts/usingOraclize.sol\";\n\n/**\n * Allow Slice strings\n */\nimport \"./strings.sol\";\n\nimport \"./CompensationChamber.sol\";\n\ncontract VariationMarginAutoExecution is usingOraclize\n{\n      /**\n       * To enable strings.sol library\n       */\n      using strings for *;\n\n     /**\n      * Number os seconds in 24 h\n      */\n      uint private dayInSeconds = 86400;\n\n      bool firstQuery;\n\n      uint timeUntilFirstVMRevisionInSeconds;\n\n      address compensationChamberAddress;\n\n    function VariationMarginAutoExecution(uint _timeUntilFirstVMRevisionInSeconds) public\n    {\n        compensationChamberAddress = msg.sender;\n        firstQuery = true;\n        timeUntilFirstVMRevisionInSeconds = _timeUntilFirstVMRevisionInSeconds;\n    }\n\n    function computeVariationMargin()\n    {\n        if (firstQuery == true)\n        {\n            firstQuery = false;\n            oraclize_query(timeUntilFirstVMRevisionInSeconds, \"URL\", \"\");\n        }\n        else\n        {\n            oraclize_query(1*day, \"URL\", \"\");\n        }\n    }\n\n    function __callback(bytes32 myid, string result)\n    {\n       CompensationChamber _compensationChamberObject = CompensationChamber(compensationChamberAddress);\n       //_compensationChamberObject.computeVariationMargin();\n    }\n}\n",
  "sourcePath": "/home/david/Desktop/CompensationChamber/contracts/VariationMarginAutoExecution.sol",
  "compiler": {
    "name": "solc",
    "version": "0.4.24+commit.e67f0147.Emscripten.clang"
  },
  "schemaVersion": "2.0.1",
  "updatedAt": "2018-07-14T20:03:40.523Z"
}